:1000000000800020BD0100009D3000005530000040
:1000100055300000553000005530000055300000CC
:100020005530000055300000553000009D30000074
:100030009D300000553000009D300000453000002C
:100040009D3000009D3000009D3000009D3000007C
:100050009D3000009D3000009D3000009D3000006C
:100060009D3000009D3000009D3000009D3000005C
:100070009D3000009D3000009D3000009D3000004C
:100080009D3000009D3000009D3000009D3000003C
:100090009D3000009D3000009D3000009D3000002C
:1000A0009D3000009D3000009D3000009D3000001C
:1000B0009D3000009D3000009D3000009D3000000C
:1000C0009D3000009D3000009D3000009D300000FC
:1000D0009D3000009D3000009D3000009D300000EC
:1000E0009D3000009D3000009D3000009D300000DC
:1000F0009D300000A13700009D300000E13E00006F
:100100009D300000ED4400009D3000009D30000057
:100110009D3000009D3000009D3000009D300000AB
:100120009D3000009D3000009D3000009D3000009B
:100130009D3000009D300000711500009D300000D2
:100140009D3000009D3000009D3000009D3000007B
:10015000FD2B0000112C0000252C0000392C000084
:100160009D300000F11B00009D3000009D3000001C
:100170009D3000009D3000009D3000009D3000004B
:100180009D3000009D3000009D3000009D3000003B
:100190009D3000009D3000009D3000009D3000002B
:1001A0009D3000009D3000009D3000009D3000001B
:1001B0009D3000009D3000009D300000564B4CF2F9
:1001C000205210B51A804DF628121A8000BF00BFC9
:1001D00002F068FF514B4FF010621A60504A9A606B
:1001E000504ADA60504A136813F4807304D14F49BF
:1001F0000B604FF4A85313604D4B1A78110703D5C9
:100200001A7842F008021A704A4B4B492A221A7097
:100210004A4A4B4B8B4204D252F8040F43F8040B6A
:10022000F8E7484B484900228B4202D243F8042B9E
:10023000FAE74649464A002352F8230041F82300D2
:1002400001336F2BF8D1434B434A802103F8011B44
:100250009342FBD1414B3D4A1A60414B8A221A70AE
:10026000A3F5805324225A70A0221A709A7992071B
:10027000FCD59A79D406FCD43A4A937903F00C035E
:10028000082B384BF9D103221A7140225A719A79FE
:100290009006FCD5334A9179324B4906FBD5324A58
:1002A000324911600221516020221A709A7902F0BD
:1002B0000C020C2AFAD12E4B2E4A1A602E4B2F4AD2
:1002C0001A6000225A60072243F8042C2C4AC3F813
:1002D0000C2D62B601F010FA144B1B68DA0705D535
:1002E000284801F0F7F9284B284A1A60284B1B7858
:1002F0005B0609D5244C254B22689A4204D121483B
:1003000001F0E8F90023236005F050FB02F0D0FE75
:1003100002F036FDFEE700BF0E20054030800440AD
:10032000823F04000100002B10D0034014D0034092
:1003300002D0074000E00740A891FF1F70A900000D
:100340002087FF1FA891FF1FBC95FF1F0082FF1F82
:100350000000000000E400E05FE400E008ED00E0E1
:100360000050064000400640448004400000030165
:1003700004800440C010050014E000E0FF76010096
:1003800000002020F7A939591CE00340A5C3945A66
:1003900000F00740FFFFFFFFFFFFFFFFFFFFFFFF32
:1003A000FFFFFFFFFFFFFFFFFFFFFFFFFFFFFFFF5D
:1003B000FFFFFFFFFFFFFFFFFFFFFFFFFFFFFFFF4D
:1003C000FFFFFFFFFFFFFFFFFFFFFFFFFFFFFFFF3D
:1003D000FFFFFFFFFFFFFFFFFFFFFFFFFFFFFFFF2D
:1003E000FFFFFFFFFFFFFFFFFFFFFFFFFFFFFFFF1D
:1003F000FFFFFFFFFFFFFFFFFFFFFFFFFFFFFFFF0D
:10040000FFFFFFFFFFFFFFFFFFFFFFFFDEF9FFFF23
:1004100010B5054C237833B9044B13B10448AFF33E
:1004200000800123237010BDA891FF1F0000000071
:100430006CA90000084B10B51BB108490848AFF380
:1004400000800848036803B910BD074B002BFBD0A0
:10045000BDE81040184700BF00000000AC91FF1F2E
:100460006CA90000A891FF1F00000000064A128836
:1004700082810A21002281730260027182604263DC
:10048000C27380F830207047789F000070B50E4628
:1004900001790131044609010068154605F05EFE48
:1004A00023792060082200EB0310314606F026F97C
:1004B0002279236803EB0213DD6023790133237172
:1004C00070BD00BF816070472DE9F84F064600F10E
:1004D000340900F10C08002702F0D0F900281ADDD9
:1004E00002F090F9B37BC4B2A34216D0204605F0C7
:1004F00085FA0028F0D096F830301F2BECD85A1C23
:10050000D2B2B118334486F83020DC73CF7302F0D6
:10051000B5F90028E4DCBDE8F88F4A46414606F10B
:100520000F0006F051F98246A8B196F804B0BBF16D
:10053000000F14D03468002503E05D4504F1100479
:100540000DD008222146504606F088F801350028D3
:10055000F3D1E3689847F77386F83070BCE7B36867
:10056000002BF8D050469847F5E700BF00F1340261
:1005700000F10C01002006F027B900BF10B4436859
:100580000C680168D80706D55B10E018E35810BC6A
:100590005B581178184704EB63000B4610BC1178C8
:1005A000184700BF02460249024802F0A5BB00BF3F
:1005B000889F00009C93FF1F00B50B490B4883B038
:1005C00002F09AFB0A48019083680B228DF8032001
:1005D0003BB1C3680DF1030201A9984703B05DF870
:1005E00004FB00F033FF00BF9C9F00009C93FF1FA3
:1005F000D091FF1F00B50B490B4883B002F07CFB84
:100600000A480190836803228DF803203BB1C36838
:100610000DF1030201A9984703B05DF804FB00F057
:1006200015FF00BFA89F00009C93FF1FD091FF1FE4
:1006300000B50B490B4883B002F05EFB0A480190FD
:10064000836802228DF803203BB1C3680DF10302D9
:1006500001A9984703B05DF804FB00F0F7FE00BF66
:10066000B49F00009C93FF1FD091FF1F00B50C4961
:100670000C4883B002F040FB0B48019083684FF0B8
:100680000041002241648DF803203BB1C3680DF1A5
:10069000030201A9984703B05DF804FB00F0D6FE01
:1006A000BC9F00009C93FF1FD091FF1F00B50C4919
:1006B0000C4883B002F020FB0B48019083686FF078
:1006C0000041002241648DF803203BB1C3680DF165
:1006D000030201A9984703B05DF804FB00F0B6FEE1
:1006E000C49F00009C93FF1FD091FF1F10B51048BE
:1006F00082B0FFF73BFFB0B105F048F9044622464F
:100700000C490D4802F0F8FA0C48019083684464E3
:1007100009228DF8032043B1C3680DF1030201A93A
:10072000984702B010BD0446E9E700F08FFE00BF15
:100730002092FF1FCC9F00009C93FF1FD091FF1FB2
:1007400010B5074B03610446383002F041FAA36844
:100750001BB10322214620469847204610BD00BF0A
:10076000849F000038B5274D274B2A681B689A42A2
:1007700031D2264B1B68DB033ED4254B4FF480322D
:100780001A60244A244B11681868244C02F0C2FAFB
:100790002B68002203442B60226004F091FE204964
:1007A000656804F0E1FE1F4904F0DEFE4FF074516D
:1007B00004F0DAFE4FF07C5104F0CEFD05F09AF81B
:1007C0000D23284420612360E368502223F0800336
:1007D000E360E26038BD144B1B7833B9134B4FF420
:1007E00080321A6000232B6038BD094B4FF48032F1
:1007F0001A6000232B6038BD0C4B4FF480321A6016
:10080000BFE700BF5C92FF1F3887FF1F50F00F400B
:1008100044F00F403087FF1F3487FF1F00800340E4
:10082000BD378635001B374CC591FF1F48F00F4080
:1008300038B5274D274B2A681B689A4231D2264B80
:100840001B689B033ED4254B4FF400321A60244AA8
:10085000244B11681868244C02F05CFA2B680022C3
:1008600003442B60226004F02BFE2049656804F0ED
:100870007BFE1F4904F078FE4FF0745104F074FEC3
:100880004FF07C5104F068FD05F034F80D23284446
:10089000A06123606369502223F080036361626179
:1008A00038BD144B1B7833B9134B4FF400321A6028
:1008B00000232B6038BD094B4FF400321A6000232F
:1008C0002B6038BD0C4B4FF400321A60BFE700BFFD
:1008D0005892FF1F2C87FF1F50F00F4044F00F402D
:1008E0002487FF1F2887FF1F00800340BD37863500
:1008F000001B374CC491FF1F48F00F40012A0346EC
:1009000007D0022A03D110B103C983E803000020F5
:10091000704701600020704710B5104882B0FFF7A3
:1009200025FEB0B105F032F8044622460C490D48C8
:1009300002F0E2F90C4801908368446400228DF8CB
:10094000032043B1C3680DF1030201A9984702B027
:1009500010BD0446E9E700F079FD00BF2092FF1FBB
:10096000D89F00009C93FF1FD091FF1F10B5104827
:1009700082B0FFF7FBFDB0B105F008F8044622464F
:100980000C490D4802F0B8F90C48019083684464A2
:1009900005228DF8032043B1C3680DF1030201A9BC
:1009A000984702B010BD0446E9E700F04FFD00BFD4
:1009B0002092FF1FE49F00009C93FF1FD091FF1F18
:1009C00010B5114882B0FFF7D1FDC0B104F0DEFFD1
:1009D000044622460D490E4802F08EF90D4801905A
:1009E000C26983681444002244648DF8032043B133
:1009F000C3680DF1030201A9984702B010BD044677
:100A0000E7E700F023FD00BF2092FF1FF09F0000EA
:100A10009C93FF1FD091FF1F10B5104882B0FFF7C5
:100A2000A5FDB0B104F0B2FF044622460C490D48C2
:100A300002F062F90C4801908368446404228DF846
:100A4000032043B1C3680DF1030201A9984702B026
:100A500010BD0446E9E700F0F9FC00BF2092FF1F3B
:100A6000FC9F00009C93FF1FD091FF1F10B5104802
:100A700082B0FFF77BFDB0B104F088FF0446224648
:100A80000C490D4802F038F90C4801908368446421
:100A900006228DF8032043B1C3680DF1030201A9BA
:100AA000984702B010BD0446E9E700F0CFFC00BF54
:100AB0002092FF1F0CA000009C93FF1FD091FF1FEE
:100AC00010B5104882B0FFF751FDB0B104F05EFFE1
:100AD000044622460C490D4802F00EF90C480190DC
:100AE0008368446407228DF8032043B1C3680DF185
:100AF000030201A9984702B010BD0446E9E700F0DF
:100B0000A5FC00BF2092FF1F18A000009C93FF1FB0
:100B1000D091FF1F10B5104882B0FFF727FDB0B18C
:100B200004F034FF044622460C490D4802F0E4F874
:100B30000C4801908368446408228DF8032043B177
:100B4000C3680DF1030201A9984702B010BD044625
:100B5000E9E700F07BFC00BF2092FF1F28A0000007
:100B60009C93FF1FD091FF1F10B5344C34480621D1
:100B700001F0AEFE204602F07DF82621314801F05A
:100B8000A7FE204602F076F826212F4801F0A0FEAD
:100B9000204602F06FF82A212C4801F099FE2046E9
:100BA00002F068F82D212A4801F092FE204602F05A
:100BB00061F83421274801F08BFE204602F05AF8F4
:100BC0002221254801F084FE204602F053F84821F6
:100BD000224801F07DFE204602F04CF837212048E3
:100BE00001F076FE204602F045F82E211D4801F066
:100BF0006FFE204602F03EF852211B4801F068FECD
:100C0000204602F037F84C21184801F061FE2046DA
:100C100002F030F84D21164801F05AFE204602F04D
:100C200029F81B21134801F053FE204602F022F858
:100C30002046BDE8104002F01DB800BF9C93FF1F86
:100C400034A000003CA0000064A000008CA00000C4
:100C5000B8A00000E8A0000020A1000044A100000E
:100C600090A10000C8A10000F8A100004CA2000063
:100C70009CA20000ECA20000C368026B03F0010319
:100C8000063300EB830370B55B681360C36813F031
:100C9000010F0446036948D0012B48D05749584DED
:100CA00058480A782E68006882F0010286420A706D
:100CB00080F08180544B1B689A0300F18480534B71
:100CC0004FF400321A60524A524B11681868524E63
:100CD00002F020F82B68002203442B60326004F0FD
:100CE000EFFB4E49756804F03FFC4D4904F03CFCB5
:100CF0004FF0745104F038FC4FF07C5104F02CFBA1
:100D000004F0F8FD0D232844B06133607269236953
:100D100022F08002502172617161E16862690B44C6
:100D2000E360E368934262D070BD012BB6D03D49C9
:100D30003D4D3E480A782E68006882F001028642E6
:100D40000A7032D2304B1B68DB0346D42F4B4FF472
:100D500080321A60364A374B116818682E4E01F0FF
:100D6000D9FF2B68002203442B60326004F0A8FBFB
:100D70002A49756804F0F8FB294904F0F5FB4FF0A7
:100D8000745104F0F1FB4FF07C5104F0E5FA04F0EB
:100D9000B1FD0D23284430613360F268236922F0ED
:100DA00080025021F260F160B7E7DAB1174A4FF4E0
:100DB0008031116004E05AB91F4A4FF400311160CC
:100DC00000222A60A9E71C4B4FF400321A607AE730
:100DD0000E4A4FF400311160F2E7174B4FF48032A6
:100DE0001A60B7E7144A4FF480311160E8E7226BCC
:100DF000936823F00203936070BD00BFC491FF1F8E
:100E00005892FF1F2C87FF1F50F00F4044F00F40F7
:100E10002487FF1F2887FF1F00800340BD378635CA
:100E2000001B374CC591FF1F5C92FF1F3887FF1FC7
:100E30003087FF1F3487FF1F48F00F40F0B504468E
:100E400087B00D2900F2F880DFE811F07800F60095
:100E5000F600B100B700BA00DC00E400EA00F000E0
:100E6000F6003F00F6003D007C497D4F284604F027
:100E700037FD002840F0E8807A4E7B49284604F090
:100E800011FD00B1784D3146284604F06DFB7349E1
:100E900004F01EFC7349054604F004FD002800F030
:100EA000D480704952265025E562384604F052FA43
:100EB00004F046FD2063304404F0FEFA01466B481E
:100EC00004F006FCA06207B0F0BDC56A284604F035
:100ED000F3FA674904F048FB0646206B284404F007
:100EE000EBFA0146304604F0F3FB0546A06A03F036
:100EF00029FF02460B465F485F4901F0FDFE284688
:100F000003F020FF02460B465A485C4901F0F4FE0C
:100F10005B4B5C491A68574801F0EEFE5A4B5B493F
:100F20001A68544801F0E8FE594B5A491A6851486A
:100F300001F0E2FE4F4801F09DFEC4E7426CC36938
:100F40009A4214D0C069E369626203F00103063378
:100F500004EB8303216C8242B4BF4FF0FF320122C5
:100F600058692262032300228A6008608B604A4B22
:100F700002930023039302AB93E803008DE8030080
:100F800094E8030083E803009DE80300A568E66891
:100F9000424F434A049584E80300A7600596E26047
:100FA000002D90D0032219461846A8478BE7C26946
:100FB0003C49304801F0A0FE85E7436CC36182E7FD
:100FC000406C04F07DFAA56960610146364804F082
:100FD0007FFB4FF07E5104F0BDF92249064604F034
:100FE00061FC00287FF440AF3146304604F0B4F98C
:100FF0001A490746284604F073FC00283FF43DAF29
:10100000164D40E7406C04F05BFA6169A06105464B
:101010002548DCE71A49254A436C0B60136052E708
:101020001949234A436C0B6013604CE71849214A65
:10103000436C0B60136046E711211F4801F048FC28
:101040000C4801F017FE3EE7064D284604F078FCF8
:101050000546861C04F030FA014625E70000B4423C
:10106000000020430000A0420000A040001BB74C3D
:10107000000034439C93FF1F10A3000028A300002E
:101080003887FF1F40A300003487FF1F58A30000CC
:101090003087FF1F70A30000BD100000FD08000096
:1010A0007D05000008A30000001B374C2C87FF1FA4
:1010B0002887FF1F2487FF1F88A30000022961D013
:1010C000F0B50D2989B0044623D041B11121304833
:1010D00001F0FEFB2F4801F0CDFD09B0F0BD426CE0
:1010E000C3699342F9D0C569C369006C626203F0B9
:1010F0000103063304EB8303AA42ACBF01224FF085
:10110000FF325D692262032381600560836009B05C
:10111000F0BD214A214B116800910099186888425E
:10112000DBD21168226C01910199926802F00302EE
:10113000C831032A19601ED0194B0493002305936C
:1011400004AB93E8030002AA82E8030094E80300DA
:1011500083E8030092E80300A568E668114F124A8D
:10116000069584E80300A7600796E2601DB103229C
:1011700019461846A847E2690C49064801F0BCFD2B
:1011800009B0F0BD026C936823F0020393607047CE
:1011900088A300009C93FF1F9892FF1F6092FF1F7F
:1011A0003D0E0000FD0800007D05000008A30000C2
:1011B000F8B5484C484A4949494F4A4D4A4E20469D
:1011C000FFF764F92046494A4949FFF75FF920468D
:1011D000484A4949FFF75AF92046484A4849FFF723
:1011E00055F92046474A4849FFF750F92046474AF3
:1011F0004749FFF74BF92046464A4749FFF746F96A
:101200002046464A4649FFF741F92046454A4649A5
:10121000FFF73CF92046454A4549FFF737F9204694
:10122000444A4549FFF732F92046444A4449FFF70A
:101230002DF92046434A4449FFF728F920463A460B
:101240004249FFF723F93A4620464149414FFFF70B
:101250001DF920464049414CFFF734F91022294638
:1012600005F1280000F0D2F900F00CF9012100206E
:1012700000F05AFB4FF4803333600021384800F00F
:1012800061F90121084600F04FFB4FF400330121C2
:1012900033603448344E00F055F9A5F11001334B5A
:1012A0008B610023CB61324B4B618B62DFF8D0E066
:1012B000304B314D3148CB620B634FF4967241F2A3
:1012C00088311E23CEF80010396032602A60236016
:1012D0000360F8BD2092FF1F190900009CA30000C5
:1012E000690B0000E091FF1F48F00F40C1090000AA
:1012F000A0A30000AD060000A4A300006D0600003E
:10130000A8A3000031060000B0A30000F50500000E
:10131000B8A30000190A0000C0A300006D09000076
:10132000C8A300006D0A0000D0A30000C10A00009D
:10133000D8A30000150B0000E0A30000ED0600009C
:10134000E8A30000B9050000F0A30000F8A3000026
:1013500000A400002C87FF1FA50500003487FF1F95
:1013600065070000310800003087FF1F0000B4420D
:1013700000004842FFA50E002487FF1F2887FF1F9B
:101380003887FF1F00B50A4883B0FFF79DF809486A
:10139000019083680D228DF803203BB1C3680DF1E5
:1013A000030201A9984703B05DF804FB00F04EF872
:1013B0002092FF1FD091FF1FF8B5184B1A68D20773
:1013C00025D5174D2B6813F0010300D0F8BD154C3F
:1013D000154F164E16491748A36380224FF0000E92
:1013E0002364636027616661134F144E84F83C20C8
:1013F00001232160A061C4F828E02046A760E660D0
:101400002B600F4A0F49BDE8F84004F0B9BA012239
:101410000D481A60FFF72AF8D3E700BFCC91FF1FF1
:10142000C891FF1FD091FF1F849F00000000204142
:101430003D0E00000000B442FD0800007D050000E4
:101440002087FF1F410700002092FF1F08B50121E0
:101450000D2000F069FA084C084E094D03E02B609E
:10146000642000F09DFA236813F0200F4FF0200352
:10147000F5D120233360F3E790F00F4084F00F4064
:1014800088F00F402C4A2D4B00204FF6FF7170B4AE
:1014900010609160D1682A4C21F08001D160D06841
:1014A000102120F04000D060D160D86820F080008A
:1014B000D860D86820F04000D860D960586920F022
:1014C00080005861586920F0400058615961D8691E
:1014D00020F08000D861D86920F04000D861D9613F
:1014E000586A20F080005862586A20F04000586224
:1014F0005962D86A20F08000D862D86A20F0400093
:10150000D862D962586B20F080005863586B20F085
:10151000400058635963D86B20F08000D863D86BC3
:101520000D264FF0804520F04000D863D963166047
:10153000256070BC704700BF0080034008800340F6
:1015400004E100E00029024604DB074B084643F8AB
:1015500021207047054B1968481C1860024B08464B
:1015600043F82120704700BF6492FF1F8492FF1F41
:10157000134B70B51C6D14F00F041FD0114E0025D5
:1015800003E0640805F1010518D0EB0003F1804386
:10159000E10703F56033F4D5DA6822F08002DA60FF
:1015A000DA685206EDD5DA6856F8251022F04002C6
:1015B000DA608847640805F10105E6D170BD00BF17
:1015C000008003406492FF1F704700BF024B186801
:1015D00003681B68184700BF8892FF1F024B5868BA
:1015E00003681B68184700BF8892FF1F024B98686A
:1015F00003681B68184700BF8892FF1F024BD8681A
:1016000003681B68184700BF8892FF1FF8B50D4696
:1016100017462249224A044601F08CFA064638B39E
:1016200022682771002A34D01E4B1F4913441B1116
:101630005F542268002A2CD01A4B13441B114433E8
:10164000DBB2443B032B24D8DFE803F014191E025D
:10165000164B1749A3600320164B114A43F820503C
:10166000204601F067FAA268936823F002039360B2
:101670003046F8BD104BA36010490020ECE7104B3A
:10168000A36010490120E7E70F4BA3600F49022038
:10169000E2E700210E48A160DEE700BFC9150000A7
:1016A000006CDC02008FFCBF44E400E030710340BA
:1016B000FD1500008892FF1F00710340CD1500004A
:1016C00010710340DD15000020710340ED1500008E
:1016D000F0C8FFFB30B4054B054D064C002210212D
:1016E0001A602A602060196030BC704714D0034033
:1016F00004D0034000D003402DE9F8436A4B6B4906
:101700006B4E6C4D6C4CDFF8D0C1DFF8D0E16B4A0A
:101710006B4F4FF4000018604FF0807018604FF06E
:10172000007018604FF0806018604FF00060186023
:101730000020086028234BF6FF71CCF80010CEF88B
:101740000030336013602B6023603B60B3629362B0
:10175000092245F8242CC4F8D80F05F57F65C7F891
:10176000D41F07F5FF2707F5FA67C6F8F83F2B6087
:1017700006F5FF26C4F8D42F05F5FD2504F5FF2452
:10178000386006F2F4764F48316005F5FF6504F5E0
:10179000FD642B602360026001F0E4FB72B64A4DE9
:1017A0004A4B4B4A1B682C68126862B6510102D53D
:1017B000322B88BF0134C3F5BB33464FDFF80C91A1
:1017C000DFF80C81FF334FF47A72A7FB031302FB9F
:1017D00004F404EB9314322672B6D9F800102A6888
:1017E000D8F800E062B6C1F5BB33FF33A7FB0303B3
:1017F0001EF0806FC4EB93134FF47A7002D032293D
:1018000088BF013200FB0233B3F57A7F04D3013E77
:1018100005D004F57A74DFE701F0DCFADCE700F0CC
:101820003FFF72B6294B2A4A1B682C68126862B6C1
:10183000520102D5322B88BF0134C3F5BB33254F8B
:10184000DFF88890DFF88880FF334FF47A72A7FBC7
:10185000031302FB04F404EB93144FF4AF7672B657
:10186000D9F800102A68D8F800E062B6C1F5BB3399
:10187000FF33A7FB03031EF0806FC4EB93134FF4F9
:101880007A7002D0322988BF013200FB0233B3F5EF
:101890007A7F04D3013E05D004F57A74DFE701F0C6
:1018A00099FADCE7BDE8F88308E100E00480034032
:1018B00014800340248003402C8003401C8003409C
:1018C0003480034000800B409892FF1F18E000E036
:1018D00004ED00E0ABAAAAAA088003400C800340F4
:1018E00021280BD810B40F4B53F8302092F88042C7
:1018F0002CB1012369B182F8803010BC704703EB32
:10190000C00043681A6841B922F002021A6010BC94
:10191000F4E782F8003110BCF0E742F003021A60ED
:1019200010BCEBE704A40000212820D81B4A02EBDE
:10193000C00301295B680FD004291DD052F8300084
:10194000002280F8802299B1022922D003290DD1EA
:101950004FF481721A60704752F830004FF4A2724F
:1019600080F880121A601A6822F020021A6070470C
:101970004FF480721A60704752F830104FF4A27220
:10198000012081F880021A601A6842F020021A6071
:10199000704740F203121A60704700BF04A40000B1
:1019A0002DE9F843054672B6204F214B214A1B68AA
:1019B0003C68126862B6520102D5322B88BF0134EE
:1019C00095B3C3F5BB331C4EDFF86490DFF8648039
:1019D000FF334FF47A72A6FB031302FB04F404EB0B
:1019E000931472B6D9F800103A68D8F800E062B6DD
:1019F000C1F5BB33FF33A6FB03031EF0806FC4EBBE
:101A000093134FF47A7002D0322988BF013200FB61
:101A10000233B3F57A7F04D3013D05D004F57A741F
:101A2000DFE701F0D7F9DCE7BDE8F8839892FF1F04
:101A300018E000E004ED00E0ABAAAAAA431E032BC5
:101A400014D872B60A4951F8230068B170B4094C31
:101A5000058834F81320466841F82360521B24F8A7
:101A6000132062B670BC704762B6704700207047A2
:101A7000F492FF1FA495FF1F013803280BD872B6FC
:101A8000074B53F8203043B100205B680130002B36
:101A9000FBD162B67047002070471846F9E700BFD7
:101AA0004893FF1F30B472B62B4A13781D0706D532
:101AB0002A4B196A002936D0996A002941D05378F7
:101AC0001C0706D5254B196C00293ED0996C0029BE
:101AD00039D09378190705D5204B196E002936D0D7
:101AE000996E89B1D3781B0707D51C4BD3F880209A
:101AF0007AB3D3F8882011213AB162B6184B00228C
:101B00001A7030BC00F058BE0D21154C154D2278CE
:101B100043F8315003EBC1030830013A586022709A
:101B200062B630BC704704220D4C0F4D217843F84B
:101B3000325003EBC20308304A1E5860227062B66E
:101B4000EFE70521E1E70921DFE70822ECE70C22B6
:101B5000EAE71022E8E700BF3CA500000080FF1F75
:101B60007193FF1FC800400088004000431E032BF4
:101B70001DD81B4A400140F0100030B4104472B62A
:101B8000184CE25C032A1BD8DFE802F0021215179A
:101B900003220D88E25410F0080F14BFC8238823D5
:101BA00043EA054308310360416062B630BC7047C8
:101BB00008300222EDE70522EBE708300422E8E7CF
:101BC000094A52F8230038B1084A52F8230041600C
:101BD00042F8231062B6E9E742F82310034AF7E718
:101BE0000080FF1F8093FF1F4893FF1F5893FF1F24
:101BF0002DE9F04FDFF808B3DFF808A387B044E021
:101C0000AA4F4FEA930807EBC809013ED9F8042010
:101C100003F00803F6B2A2F1080003F0FF04002B62
:101C200040F0008157F838301B0C99B222F8081C9C
:101C3000002B00F0EE809E4B22F8064C42F8044C3C
:101C400053F82620002A00F0C3829A4D55F826301A
:101C50005860994C45F8260034F81630194424F899
:101C6000161000F089FD002800F0AB82934A944BD7
:101C700019F0080F00F1080018BF1346C9F8040056
:101C800047F8383008238BF800309BF80040E4B266
:101C900061071AD58B4B1B78A3B18B490A7802F0E8
:101CA000FF0322B1013BDBB20B7003B900BE8749D1
:101CB0000A7802F0FF032AB1013BDBB20B70002B64
:101CC00000F0558204238BF8003004F0080303F081
:101CD000FF02002B00F0CA809AF80030DBB21E0928
:101CE0008ED19C08DFF8C49159F8342009EBC40167
:101CF000C2F38302013A49680C2A00F28680DFE8C9
:101D000002F07A7A848484848484458484840700FD
:101D100008686F4D4A686F4F6F4E286081B240F27D
:101D20008160664B6A604FF0010E0022814249F8E3
:101D300034303A60C9F81020C9F8182086F800E05D
:101D40005A4C00F2E180B1F5D06F80F04483B1F5D8
:101D5000817F00F0FA8200F28B82802900F0758387
:101D6000822940F0F882A988042900F2F4825B48B5
:101D70005B4C89000844227062700278930740F13E
:101D8000558484F800E04FF0020E42E3514F3A6868
:101D900032B3544B504E5449188834780D7840284B
:101DA000864645F0020828BF4FF0400E002C84F014
:101DB00001043470CEEB00000CBF8824C82409EB6A
:101DC000C80680B285F0010544EA0E4472601880AE
:101DD00049F8384072440D70002800F045813A609F
:101DE0003B4B1A88B2F5A06F0FD100219A78597039
:101DF0003E4B1A7009E0364A108842F221029042A6
:101E000000F037812D4A49F83420394A01231370F4
:101E100038E72A4A2A4B19F0080F18BF134647F82B
:101E200038302FE700F0C8FC324A334952F82630E8
:101E3000002B00F0D18158688C5D42F8260003F138
:101E40000802C9F80420032C05D8DFE804F02C02AE
:101E5000292602228A551A8819F0080F0CBF8823F8
:101E6000C82343EA024347F838300BE7E00700F1A4
:101E70008181210600F1F281A20706D51F4A20497F
:101E800013780220DBB213700870E30602D51C4BF6
:101E900010221A7007B0BDE8F08F04228A55DAE7E5
:101EA00005228A55D7E703228A55D4E70080FF1F11
:101EB000F492FF1FA092FF1FA495FF1FC8004000CF
:101EC000880040007C93FF1F0593FF1F8493FF1F32
:101ED0006893FF1F9C92FF1F0493FF1FC0200740C1
:101EE0007493FF1FB092FF1F7093FF1F982007404D
:101EF000942007404893FF1F8093FF1F88200740CE
:101F0000802007409020074042F22100814200F0EB
:101F10002A8100F2D880B1F5086F00F07682B1F521
:101F2000106F40F01882226AB349A8780870120630
:101F300000F13783D9F82820B049130600F12C832B
:101F4000D9F83020AD49150600F1FF82D9F83820C4
:101F5000AA49140600F1F482D9F84020A7491006D6
:101F600000F14783D9F84820A449120600F13C83C8
:101F7000D9F85020A149130600F13183D9F858202F
:101F80009E49150600F12683D9F860209B49140666
:101F900000F11B83D9F868209849100600F11083DE
:101FA000D9F870209549120600F10583D9F87820F8
:101FB0009249130600F1FA82D9F880208F4915065C
:101FC00000F12E83D9F888208C49140600F1228371
:101FD000D9F890208949100600F11683D9F8982085
:101FE0008649120600F10A838548864A864901908F
:101FF0008648874C874D02940023049705968046B7
:102000001C460F4616460395306828B1456800F017
:10201000D3FB2846002DF9D100233360039B386899
:102020001A46002342F8243028B1456800F0C4FB6A
:102030002846002DF9D100223A60019A98F8003024
:102040001146002241F8042B029A0191023B4FF005
:10205000000122F81410032B00F22B81DFE813F0AB
:102060007001250170012501BEF1400F18BF00224B
:10207000B5E6694A0D784878157050708D78C87843
:102080009570D07010680D79157186284D79897911
:102090005571917100F09B816049614E0A783078EA
:1020A00082F00105002842F002020D700CBF882169
:1020B000C82149F8321009EBC20280F0010000216A
:1020C000307051609EE642F22120814240F0CB8187
:1020D000544B554C5549A8781D682560CDF804E04F
:1020E0000870002002908046844604464B490D78D3
:1020F00045F0020E09EBCE030393019B002B039BDB
:102100005C600CBF8824C82444EA080385F00104FD
:1021100049F83E3032700C70DFF8E0E0404BDFF8F9
:10212000FC80002840F01E81BCF1400F1BD144F020
:10213000020C09EBCC03029CDFF8C0E05C60002AD3
:1021400040F02681020442F088029DF804304EF8E7
:102150003C20044433700D702346402803D10020F6
:10216000334A3B601080334A012313704DE600F080
:10217000BBFCA7E5214B2F4828491A614FF0020EFE
:1021800080F800E02C4F0A702C49196099602C4EA1
:102190002C4D2D4C9A610D213970FF213170DFF8E3
:1021A000B8E029702270294D294A8EF800109F2727
:1021B000012406F8047C5D600470DA6007B0BDE8B5
:1021C000F08F244A47F8380013780133137059E52B
:1021D00043F826000F4D3CE58B5D032B00F2F080A9
:1021E00001A252F823F000BF851C0000851C0000EE
:1021F000A52200009F2200007C93FF1F0080FF1F8C
:102200005893FF1FF492FF1F4893FF1F8093FF1FF7
:10221000A495FF1FA092FF1FAC95FF1F7093FF1F97
:102220000493FF1F9892FF1FB495FF1F9493FF1F05
:10223000B092FF1F94200740C02007408800400054
:10224000882007408020074098200740B492FF1F55
:102250000893FF1F7193FF1F8C200740BD49BE4BA1
:1022600080220D2008701A70A2077FF50EAE05E6D9
:1022700040F20232914240F0EE80A98801F07F01E5
:10228000042968D86A88002A65D1B248CDF804E0EC
:1022900089000844017841F00201017021E701231F
:1022A0008B55EFE400238B55ECE44FF0010388F8E5
:1022B00000300134042C06F1040607F1040708F18C
:1022C00001087FF4A1AEA54CA54B2278A54D049F33
:1022D000059E002129701A70130700F105816278AC
:1022E000A149DFF890820A7010074FF00001C9F889
:1022F0003010C9F8381000F1E1809C49A2780A70CA
:102300000021C9F85010C9F858101107DFF864828D
:1023100000F10081E2789649964C0A70002112077C
:10232000C9F87010C9F8781000F1B08033780193C3
:10233000002183F00102C9F89010C9F89810D0E686
:102340004FF0000388F80030B3E7A98801F07F015F
:10235000042940F28D807F4A0F231370864A01239F
:10236000137052E540287FF6E2AE44F002040EEB13
:10237000C401029E4E60BAB19DF804107F4A1970E4
:102380003346403888F8005040334EF83420E7E6B2
:102390009DF8043033700204029B0D7042F0C802B5
:1023A00003444EF83C20D8E69DF804101970029BB7
:1023B000734A88F80050403840334EF83420CFE656
:1023C00019F0080F0CBF022303238B555AE46D4A02
:1023D0000F21117060E66C4A5468002CBBD06888ED
:1023E000B5F804E003E00C325468002CB3D0138835
:1023F0008342F8D153887345F5D1000A03280CBFF6
:1024000094F800E0B2F808E003E0604A604C12780B
:102410002270E888704580F031815E490D7840284F
:10242000844645F0020E28BF4FF0400C04EB0C032D
:1024300009EBCE02029301235460CCEB00004FEA7B
:102440000C4800220193C8245EE6514C4FF0020E66
:1024500022706270DDE7B1F5A06F7FF47CAF0123DD
:10246000002201933DE642F221329142F7D072E719
:102470006A88002A7FF46FAF3648CDF804E08900FF
:102480000844017821F0020101702AE600F074F995
:10249000002800F0E6800830C4F884003848C9F805
:1024A000800000F069F9334A002800F0D480083039
:1024B0003249C2F88C00C2F8881037E700F05CF9A6
:1024C000002800F0BB800830C8F844002C48C9F848
:1024D000400000F051F9274A002800F0AA80083097
:1024E0002649D064916408E700F046F9002800F01E
:1024F000C1800830C9F824002148C9F8200000F044
:102500003BF91C4A002800F0B08008301B49D0621B
:102510009162E4E600F030F9002800F0988008307D
:10252000C8F864001648C9F8600000F025F9114A9F
:10253000002800F0878008301049D0669166E9E6EF
:10254000C86B083800F038F906E5486B083800F029
:1025500033F9FBE4C0200740802007403CA5000081
:10256000C42007407193FF1FC8200740CC200740BC
:10257000D02007400080FF1F94200740C800400083
:10258000880040000593FF1F40A500007C93FF1FBB
:102590007493FF1F7093FF1FC86A083800F00CF98E
:1025A000CEE4606A083800F007F9C3E4C86F083861
:1025B00000F002F900E5486F083800F0FDF8F5E496
:1025C000C86E083800F0F8F8EAE4486E083800F001
:1025D000F3F8DFE4C86D083800F0EEF8D4E4486D95
:1025E000083800F0E9F8C9E4C86C083800F0E4F8ED
:1025F000BEE4486C083800F0DFF8B3E4D1F89C0082
:10260000083800F0D9F8EFE4D1F89400083800F069
:10261000D3F8E3E4D1F88C00083800F0CDF8D7E423
:10262000D1F88400083800F0C7F8CBE44FF0020E70
:10263000EFE6297890644A1C2A705EE62A78013217
:102640002A7044E7297890664A1C2A7062E62A7844
:1026500001322A7067E72978C2F888004A1C2A707C
:1026600064E62A7801322A7019E7297890624A1CB8
:102670002A7034E62A7801322A703EE7BEF1400F14
:10268000F44628BF4FF0400C04EB0C0302930123E7
:10269000CCEB0E004FEA0C480022019326E500BF68
:1026A000F8B501F08FFF294B29482A4C2A4F2B4DB2
:1026B000DFF8BCC0DFF8BCE0294E00221A605A6087
:1026C0009A60DA601A615A619A61DA611A625A6232
:1026D0009A62DA621A635A639A63DA631A645A6412
:1026E0009A64DA641A655A659A65DA651A665A66F2
:1026F0009A66DA661A675A679A67DA67C3F88020BB
:102700000168C3F8842041F480210160C3F30721EC
:102710002170C3F30740134938701B0E2B70FF2341
:102720008CF80030104D8EF8003010480B700123EB
:10273000337084F8642070264FF40074102207F878
:102740002C3C2E70046081F8F820F8BD0080FF1F3B
:10275000348004409C200740B0200740B42007404C
:10276000942007401020074049E400E008E100E021
:10277000802007408820074072B60D480268B2FAF0
:1027800082F30B2B10DC4FF00041D94022EA01020A
:10279000026062B6074803EBC303DB00C2180021E6
:1027A000C15010465160704762B60020704700BFAC
:1027B0003C87FF1FBC83FF1F0D4B0E4AC31AA2FBB1
:1027C00003231B090B2B0CD80B4A127852B972B693
:1027D0000A484FF00041026821FA03F31A430260ED
:1027E00062B67047064A1278002AF0D0FFF75AB94D
:1027F000BC83FF1F398EE3387193FF1F3C87FF1F97
:102800007C93FF1F38B50F4D286878B14388028844
:10281000C118013393420C7A02D24380204638BD5E
:10282000FFF7CAFF002320462B6038BD064B1B78FC
:102830002BB10320FFF702F928600028E6D14FF002
:10284000FF3038BD9093FF1F7C93FF1F10B5094CDC
:10285000206818B143881844007A10BD064B1B78D5
:102860002BB10320FFF7EAF820600028F2D14FF0E7
:10287000FF3010BD9093FF1F7C93FF1F044B054A50
:102880001B6890881BB11A885B88D31A184470475C
:102890009093FF1FA495FF1F0B4B1B789BB110B5A6
:1028A0000A4C206848B1FFF787FF0023032023600C
:1028B000FFF7C4F830B1FFF77FFF0320FFF7BEF842
:1028C0000028F8D110BD70477C93FF1F9093FF1F25
:1028D0002DE9F04F634A83B0012313700191002961
:1028E0006CD0DFF89081604F0446D8F800000E46A7
:1028F000002800F081805D4D4388C3F14001B14262
:1029000028BF314603EB01091FFA89F900F10802DB
:102910004FF0000E761AA0F8029001F1FF3C1A4425
:1029200085F800E0002941D003F108050C33034489
:10293000054404F104094D4538BF9C422CBF0123D6
:102940000023092994BF002303F00103002B4AD080
:1029500044EA05039B0746D10B1F9B080133BCF1DA
:10296000020F4FEA83093CD9A4F1040A9B460EF1F9
:10297000010E5AF8043F45F8043BF345F7D84945A2
:102980004A44C9EB0C0C04EB090361D01D781570A7
:10299000BCF1000F23D05D785570BCF1010F1ED043
:1029A0009B7893702144B0F802900C46B9F13F0F28
:1029B0000BD82F4B05221A70002E99D10198294A65
:1029C0000023137003B0BDE8F08F4023038001465D
:1029D0000420FFF7CBF80020C8F80000E9E7214405
:1029E000E1E72346D2E7013A214414F8013B02F81B
:1029F000013F8C42F9D1D6E73B785BB31B4D4AF2DD
:102A0000F9294FF0010A08E0B9F1010919D02B7832
:102A1000BBB900F0DFF93B78E3B10420FFF72CF8F5
:102A20000728F1D80F4B83F800A0FFF7A5FEC8F8E0
:102A3000000000287FF460AF0A4BB9F1010918705B
:102A4000E5D101234FF0FF302B7003B0BDE8F08FCC
:102A50001946A8E7034A00234FF0FF30137003B074
:102A6000BDE8F08F8593FF1F7C93FF1F8C93FF1FA2
:102A70008493FF1F8893FF1F00B583B002AB012131
:102A800003F8010D1846FFF723FF03B05DF804FBC0
:102A9000F8B5114B1B788BB1104E114D34680127DE
:102AA0002F7064B10F4A6388002717702146238076
:102AB0000420FFF75BF8376000232B70F8BDFFF7A9
:102AC0005BFE084B28B1014604201C70FFF74EF84E
:102AD000F2E71F70F0E700BF7C93FF1F8893FF1F92
:102AE0008593FF1F8493FF1F38B50E4B1B7873B976
:102AF0000D4C216861B103F0FF054B880B80042069
:102B0000FFF734F8256038BD084B01221A7038BD34
:102B1000FFF732FE0028F7D00146BDE83840042018
:102B2000FFF724B88593FF1F8893FF1F8493FF1F2F
:102B3000704700BF0368F0B4FBB1002501249D601D
:102B4000DC601D4C1A601C44241104F144056A1118
:102B500003269E609200194B0679194FE65402F144
:102B60006042012002F5614205F01F0500FA05F5FB
:102B700047F824101560F0BC7047124D2C6844F4DF
:102B800000042C6000BF104D104C01262E60A5687B
:102B900004607DB11034A56804605DB11034A5688F
:102BA00004603DB11034A56804601DB10360F0BC41
:102BB000184670472346C4E7008FFCBF44E400E09A
:102BC0004087FF1F3C8004400070034000710340B9
:102BD00002685AB130B4064B064C074D13441B1122
:102BE000002144F8235030BC91600160704700BF61
:102BF000008FFCBF4087FF1F312B0000024A034BB0
:102C0000012111601B6818470C7103404087FF1FAA
:102C1000024A034B012111605B6818471C71034095
:102C20004087FF1F024A034B012111609B68184730
:102C30002C7103404087FF1F024A034B01211160A2
:102C4000DB6818473C7103404087FF1FF8B572B13D
:102C500006460F4614460025336817F8011B1B680B
:102C600030469847013C0544F6D12846F8BD154644
:102C7000FBE700BF30B503680D490E4A5C68098860
:102C800083B09442ADF804100DD105461B680D21A8
:102C900098472B689DF805101B68044628469847FE
:102CA000204403B030BD01A90222A04703B030BDCB
:102CB00014A500004D2C000003682DE9F0410D4FD4
:102CC0005C68BC42904611D1571E62B105460E4663
:102CD000002401E02B6801341B6816F8011B28460C
:102CE0009847BC42F6D14046BDE8F081A047404637
:102CF000BDE8F0814D2C00000EB400B582B003AAEF
:102D000052F8041B019203F03BFE02B05DF804EBA5
:102D100003B0704788420CDAF0B4144D2A68091ADF
:102D200042B9134B2B60F0BCB3FBF1F201FB123143
:102D3000084470470F4C104B82FB046784FB02462B
:102D40001644D419D717C7EB2444C7EB26460B4FBC
:102D500003FB142207FB06F644F2A71303FB0263EE
:102D6000002BDFDA03F10043013BDBE79893FF1F01
:102D700042CE0C1F5F0B4E831DF30100ECF4FFFFEE
:102D800008B5FEF715FAFEF7FDFA00F023F8FAE7AA
:102D9000FFF782BDFFF77CBEFFF758BDFFF732BDDE
:102DA000FFF76CBD08461146FFF792BD0846FFF7D6
:102DB00063BE00BF704700BF044B054A1A604FF462
:102DC0007A71002299601A711A7370479C93FF1FE1
:102DD00020A5000010B5154C237803B110BD0123C8
:102DE0002370FFF74BFD58B900F058FC70B900F0A4
:102DF000F5FF88B901F00CFBA0B90023237010BDCA
:102E0000FFF7D8FF00F04AFC0028F0D001F0BEFC2C
:102E100000F0E4FF0028EDD001F06CFD01F0F8FABD
:102E20000028EAD001F01AFEE7E700BFAC93FF1FCD
:102E3000844641EA000313F003036DD1403A41D3C5
:102E400051F8043B40F8043B51F8043B40F8043B84
:102E500051F8043B40F8043B51F8043B40F8043B74
:102E600051F8043B40F8043B51F8043B40F8043B64
:102E700051F8043B40F8043B51F8043B40F8043B54
:102E800051F8043B40F8043B51F8043B40F8043B44
:102E900051F8043B40F8043B51F8043B40F8043B34
:102EA00051F8043B40F8043B51F8043B40F8043B24
:102EB00051F8043B40F8043B51F8043B40F8043B14
:102EC000403ABDD2303211D351F8043B40F8043BB4
:102ED00051F8043B40F8043B51F8043B40F8043BF4
:102EE00051F8043B40F8043B103AEDD20C3205D3C4
:102EF00051F8043B40F8043B043AF9D2043208D0BC
:102F0000D2071CBF11F8013B00F8013B01D30B882D
:102F100003806046704700BF082A13D38B078DD00B
:102F200010F003038AD0C3F10403D21ADB071CBFDD
:102F300011F8013B00F8013B80D331F8023B20F847
:102F4000023B7BE7043AD9D3013A11F8013B00F880
:102F5000013BF9D20B7803704B7843708B78837008
:102F60006046704730B42948294A2A4B2A4D6024CC
:102F7000E121047011701B78284C082B30D00A2BEB
:102F80002748284937D00C2B0CBF35223D2212236D
:102F90002A60236002600B60234B24491B78244A7B
:102FA000BBB101230B601360224B23491B78234ADA
:102FB000012B26D9042B0FD9082B1ED9102B94BF17
:102FC000862387230B6013601D4B01221A7030BCCF
:102FD00070470B601360E7E784230B601360F3E72F
:102FE00000F58E200F490830012213232A60236048
:102FF00002600B60D0E73922F7E785230B6013608E
:10300000E2E780230B601360DEE700BF004007406B
:10301000014007405087FF1F08B003400CB0034039
:1030200008B00B400CB00B40AE93FF1F20B0034024
:1030300020B00B405187FF1F24B0034024B00B4049
:10304000AD93FF1F024A136801331360704700BF3E
:103050009892FF1F08B5104C08E0236859050DD45D
:1030600023681A050FD42368DB0411D4236858039E
:10307000F3D5FEF7BDFD23685905F1D500F090FBAF
:1030800023681A05EFD500F02BFF2368DB04EDD58C
:1030900001F02CFAEAE700BF3480044008B5FFF7DE
:1030A000D9FF00BF014B10221A8070470020054055
:1030B000704700BF094908B50B6830B16A4618442B
:1030C000A2F58052904202D20860184608BD02F074
:1030D00067FC0C2303604FF0FF3008BD5487FF1FCF
:1030E000EFF3138070B9EFF310836BB9EFF3058240
:1030F0005AB94FF48070EFF311832BB1984228BF77
:10310000184670474FF0FF3070470F2A01D8184615
:10311000F1E7014BD05CEEE7F0E300E0F0B44D1EC8
:103120002E46002400E00134B0FBF2F302FB130052
:10313000092800F130078ABF3730F8B2C0B206F86C
:10314000010F1846002BEED10A1953704CB11078BC
:1031500015F8016F28700133E01A834202F8016903
:10316000F5DB0846F0BC7047274A28491368F0B5DC
:1031700043F4806313600A78254F264E264D274C72
:10318000274900233B7033702B7023700B70002A8B
:1031900035D0152A26D0234B1B78012B2AD0052B9E
:1031A00003D1214B4FF451721A60204B204C21491E
:1031B000C0F34436C0F347151E7000F01F005D7069
:1031C00004224FF0020E88273C26402598729A7000
:1031D0004FF4005083F813E05A751F74DE702570A9
:1031E0000860F0BD144B40F213321A600D4B1B788F
:1031F000012BD4D1114B4FF451721A60D5E7104B0B
:1032000040F213321A60C6E734800440F893FF1F7F
:103210003C94FF1FB593FF1F4494FF1F3D94FF1F75
:10322000B493FF1F5887FF1F1CC0044000A0064036
:103230002DE400E004E100E018C0044044A0044094
:1032400040A00440144B14499B7803F0EC0200F0BA
:1032500003031343420700F00F0248BF43F010037B
:10326000042A8B7013D00C4B0B4A5B79C10603F018
:10327000EF0348BF43F0100353719379820603F0C4
:10328000EF03054A48BF43F01003937170478B79F1
:1032900043F040038B71E6E700A00640214B1B681A
:1032A0005B053ED510B5204C237823B1FFF792FD86
:1032B0002378002BFAD11D481D4A1E4B4FF40054B1
:1032C00000210460D1701B78E3B1152B03D11A4B98
:1032D00040F203121A60194B1B7803F07F03012B95
:1032E0001AD0052B03D1164B40F203121A60154B6E
:1032F000154816491A68002303700B700AB10123A0
:10330000137010BD124B40F203121A600B4B1B7866
:1033100003F07F03012BE4D10E4B40F203121A603D
:10332000E5E7704734800440B493FF1F84E100E078
:1033300000A00640F893FF1F18C004405887FF1FE5
:103340001CC00440B093FF1F3C94FF1FB593FF1FA8
:1033500040A0044044A004400A4A38B5054613780A
:1033600003F0FF04002BFAD101212846FEF7DCFA16
:1033700021462846FEF7B4FA034A044B52F835209A
:103380001A6038BDB493FF1F04A400004094FF1FCF
:1033900009B140F08000164A1378984218D010B452
:1033A000144C2468640511D503F07F03012B1AD057
:1033B000052B11D0002900F07F030CBF4FF4517191
:1033C0004FF45871012B0BD0052B02D0107010BC9C
:1033D0007047094B1960F9E7074B00241C60E9E7C7
:1033E000064B1960F2E7054B00241C60E2E700BFC2
:1033F0005887FF1F348004401CC0044044A0044090
:10340000104B1A7882420AD00F490968490505D540
:10341000AAB1152A09D068B1152801D018707047D3
:103420000A4A40F213311160F8E7084A002111609E
:103430000028F1D1064A40F213311160EEE7044949
:103440000A60E8E7F893FF1F3480044018C0044086
:1034500040A004400D4B1B6813F4806305D0212865
:1034600005D90B4B00201860704718467047094B70
:1034700010B5074C53F8303023600121FEF754FAA1
:10348000236800221A70012010BD00BF3480044060
:10349000B093FF1F04A400000F4B1B6813F480635C
:1034A00008D0122808D0142811D00C4A537B03F0FE
:1034B000FE03537300207047094B40F202321A603A
:1034C000064A537B43F00103537301207047054BB9
:1034D00040F202321A60F3E73480044000A0064054
:1034E0000CA0044014C004402DE9F84F234B1B6886
:1034F0005A053BD5224B1B680BB101221A70DFF82D
:103500009090204D99F80040DFF888801E4E0134DD
:103510003F2C8ABF4FF0000A5FFA84FA54460746F0
:10352000AB462B78A34216D1FFF7DAFD40281FDC0B
:1035300033791B06F5D59BF8003001333F2B86BF4E
:1035400000221346DAB218F80330DBB2F3712A70A6
:103550002B78A342E8D00D490B4BFFB20120BC22CF
:1035600008F80470087089F800A0DA70BDE8F88FD8
:10357000FF28D6DDFFF72EFCD3E700BF34800440E0
:103580004094FF1F3D94FF1F00A00640B493FF1F0F
:103590004494FF1FB893FF1F2DE9F84F294B1B6878
:1035A0005A0548D5284B1B6805460BB101221A70F5
:1035B00005EB010A554540D2DFF89C80234CDFF82B
:1035C0009C90234F0AE015F8012B09F80B20214AA3
:1035D0000123AA45137088F800602ED098F80030B7
:1035E000227803F1010BBBF13F0F86BF0026B346E3
:1035F0005FFA8BF69345E6D1BC22FA7005E03A7982
:1036000013060BD422789345DDD1FFF769FD4028DE
:10361000F5DDFF28F6DDFFF7DDFBF3E72278013269
:103620003F2A86BF00210A46D1B219F80220D2B241
:10363000FA712170E6E7BDE8F88F054BBC22DA701D
:10364000BDE8F88F348004404094FF1F3D94FF1F75
:1036500000A00640B493FF1F4494FF1FB893FF1FC0
:1036600010B5044C237823B1FFF7B4FB2378002B6B
:10367000FAD110BDB493FF1F064A074B1B78107890
:10368000DBB2C0B283422CBF3F3000F1FF30C01A22
:10369000704700BF3D94FF1F4494FF1F054A064B2F
:1036A00010781B78C0B2DBB2984238BF4030C01AE5
:1036B000704700BF3C94FF1FB593FF1F30B4154BFC
:1036C000154C1A782378D2B2DBB29A421ED001335D
:1036D0003F2B0ED91149124B087819680023C0B24C
:1036E000237021B1D31A1A2B01DC00230B7030BCDC
:1036F00070470A480A49C05C0968DDB2C0B225704B
:103700000029F4D09A4238BF4032EBE74FF0FF3047
:10371000EDE700BF3C94FF1FB593FF1FFC93FF1F15
:10372000B093FF1F084A094B12781B78DBB29A420C
:1037300007D00133402B28BF0023054AD05CC0B21C
:1037400070474FF0FF3070473C94FF1FB593FF1F49
:10375000FC93FF1F0D4B1B685B0516D530B40C4B5B
:103760000C4CDA780C480D4902F0CB024025DA7097
:103770005D74DA7842F03402DA7023780268DBB2E2
:103780000B700AB10023137030BC704734800440C2
:1037900000A00640B593FF1FB093FF1F3C94FF1F8E
:1037A000F0B4384B1A7912F0300F2CD072B6997DE4
:1037B00001F0FF0200293DD062B6334F334938781B
:1037C0000D78334E1C46C0B2EDB2431C402BE1795C
:1037D00028BF0023AB4202F1FF32C9B21CBFF15433
:1037E000184612F0FF02F0D12A4B1B68C2B23A70A1
:1037F0004BB1A84236BFC5F14005401B40192728F0
:10380000C4BF01221A701F49CA78D2B2150616D455
:1038100052060DD51B4B1B795B0609D51E4B1F4964
:103820001B6800220A7003B11A70164B3C22DA7032
:10383000F0BC70474022D9795A7462B6E3E70B793D
:103840001C06E5D5164B174E1C783378E4B2DBB274
:103850009C420ED0144D01E0A3420AD00133402B0C
:1038600028BF00230879E85CC0B2C871087D07282A
:10387000F2D9DBB2034933700B79180644BF7C23BD
:10388000CB70C5E700A006403C94FF1FB593FF1F17
:10389000FC93FF1FB093FF1F4094FF1FB493FF1FC3
:1038A0004494FF1F3D94FF1FB893FF1F274A2849E8
:1038B0001368F0B543F4006313600A78254F264E71
:1038C000264D274C27490023092A3B7033702B7063
:1038D00023700B7035D01A2A26D0234B1B780A2B65
:1038E0002AD01F2B03D1214B4FF451721A60204B69
:1038F000204C2149C0F34436C0F347151E7000F038
:103900001F005D7004224FF0020E88273C264025E0
:1039100098729A704FF4004083F813E05A751F7440
:10392000DE7025700860F0BD144B40F213321A604F
:103930000D4B1B780A2BD4D1114B4FF451721A60E6
:10394000D5E7104B40F213321A60C6E734800440CA
:103950005987FF1FB894FF1F4D94FF1FC094FF1F8E
:10396000B994FF1F4C94FF1F5A87FF1F00D00440DB
:1039700000B006402FE400E004E100E004D0044081
:1039800010B004400CB00440144B14499B7803F071
:10399000EC0200F003031343420700F00F0248BF9C
:1039A00043F01003042A8B7013D00C4B0B4A5B7945
:1039B000C10603F0EF0348BF43F01003537193793E
:1039C000820603F0EF03054A48BF43F010039371EA
:1039D00070478B7943F040038B71E6E700B00640F7
:1039E000224B1B681B053FD510B5214C237823B112
:1039F000FFF7F0F92378002BFAD11E481E4A1F4B1F
:103A00004FF4004400210460D1701B78092B1CD0B6
:103A10001A2B03D11A4B40F203121A60194B1B7870
:103A200003F07F030A2B1AD01F2B03D1164B40F251
:103A300003121A60154B164816491A6800230370C2
:103A40000B700AB10123137010BD134B40F2031227
:103A50001A600C4B1B7803F07F030A2BE4D10F4B49
:103A600040F203121A60E5E7704700BF348004405B
:103A70004C94FF1F84E100E000B006405987FF1F0F
:103A800004D004405A87FF1F00D004404894FF1F11
:103A9000B894FF1F4D94FF1F0CB0044010B00440B9
:103AA0000A4A38B50546137803F0FF04002BFAD113
:103AB00001212846FDF738FF21462846FDF710FF73
:103AC000034A044B52F835201A6038BD4C94FF1F4E
:103AD00004A40000BC94FF1F09B140F08000164A06
:103AE0001378984218D010B4144C2468240511D5CA
:103AF00003F07F030A2B1AD01F2B11D0002900F0EE
:103B00007F030CBF4FF451714FF458710A2B0BD047
:103B10001F2B02D0107010BC7047094B1960F9E7D9
:103B2000074B00241C60E9E7064B1960F2E7054BE0
:103B300000241C60E2E700BF5A87FF1F3480044066
:103B400000D0044010B00440124B1A7882420CD0CE
:103B500011490968090507D5092A16D01A2A0AD079
:103B600009280DD01A2801D0187070470B4A40F26E
:103B700013311160F8E7094A002109281160F1D1D9
:103B8000074A40F213311160EEE7054A0021116047
:103B9000E6E700BF5987FF1F3480044004D004408B
:103BA0000CB004400D4B1B6813F4006305D02128B2
:103BB00005D90B4B00201860704718467047094B19
:103BC00010B5074C53F8303023600121FDF7ACFEEF
:103BD000236800221A70012010BD00BF3480044009
:103BE0004894FF1F04A400000C4B1B6813F40063EF
:103BF00006D0172806D00A4A537B03F0FE035373FE
:103C000000207047074B064A40F202311960537B8F
:103C100043F0010353730120704700BF3480044018
:103C200000B0064008B004402DE9F84F234B1B6854
:103C30001A053BD5224B1B680BB101221A70DFF825
:103C40009090204D99F80040DFF888801E4E013496
:103C5000272C8ABF4FF0000A5FFA84FA54460746C1
:103C6000AB462B789C4216D1FFF73AFA40281FDC6E
:103C700033791B06F5D59BF800300133272B86BF1F
:103C800000221346DAB218F80330DBB2F3712A705F
:103C90002B789C42E8D00D490B4BFFB20120BC228F
:103CA00008F80470087089F800A0DA70BDE8F88F91
:103CB000FF28D6DDFFF78EF8D3E700BF348004403D
:103CC000BC94FF1FB994FF1F00B006404C94FF1F27
:103CD000C094FF1F5094FF1F2DE9F84F294B1B681C
:103CE0001A0548D5284B1B6805460BB101221A70EE
:103CF00005EB010A554540D2DFF89C80234CDFF8E4
:103D00009C90234F0AE015F8012B09F80B20214A5B
:103D10000123AA45137088F800602ED098F800306F
:103D2000227803F1010BBBF1270F86BF0026B346B3
:103D30005FFA8BF69345E6D1BC22FA7005E03A793A
:103D400013060BD422789345DDD1FFF7C9F940283B
:103D5000F5DDFF28F6DDFFF73DF8F3E722780132C5
:103D6000272A86BF00210A46D1B219F80220D2B212
:103D7000FA712170E6E7BDE8F88F054BBC22DA70D6
:103D8000BDE8F88F34800440BC94FF1FB994FF1F36
:103D900000B006404C94FF1FC094FF1F5094FF1FBB
:103DA00010B5044C237823B1FFF714F82378002BC7
:103DB000FAD110BD4C94FF1F064A074B1B781078B0
:103DC000DBB2C0B283422CBF273000F1FF30C01AF3
:103DD000704700BFB994FF1FC094FF1F054A064BF0
:103DE00010781B78C0B2DBB2984238BF4030C01A9E
:103DF000704700BFB894FF1F4D94FF1F30B4154BA0
:103E0000154C1A782378D2B2DBB29A421ED0013315
:103E10003F2B0ED91149124B087819680023C0B204
:103E2000237021B1D31A1A2B01DC00230B7030BC94
:103E300070470A480A49C05C0968DDB2C0B2257003
:103E40000029F4D09A4238BF4032EBE74FF0FF3000
:103E5000EDE700BFB894FF1F4D94FF1F7894FF1F3C
:103E60004894FF1F084A094B12781B78DBB29A422C
:103E700007D00133402B28BF0023054AD05CC0B2D5
:103E800070474FF0FF307047B894FF1F4D94FF1FED
:103E90007894FF1F0D4B1B681B0516D530B40C4BD7
:103EA0000C4CDA780C480D4902F0CB024025DA7050
:103EB0005D74DA7842F03402DA7023780268DBB29B
:103EC0000B700AB10023137030BC7047348004407B
:103ED00000B006404D94FF1F4894FF1FB894FF1F89
:103EE000F0B4384B1A7912F0300F2CD072B6997D9D
:103EF00001F0FF0200293DD062B6334F33493878D4
:103F00000D78334E1C46C0B2EDB2431C402BE17914
:103F100028BF0023AB4202F1FF32C9B21CBFF154EB
:103F2000184612F0FF02F0D12A4B1B68C2B23A7059
:103F30004BB1A84236BFC5F14005401B40192728A8
:103F4000C4BF01221A701F49CA78D2B2150616D40E
:103F500052060DD51B4B1B795B0609D51E4B1F491D
:103F60001B6800220A7003B11A70164B3C22DA70EB
:103F7000F0BC70474022D9795A7462B6E3E70B79F6
:103F80001C06E5D5164B174E1C783378E4B2DBB22D
:103F90009C420ED0144D01E0A3420AD00133282BDD
:103FA00028BF00230879E85CC0B2C871087D0728E3
:103FB000F2D9DBB2034933700B79180644BF7C2376
:103FC000CB70C5E700B00640B894FF1F4D94FF1FAB
:103FD0007894FF1F4894FF1FBC94FF1F4C94FF1F51
:103FE000C094FF1FB994FF1F5094FF1F184A19492E
:103FF0001368F0B543F48053174C184D184FDFF891
:1040000078E01360174E184A002323708EF80030B2
:10401000164C2B700B703B7040F213373760144D09
:104020001449C0F344364FF4517727601670C0F33B
:1040300047142C2700F01F004026547090724FF454
:10404000003493701374D7702E700C60F0BD00BFF5
:10405000348004403595FF1F3495FF1F3C95FF1FAA
:10406000C894FF1F08C0044000C006400CC00440B4
:1040700031E400E004E100E0C994FF1F144B14494F
:104080009B7803F0EC0200F003031343420700F0B7
:104090000F0248BF43F01003042A8B7013D00C4B5F
:1040A0000B4A5B79C10603F0EF0348BF43F01003EE
:1040B00053719379820603F0EF03054A48BF43F03A
:1040C0001003937170478B7943F040038B71E6E7DF
:1040D00000C00640F8B5124B1B68DB041DD5114C1F
:1040E000237823B1FEF776FE2378002BFAD10E4B0E
:1040F0000E4F0F4E0F4D104C104811494FF4003227
:104100001A600023FB7040F2031232602A602268BA
:1041100003700B7012B101231370F8BDF8BD00BF1E
:1041200034800440C894FF1F84E100E000C00640D2
:1041300008C004400CC00440C494FF1F3495FF1F06
:10414000C994FF1F0A4A38B50546137803F0FF04E7
:10415000002BFAD101212846FDF7E6FB214628462F
:10416000FDF7BEFB034A044B52F835201A6038BDF8
:10417000C894FF1F04A400003895FF1F09B140F048
:1041800080000F4A1378984219D010B40D4C24685F
:10419000E40412D503F07F03082B02D10A4B00245C
:1041A0001C60002900F07F030CBF4FF451714FF4E5
:1041B0005871082B04BF044B1960107010BC704775
:1041C0005B87FF1F348004400CC00440704700BF71
:1041D0000D4B1B6813F4805305D0212805D90B4BD8
:1041E00000201860704718467047094B10B5074CFF
:1041F00053F8303023600121FDF796FB236800223D
:104200001A70012010BD00BF34800440C494FF1F09
:1042100004A400000C4B1B6813F4805306D00E2836
:1042200006D00A4A537B03F0FE0353730020704705
:10423000074B064A40F202311960537B43F00103F9
:1042400053730120704700BF3480044000C0064013
:1042500004C004402DE9F84F234B1B68DA043BD51A
:10426000224B1B680BB101221A70DFF89090204D91
:1042700099F80040DFF888801E4E0134272C8ABF51
:104280004FF0000A5FFA84FA54460746AB462B7893
:10429000A34216D1FEF724FF40281FDC33791B060A
:1042A000F5D59BF800300133272B86BF002213463B
:1042B000DAB218F80330DBB2F3712A702B78A3421C
:1042C000E8D00D490B4BFFB20120AC2208F8047076
:1042D000087089F800A0DA70BDE8F88FFF28D6DDF5
:1042E000FEF778FDD3E700BF348004403895FF1F08
:1042F0003595FF1F00C00640C894FF1F3C95FF1F67
:10430000CC94FF1F2DE9F04FDFF8BC902A4D2B4FC6
:1043100083B0064600EB0108464540D0D9F800308E
:10432000DA0406F10106F7D5254B16F8012C1B68B7
:1043300001920BB101221A70DFF890B09BF8004097
:104340000134272C33D8E3B20093DFF884A02B7814
:10435000A34215D1FEF7C4FE402823DC3B791B069F
:10436000F5D52B780133272B86BF00221346DAB20E
:104370001AF80330DBB2FB712A702B78A342E9D024
:10438000104A9DF804300AF8043001211170AC2362
:104390009DF800208BF800204645FB70BED103B08D
:1043A000BDE8F08FFF28D2DDFEF714FDCFE7002334
:1043B00000931C46C9E700BF3595FF1F00C00640AB
:1043C0003895FF1FC894FF1F348004403C95FF1FA1
:1043D000CC94FF1F10B5044C237823B1FEF7FAFCF0
:1043E0002378002BFAD110BDC894FF1F064A074B53
:1043F0001B781078DBB2C0B283422CBF273000F1AB
:10440000FF30C01A704700BF3595FF1F3C95FF1F56
:10441000054A064B10781B78C0B2DBB2984238BF11
:104420004030C01A704700BF3495FF1FC994FF1F6A
:1044300030B4154B154C1A782378D2B2DBB29A42BD
:104440001ED001333F2B0ED91149124B0878196841
:104450000023C0B2237021B1D31A1A2B01DC002330
:104460000B7030BC70470A480A49C05C0968DDB26D
:10447000C0B225700029F4D09A4238BF4032EBE731
:104480004FF0FF30EDE700BF3495FF1FC994FF1FC9
:10449000F494FF1FC494FF1F084A094B12781B783D
:1044A000DBB29A4207D00133402B28BF0023054AD4
:1044B000D05CC0B270474FF0FF3070473495FF1F9B
:1044C000C994FF1FF494FF1F054B064A1B78064949
:1044D0001268DBB20B700AB100231370704700BF83
:1044E000C994FF1FC494FF1F3495FF1F30B42B4B9A
:1044F0001A7994061FD52A48DA79037829490133B5
:104500003F2B0978C8BF00238B42D2B203D0264C80
:10451000D9B2E2540170254A116861B1244A127877
:10452000D2B2934236BFC2F140029B1A9B18272B8E
:10453000C4BF01230B70194AD378DBB2180611D41B
:104540005A060DD5154B1B795B0609D5194B1A492F
:104550001B6800220A7003B11A70104B2C22DA700B
:1045600030BC704711790906EAD5144910480C7817
:104570000178C9B28C420DD04A1C272A84BF002181
:104580000A460F4D054C98BFD1B2AA5CD2B2E27177
:104590000170D5E76C21D170D2E700BF00C00640A2
:1045A0003495FF1FC994FF1FF494FF1FC494FF1F8D
:1045B0003595FF1F3895FF1FC894FF1F3C95FF1FBF
:1045C000CC94FF1F70B584B072B6304B304D31487B
:1045D000702241260F2480211A702E701A46047012
:1045E000197013781B06FCD52B4B186862B62B4B41
:1045F000984298BF00EB80004FF00A0298BF40003D
:1046000001A9FEF78BFD9DF80420254B52B39DF8C0
:1046100005105A8061B39DF80620998052B39DF829
:104620000710DA8041B39DF80820198132B39DF854
:1046300009105A8121B39DF80A20998112B39DF87F
:104640000B10DA8101B39DF80C2019824AB19DF854
:104650000D105A82092229B1162299821A7004B0CB
:1046600070BD082201325200D2B21A7004B070BD7F
:104670000122F7E70222F5E70322F3E70422F1E73C
:104680000522EFE70622EDE70722EBE700000240F4
:104690000700024006000240080002407F96980092
:1046A000E887FF1F0368C9B21B6818470368C9B2CF
:1046B0001B6818470368C9B21B6818470368C9B26A
:1046C0001B68184708B50846FEF70EFF012008BD15
:1046D00008B50846FEF708FF012008BD38B50846B2
:1046E0000D4601F04DFF044601462846FEF754FFF3
:1046F000204638BD10B5084614461146FEF74CFF5B
:10470000204610BDFEF7B8BFFFF724B808B508462D
:10471000FEF7C2FE003018BF012008BD08B50846EC
:10472000FEF798FE003018BF012008BD084611466C
:10473000FEF72EBE0846FEF763BE00BF0846FEF732
:104740000BBE00BFFEF7AABD4B0803F1376000F5B2
:10475000D830B0FBF1F0FEF707BD00BF10B54B0835
:1047600003F13760144600F5D830B0FBF1F0FEF7E6
:10477000FBFC2046BDE81040FEF764BDFEF770BFAD
:10478000FEF7D0BFFEF79ABFFEF788BF704700BFA5
:10479000044B054A1A604FF47A71002299601A712D
:1047A0001A7370474095FF1F9CA5000008B5084686
:1047B000FFF73AFA012008BD08B50846FFF734FABA
:1047C000012008BD38B508460D4601F0D9FE044663
:1047D00001462846FFF780FA204638BD10B5084646
:1047E00014461146FFF778FA204610BDFFF7E4BAE9
:1047F000FFF750BB08B50846FFF7F6F9003018BFC1
:10480000012008BD08B50846FFF7CCF9003018BFF5
:10481000012008BD08461146FFF75EB90846FFF7BC
:1048200093B900BF0846FFF73BB900BFFFF7D8B800
:104830004B0803F1376000F5D830B0FBF1F0FFF71B
:1048400035B800BF10B54B0803F13760144600F5CA
:10485000D830B0FBF1F0FFF729F82046BDE8104052
:10486000FFF792B8FFF79CBAFFF7FCBAFFF7C6BA9A
:10487000FFF7B4BA0368064A1B68934205D110B526
:10488000C8B2FFF7D1F9012010BDC9B2184700BF67
:10489000B94700000368064A1B68934205D110B56A
:1048A000C8B2FFF7C1F9012010BDC9B2184700BF57
:1048B000B94700000368064A1B68934205D110B54A
:1048C000C8B2FFF7B1F9012010BDC9B2184700BF47
:1048D000B94700000368064A1B68934205D110B52A
:1048E000C8B2FFF7A1F9012010BDC9B2184700BF37
:1048F000B9470000704700BF044B054A1A604FF4E7
:104900007A71002299601A711A7370475095FF1FCF
:10491000FCA5000008B50846FFF79CFC012008BD77
:1049200008B50846FFF796FC012008BD38B50846D3
:104930000D4601F025FE044601462846FFF7E2FC3D
:10494000204638BD10B5084614461146FFF7DAFC7C
:10495000204610BDFFF74ABDFFF7B6BD08B50846B3
:10496000FFF758FC003018BF012008BD08B5084605
:10497000FFF72EFC003018BF012008BD0846114685
:10498000FFF7FCBB0846FFF721BC00BF0846FFF756
:10499000D9BB00BFFFF79EBB4B0803F1B76000F522
:1049A0005840B0FBF1F0FFF721BB00BF10B54B083A
:1049B00003F1B760144600F55840B0FBF1F0FFF783
:1049C00015FB2046BDE81040FFF758BBFFF702BDBE
:1049D000FFF762BDFFF72CBDFFF71ABD0368064A5B
:1049E0001B68934205D110B5C8B2FFF733FC012014
:1049F00010BDC9B2184700BF214900000368064A2C
:104A00001B68934205D110B5C8B2FFF723FC012003
:104A100010BDC9B2184700BF214900000368064A0B
:104A20001B68934205D110B5C8B2FFF713FC0120F3
:104A300010BDC9B2184700BF214900000368064AEB
:104A40001B68934205D110B5C8B2FFF703FC0120E3
:104A500010BDC9B2184700BF21490000704700BF10
:104A6000044B054A1A604FF47A71002299601A715A
:104A70001A7370476095FF1F5CA6000081F000412B
:104A800002E000BF83F0004330B54FEA41044FEA33
:104A9000430594EA050F08BF90EA020F1FBF54EACE
:104AA000000C55EA020C7FEA645C7FEA655C00F06A
:104AB000E2804FEA5454D4EB5555B8BF6D420CDD3B
:104AC0002C4480EA020281EA030382EA000083EABE
:104AD000010180EA020281EA0303362D88BF30BD5E
:104AE00011F0004F4FEA01314FF4801C4CEA1131B4
:104AF00002D0404261EB410113F0004F4FEA033313
:104B00004CEA133302D0524263EB430394EA050F9D
:104B100000F0A780A4F10104D5F1200E0DDB02FA0C
:104B20000EFC22FA05F2801841F1000103FA0EF2A0
:104B3000801843FA05F359410EE0A5F120050EF166
:104B4000200E012A03FA0EFC28BF4CF0020C43FA97
:104B500005F3C01851EBE37101F0004507D54FF0A4
:104B6000000EDCF1000C7EEB00006EEB0101B1F5F4
:104B7000801F1BD3B1F5001F0CD349085FEA30003A
:104B80004FEA3C0C04F101044FEA445212F5800F45
:104B900080F09A80BCF1004F08BF5FEA500C50F1E2
:104BA000000041EB045141EA050130BD5FEA4C0CC5
:104BB000404141EB010111F4801FA4F10104E9D14E
:104BC00091F0000F04BF01460020B1FA81F308BF45
:104BD0002033A3F10B03B3F120020CDA0C3208DD11
:104BE00002F1140CC2F10C0201FA0CF021FA02F1EC
:104BF0000CE002F11402D8BFC2F1200C01FA02F15C
:104C000020FA0CFCDCBF41EA0C019040E41AA2BF80
:104C100001EB0451294330BD6FEA04041F3C1CDA48
:104C20000C340EDC04F11404C4F1200220FA04F068
:104C300001FA02F340EA030021FA04F345EA030112
:104C400030BDC4F10C04C4F1200220FA02F001FAD4
:104C500004F340EA0300294630BD21FA04F0294656
:104C600030BD94F0000F83F4801306BF81F48011EF
:104C70000134013D4EE77FEA645C18BF7FEA655C62
:104C800029D094EA050F08BF90EA020F05D054EA34
:104C9000000C04BF1946104630BD91EA030F1EBF39
:104CA0000021002030BD5FEA545C05D1400049413D
:104CB00028BF41F0004130BD14F580043CBF01F530
:104CC000801130BD01F0004545F0FE4141F4700116
:104CD0004FF0000030BD7FEA645C1ABF19461046F1
:104CE0007FEA655C1CBF0B46024650EA013406BFF2
:104CF00052EA033591EA030F41F4002130BD00BFB1
:104D000090F0000F04BF0021704730B54FF480646D
:104D100004F132044FF000054FF0000150E700BFEE
:104D200090F0000F04BF0021704730B54FF480644D
:104D300004F1320410F0004548BF40424FF000013A
:104D40003EE700BF42004FEAE2014FEA31014FEA7D
:104D500002701FBF12F07F4393F07F4F81F06051CC
:104D6000704792F0000F14BF93F07F4F704730B53B
:104D70004FF4607401F0004521F0004120E700BFCE
:104D800050EA010208BF704730B54FF000050AE055
:104D900050EA010208BF704730B511F0004502D556
:104DA000404261EB41014FF4806404F132045FEA58
:104DB000915C3FF4DCAE4FF003025FEADC0C18BFFD
:104DC00003325FEADC0C18BF033202EBDC02C2F1F3
:104DD000200300FA03FC20FA02F001FA03FE40EA85
:104DE0000E0021FA02F11444C1E600BF70B54FF085
:104DF000FF0C4CF4E06C1CEA11541DBF1CEA135567
:104E000094EA0C0F95EA0C0F00F0DEF82C4481EACE
:104E1000030621EA4C5123EA4C5350EA013518BFEE
:104E200052EA033541F4801143F4801338D0A0FBDB
:104E300002CE4FF00005E1FB02E506F00042E0FB88
:104E400003E54FF00006E1FB03569CF0000F18BF8E
:104E50004EF0010EA4F1FF04B6F5007F64F5407436
:104E600004D25FEA4E0E6D4146EB060642EAC621C9
:104E700041EA55514FEAC52040EA5E504FEACE2E36
:104E8000B4F1FD0C88BFBCF5E06F1ED8BEF1004F39
:104E900008BF5FEA500E50F1000041EB045170BDB5
:104EA00006F0004646EA010140EA020081EA0301F9
:104EB000B4EB5C04C2BFD4EB0C0541EA045170BDF5
:104EC00041F480114FF0000E013C00F3AB8014F16F
:104ED000360FDEBF002001F0004170BDC4F10004B8
:104EE000203C35DA0C341BDC04F11404C4F1200539
:104EF00000FA05F320FA04F001FA05F240EA020094
:104F000001F0004221F0004110EBD37021FA04F6C9
:104F100042EB06015EEA430E08BF20EAD37070BD83
:104F2000C4F10C04C4F1200500FA04F320FA05F0E2
:104F300001FA04F240EA020001F0004110EBD370E4
:104F400041F100015EEA430E08BF20EAD37070BD54
:104F5000C4F1200500FA05F24EEA020E20FA04F32D
:104F600001FA05F243EA020321FA04F001F00041DC
:104F700021FA04F220EA020000EBD3705EEA430E4D
:104F800008BF20EAD37070BD94F0000F0FD101F07C
:104F90000046400041EB010111F4801F08BF013CB5
:104FA000F7D041EA060195F0000F18BF704703F0F3
:104FB0000046520043EB030313F4801F08BF013D7A
:104FC000F7D043EA0603704794EA0C0F0CEA135536
:104FD00018BF95EA0C0F0CD050EA410618BF52EAF0
:104FE0004306D1D181EA030101F000414FF00000F6
:104FF00070BD50EA410606BF1046194652EA430604
:1050000019D094EA0C0F02D150EA013613D195EA77
:105010000C0F05D152EA03361CBF104619460AD1BF
:1050200081EA030101F0004141F0FE4141F47001C9
:105030004FF0000070BD41F0FE4141F4780170BDB9
:1050400070B54FF0FF0C4CF4E06C1CEA11541DBF1E
:105050001CEA135594EA0C0F95EA0C0F00F0A7F820
:10506000A4EB050481EA030E52EA03354FEA01314D
:1050700000F088804FEA03334FF0805545EA131360
:1050800043EA12634FEA022245EA111545EA106528
:105090004FEA00260EF000419D4208BF964244F1BF
:1050A000FD0404F5407402D25B084FEA3202B61ADE
:1050B00065EB03055B084FEA32024FF480104FF4B2
:1050C000002CB6EB020E75EB030E22BFB61A754626
:1050D00040EA0C005B084FEA3202B6EB020E75EBB9
:1050E000030E22BFB61A754640EA5C005B084FEA21
:1050F0003202B6EB020E75EB030E22BFB61A7546EE
:1051000040EA9C005B084FEA3202B6EB020E75EBF8
:10511000030E22BFB61A754640EADC0055EA060EB9
:1051200018D04FEA051545EA16754FEA06164FEAFC
:10513000C30343EA52734FEAC2025FEA1C1CC0D1A8
:1051400011F4801F0BD141EA00014FF000004FF035
:10515000004CB6E711F4801F04BF01430020B4F1F6
:10516000FD0C88BFBCF5E06F3FF6AFAEB5EB030CAE
:1051700004BFB6EB020C5FEA500C50F1000041EBAB
:10518000045170BD0EF0004E4EEA113114EB5C0478
:10519000C2BFD4EB0C0541EA045170BD41F480114B
:1051A0004FF0000E013C90E645EA060E8DE60CEA53
:1051B000135594EA0C0F08BF95EA0C0F3FF43BAF70
:1051C00094EA0C0F0AD150EA01347FF434AF95EA27
:1051D0000C0F7FF425AF104619462CE795EA0C0F0B
:1051E00006D152EA03353FF4FDAE1046194622E7D8
:1051F00050EA410618BF52EA43067FF4C5AE50EAB2
:1052000041047FF40DAF52EA43057FF4EBAE12E7A1
:105210004FF0FF3C06E000BF4FF0010C02E000BF82
:105220004FF0010C4DF804CD4FEA410C7FEA6C5C65
:105230004FEA430C18BF7FEA6C5C1BD001B050EA08
:10524000410C0CBF52EA430C91EA030F02BF90EAF3
:10525000020F0020704710F1000F91EA030F58BFB2
:10526000994208BF90422CBFD8176FEAE37040F014
:10527000010070474FEA410C7FEA6C5C02D150EAB2
:10528000013C07D14FEA430C7FEA6C5CD6D152EA6D
:10529000033CD3D05DF8040B704700BF8446104632
:1052A00062468C461946634600E000BF01B5FFF731
:1052B000B7FF002848BF10F1000F01BD4DF808ED01
:1052C000FFF7F4FF0CBF012000205DF808FB00BFD2
:1052D0004DF808EDFFF7EAFF34BF012000205DF82C
:1052E00008FB00BF4DF808EDFFF7E0FF94BF012079
:1052F00000205DF808FB00BF4DF808EDFFF7CEFF7A
:1053000094BF012000205DF808FB00BF4DF808EDB8
:10531000FFF7C4FF34BF012000205DF808FB00BF89
:105320004FEA410C7FEA6C5C02D150EA013C0AD1A1
:105330004FEA430C7FEA6C5C02D152EA033C02D193
:105340004FF0000070474FF00100704780F00040C0
:1053500002E000BF81F0004142001FBF5FEA41034D
:1053600092EA030F7FEA226C7FEA236C6AD04FEA4D
:105370001262D2EB1363C1BFD21841404840414092
:10538000B8BF5B42192B88BF704710F0004F40F444
:10539000000020F07F4018BF404211F0004F41F460
:1053A000000121F07F4118BF494292EA030F3FD02C
:1053B000A2F1010241FA03FC10EB0C00C3F120033F
:1053C00001FA03F100F0004302D5494260EB4000CE
:1053D000B0F5000F13D3B0F1807F06D340084FEA39
:1053E000310102F10102FE2A51D2B1F1004F40EB2E
:1053F000C25008BF20F0010040EA03007047490096
:1054000040EB000010F4000FA2F10102EDD1B0FA60
:1054100080FCACF1080CB2EB0C0200FA0CF0AABF55
:1054200000EBC25052421843BCBFD04018437047F3
:1054300092F0000F81F4000106BF80F400000132F9
:10544000013BB5E74FEA41037FEA226C18BF7FEAD0
:10545000236C21D092EA030F04D092F0000F08BF12
:105460000846704790EA010F1CBF0020704712F0F9
:105470007F4F04D1400028BF40F00040704712F138
:1054800000723CBF00F50000704700F0004343F09D
:10549000FE4040F4000070477FEA226216BF0846D3
:1054A0007FEA23630146420206BF5FEA412390EA96
:1054B000010F40F4800070474FF0000304E000BF8C
:1054C00010F0004348BF40425FEA000C08BF70473D
:1054D00043F0964301464FF000001CE050EA010201
:1054E00008BF70474FF000030AE000BF50EA010216
:1054F00008BF704711F0004302D5404261EB410103
:105500005FEA010C02BF84460146002043F0B64327
:1055100008BFA3F18053A3F50003BCFA8CF2083A4C
:10552000A3EBC25310DB01FA02FC634400FA02FC55
:10553000C2F12002BCF1004F20FA02F243EB02005C
:1055400008BF20F00100704702F1200201FA02FCBE
:10555000C2F1200250EA4C0021FA02F243EB0200B1
:1055600008BF20EADC7070474FF0FF0C1CEAD052F5
:105570001EBF1CEAD15392EA0C0F93EA0C0F6FD0B6
:105580001A4480EA010C400218BF5FEA41211ED094
:105590004FF0006343EA501043EA5111A0FB013180
:1055A0000CF00040B1F5000F3EBF490041EAD37155
:1055B0005B0040EA010062F17F02FD2A1DD8B3F1D1
:1055C000004F40EBC25008BF20F00100704790F040
:1055D000000F0CF0004C08BF49024CEA502040EA92
:1055E00051207F3AC2BFD2F1FF0340EAC250704758
:1055F00040F400004FF00003013A5DDC12F1190F96
:10560000DCBF00F000407047C2F10002410021FA07
:1056100002F1C2F1200200FA02FC5FEA310040F11F
:10562000000053EA4C0308BF20EADC70704792F098
:10563000000F00F0004C02BF400010F4000F013AD0
:10564000F9D040EA0C0093F0000F01F0004C02BFCB
:10565000490011F4000F013BF9D041EA0C018FE73A
:105660000CEAD15392EA0C0F18BF93EA0C0F0AD040
:1056700030F0004C18BF31F0004CD8D180EA010066
:1056800000F00040704790F0000F17BF90F0004FFF
:10569000084691F0000F91F0004F14D092EA0C0FE1
:1056A00001D142020FD193EA0C0F03D14B0218BF74
:1056B000084608D180EA010000F0004040F0FE40BA
:1056C00040F40000704740F0FE4040F44000704756
:1056D0004FF0FF0C1CEAD0521EBF1CEAD15392EAD5
:1056E0000C0F93EA0C0F69D0A2EB030280EA010CC5
:1056F00049024FEA402037D04FF0805343EA11115E
:1057000043EA10130CF000408B4238BF5B0042F1BB
:105710007D024FF4000C8B4224BF5B1A40EA0C0060
:10572000B3EB510F24BFA3EB510340EA5C00B3EB92
:10573000910F24BFA3EB910340EA9C00B3EBD10F80
:1057400024BFA3EBD10340EADC001B0118BF5FEAD2
:105750001C1CE0D1FD2A3FF650AF8B4240EBC250FB
:1057600008BF20F0010070470CF0004C4CEA5020BC
:105770007F32C2BFD2F1FF0340EAC250704740F40B
:1057800000004FF00003013A37E792F0000F00F0FD
:10579000004C02BF400010F4000F013AF9D040EA7B
:1057A0000C0093F0000F01F0004C02BF490011F40F
:1057B000000F013BF9D041EA0C0195E70CEAD15307
:1057C00092EA0C0F08D142027FF47DAF93EA0C0FEE
:1057D0007FF470AF084676E793EA0C0F04D14B02D2
:1057E0003FF44CAF08466EE730F0004C18BF31F084
:1057F000004CCAD130F000427FF45CAF31F000437E
:105800007FF43CAF5FE700BF4FF0FF3C06E000BF16
:105810004FF0010C02E000BF4FF0010C4DF804CD39
:105820004FEA40024FEA41037FEA226C18BF7FEA49
:10583000236C11D001B052EA530C18BF90EA010F4B
:1058400058BFB2EB030088BFC81738BF6FEAE170DA
:1058500018BF40F0010070477FEA226C02D15FEA76
:10586000402C05D17FEA236CE4D15FEA412CE1D0E2
:105870005DF8040B704700BF844608466146FFE7A9
:105880000FB5FFF7C9FF002848BF10F1000F0FBD8B
:105890004DF808EDFFF7F4FF0CBF012000205DF884
:1058A00008FB00BF4DF808EDFFF7EAFF34BF012009
:1058B00000205DF808FB00BF4DF808EDFFF7E0FFA2
:1058C00094BF012000205DF808FB00BF4DF808EDF3
:1058D000FFF7D2FF94BF012000205DF808FB00BF56
:1058E0004DF808EDFFF7C8FF34BF012000205DF838
:1058F00008FB00BF4FEA4002B2F1FE4F0FD34FF05A
:105900009E03B3EB12620DD94FEA002343F000432C
:1059100010F0004F23FA02F018BF404270474FF0DA
:105920000000704712F1610F01D1420205D110F061
:10593000004008BF6FF0004070474FF00000704714
:1059400042000ED2B2F1FE4F0BD34FF09E03B3EBE9
:10595000126209D44FEA002343F0004323FA02F015
:1059600070474FF00000704712F1610F01D1420201
:1059700002D14FF0FF3070474FF00000704700BF7A
:105980000B460146184600F005B800BF0A22002168
:1059900000F0BABF13460A460146022001F020B8C3
:1059A000014B1868704700BF288CFF1F70B50F4E61
:1059B0000F4D761BB61018BF002405D0013455F8E2
:1059C000043B9847A642F9D10A4E0B4D761B04F0D2
:1059D000B7FFB61018BF002406D0013455F8043BB9
:1059E0009847A642F9D170BD70BD00BF4CA9000018
:1059F0004CA9000068A900004CA9000010B504469D
:105A000000F016F82044407800F0970010BD00BF69
:105A1000034A044B1268506B002808BF18467047B1
:105A2000288CFF1F2C8CFF1FD0F8EC00704700BFA4
:105A300008B5034B1868FFF7EBFFD0F8EC0008BD82
:105A4000288CFF1F024B0146186800F003B800BF06
:105A5000288CFF1F2DE9F04F01F10B05162D83B0A7
:105A6000064640F29F8035F0070500F1BF80A9424D
:105A700000F2BC8000F06EFBB5F5FC7FC0F09C82AC
:105A80006B0A00F0BA80042B00F28381A80900F1B0
:105A9000390E4FEA4E033830C44F07EB8303A3F1AE
:105AA00008015C68A14207D1ACE0002A80F2AC801A
:105AB000E468A14200F0A680636823F003035A1B48
:105AC0000F2AF2DDB9493C6901F1080E744500F076
:105AD000B381636823F003035A1B0F2A00F39981F3
