:1000000000000320D101000011120000C9110000FE
:10001000C9110000C9110000C9110000C911000078
:10002000C9110000C9110000C9110000111200001F
:1000300011120000C911000011120000B9110000D6
:100040001112000011120000111200001112000024
:100050001112000011120000111200001112000014
:100060001112000011120000111200001112000004
:1000700011120000111200001112000011120000F4
:1000800011120000111200001112000011120000E4
:1000900011120000111200001112000011120000D4
:1000A00011120000111200001112000011120000C4
:1000B0001112000011120000111200005D38000042
:1000C00011120000851D000011120000713E000099
:1000D00011120000C12300001112000011120000D3
:1000E0001112000011120000854A000011120000D8
:1000F0001112000011120000111200001112000074
:100100000D450000254500003D4500005545000017
:10011000111200001126000011120000111200003F
:100120001112000011120000111200001112000043
:100130001112000011120000111200001112000033
:10014000C543000011120000190A0000111200003E
:100150001112000011120000111200001112000013
:100160001112000011120000111200001112000003
:1001700011120000111200001112000011120000F3
:1001800011120000111200001112000011120000E3
:100190001112000011120000D11000001112000015
:1001A00011120000111200001112000011120000C3
:1001B00011120000111200001112000011120000B3
:1001C00011120000111200001112000011120000A3
:1001D0005C4B4CF2205210B51A804DF628121A8052
:1001E00000BF00BF01F018F8574B4FF030621A60A3
:1001F000564A9A60564ADA60564B4FF470021A60BB
:10020000554B564A1A60564B1A6812F4807204D144
:1002100054490A604FF4A8521A60534B1A781107D8
:1002200003D51A7842F008021A70504B504C5148CE
:10023000AA221A70504A00239918A14203D21958D1
:1002400099500433F8E74D4B4D4900228B4202D2BE
:1002500043F8042BFAE74B484B4900235A581A50ED
:100260000433B3F5E87FF9D1484B494A802103F8BC
:10027000011B9342FBD1474B424A1A60464B8A22EC
:100280001A70A3F5805324225A70A0221A709A790A
:100290009207FCD59A79D406FCD4404B9A7902F0A7
:1002A0000C02082AFAD13E4B60221A7002331A78E7
:1002B000802AFCD1394B00221A714E225A719A7948
:1002C0009006FCD59979354A4906FBD5354B364918
:1002D00019600821596020231370937903F00C03EF
:1002E0000C2BFAD1314B324A1A60324B324A1A6027
:1002F00000225A60072243F8042C304AC3F80C2D20
:1003000062B601F019F9174B1B68DA0705D52C48BE
:1003100001F0B6F82B4B2C4A1A602C4B1B785B066D
:1003200009D5284C284A2368934204D1244801F077
:10033000A7F80023236006F01FF900F073FF03F015
:10034000B9FFFEE70E20054030800440823F0400E4
:100350000100002B88ED00E0002008E0030000858C
:1003600010D0034014D0034002D0074000E0074003
:10037000C810FF1FA0B600006007FF1FC810FF1FB6
:10038000A816FF1F0002FF1F0000000000E400E0AD
:1003900064E400E008ED00E0005006400040064044
:1003A00001E007404480044000000701048004404D
:1003B000C010050014E000E07FA903000000202029
:1003C000000000001CE00340A5C3945A00F0074061
:1003D000FFFFFFFFFFFFFFFFFFFFFFFFFFFFFFFF2D
:1003E000FFFFFFFFFFFFFFFFFFFFFFFFFFFFFFFF1D
:1003F000FFFFFFFFFFFFFFFFFFFFFFFFFFFFFFFF0D
:10040000FFFFFFFFFFFFFFFFFFFFFFFFDEF9FFFF23
:1004100010B5054C237833B9044B13B10448AFF33E
:1004200000800123237010BDC810FF1F00000000D2
:1004300098B6000008B5064B1BB106480649AFF355
:1004400000800648036813B1054B03B1984708BD07
:100450000000000098B60000CC10FF1FC810FF1F5E
:1004600000000000844641EA000313F003036DD14D
:10047000403A41D351F8043B40F8043B51F8043B67
:1004800040F8043B51F8043B40F8043B51F8043B6E
:1004900040F8043B51F8043B40F8043B51F8043B5E
:1004A00040F8043B51F8043B40F8043B51F8043B4E
:1004B00040F8043B51F8043B40F8043B51F8043B3E
:1004C00040F8043B51F8043B40F8043B51F8043B2E
:1004D00040F8043B51F8043B40F8043B51F8043B1E
:1004E00040F8043B51F8043B40F8043B51F8043B0E
:1004F00040F8043B403ABDD2303211D351F8043BAE
:1005000040F8043B51F8043B40F8043B51F8043BED
:1005100040F8043B51F8043B40F8043B103AEDD25C
:100520000C3205D351F8043B40F8043B043AF9D2AD
:10053000043208D0D2071CBF11F8013B00F8013B80
:1005400001D30B8803806046704700BF082A13D38D
:100550008B078DD010F003038AD0C3F10403D21AA5
:10056000DB071CBF11F8013B00F8013B80D331F8D9
:10057000023B20F8023B7BE7043AD9D3013A11F859
:10058000013B00F8013BF9D20B7803704B784370C4
:100590008B78837060467047204ADFF89CC0204B00
:1005A00020492DE9F00FD2F800B0DFF890A0DFF875
:1005B0009090DFF890801C4F1C4E1D4D1D4C4BF44D
:1005C000806BC2F800B000228AF8002040F2133B92
:1005D00089F80020C0F3443A88F800204FF451799C
:1005E0008CF80020C0F347183A7000F01F00402735
:1005F0004FF02C0CC6F800B0C5F80090042683F824
:1006000000A083F8018098729A701A7483F803C06E
:1006100027700E60BDE8F00F704700BF28800440CF
:1006200000A00E4008E100E0E810FF1F64D0044085
:1006300060D0044042E400E05511FF1F5411FF1F39
:10064000E910FF1F5C11FF1F194B9B7800F003029C
:1006500003F0EC03134300F00F014207144A48BFB4
:1006600043F01003042993701CD0114B5A79C30630
:1006700002F0EF020E4B48BF42F010025A719A7915
:100680000B4B02F0EF02810648BF42F010029A7154
:10069000C20506D55A781978D2B241F020011970F6
:1006A0005A707047937943F040039371DDE700BFC0
:1006B00000A00E40144B1B685B052DE9F0411FD5CF
:1006C000124C237823B103F0FDFD2378002BFAD1DF
:1006D000DFF854C00E4F0F4E0F4D104C104811490B
:1006E00000234FF00408CCF8008040F20312FB70A6
:1006F00032602A60226803700B701AB101231370F4
:10070000BDE8F081BDE8F08128800440E810FF1FBB
:1007100000A00E4064D0044060D00440E410FF1FED
:100720005411FF1FE910FF1F88E100E00A4A38B5A5
:100730000546137803F0FF04002BFAD12846012167
:1007400000F0B6FE2846214600F0ACFE034A044BFA
:1007500052F835201A6038BDE810FF1F24AA0000A7
:100760005811FF1F10B409B140F080000F4B1A78E8
:10077000904217D00E4C2468E40412D502F07F0298
:10078000212A02D10B4A00241460002900F07F02C4
:100790000CBF44216021212A03D1064A41F4407153
:1007A000116018705DF8044B704700BF6407FF1FAD
:1007B0003480044060D00440704700BF0D4B1B687C
:1007C00013F4806310B505D03F2805D90A4B0020EB
:1007D000186010BD184610BD084B074C53F8303058
:1007E0002360012100F064FE236800221A700120BA
:1007F00010BD00BF28800440E410FF1F24AA0000A1
:100800000C4B1B6813F4806306D0182806D00A4BE3
:100810005A7B02F0FE025A7300207047074A064BCB
:1008200040F2023111605A7B42F001025A730120FA
:10083000704700BF2880044000A00E4068D00440EC
:100840002DE9F84F224B1B685A05814639D5214BBB
:100850001B680BB101221A70DFF88C801E4D98F8CE
:1008600000401E4F1E4E0134272C8ABF4FF0000A55
:100870005FFA84FA5446AB462B789C4215D100F0BF
:10088000DBFC40281FDC33791B06F5D59BF80030D4
:100890000133272B86BF00221346DAB2FB5CDBB2A2
:1008A000F3712A702B789C42E9D00E490C4B5FFA09
:1008B00089F90120AC2207F80490087088F800A09C
:1008C000DA70BDE8F88FFF28D6DD03F0FBFCD3E734
:1008D000288004405811FF1F5511FF1FEC10FF1F07
:1008E00000A00E40E810FF1F5C11FF1F38B5054641
:1008F00031B10C4615F8010BFFF7A2FF013CF9D10D
:1009000038BD00BF10B5044C237823B103F0DAFCE6
:100910002378002BFAD110BDE810FF1F064B074AC1
:100920001B781278DBB2D2B293422CBF273202F18D
:10093000FF32D01A704700BF5C11FF1F5511FF1F17
:10094000054A064B10781B78C0B2DBB2984238BF1C
:100950004030C01A704700BF5411FF1FE910FF1F3D
:1009600030B4144B14491A780B78D2B2DBB29A42E5
:100970001DD001333F2B114810D8114CC05C2468A6
:10098000DDB2C0B20D703CB19A4238BF4032D31ACA
:100990001A2B01DC0023237030BC7047084B007811
:1009A0001C680023C0B20B70002CF0D1F4E74FF0AC
:1009B000FF30F1E75411FF1FE910FF1F1411FF1F53
:1009C000E410FF1F084A094B12781B78DBB29A42E9
:1009D00007D00133402B28BF0023054AD05CC0B2AA
:1009E00070474FF0FF3070475411FF1FE910FF1F91
:1009F0001411FF1F054A064B11781B68054AC9B23E
:100A000011700BB100221A70704700BFE910FF1F70
:100A1000E410FF1F5411FF1F30B42B4B1A799406BA
:100A200020D52A4AD879137829490133402B0978EF
:100A300028BF00239942C0B203D0264CD9B2E0545B
:100A40001170254A116869B1244A1278D2B29342D2
:100A500036BFC2F14002C2EB03039B18272BC4BF71
:100A600001230B70184AD378DBB2180611D45A064A
:100A70000DD5154B1B795B0609D5194B19491B6818
:100A800000220A7003B11A700F4B2C22DA7030BCAE
:100A9000704711790906EAD5134810490478087897
:100AA000C0B284420DD0421C272A84BF00200246D7
:100AB0000E4D054C98BFD0B2AA5CD2B2E27108705C
:100AC000D5E76C21D170D2E700A00E405411FF1F72
:100AD000E910FF1F1411FF1FE410FF1F5511FF1F26
:100AE0005811FF1FE810FF1F5C11FF1FEC10FF1FC4
:100AF00072B60D4A1168B1FA81F30B2B10D84FF082
:100B00000040D84021EA0001116062B6074803EBBB
:100B1000C303DB00C2180021C1501046516070476A
:100B200062B60020704700BF6807FF1F0004FF1F68
:100B30000D4B0E4AC31AA2FB03131B090B2B0CD837
:100B40000B4A127852B972B60A4A4FF00040116847
:100B500020FA03F31943116062B67047064A12780F
:100B6000002AF0D001F0CCBC0004FF1F398EE3381E
:100B7000AD13FF1F6807FF1FB813FF1F4E4B4F4AEF
:100B8000196841F010012DE9F00F1960136803F4A2
:100B90004033B3F5403F00F08880494D494AB3F5F2
:100BA000803F08BF15468400B5FBF4F7BFB2002FA5
:100BB0006ED0BE00B5FBF6F6361A6CD104440521A2
:100BC0004FF0040C08E0002A71D18C460131212934
:100BD00004441DD016461F46B5FBF4F39BB203F147
:100BE000010803FB01F2A3B1B5FBF2F2121AB24203
:100BF000E9D91FFA88F303FB01F2B5FBF2F2821A7E
:100C0000B242E2D90131212932463B460444E1D1C6
:100C10001F460CF1FF3303F01F03C7F30C072A4AEA
:100C200026492A4DDFF8BCA0DFF8BC90DFF8BC8075
:100C3000274E284C284847EA0367BCF1070F98BFA6
:100C400047F4003717600B68DFF8A4C0234F43F068
:100C5000806BC1F800B0002340F2445140F2135BB6
:100C60008AF8003089F8003088F800308CF80030BD
:100C70003B70C6F800B029609360136153609568BB
:100C8000402145F430154FF48003956021700360D6
:100C9000BDE8F00F70477A1C9300B5FBF3F3C31A5D
:100CA0009E4284BF97B21E4688E70D4D7BE71646ED
:100CB0001F468C469DE700BF2C8004400480044002
:100CC00000879303001C4E0E00400C4024C00440DB
:100CD00020C0044056E400E008E100E06411FF1F7A
:100CE000006CDC02D011FF1F6511FF1FD811FF1F20
:100CF000D111FF1F1B4B9B6800F0030223F013036D
:100D000013434107174A00F00F0148BF43F0100397
:100D10000429936020D0020704D5124B1A6842F0D0
:100D200000521A600F4B5A68C30622F080520D4BD6
:100D300048BF42F080525A609A680A4B22F08052B3
:100D4000810648BF42F080529A60C20503D51A68F6
:100D500042F400521A607047936843F080439360F6
:100D6000D9E700BF00400C40144B1B68DB062DE99F
:100D7000F0411FD5124C237823B103F0A3FA237856
:100D8000002BFAD1DFF854C00E4F0F4E0F4D104C10
:100D900010481149002340F203124FF48008CCF8A8
:100DA0000080BB6032602A60226803700B701AB149
:100DB00001231370BDE8F081BDE8F0812C80044070
:100DC0006411FF1F00400C4020C0044024C00440B8
:100DD0006011FF1FD011FF1F6511FF1F88E100E0A8
:100DE0000A4A38B50546137803F0FF04002BFAD100
:100DF0002846012100F05CFB2846214600F052FB0A
:100E0000034A044B52F835201A6038BD6411FF1FA5
:100E100024AA0000D411FF1F10B409B140F08000D3
:100E20000F4B1A78904217D00E4C2468E40412D568
:100E300002F07F02302A02D10B4A002414600029FC
:100E400000F07F020CBF44216021302A03D1064A02
:100E500041F44071116018705DF8044B704700BF99
:100E60006C07FF1F3480044024C00440704700BF5B
:100E70000D4B1B6813F0100310B505D03F2805D9A2
:100E80000A4B0020186010BD184610BD084B074CD7
:100E900053F830302360012100F00AFB2368002260
:100EA0001A70012010BD00BF2C8004406011FF1F8C
:100EB00024AA00000C4B1B6813F0100306D038283E
:100EC00006D00A4B5A7B02F0FE025A73002070478C
:100ED000074A064B40F2023111605A7B42F0010290
:100EE0005A730120704700BF2C80044000B00E40B0
:100EF00028D004402DE9F84F224B1B68DA068246C1
:100F000038D5214B1B680BB101221A70DFF8909085
:100F10001E4C99F800501E4F1E4E0135272D8ABFDA
:100F20004FF0000B5FFA85FB5D46A04623789D429B
:100F300015D100F081F940281EDC73681B02F5D53D
:100F400098F800300133272B86BF00221346DAB20F
:100F5000FB5CDBB2F360227023789D42E9D00E493E
:100F60000E4A01235FFA8AFA07F805A00B7089F888
:100F700000B01360BDE8F88FFF28D7DD03F0A2F9B9
:100F8000D4E700BF2C800440D411FF1FD111FF1FF4
:100F90006811FF1F00400C406411FF1F5C01884373
:100FA000D811FF1F38B5054631B10C4615F8010BB5
:100FB000FFF7A0FF013CF9D138BD00BF10B5044CCC
:100FC000237823B103F07EF92378002BFAD110BDEA
:100FD0006411FF1F064B074A1B781278DBB2D2B2AE
:100FE00093422CBF273202F1FF32D01A704700BF64
:100FF000D811FF1FD111FF1F054A064B10781B782F
:10100000C0B2DBB2984238BF4030C01A704700BF50
:10101000D011FF1F6511FF1F30B4144B14491A780B
:101020000B78D2B2DBB29A421DD001333F2B11486C
:1010300010D8114CC05C2468DDB2C0B20D703CB158
:101040009A4238BF4032D31A1A2B01DC0023237096
:1010500030BC7047084B00781C680023C0B20B708E
:10106000002CF0D1F4E74FF0FF30F1E7D011FF1F73
:101070006511FF1F9011FF1F6011FF1F084A094BE8
:1010800012781B78DBB29A4207D00133402B28BF7D
:101090000023054AD05CC0B270474FF0FF30704764
:1010A000D011FF1F6511FF1F9011FF1F054A064B4E
:1010B00011781B68054AC9B211700BB100221A7071
:1010C000704700BF6511FF1F6011FF1FD011FF1F88
:1010D00030B42D4B5A68940220D52C4AD868137826
:1010E0002B490133402B097828BF0023994204D0B3
:1010F000284CC0B2D9B2E0541170274A116869B1C6
:10110000264A1278D2B2934236BFC2F14002C2EBF5
:1011100003039B18272BC4BF01230B701A4A936843
:10112000180202D55268110211D45A020DD5164B7D
:101130005B685B0209D51A4B1A491B6800220A70CA
:1011400003B11A70184B00221A6030BC7047174A5E
:10115000124910780A78D2B290420DD00132272A73
:1011600084BF00200246124D074C98BFD0B2AA5C43
:10117000D2B2E2600870D8E70E480B4A0024012181
:1011800004601160D1E700BF00400C40D011FF1F88
:101190006511FF1F9011FF1F6011FF1FD111FF1F6D
:1011A000D411FF1F6411FF1F58018843D811FF1F7E
:1011B0006811FF1F5C018843024B1A6801321A60F4
:1011C000704700BFDC11FF1F08B5104C08E0236812
:1011D00059050DD423681A050FD42368DB0411D4F4
:1011E00023685803F3D501F013FA23685905F1D5A4
:1011F00002F034FB23681A05EFD500F0C3FD236825
:10120000DB04EDD502F034FEEAE700BF3480044091
:1012100008B5FFF7D9FF00BF014B10221A807047B5
:1012200000200540704700BF024A13681844106050
:10123000184670477007FF1FEFF3138070B9EFF384
:1012400010836BB9EFF305825AB94FF48070EFF356
:1012500011822AB1824238BF104670474FF0FF30EA
:1012600070470F2A01D81846F1E7014BD05CEEE732
:10127000F0E300E0084A1378802B01D0002070478B
:101280000649074B07480860002119701378802B26
:10129000FCD00120704700BF03E0074044800440B9
:1012A00001E0074000001711094A1378012B01D013
:1012B0000020704703F1804303F5FC23602119707F
:1012C0001378802BFCD1034B034A1A60012070472E
:1012D00003E00740448004400000070130B429487F
:1012E000294A2A4B2A4D6024E121047011701B7891
:1012F000284C082B30D00A2B2748284937D00C2BF4
:101300000CBF55227D2212232A60236002600B60ED
:10131000234B24491B78244ABBB101230B60136083
:10132000224B23491B78234A012B26D9042B0FD9A2
:10133000082B1ED9102B94BF862387230B601360C4
:101340001D4B01221A7030BC70470B601360E7E739
:1013500084230B601360F3E700F58E200F490830FB
:10136000412213232A60236002600B60D0E75922D8
:10137000F7E785230B601360E2E780230B601360BF
:10138000DEE700BF00400740014007407407FF1F31
:1013900008B003400CB0034008B00B400CB00B4049
:1013A000DA11FF1F20B0034020B00B407507FF1F6C
:1013B00024B0034024B00B40D911FF1F10B4114BCF
:1013C00053F8302092F8804234B1012379B182F889
:1013D00080305DF8044B704703EBC0035B681A680C
:1013E00051B922F002021A605DF8044B704782F88E
:1013F00000315DF8044B704742F003021A605DF85B
:10140000044B704724AA00001C4B03EBC0020129C7
:10141000526811D004291BD053F83000002380F803
:10142000803229B1022920D0032922D013607047CD
:101430004FF480731360704753F830004FF4A27379
:1014400080F880121360136823F020031360704744
:1014500053F830104FF4A273012081F8800213601A
:10146000136843F020031360704740F203131360C6
:1014700070474FF481731360704700BF24AA0000C7
:1014800030B4054B054C0649002210251A60226035
:1014900008601D6030BC704714D0034004D0034086
:1014A00000D003403F2801D8FFF788BF704700BF36
:1014B0003F2801D8FFF7A8BF704700BF72B60C4B9A
:1014C0000C4A0D491B681268096862B6490102D5C9
:1014D000322B88BF01320949C3F56A3303F27F1307
:1014E000A1FB0303DB094FF47A7000FB0230704765
:1014F00018E000E0DC11FF1F04ED00E08988888817
:1015000038B50546FFF7DAFF04469DB1FFF7D6FF71
:10151000001BB0F57A7F09D3013D0AD0FFF7CEFF5B
:1015200004F57A74001BB0F57A7FF5D202F0CAFE9A
:10153000ECE738BD38BD00BF2DE9F84F674BDFF849
:10154000C4A1DFF8C491DFF8C481DFF8C4C1DFF8BB
:10155000C4E1634F634E644D644C65486549664A17
:101560004FF0006BC3F800B04FF0805BC3F800B0E1
:101570004FF0005BC3F800B04FF0804BC3F800B0F1
:101580004FF0004BC3F800B00023CAF800304EF60D
:10159000FF7AC9F800A04FF02809C8F80090CCF8ED
:1015A0000090CEF800900CF5012C0EF5012EC7F836
:1015B0000090DFF864B1C6F800900CF1180C0EF141
:1015C000180E07F5012706F5012618371836C5F855
:1015D0000090C4F80090C0F80090C1F80090C2F8E4
:1015E0000090CBF80090CBF80890CCF80090ABF1CD
:1015F000081BCEF80090AEF5815EC7F80090DFF8CA
:101600001CC1C6F80090AEF1100E0A2645F8346CE5
:10161000A7F58157C4F8C83F05F5FF25C8F8FCAF0A
:1016200004F5FF24C0F8C89FCBF8009000F5002017
:101630000BF5FF2BCCF80060143FCEF8003005F519
:10164000FB6504F5FB64DFF8D880C7F800A000F55F
:101650007C600BF2F47B0CF5002CAEF5DF2EAEF5C2
:10166000FB6EC5F80090C4F80090C8F800600360F5
:10167000CBF800A0C1F80090C2F80090CCF8006050
:10168000DEF800001D491E4EA2F5E222103A40F499
:101690000070CEF8000010680CF5803C0CF1040CD2
:1016A00005F5883504F5883440F0007E47F6FF776D
:1016B0000820C2F800E0CCF800303760C5F8009090
:1016C000C4F800900860FFF709FE4FF4C870FFF7F8
:1016D00017FFBDE8F84F01F0C9BB00BF04E100E00F
:1016E000248003402C800340348003403C8003402E
:1016F000448003400C900B4014900B4000900C4031
:1017000008900C4004800340088003400C80034094
:10171000148003401C8003401C900B400090034049
:1017200000800B402A4B2B4AD3F800C02A492DE9F0
:10173000F0034CF4006CC3F800C01278274F284E19
:10174000284D294C0023092A3B7033702B702370DD
:101750000B7037D03B2A28D0244B1B780A2B2CD077
:101760003A2B03D1224B4FF451721A60214B224D78
:10177000224CC0F34439C0F34718042102223C270D
:10178000402600F01F004FF0880C83F8009083F88B
:10179000018098729970DA74597583F810C0DF70FF
:1017A0002E702260BDE8F0037047154B40F21332F3
:1017B0001A600E4B1B780A2BD2D1124B4FF4517288
:1017C0001A60D3E7104B40F213321A60C4E700BF2F
:1017D000348004407607FF1FE411FF1F5012FF1FE3
:1017E000E511FF1F5812FF1F5112FF1F7707FF1F40
:1017F00000D0044000B0064021E400E004E100E035
:1018000004D0044010B004400CB00440194B9B7845
:1018100000F0030203F0EC03134300F00F01420752
:10182000144A48BF43F01003042993701CD0114B95
:101830005A79C30602F0EF020E4B48BF42F0100285
:101840005A719A790B4B02F0EF02810648BF42F0C1
:1018500010029A71C20506D55A781978D2B241F0B1
:10186000200119705A707047937943F040039371C7
:10187000DDE700BF00B006401F4B1B681B0510B51D
:101880002AD51E4C237823B102F01CFD2378002BAF
:10189000FAD11B481B491C4B022400220460CA7069
:1018A0001B78092B19D03B2B01D1184B1A60184B10
:1018B0001B7803F07F030A2B19D03A2B02D1154B6A
:1018C00000221A60144B154815491A68002303704A
:1018D0000B700AB10123137010BD124B40F20312BA
:1018E0001A600B4B1B7803F07F030A2BE5D10E4BDC
:1018F00040F203121A60E5E734800440E411FF1F50
:1019000084E100E000B006407607FF1F04D00440E9
:101910007707FF1F00D00440E011FF1F5012FF1F88
:10192000E511FF1F0CB0044010B004400A4A38B55E
:101930000546137803F0FF04002BFAD12846012155
:10194000FFF7B6FD28462146FFF7ACFD034A044BDE
:1019500052F835201A6038BDE411FF1F24AA000098
:101960005412FF1F10B409B140F08000164B1A78D2
:10197000904214D0154C246824050FD502F07F0244
:101980000A2A1DD03A2A12D0002900F07F020CBF8B
:10199000442160210A2A0ED03A2A03D018705DF83B
:1019A000044B70470A4A41F440711160F6E7084A57
:1019B00000241460E8E7074A41F440711160EDE744
:1019C000044A00241460DFE77707FF1F34800440D7
:1019D00000D0044010B00440124B1A7890420CD052
:1019E00011490968090507D5092A16D03B2A0AD0EA
:1019F00009280DD03B2801D0187070470B4A40F2DF
:101A000013311160F8E7094A002109281160F1D16A
:101A1000074A40F213311160EEE7054A00211160D8
:101A2000E6E700BF7607FF1F3480044004D004407F
:101A30000CB004400D4B1B6813F4006310B505D0C7
:101A40003F2805D90A4B0020186010BD184610BD6C
:101A5000084B074C53F8303023600121FFF728FD75
:101A6000236800221A70012010BD00BF348004409A
:101A7000E011FF1F24AA00000F4B1B6813F4006342
:101A800008D0172808D03C2811D00C4B5A7B02F004
:101A9000FE025A7300207047094B40F202321A606E
:101AA000064B5A7B42F001025A7301207047054BE6
:101AB00040F202321A60F3E73480044000B006407E
:101AC00008B0044008D004402DE9F84F224B1B68B1
:101AD0001A05814639D5214B1B680BB101221A70BA
:101AE000DFF88C801E4D98F800401E4F1E4E0134CA
:101AF000272C8ABF4FF0000A5FFA84FA5446AB469F
:101B00002B789C4215D1FFF797FB40281FDC3379D7
:101B10001B06F5D59BF800300133272B86BF00222A
:101B20001346DAB2FB5CDBB2F3712A702B789C426D
:101B3000E9D00E490C4B5FFA89F90120BC2207F865
:101B40000490087088F800A0DA70BDE8F88FFF28CC
:101B5000D6DD02F0B7FBD3E7348004405412FF1FF8
:101B60005112FF1FE811FF1F00B00640E411FF1FD4
:101B70005812FF1F2DE9F04F2C4B1B681A0583B03C
:101B8000074650D52A4B1B680BB101221A707918F1
:101B90008F42019144D2DFF8A8A0264DDFF8A4B00F
:101BA000DFF898900BE017F8013B234A0BF806305A
:101BB00001231370019B8AF800809F4230D09AF86D
:101BC00000602C780136272E84BF4FF0000846466F
:101BD000E4B298BF5FFA86F8B442E4D1BC2389F836
:101BE000033006E099F804301B060BD42B789C4296
:101BF000D9D1FFF721FB4028F4DDFF28F6DD02F004
:101C000061FBF3E72B780133272B86BF00221346B5
:101C1000DAB21BF80330DBB289F807302A70E5E747
:101C2000064BBC22DA7003B0BDE8F08F348004406C
:101C30005412FF1F5112FF1FE411FF1F00B0064096
:101C40005812FF1FE811FF1F10B5044C237823B171
:101C500002F038FB2378002BFAD110BDE411FF1FEE
:101C6000064B074A1B781278DBB2D2B293422CBFE4
:101C7000273202F1FF32D01A704700BF5812FF1FFF
:101C80005112FF1F054A064B10781B78C0B2DBB219
:101C9000984238BF4030C01A704700BF5012FF1F33
:101CA000E511FF1F30B4144B14491A780B78D2B2E7
:101CB000DBB29A421DD001333F2B114810D8114C92
:101CC000C05C2468DDB2C0B20D703CB19A4238BF2E
:101CD0004032D31A1A2B01DC0023237030BC70472A
:101CE000084B00781C680023C0B20B70002CF0D1A8
:101CF000F4E74FF0FF30F1E75012FF1FE511FF1F2F
:101D00001012FF1FE011FF1F084A094B12781B78C1
:101D1000DBB29A4207D00133402B28BF0023054A8B
:101D2000D05CC0B270474FF0FF3070475012FF1FB9
:101D3000E511FF1F1012FF1F0D4B1B681B0530B470
:101D400014D50C4B0C49DD780C480D4A402405F0A5
:101D5000CB05DD705C74DC7844F03404DC70097809
:101D60000368C9B211700BB100221A7030BC704701
:101D70003480044000B00640E511FF1FE011FF1F52
:101D80005012FF1FF0B4394B1A7912F0300F2DD0DA
:101D900072B6997D01F0FF0200293ED062B6344F41
:101DA000344839780478344E1D46C9B2E4B24B1C2D
:101DB000402BE87928BF0023A34202F1FF32C0B2D2
:101DC0001CBFF054194612F0FF02F0D12B4B1B68D8
:101DD000CAB23A7053B1A14236BFC4F14004C4EB59
:101DE000010109192729C4BF01221A701F49CA78A5
:101DF000D2B2150616D452060DD51C4B1B795B06C4
:101E000009D51F4B1F491B6800220A7003B11A70C5
:101E1000164B3C22DA70F0BC70474022D9795A74D4
:101E200062B6E3E70B791C06E5D5174B174E1C7815
:101E30003378E4B2DBB29C420ED0154D01E0A342F0
:101E40000AD00133282B28BF00230879E85CC0B2F0
:101E5000C871087D0728F2D9DBB2044933700B79C9
:101E6000180644BF7C23CB70C5E700BF00B0064016
:101E70005012FF1FE511FF1F1012FF1FE011FF1F7F
:101E80005412FF1FE411FF1F5812FF1F5112FF1FB2
:101E9000E811FF1F274B284AD3F800C027492DE936
:101EA000F0014CF4005CC3F800C01278244F254EBA
:101EB000254D264C00231F2A3B7033702B70237056
:101EC0000B7032D03F2A23D0214B1B78202B27D0F8
:101ED0003E2B03D11F4B4FF451721A601E4B1F4D06
:101EE0001F49C0F34438C0F3471C00222C2740266A
:101EF00000F01F0083F80080202483F801C098724E
:101F00009A701A74DF702E700C60BDE8F001704793
:101F1000144B40F213321A600D4B1B78202BD7D193
:101F2000114B4FF451721A60D8E7104B40F2133244
:101F30001A60C9E7348004407807FF1F6012FF1F52
:101F4000CC12FF1F6112FF1FD412FF1FCD12FF1F03
:101F50007907FF1F10D0044000D0064025E400E0C0
:101F600004E100E014D004402CA0044028A0044068
:101F7000194B9B7800F0030203F0EC03134300F0CD
:101F80000F014207144A48BF43F01003042993701D
:101F90001CD0114B5A79C30602F0EF020E4B48BF1A
:101FA00042F010025A719A790B4B02F0EF0281064F
:101FB00048BF42F010029A71C20506D55A781978C6
:101FC000D2B241F0200119705A707047937943F0F2
:101FD00040039371DDE700BF00D00640F8B5214B08
:101FE0001B689B0430D5204C237823B102F06AF99A
:101FF0002378002BFAD11D4E1D4D1E481E4C1F4A42
:1020000040F20313202700213760E970036023604A
:1020100012781F2A19D03F2A01D1194B1960194B88
:102020001B7803F07F03202B16D03E2B02D1164BDA
:1020300000221A60154B164816491A6800230370CF
:102040000B700AB101231370F8BD03600D4B1B78B0
:1020500003F07F03202BE8D1074B40F203121A60F4
:10206000E8E700BF348004406012FF1F84E100E015
:1020700000D0064028A004402CA004407807FF1F91
:1020800014D004407907FF1F10D004405C12FF1FDA
:10209000CC12FF1F6112FF1F0A4A38B5054613789C
:1020A00003F0FF04002BFAD128460121FFF700FAC4
:1020B00028462146FFF7F6F9034A044B52F835202B
:1020C0001A6038BD6012FF1F24AA0000D012FF1F43
:1020D00010B409B140F08000164B1A78904214D029
:1020E000154C2468A4040FD502F07F02202A1DD0CD
:1020F0003E2A12D0002900F07F020CBF442160214B
:10210000202A0ED03E2A03D018705DF8044B704789
:102110000A4A41F440711160F6E7084A002414604D
:10212000E8E7074A41F440711160EDE7044A0024F2
:102130001460DFE77907FF1F3480044010D00440AB
:102140002CA00440124B1A7890420CD01149096817
:10215000890407D51F2A16D03F2A0AD01F280DD080
:102160003F2801D0187070470B4A40F213311160BC
:10217000F8E7094A00211F281160F1D1074A40F20F
:1021800013311160EEE7054A00211160E6E700BF58
:102190007807FF1F3480044014D0044028A0044076
:1021A0000D4B1B6813F4005310B505D03F2805D91B
:1021B0000A4B0020186010BD184610BD084B074C94
:1021C00053F8303023600121FFF772F923680022B1
:1021D0001A70012010BD00BF348004405C12FF1F44
:1021E00024AA0000002070472DE9F84F224B1B68FD
:1021F0009A04814639D5214B1B680BB101221A7014
:10220000DFF88C801E4D98F800401E4F1E4E0134A2
:10221000272C8ABF4FF0000A5FFA84FA5446AB4677
:102220002B789C4215D1FFF707F840281FDC337943
:102230001B06F5D59BF800300133272B86BF002203
:102240001346DAB2FB5CDBB2F3712A702B789C4246
:10225000E9D00E490C4B5FFA89F90120AC2207F84E
:102260000490087088F800A0DA70BDE8F88FFF28A5
:10227000D6DD02F027F8D3E734800440D012FF1FE8
:10228000CD12FF1F6412FF1F00D006406012FF1F17
:10229000D412FF1F38B5054631B10C4615F8010BB5
:1022A000FFF7A2FF013CF9D138BD00BF10B5044CC7
:1022B000237823B102F006F82378002BFAD110BD61
:1022C0006012FF1F064B074A1B781278DBB2D2B2AE
:1022D00093422CBF273202F1FF32D01A704700BF61
:1022E000D412FF1FCD12FF1F054A064B10781B7832
:1022F000C0B2DBB2984238BF4030C01A704700BF4E
:10230000CC12FF1F6112FF1F30B4144B14491A780E
:102310000B78D2B2DBB29A421DD001333F2B114869
:1023200010D8114CC05C2468DDB2C0B20D703CB155
:102330009A4238BF4032D31A1A2B01DC0023237093
:1023400030BC7047084B00781C680023C0B20B708B
:10235000002CF0D1F4E74FF0FF30F1E7CC12FF1F73
:102360006112FF1F8C12FF1F5C12FF1F084A094BEE
:1023700012781B78DBB29A4207D00133402B28BF7A
:102380000023054AD05CC0B270474FF0FF30704761
:10239000CC12FF1F6112FF1F8C12FF1F054A064B54
:1023A00011781B68054AC9B211700BB100221A706E
:1023B000704700BF6112FF1F5C12FF1FCC12FF1F8E
:1023C00030B42B4B1A79940620D52A4AD879137841
:1023D00029490133402B097828BF00239942C0B214
:1023E00003D0264CD9B2E0541170254A116869B166
:1023F000244A1278D2B2934236BFC2F14002C2EBF5
:1024000003039B18272BC4BF01230B70184AD378F2
:10241000DBB2180611D45A060DD5154B1B795B0695
:1024200009D5194B19491B6800220A7003B11A70AB
:102430000F4B2C22DA7030BC704711790906EAD5AF
:102440001348104904780878C0B284420DD0421C69
:10245000272A84BF002002460E4D054C98BFD0B2FB
:10246000AA5CD2B2E2710870D5E76C21D170D2E7D4
:1024700000D00640CC12FF1F6112FF1F8C12FF1FFD
:102480005C12FF1FCD12FF1FD012FF1F6012FF1F33
:10249000D412FF1F6412FF1F431E032B70B411D808
:1024A00072B60A4A52F8230048B10949058831F842
:1024B0001360446842F82340721B21F8132062B66F
:1024C00070BC7047002070BC704700BF3013FF1F06
:1024D0009016FF1F013803280BD872B6074B53F82C
:1024E000203043B100205B680130002BFBD162B685
:1024F0007047002070471846F9E700BF8413FF1F9C
:10250000F0B472B61B4D1C4E0123E9189A0011F865
:10251000011C194F090742F0010405D556F8321085
:1025200061B156F83420BAB10133052BEDD162B652
:10253000124B00221A70F0BCFEF7FABA0F49104C89
:102540000D7807EB43130830013D58600D7047F8D4
:10255000324062B6F0BC7047084B0A4A197807EB64
:10256000C405083001396860197047F8342062B634
:10257000F0E700BF24AC00000000FF1FAD13FF1FF9
:1025800088004000C8004000431E032B30B418D818
:102590001B4A400140F01000104472B6194CE25C36
:1025A000032A03D8DFE802F022240F1F164A52F84C
:1025B000230000B3154A52F82300416042F823106B
:1025C00062B630BC704705220D88E25410F0080F47
:1025D0000CBF8823C82343EA0543083103604160E8
:1025E00062B630BC704708300422EDE70322EBE707
:1025F00008300222E8E742F82310044ADEE700BF71
:102600000000FF1FBC13FF1F8413FF1F9413FF1F45
:102610002DE9F04FDFF800B3DFF800A387B043E007
:10262000A94D4FEA930805EBC809013CD9F80420ED
:1026300003F00803E4B2A2F1080003F0FF01002B4D
:1026400040F0FE8055F838301B0C22F8083C002B77
:1026500000F0ED809D4E22F8061C42F8041C56F84E
:102660002420002A00F04182994E56F82420506020
:10267000984A46F8240032F814100B4422F814301B
:10268000FEF736FA002800F02982934A934B19F09E
:10269000080F00F1080008BF1346C9F8040045F808
:1026A000383008238BF800309BF80040E4B2610713
:1026B0001AD58B4B1B78A3B18A4A137803F0FF011C
:1026C00023B14B1EDBB2137003B900BE864A1378E8
:1026D00003F0FF012BB14B1EDBB21370002B00F097
:1026E000C88104238BF8003004F0080303F0FF02D4
:1026F000002B00F0C9809AF80030DBB21C098FD1A2
:102700009A08714C54F8323004EBC201C3F38303CE
:10271000013B49680C2B00F28680DFE803F07A7AEF
:102720008484848484844184848407000F686F488F
:102730004B68DFF8A8C144F832C0DFF8E4916C4D73
:10274000436040F28162BBB20026012193420760E0
:10275000C9F800602661A661297000F2E380B3F534
:10276000D06F80F03A82B3F5817F00F00B8300F2E6
:10277000D981802B00F01E83822B40F01783838841
:10278000042B00F233835B4F5B4A9B001F4416709F
:1027900056703B789E0740F12D8311700221EEE1C7
:1027A000DFF87C91D9F8001041B3544F544B38886E
:1027B0004F4D1E7895F800C0402834BF0246402295
:1027C000801A80B2BCF1000F388086F0010746F015
:1027D00002061F7004EBC6070CBF8823C8238CF0C9
:1027E000010C43EA0243796085F800C044F83630B2
:1027F000002800F0B8808818C9F800003B4B1A8800
:10280000B2F5A06F0FD13F489A780021597002703D
:1028100009E0364B188842F22103984200F0A78065
:102820002E4B44F83230384901230B7039E72A4ADD
:102830002A4B19F0080F08BF134645F8383030E727
:10284000FEF776F9314A324F52F82430002B00F06F
:1028500050815968385D42F8241003F10802C9F824
:102860000420032805D8DFE800F0022C29260322E3
:102870003A551A8819F0080F0CBF8823C82343EA79
:10288000024345F838300CE7E00700F1F5802106F7
:1028900000F13E81A20706D51E4B1F4A187802217F
:1028A000C0B218701170E30602D51B4B10221A70CB
:1028B00007B0BDE8F08F04223A55DAE705223A5511
:1028C000D7E702223A55D4E70000FF1F3013FF1F5D
:1028D000DC12FF1F9016FF1F88004000C800400058
:1028E000B813FF1F4113FF1FC013FF1FA413FF1FC7
:1028F0004013FF1FC0200740B013FF1FEC12FF1F43
:10290000AC13FF1F98200740942007408413FF1F3B
:10291000BC13FF1F882007408020074090200740FD
:10292000D812FF1F42F22102934200F09C8043D84C
:10293000B3F5086F00F01F81B3F5106F40F03682D9
:10294000B54BB64E82781A7006F1800703E0083660
:10295000BE4200F09381336A1A06F8D5706A0838CF
:10296000FEF7E6F8F3E7402A7FF446AF43E7AC4BC7
:10297000DD1D11F8010B03F8010FAB42F9D1A94B92
:102980001B68862B00F02581A74BA84D1E78287860
:1029900046F00201002886F0010604EBC1071E7014
:1029A00080F001004FF000060CBF8823C8237E6032
:1029B000287044F8313033E742F22122934240F04C
:1029C000FE81DFF8A8C29A4F9A4B8278DCF80000AB
:1029D0003860B44605911A700021049103910E46A7
:1029E0000A46914B187840F0020704EBC708C8F874
:1029F0000420059A002A40F0DF808822019102928B
:102A0000DDF80C80029A85F800C042EA080280F0E6
:102A1000010844F8372083F80080002940F0A180A5
:102A20003F2E20D90904002648F00202059F1870A5
:102A3000BCF1000F04982F7004EBC2080CBF4FF0DC
:102A4000880C4FF0C80C019FC8F804004CEA010143
:102A500003463B4444F832100EB9402F03D1764A66
:102A6000C9F800301680DFF8D481012388F80030DF
:102A7000D9E600F087FB34E6684B70486A49DFF816
:102A8000D8A11A614FF0020B80F800B06C4C0A70AC
:102A90004FF00D0B1C609C609A61DFF8D4918AF8AE
:102AA00000B0DFF8B8C1674F674E684DDFF8C481EA
:102AB000DFF8C4B1FF219F244FF0010A89F800100C
:102AC000C3F804808CF80010C3F80CB03A70317071
:102AD0002C7080F800A007B0BDE8F08F5C4B45F883
:102AE00038001A7801321A70DBE546F82400594E96
:102AF000BEE53B5D032B65D80FF2040858F823F0C0
:102B0000A3260000A32600005D2B0000572B000029
:102B10005149524B80220D2008701A70A2077FF590
:102B2000C2AEB9E640F20232934240F03C81838863
:102B300003F07F03042B00F355814088002840F008
:102B40005181454A05919B001A448446137843F00D
:102B50000203137040E701233B55A2E500233B55D8
:102B60009FE540297FF65EAF4022A1F14006019229
:102B70004FF4800158E7284B394A1B781370B0F89E
:102B800006C08C4580F04981274B187840F0020739
:102B900004EBC701BCF1400F34BF664640264A60D3
:102BA000324404924FEA06480122C6EB0C01CDF8EC
:102BB0000C804FF0000C05924FF0C8080191CDF841
:102BC00008801DE719F0080F0CBF022303233B55B3
:102BD00067E5244B0F211970D6E623494A68002A7D
:102BE00000F0F6804788B0F804C001F10C0305E05E
:102BF0000A690C330C31002A00F0EA8033F80C6CBF
:102C0000BE42F5D133F80A6C6645F1D13F0A032F75
:102C10000CBF11780989B2E7B813FF1F0000FF1F2E
:102C20009716FF1F9816FF1FAC13FF1F4013FF1FBF
:102C3000A016FF1FD013FF1FEC12FF1F94200740A8
:102C400088004000982007408C20074084200740DF
:102C5000AD13FF1FDC12FF1FC0200740802007407C
:102C6000B013FF1F4113FF1F28AC0000DC11FF1F32
:102C700088200740F012FF1F4413FF1F6E4A6F4E5B
:102C80006F4FCDF8149000230395984691461D464A
:102C900004966C49485908B905E030464668FDF786
:102CA00047FF002EF9D1684A66495059049A00231B
:102CB0004B51535108B905E030464668FDF738FFDF
:102CC000002EF9D117F808305F49604A0020023B16
:102CD0004851505129F8020F032B07D8DFE803F0C1
:102CE000320232024FF0010207F808200435102D9D
:102CF00008F10108CDD1DFF870C1554B039DDDF817
:102D0000149004954FF0000883F800800126654672
:102D1000504B3344B70013F8013C05F8043B1B0744
:102D200015D447F00203013647F00307052E44F897
:102D3000338044F83780EBD1049D2A78059282F0E5
:102D4000010C49E64FF0000107F80810CEE7FDF747
:102D5000CFFE04EB461300F10802002855D03E4890
:102D60005A6044F83700FDF7C3FE47F0010304EB57
:102D7000C30200F1080100283ED05160374A44F8F0
:102D80003320CEE7838803F07F03042B24DC4088C4
:102D900010BB334A05919B001A448446137823F0F4
:102DA0000203137018E6B3F5A06F0CD02C4A0F2362
:102DB000137058E62B4A022116705670DFE642F275
:102DC00021329342F2D101204FF0000C059003E62E
:102DD00023490F230B7046E6DFF884800F2388F821
:102DE000003040E61E480F2303703CE61C4F0F23C3
:102DF0003B7038E60221C2E615490B7847F0010224
:102E0000013344F832000B708BE711490B78B7009F
:102E1000013344F837000B70A5E7402934BF0E4654
:102E20004026330497190120891B039304974FF020
:102E3000000C0590D5E500BF8E16FF1FDC12FF1FAA
:102E4000BC13FF1F3013FF1F8413FF1F9413FF1FBA
:102E5000AD13FF1F24AC000088004000C8004000F4
:102E6000C0200740B013FF1FC42007402DE9F84FD2
:102E700000F07CFD264C00210846631860500831A4
:102E8000882958604FF00002214BF6D12148224991
:102E90000468DFF8A0A0DFF8A090DFF8A080DFF8DA
:102EA000A0C01E4F1E4E1F4D44F480240460D1F874
:102EB00000B01D4C4BF0407BC1F800B0C3F30721BC
:102EC0008AF80010C3F3074189F800101B0EFF2198
:102ED00088F800308CF8001039703170134900F513
:102EE00028304FF0010981F80090D43081F86C202F
:102EF0000F4A4FF070084FF400134FF0100C82F897
:102F0000009085F80080236080F800C0BDE8F88F4D
:102F10000000FF1F3480044000D800408820074094
:102F20001020074035E400E004E100E09420074071
:102F3000842007409C200740B0200740B420074071
:102F40008020074038B50F4C206878B1438802884C
:102F5000C118013393420D7A02D24380284638BD0E
:102F6000FDF7E6FD00232846236038BD064B1B789D
:102F70002BB10320FFF790FA20600028E6D14FF034
:102F8000FF3038BDCC13FF1FB813FF1F10B5094C1D
:102F9000206818B143881844007A10BD064B1B788E
:102FA0002BB10320FFF778FA20600028F2D14FF010
:102FB000FF3010BDCC13FF1FB813FF1F044B054A91
:102FC0001B6890881BB11A885B88D31A1844704715
:102FD000CC13FF1F9016FF1F10B50B4B1B788BB146
:102FE0000A4C206848B1FDF7A3FD002303202360AD
:102FF000FFF752FA30B1FDF79BFD0320FFF74CFAC3
:103000000028F8D110BD00BFB813FF1FCC13FF1F5D
:103010002DE9F04FDFF8F4A083B00122019183463F
:103020008AF8002039B3DFF8E880344F019DD8F8E2
:10303000001081B3DFF8C4904A88C2F14004A54271
:1030400038BF2C46101980B2083200262D1B48804C
:103050000A4489F800603CB15C441BF8010B02F89B
:10306000010BA345F9D148883F280BD8244A0521F4
:103070001170002DDBD1019800238AF8003003B0D5
:10308000BDE8F08F40220A800420FFF77DFA00227D
:10309000C8F80020EAE71B4E32782AB31A4CDFF852
:1030A0005C9007E0013C17D03A78AAB901F00AF920
:1030B0003278CAB10420FFF70DFA0728F2D84FF092
:1030C00001038AF80030FDF713FDC8F8000098B935
:1030D0000E4B013C1870E7D101234FF0FF3089F807
:1030E000003003B0BDE8F08F00234FF0FF308AF8C6
:1030F000003003B0BDE8F08F01469DE7C813FF1F05
:10310000C013FF1FB813FF1F81B50100C113FF1FBC
:10311000C413FF1F00B583B002AB012103F8010DFA
:103120001846FFF775FF03B05DF804FBF8B5114BC7
:103130001B788BB1104E114D346801272F7064B18C
:103140000F4A638800271770214623800420FFF769
:103150001BFA376000232B70F8BDFDF7C9FC084B44
:1031600028B1014604201C70FFF70EFAF2E71F7029
:10317000F0E700BFB813FF1FC413FF1FC113FF1FE9
:10318000C013FF1F38B50E4B1B7803F0FF0563B962
:103190000C4C216851B14B880B800420FFF7F4F9E7
:1031A000256038BD084B01221A7038BDFDF7A0FC20
:1031B0000028F7D00146BDE838400420FFF7E4B905
:1031C000C113FF1FC413FF1FC013FF1F2DE9F84FCA
:1031D000204B1B6883460BB101221A70DFF88880F0
:1031E0001D4D98F800401D4F1D4E01343F2C8ABFE5
:1031F0004FF000095FFA84F94C46AA462B78A342A7
:1032000015D1FEF719F840281FDC33791B06F5D5D8
:103210009AF8003001333F2B86BF00221346DAB202
:10322000FB5CDBB2F3712A702B78A342E9D00D4925
:103230000B4B5FFA8BFB07F804B00120BC2208702F
:1032400088F80090DA70BDE8F88FFF28D6DD01F02D
:1032500039F8D3E76414FF1F6114FF1FDC13FF1F4D
:1032600000A006406014FF1F6814FF1F334B344A50
:10327000D3F800C033492DE9F0074CF4806CC3F853
:1032800000C01278304F314E314D324C0023152A98
:103290003B7033702B7023700B7049D01B2A42D0C7
:1032A0007AB32D4B1B78052B33D01A2B36D0012B3C
:1032B00022D02A4B2A4D2B49C0F3443AC0F3471978
:1032C00004224FF002083C27402600F01F004FF078
:1032D000880C83F800A04FF0004483F801909872A6
:1032E0009A7083F813805A7583F810C0DF702E70BF
:1032F0000C60BDE8F00770471B4B4FF451721A6029
:10330000D7E71A4B40F213321A60134B1B78052B88
:10331000CBD1174B4FF451721A60CAE7154B4FF4DB
:1033200051721A60C5E7144B40F213321A60B8E7C5
:10333000124B40F213321A60B3E700BF34800440EE
:103340001C14FF1F6014FF1FD813FF1FD913FF1F8A
:103350006814FF1F6114FF1F7A07FF1F00A00640BB
:103360001FE400E000E100E044A0044040A004406D
:103370001CC00440389004403C90044018C00440F5
:10338000194B9B7800F0030203F0EC03134300F0A9
:103390000F014207144A48BF43F0100304299370F9
:1033A0001CD0114B5A79C30602F0EF020E4B48BFF6
:1033B00042F010025A719A790B4B02F0EF0281062B
:1033C00048BF42F010029A71C20506D55A781978A2
:1033D000D2B241F0200119705A707047937943F0CE
:1033E00040039371DDE700BF00A00640144B1B684B
:1033F0005B052DE9F0411FD5124C237823B100F075
:1034000061FF2378002BFAD1DFF854C00E4F0F4E26
:103410000F4D104C1048114900234FF00048CCF8D4
:10342000008040F20312FB7032602A602268037051
:103430000B701AB101231370BDE8F081BDE8F08173
:10344000348004406014FF1F00A0064040A00440E8
:1034500044A00440D413FF1FD813FF1FD913FF1F2C
:1034600080E100E00A4A38B50546137803F0FF040E
:10347000002BFAD128460121FEF71AF828462146EA
:10348000FEF710F8034A044B52F835201A6038BD95
:103490006014FF1F24AA00006414FF1F10B409B1B8
:1034A00040F080001D4B1A78904218D01C4C2468C4
:1034B000640513D502F07F02052A2AD01A2A24D0E7
:1034C000012A14D0002900F07F020CBF44216021A2
:1034D000052A15D01A2A0ED0012A03D018705DF8DB
:1034E000044B70470F4A41F440711160F6E70D4AF2
:1034F00000241460E6E70C4A41F440711160EDE7E6
:103500000A4A41F440711160E8E7074A0024146058
:10351000D8E7064A00241460D4E700BF7A07FF1FEB
:103520003480044044A00440389004401CC004404F
:10353000174A137898420ED016490968490509D5EB
:10354000152B20D01B2B1AD05BB115280DD01B28B2
:1035500010D008B1107070470F4B40F21331196052
:10356000F8E70D4915280B60F1D10C4B40F21331EF
:103570001960EFE70A4B40F213311960EAE7084B94
:1035800000211960E1E7054B00211960DDE700BF6C
:103590001C14FF1F3480044040A0044018C00440A5
:1035A0003C9004400D4B1B6813F4806310B505D0AC
:1035B0003F2805D90A4B0020186010BD184610BDE1
:1035C000084B074C53F8303023600121FDF770FFA2
:1035D000236800221A70012010BD00BF348004400F
:1035E000D413FF1F24AA00000F4B1B6813F4806341
:1035F00008D0122808D0142811D00C4B5A7B02F0A6
:10360000FE025A7300207047094B40F202321A60E2
:10361000064B5A7B42F001025A7301207047054B5A
:1036200040F202321A60F3E73480044000A0064002
:103630000CA0044014C00440034B1B685B0501D57B
:10364000FFF7C4BD704700BF348004402DE9F04F40
:103650002C4B1B685A0583B0074650D52A4B1B6874
:103660000BB101221A7079188F42019144D2DFF810
:10367000A8A0264DDFF8A4B0DFF898900BE017F86B
:10368000013B234A0BF8063001231370019B8AF893
:1036900000809F4230D09AF800602C7801363F2E8F
:1036A00084BF4FF000084646E4B298BF5FFA86F840
:1036B000B442E4D1BC2389F8033006E099F8043021
:1036C0001B060BD42B789C42D9D1FDF7B5FD4028C1
:1036D000F4DDFF28F6DD00F0F5FDF3E72B7801338C
:1036E0003F2B86BF00221346DAB21BF80330DBB251
:1036F00089F807302A70E5E7064BBC22DA7003B080
:10370000BDE8F08F348004406414FF1F6114FF1F74
:103710006014FF1F00A006406814FF1FDC13FF1F8A
:1037200010B5044C237823B100F0CCFD2378002B96
:10373000FAD110BD6014FF1F064B074A1B781278A0
:10374000DBB2D2B293422CBF3F3202F1FF32D01A29
:10375000704700BF6814FF1F6114FF1F054A064B26
:1037600010781B78C0B2DBB2984238BF4030C01A24
:10377000704700BFD813FF1FD913FF1F30B4144B7D
:1037800014491A780B78D2B2DBB29A421DD00133B9
:103790003F2B114810D8114CC05C2468DDB2C0B278
:1037A0000D703CB19A4238BF4032D31A1A2B01DC5B
:1037B0000023237030BC7047084B00781C6800233E
:1037C000C0B20B70002CF0D1F4E74FF0FF30F1E7FE
:1037D000D813FF1FD913FF1F2014FF1FD413FF1F7F
:1037E000084A094B12781B78DBB29A4207D00133A2
:1037F000402B28BF0023054AD05CC0B270474FF071
:10380000FF307047D813FF1FD913FF1F2014FF1F6D
:103810000D4B1B685B0530B414D50C4B0C49DD789F
:103820000C480D4A402405F0CB05DD705C74DC7853
:1038300044F03404DC7009780368C9B211700BB12C
:1038400000221A7030BC70473480044000A006404B
:10385000D913FF1FD413FF1FD813FF1FF0B4394B28
:103860001A7912F0300F2DD072B6997D01F0FF0257
:1038700000293ED062B6344F344839780478344E4B
:103880001D46C9B2E4B24B1C402BE87928BF002387
:10389000A34202F1FF32C0B21CBFF054194612F02D
:1038A000FF02F0D12B4B1B68CAB23A7053B1A14250
:1038B00036BFC4F14004C4EB010109192729C4BF74
:1038C00001221A701F49CA78D2B2150616D45206C0
:1038D0000DD51C4B1B795B0609D51F4B1F491B6877
:1038E00000220A7003B11A70164B3C22DA70F0BC49
:1038F00070474022D9795A7462B6E3E70B791C0607
:10390000E5D5174B174E1C783378E4B2DBB29C42F6
:103910000ED0154D01E0A3420AD00133402B28BF41
:1039200000230879E85CC0B2C871087D0728F2D985
:10393000DBB2044933700B79180644BF7C23CB708B
:10394000C5E700BF00A00640D813FF1FD913FF1F13
:103950002014FF1FD413FF1F6414FF1F6014FF1FE8
:103960006814FF1F6114FF1FDC13FF1F30B585B003
:1039700072B6FDF77FFC184A184B19491160702286
:1039800080211A701A46197013781B06FCD5154B46
:103990001D68FDF789FC62B6134B9D429CBF05EB89
:1039A00085056D0001AC214628460A2200F0CCFABC
:1039B0000E4900230846E25C01333AB10A2B20F895
:1039C000022FF8D116230B7005B030BD5B00DBB2BF
:1039D0000B7005B030BD00BF040002400000024083
:1039E000000007410C0002407F9698000808FF1F66
:1039F000204ADFF89CC0204B20492DE9F00FD2F877
:103A000000B0DFF890A0DFF89090DFF890801C4FB6
:103A10001C4E1D4D1D4C4BF4805BC2F800B00022C3
:103A20008AF8002040F2133B89F80020C0F3443AA2
:103A300088F800204FF451798CF80020C0F3471823
:103A40003A7000F01F0040274FF02C0CC6F800B071
:103A5000C5F80090082683F800A083F801809872CA
:103A60009A701A7483F803C027700E60BDE8F00FD7
:103A7000704700BF3480044000C0064004E100E00D
:103A80007014FF1F08C004400CC0044023E400E091
:103A9000DD14FF1FDC14FF1F7114FF1FE414FF1F50
:103AA000194B9B7800F0030203F0EC03134300F082
:103AB0000F014207144A48BF43F0100304299370D2
:103AC0001CD0114B5A79C30602F0EF020E4B48BFCF
:103AD00042F010025A719A790B4B02F0EF02810604
:103AE00048BF42F010029A71C20506D55A7819787B
:103AF000D2B241F0200119705A707047937943F0A7
:103B000040039371DDE700BF00C00640144B1B6803
:103B1000DB042DE9F0411FD5124C237823B100F0CE
:103B2000D1FB2378002BFAD1DFF854C00E4F0F4E93
:103B30000F4D104C1048114900234FF00808CCF8E5
:103B4000008040F20312FB7032602A60226803702A
:103B50000B701AB101231370BDE8F081BDE8F0814C
:103B6000348004407014FF1F00C0064008C00440A9
:103B70000CC004406C14FF1FDC14FF1F7114FF1FE6
:103B800084E100E00A4A38B50546137803F0FF04E3
:103B9000002BFAD128460121FDF78AFC2846214650
:103BA000FDF780FC034A044B52F835201A6038BDFB
:103BB0007014FF1F24AA0000E014FF1F10B409B105
:103BC00040F080000F4B1A78904217D00E4C2468BA
:103BD000E40412D502F07F02082A02D10B4A002425
:103BE0001460002900F07F020CBF44216021082AE4
:103BF00003D1064A41F44071116018705DF8044B1E
:103C0000704700BF2008FF1F348004400CC00440F0
:103C1000704700BF0D4B1B6813F4805310B505D0DF
:103C20003F2805D90A4B0020186010BD184610BD6A
:103C3000084B074C53F8303023600121FDF738FC66
:103C4000236800221A70012010BD00BF3480044098
:103C50006C14FF1F24AA00000C4B1B6813F4805344
:103C600006D00E2806D00A4B5A7B02F0FE025A7389
:103C700000207047074A064B40F2023111605A7B20
:103C800042F001025A730120704700BF34800440A3
:103C900000C0064004C004402DE9F84F224B1B68C9
:103CA000DA04814639D5214B1B680BB101221A7009
:103CB000DFF88C801E4D98F800401E4F1E4E0134D8
:103CC000272C8ABF4FF0000A5FFA84FA5446AB46AD
:103CD0002B789C4215D1FDF7AFFA40281FDC3379D1
:103CE0001B06F5D59BF800300133272B86BF002239
:103CF0001346DAB2FB5CDBB2F3712A702B789C427C
:103D0000E9D00E490C4B5FFA89F90120AC2207F883
:103D10000490087088F800A0DA70BDE8F88FFF28DA
:103D2000D6DD00F0CFFAD3E734800440E014FF1F63
:103D3000DD14FF1F7414FF1F00C006407014FF1F26
:103D4000E414FF1F38B5054631B10C4615F8010BD8
:103D5000FFF7A2FF013CF9D138BD00BF10B5044CFC
:103D6000237823B100F0AEFA2378002BFAD110BDEE
:103D70007014FF1F064B074A1B781278DBB2D2B2D1
:103D800093422CBF273202F1FF32D01A704700BF96
:103D9000E414FF1FDD14FF1F054A064B10781B7843
:103DA000C0B2DBB2984238BF4030C01A704700BF83
:103DB000DC14FF1F7114FF1F30B4144B14491A7820
:103DC0000B78D2B2DBB29A421DD001333F2B11489F
:103DD00010D8114CC05C2468DDB2C0B20D703CB18B
:103DE0009A4238BF4032D31A1A2B01DC00232370C9
:103DF00030BC7047084B00781C680023C0B20B70C1
:103E0000002CF0D1F4E74FF0FF30F1E7DC14FF1F96
:103E10007114FF1F9C14FF1F6C14FF1F084A094BED
:103E200012781B78DBB29A4207D00133402B28BFAF
:103E30000023054AD05CC0B270474FF0FF30704796
:103E4000DC14FF1F7114FF1F9C14FF1F054A064B53
:103E500011781B68054AC9B211700BB100221A70A3
:103E6000704700BF7114FF1F6C14FF1FDC14FF1F8D
:103E700030B42B4B1A79940620D52A4AD879137876
:103E800029490133402B097828BF00239942C0B249
:103E900003D0264CD9B2E0541170254A116869B19B
:103EA000244A1278D2B2934236BFC2F14002C2EB2A
:103EB00003039B18272BC4BF01230B70184AD37828
:103EC000DBB2180611D45A060DD5154B1B795B06CB
:103ED00009D5194B19491B6800220A7003B11A70E1
:103EE0000F4B2C22DA7030BC704711790906EAD5E5
:103EF0001348104904780878C0B284420DD0421C9F
:103F0000272A84BF002002460E4D054C98BFD0B230
:103F1000AA5CD2B2E2710870D5E76C21D170D2E709
:103F200000C00640DC14FF1F7114FF1F9C14FF1F0C
:103F30006C14FF1FDD14FF1FE014FF1F7014FF1F20
:103F4000E414FF1F7414FF1F10B4002300E00133BA
:103F5000B0FBF2F402FB1400092894BF3030373074
:103F6000C0B2C8542046002CF1D1CA18547043B1D5
:103F70002246885CCC5C8C54C8540132013B9A4286
:103F8000F7DB08465DF8044B704700BF08B50368CF
:103F9000C9B21B68984708BD08B50368C9B21B6859
:103FA000984708BD08B50368C9B21B68984708BDA3
:103FB00008B50368C9B21B68984708BD08B503680F
:103FC000C9B21B68984708BD08B50368C9B21B6829
:103FD000984708BD08B50368C9B21B68984708BD73
:103FE00008B50368C9B21B68984708BD034800EBD1
:103FF0005100B0FBF1F0FFF739B900BF00389C1C4D
:1040000010B5064800EB51001446B0FBF1F0FFF785
:104010002DF92046BDE81040FFF7B2B900389C1CCE
:10402000FFF7E4B90846FFF71DBA00BF0846FFF7DF
:104030007FBA00BF08461146FFF730BA08B50846F8
:10404000FFF7B0FA003018BF012008BD08B50846D8
:10405000FFF7CAFA003018BF012008BDFFF77EBB8A
:10406000FFF7BEBBFFF78ABBFFF75ABBFFF7D0BB1A
:10407000FFF762BB08B50846FFF7DEFA012008BD6E
:1040800008B50846FFF7D8FA012008BD10B5084664
:1040900014461146FFF7DAFA204610BD38B5084637
:1040A0000D4602F0EDFF044621462846FFF7CEFA02
:1040B000204638BD034800EB5100B0FBF1F0FDF79E
:1040C000E9BE00BF001C4E0E10B5064800EB5100C3
:1040D0001446B0FBF1F0FDF7DDFE2046BDE81040D0
:1040E000FDF746BF001C4E0EFDF778BF0846FDF7F2
:1040F000D3BF00BF0846FEF725B800BF08461146EB
:10410000FDF7E6BF08B50846FEF74AF8003018BFCD
:10411000012008BD08B50846FEF764F8003018BF56
:10412000012008BDFEF7E0B8FEF720B9FEF7ECB8B5
:10413000FEF7BCB8FEF732B9FEF7C4B808B50846BA
:10414000FEF752F8012008BD08B50846FEF74CF806
:10415000012008BD10B5084614461146FEF79AF82E
:10416000204610BD38B508460D4602F089FF0446CA
:1041700021462846FEF78EF8204638BD704700BF1E
:10418000044B054A1A604FF47A71002299601A7143
:104190001A737047E814FF1F88AC000008B5036865
:1041A000C9B21B68984708BD08B50368C9B21B6847
:1041B000984708BD08B50368C9B21B68984708BD91
:1041C00008B50368C9B21B68984708BD034800EBEF
:1041D0005100B0FBF1F0FCF7DFB900BF001C4E0E40
:1041E00010B5064800EB51001446B0FBF1F0FCF7A7
:1041F000D3F92046BDE81040FCF726BA001C4E0E4D
:10420000FCF758BA0846FCF791BA00BF0846FCF71D
:10421000D3BA00BF08461146FCF7A4BA08B5084651
:10422000FCF7CCFA003018BF012008BD08B50846DD
:10423000FCF7E6FA003018BF012008BDFCF780BB90
:10424000FCF7C0BBFCF78CBBFCF75CBBFCF7D2BB3C
:10425000FCF764BB08B50846FCF7F2FA012008BD7C
:1042600008B50846FCF7ECFA012008BD10B5084671
:1042700014461146FCF73AFB204610BD38B50846F7
:104280000D4602F0FDFE044621462846FCF72EFBB3
:10429000204638BD704700BF044B054A1A604FF4F2
:1042A0007A71002299601A711A737047F814FF1F0F
:1042B000E8AC000008B501F099F801F055FB00F0FA
:1042C00001F8FAE710B5224C237803B110BD0123A1
:1042D0002370FEF773FEA0B9FFF740FAB8B9FDF7F7
:1042E000D1FCD0B9FFF758FDE8B9FDF7FDFF00BBE1
:1042F000FCF726FB18BBFCF77FFE30BB00232370C6
:1043000010BD00F0D1F9FFF729FA0028E7D000F03E
:104310003DFAFDF7B7FC0028E4D000F0A3F9FFF761
:104320003BFD0028E1D000F0BDFAFDF7DDFF0028DD
:10433000DED0FFF723FFFCF703FB0028DBD0FFF7FD
:10434000A9FFFCF759FE0028D8D000F051FBD5E7B3
:104350000815FF1F70B440B110490A683AB9104BF4
:10436000B3FBF0F20B6000FB123070BC70470D4CD9
:104370000D4B0E4D84FB02641444D617C6EB244447
:1043800003FB142205FB04F444F2A71303FB0243CE
:10439000002BE5DA03F10043013BE1E70C15FF1FB9
:1043A00042CE0C1F5F0B4E831DF30100ECF4FFFFA8
:1043B000884210B5044600DB10BD081AFFF7CAFF9B
:1043C000204410BD1A4A1B491068F8B540F08070AF
:1043D000194B10601A68194D0C6842F001021A60FE
:1043E0002F6814B915E064699CB1237A002BFAD0C8
:1043F00022682E681368204698472B68E1889B1B2B
:104400001B099AB28B42A28088BFE2806469002CAB
:10441000EBD10A4A0A4B126819880A48D71B3F0990
:10442000BAB28F42028001D91A80F8BDF8BD00BF30
:10443000FCED00E01015FF1F001000E0041000E08C
:104440001415FF1F1615FF1F704700BF0368F0B457
:10445000FBB1002501249D60DC601A4C1A601C44ED
:10446000241104F130056A11032692009E60164F54
:104470000679164B47F8241002F1604202F56142BA
:1044800005F01F05012000FA05F5E6541560F0BCA3
:1044900070470F4B0F4C1F680F4E104D47F4000C28
:1044A0000127C3F800C03760234604609C68002CD5
:1044B000D3D01033AB420360F8D100230360184619
:1044C000E5E700BF008FFCBF2408FF1F30E400E0D9
:1044D0003C80044000710340007003404071034081
:1044E000036830B44BB1064A064C074D1A4412110A
:1044F000002144F822509960016030BC704700BF31
:10450000008FFCBF2408FF1F4944000008B5034A80
:10451000034B012111601B68984708BD0C710340D3
:104520002408FF1F08B5034A034B012111605B6893
:10453000984708BD1C7103402408FF1F08B5034AB3
:10454000034B012111609B68984708BD2C71034003
:104550002408FF1F08B5034A034B01211160DB68E3
:10456000984708BD3C7103402408FF1F08B5036845
:10457000C9B21B68984708BD08B50368C9B21B6873
:10458000984708BD08B50368C9B21B68984708BDBD
:1045900008B50368C9B21B68984708BD034800EB1B
:1045A0005100B0FBF1F0FDF7BDB800BF00389C1C16
:1045B00010B5064800EB51001446B0FBF1F0FDF7D2
:1045C000B1F82046BDE81040FDF720B900389C1C2A
:1045D000FDF752B90846FDF7A9B900BF0846FDF737
:1045E000FBB900BF08461146FDF7BCB908B508463F
:1045F000FDF720FA003018BF012008BD08B50846B5
:10460000FDF73AFA003018BF012008BDFDF73ABBAC
:10461000FDF77ABBFDF746BBFDF716BBFDF78CBB7C
:10462000FDF71EBB08B50846FDF74EFA012008BD90
:1046300008B50846FDF748FA012008BD10B5084640
:1046400014461146FDF796FA204610BD38B50846C7
:104650000D4602F015FD044621462846FDF78AFA6C
:10466000204638BD704700BF044B054A1A604FF41E
:104670007A71002299601A711A7370471815FF1F1A
:1046800048AD0000FEF79ABCFEF75CBCFEF77EBCAE
:10469000FEF74CBDFEF7A0BC0846FEF73BBD00BFD1
:1046A00008461146FEF7B4BC704700BF044B054AEC
:1046B0001A604FF47A71002299601A711A73704768
:1046C0002815FF1FA8AD000000B5064A0368128830
:1046D0005B6883B001A9ADF804200222984703B0BB
:1046E0005DF804FBC8AD000010B5036814465B68B4
:1046F0009847204610BD00BF0EB400B582B003AA93
:1047000052F8041B019202F069FE02B05DF804EB5E
:1047100003B07047F0B586468BB0002A30D0012A2E
:1047200008BF0A2239B3212400E0FCB2B1FBF2F544
:1047300002FB1511C9B2092994BF30313731CEB20D
:1047400029460AAD2544671E05F8246C0029ECD1E2
:1047500033B1013CE4B20AAB23442D2203F8242CEC
:10476000DEF8003001A95B6870462144C4F12202E2
:1047700098470BB0F0BD30228DF825202124E7E7C3
:104780000368C9B21B6898470BB0F0BD704700BF03
:10479000044B054A1A604FF47A71002299601A712D
:1047A0001A7370473815FF1FD8AD000008B50368AD
:1047B000C9B21B68984708BD08B50368C9B21B6831
:1047C000984708BD08B50368C9B21B68984708BD7B
:1047D00008B50368C9B21B68984708BD034800EBD9
:1047E0005100B0FBF1F0FFF703B900BF001C4E0E03
:1047F00010B5064800EB51001446B0FBF1F0FFF78E
:10480000F7F82046BDE81040FFF74AB9001C4E0EED
:10481000FFF77CB90846FFF7B5B900BF0846FFF7B8
:10482000F7B900BF08461146FFF7C8B908B50846F2
:10483000FFF7F0F9003018BF012008BD08B50846A1
:10484000FFF70AFA003018BF012008BDFFF7A4BA2D
:10485000FFF7E4BAFFF7B0BAFFF780BAFFF7F6BA8E
:10486000FFF788BA08B50846FFF716FA012008BD19
:1048700008B50846FFF710FA012008BD10B5084634
:1048800014461146FFF75EFA204610BD38B50846BB
:104890000D4602F0F5FB044621462846FFF752FA82
:1048A000204638BD704700BF044B054A1A604FF4DC
:1048B0007A71002299601A711A7370474815FF1FA8
:1048C00038AE000070B506460D4608460A2231791A
:1048D0000023FFF71FFF01242B682E211B682846A9
:1048E000984733192846197901340A220023FFF723
:1048F00011FF042CF0D1204670BD00BF024B034ACB
:104900001A6000225A6070475815FF1F98AE0000C9
:1049100008B50368C9B21B68984708BD08B50368A5
:10492000C9B21B68984708BD08B50368C9B21B68BF
:10493000984708BD08B50368C9B21B68984708BD09
:104940000846FCF71BB900BF10B508461446FCF733
:1049500015F92046BDE81040FCF7CCB9FCF704BAC5
:104960000846FCF73DBA00BF0846FCF77FBA00BF17
:1049700008461146FCF750BA08B50846FCF778FA25
:10498000003018BF012008BD08B50846FCF792FAB0
:10499000003018BF012008BDFCF72EBBFCF76EBB32
:1049A000FCF73ABBFCF70ABBFCF780BBFCF712BB79
:1049B00008B50846FCF79EFA012008BD08B5084670
:1049C000FCF798FA012008BD10B5084614461146B8
:1049D000FCF7E8FA204610BD38B508460D4602F04F
:1049E0004FFB044621462846FCF7DCFA204638BD3A
:1049F000704700BF044B054A1A604FF47A710022D9
:104A000099601A711A7370476015FF1FA8AE0000F5
:104A10000F4B00224FF6FF711A6010209960D300EF
:104A200003F1804303F560330132D96821F080013E
:104A3000D960D968082A21F04001D960D860EED148
:104A40000349044B0E204FF4806208601A607047DF
:104A50000080034004E100E00029034604DB074A2C
:104A6000084642F821307047054A1168481C10601A
:104A7000024A084642F82130704700BF7015FF1FF8
:104A80009015FF1F134B70B51C6D14F00F041FD051
:104A9000114E002503E0640805F1010518D0EB0074
:104AA00003F18043E10703F56033F4D5DA6822F0BF
:104AB0008002DA60DA685206EDD5D96856F825200A
:104AC00021F04001D9609047640805F10105E6D165
:104AD00070BD00BF008003407015FF1F02460249F1
:104AE0000248FFF709BE00BF10AF00002815FF1FE6
:104AF00010B5074B036104463C30FFF7F1FCA36897
:104B00001BB12046214603229847204610BD00BF16
:104B100008AF000010B5294A294C12682368934257
:104B200035D2284B1B68DB0342D4274B4FF480322D
:104B30001A60264A264B10681968FFF739FC07EE01
:104B4000900AF8EEE76ADFED237A9FED236A9FED86
:104B5000237A2268224B66EEA76AF6EE007A66EEAA
:104B6000866A1044E6EE877A002120601960FDEE27
:104B7000E77A586817EE901A0E22014419611A60FC
:104B8000D968502221F08001D960DA6010BD154B40
:104B90001B7833B9144B4FF480321A600023236022
:104BA00010BD094B4FF480321A600023236010BD02
:104BB0000D4B4FF480321A60BBE700BF4808FF1F5F
:104BC0009C15FF1F50F00F4044F00F404408FF1F9A
:104BD0004008FF1FBD378635C0E1E44C0000803C33
:104BE00000800340A115FF1F48F00F4010B5294A6F
:104BF000294C12682368934235D2284B1B689B03CB
:104C000042D4274B4FF400321A60264A264B1068D4
:104C10001968FFF7CDFB07EE900AF8EEE76ADFEDC3
:104C2000237A9FED236A9FED237A2268224B66EE5A
:104C3000A76AF6EE007A66EE866A1044E6EE877A98
:104C4000002120601960FDEEE77A586817EE901A8F
:104C50000E22014499611A605969502221F08001A5
:104C600059615A6110BD154B1B7833B9144B4FF481
:104C700000321A600023236010BD094B4FF400324C
:104C80001A600023236010BD0D4B4FF400321A60F0
:104C9000BBE700BF3C08FF1F9815FF1F50F00F40F7
:104CA00044F00F403808FF1F3408FF1FBD3786351A
:104CB000C0E1E44C0000803C00800340A015FF1FD1
:104CC00048F00F40012A034607D0022A03D110B151
:104CD00003C983E80300002070470160002070478B
:104CE00010B543680468D80706D55B10C818CB58C0
:104CF00011461C59A04710BD01EB63001146A047A7
:104D000010BD00BF70B5C268436B02F001020632ED
:104D100000EB8202044652681A60C36813F0010F68
:104D200003694CD0012B4CD05B4A5C4D5C4E117832
:104D30002868366881F00101B042117080F08980E6
:104D4000584B1B689A0300F18C80574B4FF400328C
:104D50001A60564A564B10681968FFF729FB07EE90
:104D6000900AF8EEE76ADFED537A9FED536A9FED04
:104D7000537A2968524A236966EEA76AF6EE007AEA
:104D800066EE866A0844E6EE877A0026286016609A
:104D9000FDEEE77A556817EE900A0E2128449061DF
:104DA00011605069502120F0800050615161E1682C
:104DB00062690B44E360E368934266D070BD012BE7
:104DC000B2D0404A404D414E11782868366881F093
:104DD0000101B042117036D2324B1B68DB034AD45A
:104DE000314B4FF480321A60394A3A4B10681968D7
:104DF000FFF7DEFA07EE900AF8EEE76ADFED2D7AAC
:104E00009FED2D6A9FED2D7A29682D4A236966EE64
:104E1000A76AF6EE007A66EE866A0844E6EE877ABE
:104E2000002628601660FDEEE77A556817EE900AB6
:104E30000E21284410611160D068502120F08000BC
:104E4000D060D160B3E7D9B1174A4FF48031116017
:104E500004E059B9204A4FF40031116000222A6061
:104E6000A5E71D4B4FF400321A6072E70E4A4FF46B
:104E700000311160F2E7184B4FF480321A60B3E74B
:104E8000154A4FF480311160E8E7636B9A6822F0AD
:104E900002029A6070BD00BFA015FF1F9815FF1F8A
:104EA0003C08FF1F50F00F4044F00F403808FF1F30
:104EB0003408FF1FBD378635C0E1E44C0000803C5C
:104EC00000800340A115FF1F9C15FF1F4808FF1F0E
:104ED0004408FF1F4008FF1F48F00F40F0B50229AB
:104EE00089B0044661D00D2926D059B1324C3349DE
:104EF000236820465B68112298472046FFF7E4FBB1
:104F000009B0F0BD836CC2699342F9D0C569C0692C
:104F1000626C636200F00100063004EB8000AB427B
:104F2000B4BF4FF0FF330123406923620323916034
:104F30001060936009B0F0BD214A224B11680091C6
:104F4000009819688142DBD21168626C0191019965
:104F5000926802F00302C831032A19601ED01A4B6E
:104F600004930023059304AB93E8030002AA82E8AC
:104F7000030094E8030083E8030092E80300A568B7
:104F8000E268124F124E069584E80300A76007926C
:104F9000E6601DB1184619460322A847E2690D498B
:104FA0000548FFF7A9FB09B0F0BD436C9A6822F0F1
:104FB00002029A6009B0F0BD2815FF1F2CAF000057
:104FC000DC11FF1F9415FF1FD94F0000C54C0000D6
:104FD000E14C000024AF0000F0B5044687B00D2975
:104FE00000F21581DFE811F00E00130113018100BA
:104FF00087008A00E2000D0101010701130147004B
:1050000013014500836CC269934214D0C069E16901
:10501000636201F00101063104EB8101626C4969B0
:105020008342B4BF4FF0FF330123236200200323E8
:105030009060116093607F4B02930023039302AB57
:1050400093E803008DE8030094E8030083E803007D
:105050009DE80300A568E268774F784E049584E8E0
:105060000300A7600592E6601DB1184619460322A9
:10507000A84707B0F0BD806A00F07CFF02460B46EF
:105080006F487049FFF738FBE36A226B9FED6E7A39
:1050900005EE903A134406EE103AF8EE656AF8EE23
:1050A000467A26EE877AC7EE277A17EE900A00F046
:1050B00061FF02460B4662486449FFF71DFB644BE3
:1050C00064491A685E48FFF717FB634B63491A6827
:1050D0005B48FFF711FB624B62491A685848FFF7BB
:1050E0000BFB5748FFF7F0FAC3E7C2695E49544823
:1050F000FFF702FBBDE7836DC361BAE790ED185A75
:105100009FED5A7A426B9FED5A6AD0ED067AF8EE1F
:10511000C56A05EE102A87EE267AF8EE455AC0EDEC
:10512000056A37EE657AB4EEC67AF1EE10FA7CD4F1
:1051300037EE076ADFED4F6AF4EEE67AF1EE10FA29
:1051400070DCF1EE046AF4EE667AF1EE10FA48BF14
:10515000F0EE667A67EE277ADFED465ADFED446AB5
:105160009FED457AC7EEA57AF4EEE67AF1EE10FAF5
:1051700057BFFCEEE77A5023F8EE676A17EE903AD5
:1051800076EE666A03EB4201FCEEE66AE36216EE37
:10519000902A114407EE901AF8EE677AC4ED0C6A73
:1051A000C7EE277AC4ED0A7A07B0F0BDD0ED057AD4
:1051B0009FED2E7A426BDFED2E6A90ED185A87EE46
:1051C000277A05EE902AB8EE656AF8EEC57A37EED2
:1051D000467AC0ED067AB4EEE67AF1EE10FAA7D57B
:1051E000B0EE667A9FED256AA4E71B49244A036E58
:1051F0000B6013603DE71A49224A036E0B6013608F
:1052000037E71349204A036E0B60136031E70C4CFB
:105210001E49236820465B68112298472046FFF705
:1052200053FA26E7F0EE667A94E7B0EE467A9FED01
:10523000136A7FE7DD4E0000C54C0000E14C000022
:105240002815FF1F40AF00000000344358AF000096
:105250004808FF1F70AF00004408FF1F88AF000020
:105260004008FF1FA0AF000024AF0000C0E1E44CE5
:105270000000A0420000B442C0E1644D00002043A1
:105280003808FF1F3408FF1F3C08FF1F2CAF000029
:1052900010B5464C4649236806225B68204698476D
:1052A0002046FFF711FA236842495B682622204610
:1052B00098472046FFF708FA23683F495B68262293
:1052C000204698472046FFF7FFF923683B495B6873
:1052D0002A22204698472046FFF7F6F923683849E6
:1052E0005B682D22204698472046FFF7EDF923689A
:1052F00034495B683422204698472046FFF7E4F99A
:10530000236831495B682222204698472046FFF7F0
:10531000DBF923682D495B684822204698472046E0
:10532000FFF7D2F923682A495B683722204698475D
:105330002046FFF7C9F9236826495B682E222046DC
:1053400098472046FFF7C0F9236823495B6852223B
:10535000204698472046FFF7B7F923681F495B6846
:105360004C22204698472046FFF7AEF923681C4997
:105370005B684D22204698472046FFF7A5F9236831
:1053800018495B682622204698472046FFF79CF97B
:10539000236815495B682046282298472046FFF776
:1053A00093F92046BDE81040FFF78EB92815FF1F7E
:1053B000B8AF0000C0AF0000E8AF000010B00000C0
:1053C0003CB000006CB00000A4B00000C8B0000009
:1053D00014B100004CB100007CB10000D0B100005D
:1053E00020B2000070B2000098B200002DE9F84F22
:1053F00070487149714A724C00F02EFB6D4871493A
:10540000714A00F029FB6B487049714A00F024FB97
:1054100068487049704A00F01FFB66486F49704A3F
:1054200000F01AFB63486F496F4A00F015FB6148B2
:105430006E496F4A00F010FB5E486E496E4A00F0FC
:105440000BFB5C486D496E4A00F006FB59486D49FC
:105450006D4A00F001FB57486C496D4A00F0FCFAB8
:1054600054486C496C4A00F0F7FA52486B496C4A50
:1054700000F0F2FA4F486B496B4A00F0EDFA6A4AC5
:105480004C486A4900F0E8FA4A48694900F000FBD4
:1054900068481022A0F12C0100F0A8FBFFF7B8FA31
:1054A00000200121FCF704F84FF480332360002131
:1054B0006148FFF7D1FA01200146FBF7F9FF4FF4ED
:1054C000003323605D480121FFF7C6FA5C4BDFED36
:1054D0005D6A586B9FED5C7A06EE100AF8EE467A2C
:1054E000002276EEE77ADA61F4EEC77AF1EE10FA8E
:1054F00016D4DFED566A27EEA66AC6EE266AF4EEEB
:10550000C76AF1EE10FA44D59FED517AF0EE006AC9
:10551000A7EEA67A5022BCEEC77A17EE101A01E069
:1055200050210A46541804EB400407EE904A9FEDC0
:10553000497A494CDFF830C1484FDFF830B1DFF825
:1055400030A1DFF83091DFF83081DA62F8EE677A67
:105550003225C7EE277ACCF800503D6025684048D8
:10556000196300224FF47A7645F08071CBF8002061
:10557000CAF80020C9F80060C8F80060216001681E
:10558000C3ED0A7A41F001030360364B1A60BDE8AF
:10559000F88FFCEEE66A16EE902A06EE102AB8EEB8
:1055A000467AF0EE006A97EEA67ABCEEC77A17EE5E
:1055B000101AB7E71416FF1FC4B200002D590000DF
:1055C00048F00F40C8B20000ED580000CCB2000017
:1055D000C1580000D0B2000095580000D8B20000B9
:1055E00071580000E0B200004D580000E8B2000021
:1055F00011580000F0B20000D5570000F8B20000CA
:105600009957000000B300005D57000008B3000088
:105610002157000010B30000E556000018B3000049
:10562000C156000020B300009152000028B30000D2
:10563000DD4A0000E815FF1F154B0000ED4B000090
:10564000AC15FF1F007C124A0000A0420000B442CB
:105650000000A0C2C0E1644DFCED00E03808FF1F6F
:10566000001000E0041000E04408FF1F4808FF1F7E
:105670003C08FF1F4008FF1F3408FF1F08B50D201E
:105680000121FBF715FF074C074E084D04E02023CE
:105690002B606420FBF734FF23689B06F7D420239C
:1056A0003360F6E790F00F4084F00F4088F00F4031
:1056B00010B5846814B1C368984710BDFFF7DEFFCA
:1056C00008B505490548FFF717F805480B220146BC
:1056D000FFF7EEFF08BD00BF2CB300002815FF1F29
:1056E000AC15FF1F10B50A4800F026FA044610B1A9
:1056F00000F034FF0446224606490748FEF7FCFF47
:10570000064B0922184619461C66FFF7D1FF10BD4B
:105710001416FF1F38B300002815FF1FAC15FF1F1C
:1057200010B50A4800F008FA044610B100F016FF60
:105730000446224606490748FEF7DEFF064B0822CC
:10574000184619461C66FFF7B3FF10BD1416FF1F5D
:1057500044B300002815FF1FAC15FF1F10B50A4801
:1057600000F0EAF9044610B100F0F8FE04462246C3
:1057700006490748FEF7C0FF064B072218461946A0
:105780001C66FFF795FF10BD1416FF1F50B30000F5
:105790002815FF1FAC15FF1F10B50A4800F0CCF903
:1057A000044610B100F0DAFE0446224606490748D6
:1057B000FEF7A2FF064B0622184619461C66FFF7A5
:1057C00077FF10BD1416FF1F60B300002815FF1FE0
:1057D000AC15FF1F10B50A4800F0AEF9044610B131
:1057E00000F0BCFE0446224606490748FEF784FF47
:1057F000064B0522184619461C66FFF759FF10BDD7
:105800001416FF1F6CB300002815FF1FAC15FF1FF7
:1058100010B50A4800F090F9044610B100F09EFE61
:105820000446224606490748FEF766FF064B042257
:10583000184619469C65FFF73BFF10BD1416FF1F65
:1058400078B300002815FF1FAC15FF1F08B50549E8
:105850000548FEF751FF054803220146FFF728FFE0
:1058600008BD00BF88B300002815FF1FAC15FF1F3F
:1058700008B505490548FEF73FFF054802220146E5
:10588000FFF716FF08BD00BF94B300002815FF1FE7
:10589000AC15FF1F10B507490748FEF72DFF074B52
:1058A0004FF000441846194600229C64FFF700FFA1
:1058B00010BD00BF9CB300002815FF1FAC15FF1FD3
:1058C00010B507490748FEF717FF074B6FF0004474
:1058D0001846194600229C64FFF7EAFE10BD00BF7F
:1058E000A4B300002815FF1FAC15FF1F10B50B480F
:1058F00000F022F9044610B100F030FE04462246C2
:1059000007490848FEF7F8FE074BDA6918461444C1
:10591000194600229C64FFF7CBFE10BD1416FF1F32
:10592000ACB300002815FF1FAC15FF1F10B50A48C7
:1059300000F002F9044610B100F010FE04462246C1
:1059400006490748FEF7D8FE064B002218461946BE
:105950009C64FFF7ADFE10BD1416FF1FB8B3000026
:105960002815FF1FAC15FF1F10B5064C064823680D
:1059700000F090F805480D220146FFF799FE2368D4
:1059800010BD00BF18E000E01416FF1FAC15FF1F8C
:105990002DE9F84F1C4B1A68D2072ED51B4C2368F3
:1059A00013F0010001D0BDE8F88F194B194DDFF855
:1059B0007CC0DFF87CA0184F184EDFF878B0586034
:1059C0004FF080084FF000091D6183F840800125E9
:1059D000C3F800C0D8635864C3F814B01846C3F8BD
:1059E00018A0C3F828909F60DE605D6325600C49B5
:1059F0000C4ABDE8F84F00F0ABBD01220A481A601E
:105A000000F01AF8CAE700BFA815FF1FA415FF1F72
:105A1000AC15FF1F08AF0000C54C0000E14C0000B2
:105A2000F14A00006007FF1F1416FF1FD94F000046
:105A30000000B44200002041064A128882810A21F7
:105A4000002281730260027182604263C27380F837
:105A500030207047C4B3000070B50E4601790131A3
:105A6000044609010068154601F00AF9237920600F
:105A7000082200EB0310314601F08CFB22792368E9
:105A800003EB0213DD6023790133237170BD00BF86
:105A9000816070472DE9F84F064600F10F0900F1CB
:105AA0000C080027FDF78AFA00281ADDFDF74AFAEC
:105AB000B37BC4B2A34216D0204600F085FD002877
:105AC000F0D096F830301F2BECD85A1CD2B2B11857
:105AD000334486F83020DC73CF73FDF76FFA00286B
