:0200000460009A
:100000004643464200000156000000000101020084
:1000100000000000000000000000000000000000E0
:1000200000000000000000000000000000000000D0
:1000300000000000000000000000000000000000C0
:1000400000000000010403000000000000000000A8
:100050000000800000000000000000000000000020
:100060000000000000000000000000000000000090
:100070000000000000000000000000000000000080
:10008000EB04180A063204260000000000000000FD
:10009000050404240000000000000000000000002F
:1000A0000000000000000000000000000000000050
:1000B0000604000000000000000000000000000036
:1000C0000000000000000000000000000000000030
:1000D00020041808000000000000000000000000DC
:1000E0000000000000000000000000000000000010
:1000F0000000000000000000000000000000000000
:10010000D8041808000000000000000000000000F3
:100110000204180804200000000000000000000095
:1001200000000000000000000000000000000000CF
:10013000600400000000000000000000000000005B
:1001400000000000000000000000000000000000AF
:10015000000000000000000000000000000000009F
:10016000000000000000000000000000000000008F
:10017000000000000000000000000000000000007F
:10018000000000000000000000000000000000006F
:10019000000000000000000000000000000000005F
:1001A000000000000000000000000000000000004F
:1001B000000000000000000000000000000000003F
:1001C000000100000010000001000000000000001D
:1001D000000001000000000000000000000000001E
:1001E000000000000000000000000000000000000F
:1001F00000000000000000000000000000000000FF
:10020000FFFFFFFFFFFFFFFFFFFFFFFFFFFFFFFFFE
:10021000FFFFFFFFFFFFFFFFFFFFFFFFFFFFFFFFEE
:10100000D10020402C100060000000000000000013
:1010100020100060001000600000000000000000D0
:1010200000000060A8830100000000000000012013
:1010300035100060774B4FF42A01774A77485A649D
:101040001864774A99639546764A03F530337649B2
:1010500008208A42C3F854010FD0744B9A420CD234
:10106000D4430846234423F0030304330B4450F8CD
:10107000041B984242F8041BF9D16D4A6D498A421B
:101080000FD06D4B9A420CD2D4430846234423F030
:10109000030304330B4450F8041B984242F8041B2A
:1010A000F9D1664A664B9A420BD2D04311460024CE
:1010B000034423F003030433134441F8044B8B42ED
:1010C000FBD1604A4FF470015F4B116003F5307142
:1010D0005E4A43F8042F9942FBD15D4B80215D4A63
:1010E00003F8011B9342FBD15B4C4FF080375B4E02
:1010F0004FF0FF32DFF8A4A10025DFF8A491DFF85C
:10110000A481574B4349C3F800A0C4F80471C4F844
:101110000091C4F8F470C4F8F080F36923F07F0301
:1011200043F04003F361736A23F07F0343F040030D
:1011300073628A66CA660A674A6700F02BF9494AF1
:101140006320494B4949106003221D60CAF83810DA
:1011500043F8082C4649474A4748C3F8082D0B680E
:10116000464A43F08073CAF83C0045480B60136858
:10117000444943F00103136003680B6000F044FB33
:10118000C4F804714048C4F80091C4F8F470C4F87D
:10119000F08000F0A9FC00BF00BF00BF00BFF16EEF
:1011A0003A4A41F440513A4BF1661560C2F8085191
:1011B000C2F81851C2F82851C2F838519A6BD207B8
:1011C00008D442F61562334959651A659A6B42F0A4
:1011D00001029A632E4A304C936843F001139360E6
:1011E00000F054F900F078FC2368132BFCD900F0D0
:1011F0005BF800F0C9FB00F073FC00F037FB00F077
:101200005FFC2368B3F5967FFBD300F071FC00F020
:101210005BFCFEE700C00A40BFAAAAAA07002000A4
:101220000080062000000000401B00601834010010
:1012300000000020DC5001605034002050340020B9
:101240000047002088ED00E0FC430020B14A000088
:1012500000E400E0A0E400E000800D4000C00F408A
:1012600008ED00E014E000E018E000E0B9510000F3
:10127000FCED00E00000202025520000001000E0FE
:10128000041000E0BC3900200046C32300400840A1
:1012900000400D400000C056C4390020004400202A
:1012A0001B1018200C0D1113304B40F6617270B5F5
:1012B000C3F8202140F2044500F0FEFB2C492D48E4
:1012C000D1F880202C4C42F003022C4BC1F8802036
:1012D000C0F86051226813401BB9D0F8A8319A07B2
:1012E0001AD0244B4FF00041234A51631A46D3F8D9
:1012F000401141F00201C3F84011D2F840319B0780
:10130000FBD44FF400301E491B4B4FF000420860E5
:1013100019209A6300F0DCFB1A4D0022164B4FF0A7
:101320008041144C0A26996328461A601146C4F875
:10133000A8614FF4207200F0DFFB4FF481064FF4F8
:10134000800040F24313104A10492E602864C4F80C
:101350005851C2F80412C4F848310D4A4FF4003114
:1013600001231160C4F8403170BD00BF00800D4002
:1013700000C00F4000002E4000900D40001C1E00D9
:101380008CE200E00040002000440020D541000035
:101390000CE100E0F0B5284A0020284B4FF0100C7B
:1013A000274C1127DFF8D8E0122620600125C2F86B
:1013B00000C0C3F800E01760DFF8C8E0214FC3F8B1
:1013C00000E016601F60204E204F166020491F600D
:1013D000204E41F01501204F16601F6007F5403781
:1013E0001E4E116002371E60DFF89CE01C4E1D4946
:1013F000C2F800E01F6016601B4F19601B4E1C49AD
:1014000017601E601B4F11601B4E1C491F60166049
:1014100019602560BFF34F8FBFF36F8FC3F8B00122
:10142000BFF34F8FBFF36F8F52F8883C43F44033C4
:1014300042F8883CF0BD00BF9CED00E0A0ED00E06C
:1014400094ED00E0090010001300200021000207C5
:101450000047002014000020250008130900001098
:101460001700004033001013180000602F000B0716
:101470001900007037000B171A0000702F000B13B3
:101480003F0000102500080316002020F0B5B84BDF
:101490001822B84E0120B84948F20C7EB74D4FF0E3
:1014A000FF37B74CC3F85C12C3F860520025C3F88D
:1014B0006412C3F868424FF40054C3F86C62B14937
:1014C000C3F87062C3F87462C3F87862AE4EDA662D
:1014D0001A675A679A67DA67C3F88020C3F88420CE
:1014E000C3F8882040F20562C1F82C03C1F830032C
:1014F000C1F83403C1F83803C1F83C03C1F8500304
:101500002946B369A1481840A14B0343A148B361E0
:10151000D6F8843043F00C03C6F884300226036802
:1015200033430360036803EA0E0E9B4B4EEA03034A
:10153000DFF89CE20360994B4760DEF808703B409F
:10154000974F43F000538360C36823F07803C36070
:10155000036A1F40934B3B43914F0362036A1F4052
:10156000904B3B43904F43628762C762DEF8B830CE
:101570008E4F23F03F0343F00103C0F8B830DEF88C
:10158000BC30DFF834E223F03F0343F00103C0F83E
:10159000BC30056104660767C0F880204466476771
:1015A000C0F884200468824B24F00204814A04605D
:1015B000C0F818E0C66143F8041B9342FBD1754B99
:1015C0001A68194642F001021A600B68714A13F05A
:1015D0000103FAD1784E022540F2F56440F26640EC
:1015E00040F29941754F966142F20146D56140F251
:1015F0003545C2F8004242F20124C2F8100201202F
:10160000C2F820121146C2F8307207F15A47C2F8E8
:10161000346207F51377C2F84052694E694DC2F83B
:101620005072C2F85462C2F86052C2F86442C2F802
:10163000A030C2F8A430C2F8B0004B69554ADD07AB
:10164000FBD5012300244FF4803011465361C2F8CA
:10165000A040C2F8A400C2F8B0304B694D4ADC0784
:10166000FBD5012300244FF4003011465361C2F82A
:10167000A040C2F8A400C2F8B0304B69454AD80770
:10168000FBD501230024504811465361C2F8A04005
:10169000C2F8A400C2F8B0304B693E4ADB07FBD564
:1016A000D2F8003145F60D5121209BB250618B429A
:1016B00000D0F0BD00244FF4802001231146C2F871
:1016C000A040C2F8A400C2F8B0304B69314ADF072D
:1016D000FBD501234FF40004002011465361C2F8EA
:1016E000A040C2F8A400C2F8B0304B69294ADE0716
:1016F000FBD501234FF400044FF4803011465361B1
:10170000C2F8A040C2F8A400C2F8B0304B69214A28
:10171000DD07FBD501234FF400044FF400301146E0
:101720005361C2F8A040C2F8A400C2F8B0304B69BF
:10173000184ADC07FBD501234FF400042248114668
:101740005361C2F8A040C2F8A400C2F8B0304B699F
:10175000104AD807FBD5D2F8003145F60D512120AB
:101760009BB250618B4235D0184B08221A70F0BDE5
:1017700000801F40F9700100F9B00100F91001006C
:10178000F900010000841F4000C00F40FFFCFF1F54
:10179000000300A000402A401200FFFFFF37F700BF
:1017A00000FFF07C40000080FF000F836300020018
:1017B00000422A4000432A40F05AF05A9F04183051
:1017C000063201263806180A04000300C839002032
:1017D00000802A404FF400044FF48020012311467A
:1017E000C2F8A040C2F8A400C2F8B0304B69044A65
:1017F000DB07FBD50120034B102150611970F0BDB0
:1018000000402A40C8390020F0B4174A40274FF45E
:1018100080314FF480564FF400554FF4404443F26A
:101820004200136913F0020F06D094615161906178
:10183000136913F0020FF8D113F4005F01D1556161
:10184000EFE713F4805F01D15661EAE7002BE8DA95
:1018500013F4803F01D09161E3E75B0601D4576147
:10186000DFE7F0BC704700BF00800D403B4AF3EE5D
:10187000096A3B4900201368F0B523F001030324F3
:10188000DFF800E11360C2F89040D1F8E030354F46
:10189000DDB2C3F30B24344EC4EB135307EE905A5E
:1018A000A5F15501CEF80050B8EEE77A03EB8305B9
:1018B00007EE904A03FB01F13B6003EB8313B8EEA4
:1018C000E75A07EE901A491B77EE666AB8EE677A18
:1018D000264D07EE901A0B44C5ED006AF8EE677AC4
:1018E0003460C7EE265A224E15682249224C87EEF4
:1018F000A66A07EE903A214BC6F84031F8EE677AB7
:1019000087EEA67A75EE855A76EE056AFCEEE55A04
:10191000FCEEE66A15EE903A45EA035316EE905A4D
:1019200077EE057A136001EA0541D2F81031FCEE3A
:10193000E77A0B43C2F8103117EE903AD2F8101143
:10194000C3F30B030B43C2F81031136843F00203D7
:10195000136020700A4B01221A60F0BD80810D4097
:1019600000441F40D4390020D8390020D03900204D
:10197000004400200000FF0F40E400E0094C00009C
:1019800008E100E0CC390020114B1249D86E0A461C
:1019900040F4403030B4D86640F23765D86EA024A9
:1019A00040F44070D8664D648C64936C1B06FCD484
:1019B000094B40F23760A0211A4658649964936C31
:1019C00013F08003FBD1054A137030BC704700BF91
:1019D00000C00F4000400C4000800C40043A002042
:1019E00016035500530042002000530065007200AA
:1019F000690061006C000000180354006500650078
:101A00006E00730079006400750069006E006F005D
:101A10000403090409024300020100C03209040062
:101A2000000102020100052400100105240101014A
:101A30000424020605240600010705820310001095
:101A400009040100020A000000070503024000002B
:101A5000070584024000000009024300020100C0A3
:101A600032090400000102020100052400100105F2
:101A70002401010104240206052406000107058251
:101A80000310000509040100020A00000007050315
:101A90000200020007058402000200000A0600029C
:101AA000020000400100FFFFF8B500BFF8BC08BC11
:101AB0009E467047FFFFFFFF5FF800F0594A0000A5
:101AC0005FF800F0CD4A00005FF800F0BD52000062
:101AD0005FF800F08D4900005FF800F0C94A00008F
:101AE0005FF800F0AD4C00005FF800F0C93D000069
:101AF0005FF800F0E9E300005FF800F0FDEC0000A3
:101B000045000000790E000099190000951A0000A8
:101B10000D2900008D2C0000893000006934000080
:101B200071360000E1570000D963000049670000EA
:101B3000CD6700009168000055690000FFFFFFFFBE
:101B40000000000000000000000000000000000095
:101B50000000000000000000000000000000000085
:101B600010B5054C237833B9044B13B10448AFF3D7
:101B700000800123237010BD5034002000000000BD
:101B8000D4310100084B10B51BB108490848AFF328
:101B900000800848036803B910BD074B002BFBD039
:101BA000BDE81040184700BF00000000543400207A
:101BB000D43101005034002000000000012A06D07A
:101BC000022A02D108B10B6803600020704701604F
:101BD00000207047012A06D0022A02D108B10B6802
:101BE000036000207047016000207047012A06D082
:101BF000022A02D108B10B6803600020704701601F
:101C000000207047012A06D0022A02D108B10B68D1
:101C1000036000207047016000207047012A06D051
:101C2000022A02D108B10B680360002070470160EE
:101C300000207047012A06D0022A02D108B10B68A1
:101C4000036000207047016000207047012A06D021
:101C5000022A02D108B10B680360002070470160BE
:101C600000207047012A06D0022A02D108B10B6871
:101C7000036000207047016000207047012A06D0F1
:101C8000022A02D108B10B6803600020704701608E
:101C900000207047012A06D0022A02D108B10B6841
:101CA000036000207047016000207047012A06D0C1
:101CB000022A02D108B10B6803600020704701605E
:101CC00000207047012A06D0022A02D108B10B6811
:101CD000036000207047016000207047012A06D091
:101CE000022A02D108B10B6803600020704701602E
:101CF00000207047012A06D0022A02D108B10B68E1
:101D0000036000207047016000207047012A06D060
:101D1000022A02D108B10B680360002070470160FD
:101D200000207047012A06D0022A02D108B10B68B0
:101D3000036000207047016000207047012A08BF3F
:101D400001600020704700BF012A06D0022A02D19C
:101D500008B10B68036000207047016000207047E5
:101D6000012A06D0022A02D108B10B6803600020C4
:101D70007047016000207047012A06D0022A02D174
:101D800008B10B68036000207047016000207047B5
:101D90000A680248024905F021B800BF842A0020E1
:101DA000000000200B78022BF0B5046887B025D026
:101DB0000E2B0FD043B11121234803F023FD2348FC
:101DC00004F0F4FF07B0F0BD6169206801F04EFB3C
:101DD00007B0F0BD1E4A1F4B106819688842F1D940
:101DE00012682068C8321A6001F088F858B1236878
:101DF00019491A68154804F0F1FFE3E7206801F07B
:101E000075F807B0F0BD02AD0490231D0294134E87
:101E1000134F059695E803008DE8030093E803004F
:101E200085E803009DE8030083E80300E368226976
:101E3000E760266104930592002BD8D0032229463F
:101E400028469847D3E700BF1C000020842A0020C2
:101E5000C43900206C340020140000202503000049
:101E6000390200000B78F0B5046887B00E2B62D8F9
:101E7000DFE803F008616132393D454D52575C613E
:101E80002D612B006169206801F0F0FA02AB00219E
:101E9000221D029404912C4E2C4F059693E80300CA
:101EA0008DE8030092E8030083E803009DE8030047
:101EB00082E80300E5682269E760266104950592DF
:101EC0001DB1032219461846A84707B0F0BD206887
:101ED0001F4901F00DFAF8E723681E491A681C48EB
:101EE00004F07CFFF1E7236862691A60EDE794ED86
:101EF000050A2068B8EEC00A01F074F8E5E794ED31
:101F0000050A2068B8EEC00A01F072F8DDE76169E1
:101F1000206801F0E1F9D8E76169206801F0E0F993
:101F2000D3E76169206801F0DFF9CEE761692068D5
:101F300000F0E6FFC9E71121074803F063FC0448FD
:101F400004F034FFC1E700BF650200002102000079
:101F5000842A0020140000201C0000200B78F0B51B
:101F6000046887B00E2B62D8DFE803F008616132A5
:101F7000393D454D52575C612D612B0061692068E8
:101F800001F074FA02AB0021221D029404912C4E40
:101F90002C4F059693E803008DE8030092E80300B8
:101FA00083E803009DE8030082E80300E5682269F6
:101FB000E7602661049505921DB103221946184673
:101FC000A84707B0F0BD20681F4901F091F9F8E774
:101FD00023681E491A681C4804F000FFF1E72368D3
:101FE00062691A60EDE794ED050A2068B8EEC00A50
:101FF00000F0F8FFE5E794ED050A2068B8EEC00AA6
:1020000000F0F6FFDDE76169206801F065F9D8E7C7
:102010006169206801F064F9D3E76169206801F023
:1020200063F9CEE76169206800F06AFFC9E7112112
:10203000074803F0E7FB044804F0B8FEC1E700BF1F
:102040006502000021020000842A00201400002004
:102050001C00002030B583B0054600F0D1FDB8B1BA
:102060000DF036FD044622460A490B4804F0B6FE40
:10207000D5F870020022C36844618DF8072033B19F
:1020800003690DF107010430984703B030BDFEE746
:102090000446E8E730000020842A00200068FFF7AB
:1020A000D9BF00BF30B583B0054600F0A9FDD0B15F
:1020B0000DF00EFD044622460C490D4804F08EFE3C
:1020C000D5F8700200210268C36812688DF8071005
:1020D0001444446133B103690DF10701043098479A
:1020E00003B030BDFEE70446E5E700BF3C0000203A
:1020F000842A00200068FFF7D5BF00BF10B5044652
:1021000082B00B490B4804F069FED4F870026FF0FE
:1021100000410022C36841618DF8072033B1036993
:102120000DF107010430984702B010BDFEE700BF73
:1021300048000020842A00200068FFF7DFBF00BFAE
:1021400010B5044682B00B490B4804F047FED4F8A2
:1021500070024FF000410022C36841618DF80720F2
:1021600033B103690DF107010430984702B010BD87
:10217000FEE700BF50000020842A00200068FFF71F
:10218000DFBF00BF10B5044682B00949094804F01A
:1021900025FED4F870020222C3688DF8072033B1FF
:1021A00003690DF107010430984702B010BDFEE746
:1021B00058000020842A00200068FFF7E3BF00BF1A
:1021C00010B5044682B00949094804F007FED4F866
:1021D00070020322C3688DF8072033B103690DF143
:1021E00007010430984702B010BDFEE760000020F0
:1021F000842A00200068FFF7E3BF00BF30B583B03A
:10220000054600F0FDFCB8B10DF062FC0446224624
:102210000A490B4804F0E2FDD5F870020422C368B5
:1022200044618DF8072033B103690DF107010430D3
:10223000984703B030BDFEE70446E8E76C00002095
:10224000842A00200068FFF7D9BF00BF30B583B0F3
:10225000054600F0D5FCB8B10DF03AFC0446224624
:102260000A490B4804F0BAFDD5F870020522C3688C
:1022700044618DF8072033B103690DF10701043083
:10228000984703B030BDFEE70446E8E77C00002035
:10229000842A00200068FFF7D9BF00BF30B583B0A3
:1022A000054600F0ADFCB8B10DF012FC0446224624
:1022B0000A490B4804F092FDD5F870020622C36863
:1022C00044618DF8072033B103690DF10701043033
:1022D000984703B030BDFEE70446E8E788000020D9
:1022E000842A00200068FFF7D9BF00BF30B583B053
:1022F000054600F085FCB8B10DF0EAFB0446224625
:102300000A490B4804F06AFDD5F870020722C36839
:1023100044618DF8072033B103690DF107010430E2
:10232000984703B030BDFEE70446E8E7940000207C
:10233000842A00200068FFF7D9BF00BF30B583B002
:10234000054600F05DFCB8B10DF0C2FB0446224624
:102350000A490B4804F042FDD5F870020822C36810
:1023600044618DF8072033B103690DF10701043092
:10237000984703B030BDFEE70446E8E7A40000201C
:10238000842A00200068FFF7D9BF00BF30B583B0B2
:10239000054600F035FCB8B10DF09AFB0446224624
:1023A0000A490B4804F01AFDD5F870020922C368E7
:1023B00044618DF8072033B103690DF10701043042
:1023C000984703B030BDFEE70446E8E7B0000020C0
:1023D000842A00200068FFF7D9BF00BF30B583B062
:1023E000054600F00DFCD0B10DF072FB80EAE07400
:1023F000A4EBE07422460B490B4804F0EFFCD5F83F
:1024000070020A22C36844618DF8072033B1036962
:102410000DF107010430984703B030BDFEE70446D4
:10242000E8E700BFBC000020842A00200068FFF716
:10243000D5BF00BF10B5044682B00949094804F071
:10244000CDFCD4F870020C22C3688DF8072033B19C
:1024500003690DF107010430984702B010BDFEE793
:10246000CC000020842A00200068FFF7E3BF00BFF3
:1024700010B5374C0621374803F0C4F9204604F064
:1024800095FC2621344803F0BDF9204604F08EFC6B
:102490002621324803F0B6F9204604F087FC2A21B1
:1024A0002F4803F0AFF9204604F080FC2D212D4881
:1024B00003F0A8F9204604F079FC34212A4803F0FF
:1024C000A1F9204604F072FC2221284803F09AF971
:1024D000204604F06BFC4821254803F093F9204680
:1024E00004F064FC3721234803F08CF9204604F003
:1024F0005DFC4421204803F085F9204604F056FC99
:102500002E211E4803F07EF9204604F04FFC522194
:102510001B4803F077F9204604F048FC4C21194889
:1025200003F070F9204604F041FC4D21164803F0F9
:1025300069F9204604F03AFC1B21144803F062F9C3
:10254000204604F033FC2046BDE8104004F02EBCC9
:10255000842A0020D8000020E0000020080100208C
:10256000300100205C0100208C010020C40100200B
:10257000E8010020340200206C020020B402002098
:10258000E40200203803002088030020D803002044
:10259000F0B587B0994B9A4E054602AC9949049321
:1025A00022460290059600F055FA049B1BB10322C7
:1025B000214620469847944B2246944E28469449FB
:1025C00004930295059600F045FA049B1BB1032283
:1025D0002146204698478F4B22468F4E28468F49EA
:1025E00004930295059600F035FA049B1BB1032273
:1025F0002146204698478A4B22468A4E28468A49D9
:1026000004930295059600F025FA049B1BB1032262
:10261000214620469847854B2246854E28468549C7
:1026200004930295059600F015FA049B1BB1032252
:10263000214620469847804B2246804E28468049B6
:1026400004930295059600F005FA049B1BB1032242
:102650002146204698477B4B22467B4E28467B49A5
:1026600004930295059600F0F5F9049B1BB1032233
:10267000214620469847764B2246764E2846764994
:1026800004930295059600F0E5F9049B1BB1032223
:10269000214620469847714B2246714E2846714983
:1026A00004930295059600F0D5F9049B1BB1032213
:1026B0002146204698476C4B22466C4E28466C4972
:1026C00004930295059600F0C5F9049B1BB1032203
:1026D000214620469847674B2246674E2846674961
:1026E00004930295059600F0B5F9049B1BB10322F3
:1026F000214620469847624B2246624E2846624950
:1027000004930295059600F0A5F9049B1BB10322E2
:102710002146204698475D4B22465D4E28465D493E
:1027200004930295059600F095F9049B1BB10322D2
:10273000214620469847584B2246584E284658492D
:1027400004930295059600F085F9049B1BB10322C2
:10275000214620469847534B2246534E284653491C
:1027600004930295059600F075F9049B1BB10322B2
:102770002146204698474E4B22464E4E28464E490B
:1027800004930295059600F065F9049B1BB10322A2
:10279000214620469847494B2146494A28460493FA
:1027A000059200F093F9049B1BB1032221462046B9
:1027B00098472846434EFFF75BFED5F8705200213C
:1027C000059602952B1D04913F4F94E803008DE878
:1027D000030093E8030084E803009DE8030083E816
:1027E0000300EB6804932A69EF6005922E61002BC9
:1027F0006CD0032221462046984767E07D00000008
:102800005D050000F403002095000000B505000000
:10281000F8030020AD000000F9050000FC030020D3
:10282000C50000003D06000054230020DD0000002C
:102830007906000000040020F5000000B506000045
:10284000080400200D01000005070000100400200E
:102850002501000055070000180400203D0100007C
:10286000A50700002004002055010000F507000026
:10287000280400206D0100004508000030040020FD
:102880008501000095080000380400209D0100002B
:10289000ED08000040040020B501000029090000F7
:1028A00048040020CD010000990D000050040020D4
:1028B000E5010000A10D000058040020FD0100000A
:1028C000510200001D04000009020000286800F009
:1028D00097FB07B0F0BD00BF0068FFF7C9BD00BFA0
:1028E0000068FFF7C5BD00BF30B51A4A83B01A4C67
:1028F0001A481B491378002BFCD02378DB07F9D545
:1029000003680D685B1B0E2BF4D92221154802F0D9
:1029100079FF154804F04AFA2321144802F072FFA7
:10292000134B1868FFF734FE1021124802F06AFFBB
:102930000D4804F03BFA104A0C2310688DF807305C
:10294000C36833B103690DF107010430984703B040
:1029500030BDFEE7B8390020E8380020C439002037
:102960000C3B00205C040020842A0020800400200E
:1029700078340020A4040020703400200A4B10B5E5
:102980001C6882B0204600F0D3F8D4F870020E2202
:10299000C3688DF8072033B103690DF107010430D6
:1029A000984702B010BDFEE778340020014B1B6849
:1029B000184700BFFC05002070B58C20104C04F0B7
:1029C00033F9022301220021064600F061FA20209B
:1029D0000C4D266004F028F92168034600224FF4CC
:1029E0001D701960DA602B6004F01EF92D68044632
:1029F00000F00CF8044BC4F870521C6070BD00BFAE
:102A000074340020703400207834002010B4044660
:102A1000002004F11C0304F5137143F8080C1C3367
:102A200000228B42F9D10A490A2384F83022204639
:102A3000098884F8472284F86822A4F8441284F8AC
:102A40004632C4F83C22C4F86C225DF8044B70474F
:102A5000CC1D0020F0B590F830420646174687B0EE
:102A6000C4EBC4040822A400204434440EF006FE43
:102A70000022BB680C34049223B302AD0222394613
:102A800028469847F968BA68A768A260E268E160DA
:102A9000059295E803008DE8030094E8030085E8BB
:102AA00003009DE80300049784E803001FB103229C
:102AB00029462846B84796F83032013386F8303236
:102AC00007B0F0BD1A46059902ADDDE7F0B500226A
:102AD00087B08B68054604922BB302AC0E460222E7
:102AE00020469847F768B66805F50D7394E803002B
:102AF0008DE8030093E8030084E803009DE80300E9
:102B000083E80300D5F83C32D5F840220493C5F899
:102B10003C620592C5F840721BB103222146204653
:102B2000984707B0F0BD1E46059F02ACDCE700BF2A
:102B30002DE9F04F054683B0002600F51B7800F51F
:102B4000117702F0F9FD00281DDD02F035FE95F841
:102B50004632C4B2A34219D020460DF00DFA002827
:102B6000EFD095F868321F2BEBD85A1C2B44D2B209
:102B7000A91885F8682283F8474281F8476202F075
:102B8000DBFD0028E1DC03B0BDE8F08F42463946AA
:102B900005F247200EF0D8FD8246E8B195F830B234
:102BA000BBF1000F1DD0A946002404E0013409F157
:102BB0001C095C4515D00822494650460EF00EFD12
:102BC0000028F3D1C4EBC404A40028190C30836896
:102BD000A3B12C44A369984785F8476285F86862D9
:102BE000AFE7D5F83C32002BF6D0CDF804A001A910
:102BF000D5F8403205F50D709847EDE704F01EFA60
:102C00000146002001F51B7201F511710EF09CBD0B
:102C1000012A06D0022A02D108B10B680360002005
:102C20007047016000207047012A06D0022A02D1B5
:102C300008B10B68036000207047016000207047F6
:102C4000034B10B50446036001F078FD204610BD2B
:102C5000C0040020054B10B50446036001F06EFD72
:102C60001421204603F0E4FF204610BDC0040020DC
:102C700038B50468224D22682B689A4220D994F80E
:102C80002430204A1B01D118D358CA6899681142D0
:102C900024D0C3F88820A168606804F0F5F82B6898
:102CA0000246A06913442B6028B3036807EE902AFC
:102CB0005B68B8EEE70A9847BDE8384001F074BD9C
:102CC000636A227BDBB262B90E4A1B01D118D3586A
:102CD000CA68C3F8882000232B6038BDC3F884205D
:102CE000D9E7084A1B01D118D358CA68C3F8842011
:102CF00000232B6038BD6A20BDE8384001F054BD88
:102D00007C3400207007002038B5234D02682B6802
:102D10009A4221D990F82430204A1B01D118D35867
:102D2000CA689968114225D0C3F888200446816892
:102D3000406804F0A9F82B680246A06913442B6090
:102D400028B3036807EE902A5B68B8EEE70A984755
:102D5000BDE8384001F028BD436A027BDBB262B9AE
:102D60000E4A1B01D118D358CA68C3F88820002323
:102D70002B6038BDC3F88420D8E7084A1B01D1185E
:102D8000D358CA68C3F8842000232B6038BD6A205A
:102D9000BDE8384001F008BD7C34002070070020F9
:102DA00038B5046823686168A2680B44236023680F
:102DB000934257D0236803F00103043304EB8303E9
:102DC000D3ED017AF5EEC07AF1EE10FA06D99FED57
:102DD0002E7AF4EEC77AF1EE10FA30DDA36A5A1CAF
:102DE00010D02268DBB2E56A023AB2FBF5F005FBCF
:102DF0001022002A40D1254A1B01D018D358C2689E
:102E0000C3F884202368DB070CD501290CD094F883
:102E1000643004F1580083F0010384F86430FFF754
:102E200073FF38BD0129F2D094F83C3004F1300032
:102E300083F0010384F83C30FFF766FF38BDF3EE02
:102E4000086ABEEE007AA7EEA67AFCEEC77A17EE05
:102E5000903A102BC2D9D4F88020002ABED0C2EDFF
:102E6000007ABBE7657F002DA4D104F1800000F05B
:102E70009BFB25776168B1E7044A1B01D018D35842
:102E8000C268C3F88820BDE7ABAA2A4D70070020AE
:102E90002DE9F047134E002504468A4637689146CF
:102EA000114E2A463946057745774030984601F05D
:102EB00065FC2A463946266404F1680001F05EFC90
:102EC0008022A6662046C4F88050C4F88850C4F812
:102ED00020A0C4F82490C4F8288084F88420BDE899
:102EE000F08700BFF4050020C004002010B50446A0
:102EF000803000F059FB0023237710BD007F70471E
:102F0000C162704700000000DFED317A0346B4EE85
:102F1000E70AF1EE10FA1BD5DFED2E7AB4EEE70AE0
:102F2000F1EE10FA3CDCDFED2C6A9FED237B9FED88
:102F30002B6AF4EEC60AF1EE10FA14DCB1EE046A64
:102F4000F4EEC60AF1EE10FA23D89FED1D4B0CE00B
:102F50009FED226AF7EE006AB6EE007BF4EEC60A39
:102F6000F1EE10FAEADDB7EE004B27EE047B9FEDA1
:102F7000186A1846B7EEC77B76EEC77A83ED057AF6
:102F800037EE277AC3ED067AC6EE077AC3ED037AE9
:102F90007047B7EEE05A9FED0C3B85EE034BE4E73C
:102FA000DFED0F7AC7EE806AB7EEE67A76EEA66AB4
:102FB000BDE700BFAFF3008000000000D012534116
:102FC0001CC7711CC771AC3F000000000080564058
:102FD0000024F449CDCC4C3E8096184B0000B442FE
:102FE0000024744980ED030AD0ED040AFFF78CBF7A
:102FF000F0EE400A80ED040A90ED030AFFF784BF6B
:10300000036A01212DE9F047DDB243650446AB4E6A
:1030100028462D018CB0DFF8B88203F0A7FB7119A8
:10302000705904F13002CD680023A54F6946C0F8FD
:10303000885004A8009202220693CDF80C800297D3
:10304000FFF7E6FD039A029B07920693002B00F020
:10305000FD8094F84C20002A40F0CF80D4F84890AE
:10306000B9F1000F00F0CD80D9F80010D1F800A020
:103070000A9208AD022204A928469847079A069B9F
:103080000B920A93484694F84C209FED8E0A2946ED
:10309000D0470A9B81461BB1032229462846984700
:1030A000484601F081FB069B1BB104A90322084698
:1030B0009847029B002B00F09080032269466846E7
:1030C00004F158099847626A00230121D5B2E267EA
:1030D00084F83C30284603F049FB280100233218CD
:1030E0003158D0680222C1F88800694604A80693C6
:1030F000CDF80090CDF80C800297FFF789FD039A78
:10310000029B07920693002B00F0A48094F8742091
:10311000002A6ED1276F002F00F086803968D1F821
:1031200000800A9208AD022204A928469847079A0F
:10313000069B0B920A93384694F874209FED610A1F
:103140002946C0470A9B07461BB103222946284649
:103150009847384601F028FB069B1BB104A90322BF
:1031600008469847029B23B1032269466846984760
:103170000023A06A84F86430431C0BD0C0B2012144
:1031800003F0F4FAA36ADBB21B01F218F358D26819
:10319000C3F888209FED4C0A2046D4ED040A84ED44
:1031A000030AFFF7B1FEDFED490A94ED030A20465A
:1031B000C4ED040AFFF7A8FE642000234FF49671C3
:1031C0001E22E06220462363A3652360A16321667B
:1031D0006263E2650CB0BDE8F087626A012184F8A1
:1031E0003C3004F15809D5B2E267284603F0BEFA34
:1031F00073E7662001F0D8FAAEE7662001F0D4FA52
:1032000051E7656C55B3A8478146A064002850D0AB
:10321000D9F800100022069BD1F800A00A92002BDA
:103220007FF427AF08AD2DE7E56E5DB3A8470746ED
:103230002067002839D039680022069BD1F8008029
:103240000A92002B7FF46EAF08AD74E7652001F0A1
:10325000ABFA28E7652001F0A7FA7DE7DFF874A054
:1032600001E0072D07D05AF8043F01359847814601
:10327000A0640028F5D0B9F1000FC9D1672001F092
:1032800093FA10E7DFF84C8001E0072D07D058F8DB
:10329000043F01359847074620670028F5D0002FE6
:1032A000C9D1672001F080FA56E7682001F07CFA66
:1032B00052E7682001F078FAF5E600BF70070020B9
:1032C000D1100000000000000000C8420000B4421D
:1032D000311100007C34002001638165704700BF1C
:1032E0004163C165704700BF81630166704700BFDD
:1032F00038B50546D0ED057A0C462149D5ED035A7F
:10330000B7EEE76A95ED067A2046B7EEE55A37EE56
:10331000877A53EC152B9FED185BB7EEC77A26EE34
:10332000055B2DED028B85EE076BB7EEC68B03F0C8
:1033300055FD20461349B7EEC87A53EC172B03F01E
:103340004DFDEA6A2046104903F048FD2A6B2046ED
:103350000E4903F043FD6A6B20460D4903F03EFD24
:10336000AA6B20460B4903F039FD2046BDEC028BC9
:10337000BDE8384003F01ABD000000000080664040
:10338000C8040020E0040020F804002010050020FC
:103390002805002040050020F0B5314D002287B0FF
:1033A000AB6882606BB101232A4683609469103256
:1033B0003CB10133042B8360F8D10026304607B0BE
:1033C000F0BDB5EEC00AF1EE10FAF6D9DFED257AC0
:1033D000B4EEE70AF1EE10FAEFDCB3EE087AFEEE97
:1033E000007AE0EE077AFCEEE77A17EE902A102AD0
:1033F000E3D90F461C49044651F8231003F086FB1D
:1034000006460028D9D0A1680022BB6805EB01154B
:1034100004920BB302AC0222394620469847F96861
:10342000BA68AF68AA60EA68E960059294E80300A8
:103430008DE8030095E8030084E803009DE803009D
:10344000049785E80300002FB8D0032221462046C8
:10345000B847304607B0F0BD1A46059902ACE0E720
:103460009C340020ABAA2A4DDC34002003688B4238
:103470002CD00368027F9942ACBF01234FF0FF3389
:1034800030B5044685B0816043601AB101232377CB
:1034900005B030BD036869460D4A803003F0010372
:1034A0000C4D009404330395029204EB830393EDD7
:1034B000010AFFF771FF029B002BE7D00322694648
:1034C000684698470123237705B030BD704700BF99
:1034D000E910000061120000F0B40C4B0C4E0D4DD1
:1034E0000D4C0E480E490F4A1F6836680E4B2D686A
:1034F00024680068096812681F605E609D60DC6077
:10350000186159619A61F0BC704700BFEC0500205A
:10351000F0050020F8050020000600200406002029
:1035200008060020F40500208034002038B5064C41
:10353000A4F14005103CA36803222146204603B1B4
:103540009847AC42F6D138BDDC340020034883688C
:103550000BB1C368184710B503F070FD9C34002010
:103560000448836913B1C3691030184710B503F0DC
:1035700065FD00BF9C3400200448836A13B1C36A10
:103580002030184710B503F059FD00BF9C340020CF
:103590000448836B13B1C36B3030184710B503F088
:1035A0004DFD00BF9C34002038B5094B05468468AA
:1035B00003EB0414A36833B1032221462046984745
:1035C0000023A360E3602846BDE8384003F0FEBA5C
:1035D0009C34002000230A4A0A49184610B50A4CB8
:1035E000A360A361A362A36303F0F2FC074C084B42
:1035F00008480949094A1C6058609960DA6010BDA2
:103600001C2A0020ED1900009C3400200D1A000037
:10361000DC340020211A0000391A0000511A000081
:103620000020704738B5064C04F1500554F8043FAB
:10363000184613B11B681B6C9847AC42F6D138BDD5
:1036400048370020836810B5044613B103220146B1
:103650009847204610BD00BF836800229A817047BA
:10366000826800205081938A23F010031B041B0CF6
:103670009382938A9BB243F040039382704700BFCA
:1036800082680020938A23F040031B041B0C938262
:10369000704700BFDFED1D7A0146D0ED046A20EED1
:1036A000270A9FED1B7A30B4C0EE267A82B0F4EE82
:1036B000C77AF1EE10FA23DCFCEEE77A0020CDEDBC
:1036C000017ABDF804208B680025496942F2600444
:1036D0009D81DD8049021A801A8201F4F0515D81DA
:1036E0009A8A0C4322F010021204120C9A829A8ACF
:1036F00092B242F040029A829C8102B030BC704784
:103700004FF6FE726FF06300DDE700BF0000164366
:1037100000FE7F47D0ED046A9FED047ADFED047A66
:1037200086EE870A20EE270A704700BF180D0F4D5E
:1037300000FE7F47DFED117A0246D0ED046A20EEED
:10374000270A9FED0F7AC0EE267AF4EEC77AF1EEE3
:1037500010FA0BDCFCEEE77A82B000209268CDED27
:10376000017ABDF80430138202B070474FF6FE7341
:1037700092686FF063001382704700BF0000164329
:1037800000FE7F47DFED177A82B0D0ED046A024673
:1037900020EE270A9FED147AC0EE267AF4EEC77A5F
:1037A000F1EE10FA18DCFCEEE77A0020CDED017A9C
:1037B000BDF8043091680B8272B691684A8992B262
:1037C0009A4203D80B8062B602B070470B889BB256
:1037D0004B8162B602B070474FF6FE736FF0630024
:1037E000E8E700BF0000164300FE7F4710B5254CF8
:1037F000A3686BB1244B1A68938AD90608D5938ABB
:103800002046E16823F010031B041B0C93828847B9
:10381000A3691C4973B11D4B1A68938ADB0609D54D
:10382000938A01F11000C96923F010031B041B0CDB
:1038300093828847A36A134923B1154B1A68938A68
:10384000D80614D4A36B0F4973B1124B1A68938A2C
:10385000DB0609D5938A01F13000C96B23F0100310
:103860001B041B0C93828847BFF34F8F10BD938AB4
:1038700001F12000C96A23F010031B041B0C938282
:103880008847DFE77C360020783600208835002026
:10389000843500208035002010B5254CA3686BB11D
:1038A000244B1A68938AD90608D5938A2046E16882
:1038B00023F010031B041B0C93828847A3691C4947
:1038C00073B11D4B1A68938ADB0609D5938A01F1FF
:1038D0001000C96923F010031B041B0C9382884756
:1038E000A36A134923B1154B1A68938AD80614D4D6
:1038F000A36B0F4973B1124B1A68938ADB0609D583
:10390000938A01F13000C96B23F010031B041B0CD8
:1039100093828847BFF34F8F10BD938A01F1200037
:10392000C96A23F010031B041B0C93828847DFE74E
:1039300038360020343600207C35002078350020D1
:103940007435002010B5254CA3686BB1244B1A6860
:10395000938AD90608D5938A2046E16823F010039C
:103960001B041B0C93828847A3691C4973B11D4B30
:103970001A68938ADB0609D5938A01F11000C96998
:1039800023F010031B041B0C93828847A36A13497E
:1039900023B1154B1A68938AD80614D4A36B0F4928
:1039A00073B1124B1A68938ADB0609D5938A01F129
:1039B0003000C96B23F010031B041B0C9382884753
:1039C000BFF34F8F10BD938A01F12000C96A23F025
:1039D00010031B041B0C93828847DFE7F43500209B
:1039E000F0350020703500206C350020683500204F
:1039F00010B5254CA3686BB1244B1A68938AD9067D
:103A000008D5938A2046E16823F010031B041B0CA1
:103A100093828847A3691C4973B11D4B1A68938A26
:103A2000DB0609D5938A01F11000C96923F0100360
:103A30001B041B0C93828847A36A134923B1154BBF
:103A40001A68938AD80614D4A36B0F4973B1124B2A
:103A50001A68938ADB0609D5938A01F13000C96B95
:103A600023F010031B041B0C93828847BFF34F8F76
:103A700010BD938A01F12000C96A23F010031B04D2
:103A80001B0C93828847DFE7B0350020AC3500205F
:103A900064350020603500205C35002008B50A4BF5
:103AA0001B681B7A23B9094A136823F001031360CA
:103AB00007483F21054A8368916023B1C36898474E
:103AC000BFF34F8F08BDFEE7F834002000C01E4052
:103AD0009C35002008B50A4B1B681B7A23B9094A9C
:103AE000136823F00103136007483F21054A8368E8
:103AF000916023B1C3689847BFF34F8F08BDFEE7BD
:103B0000F034002000001F408C35002038B5064CF2
:103B1000A4F14005103CA36803222146204603B1CE
:103B20009847AC42F6D138BDBC36002038B5064CBB
:103B3000A4F14005103CA36803222146204603B1AE
:103B40009847AC42F6D138BD7836002038B5064CDF
:103B5000A4F14005103CA36803222146204603B18E
:103B60009847AC42F6D138BD3436002038B5064C03
:103B7000A4F14005103CA36803222146204603B16E
:103B80009847AC42F6D138BDF0350020002380F8CC
:103B900025301846704700BF38B51D4B1A78002AEB
:103BA00033D11C4C01211C4D42221970E36E1B497C
:103BB00043F470031A48E366E369C1F8D00143F0A7
:103BC0004003E3612A60174B102214201A6003F0AF
:103BD0002BF8E2690346144914485206DD60586028
:103BE000196007D5F3EE087A114A1846C3ED047A36
:103BF000136038BD0F4A10491268A1FB0212920CE3
:103C000007EE902AF8EEE77AEEE7002038BD00BF15
:103C1000FC34002000C00F4000C01E4000440020C3
:103C20005D1F00000CE100E0240600209C35002010
:103C3000F8340020442A002083DE1B4338B51D4B96
:103C40001A78002A33D11C4C01211C4D42221970D4
:103C5000A36E1B4943F070631A48A366E369C1F879
:103C6000D40143F04003E3612A60174B2022142063
:103C70001A6002F0D9FFE26903461449144852065B
:103C8000DD605860196007D5F3EE087A114A1846CE
:103C9000C3ED047A136038BD0F4A10491268A1FBC6
:103CA0000212920C07EE902AF8EEE77AEEE7002077
:103CB00038BD00BFF434002000C00F4000001F409A
:103CC00000440020951F00000CE100E024060020C5
:103CD0008C350020F0340020442A002083DE1B4372
:103CE00083680022182110B504469A8102F0A0FFD3
:103CF000204610BD692000F057BD00BF692000F0CC
:103D000053BD00BF08B5692000F04EFD9FED010ACC
:103D100008BD00BF0000C07F692000F045BD00BFA6
:103D2000692000F041BD00BF692000F03DBD00BF2B
:103D3000692000F039BD00BF692000F035BD00BF2B
:103D40001A48027838B57AB9194B03F1500143F893
:103D5000042F8B42FBD10122164B02701A681B689C
:103D60009A4218D001F0F4F9114B002453F8045F83
:103D700025B10134142CF9D1002038BD282002F0DF
:103D800053FF0D490D4A4560056180F825500160DB
:103D900042F8240038BD0A490A4A0B6843F0807390
:103DA0000B60136843F001031360DBE79C370020CE
:103DB00048370020041000E0A80500204C37002000
:103DC000FCED00E0001000E038B5C569846901F041
:103DD00053F9074B2C4493ED000A201AB8EE400A21
:103DE00007EE900AF8EE677A87EE800A38BD00BFCA
:103DF000482A002010B5044601F03EF90123A061D5
:103E0000002084F8253010BD38B504460D4601F079
:103E100033F90123A06100202562E56184F8253093
:103E200038BD00BFF8B5134E044601F025F93578CA
:103E3000E5B9E269C2B194F82570AFB1A369C01ABF
:103E4000824211D813440120216A94F82420A361EE
:103E500023693070E16184F8252053B1636904F16E
:103E60000800984735703D462846F8BD002528468D
:103E7000F8BDFEE7EC340020074A036910B504469C
:103E8000026023B100F1080103220846984720464A
:103E900001F0DAF8204610BDA805002010B5044650
:103EA00001F0F0F82062002010BD00BF10B50C46F4
:103EB00001F0E8F82060002010BD00BF38B50446CE
:103EC00001F0E0F8054601F0D7F8A369C31A9D4256
:103ED00006D82369A0613BB1636904F108009847E3
:103EE000E5610020256238BDFEE700BF08B501F09E
:103EF000DDF8DFED027A80EE270A08BD0024744960
:103F00002DE9F0412A4E3578002D31D1294FA846B0
:103F10003C466A01284B21460135134420460322C2
:103F2000A3F80C80A36823B19847C4F80880C4F8AC
:103F30000C80042D04F11004EBD1204B204AC3F86F
:103F40005422204A202101231820116000253370BB
:103F500002F06AFE1C490F221C4E0C684FF086418D
:103F6000C56084600161426180E8C000BDE8F08105
:103F700000246301104D1D44AE89B6B22EB1013448
:103F8000042CF6D10020BDE8F08118200F4F02F07C
:103F90004BFE084A0F21C66002EB04144FF0864224
:103FA00085604460076002614161BDE8F08100BF47
:103FB000003500207C36002000C01D400044002059
:103FC000AD1C000010E100E0783600206005002004
:103FD0002DE9F0412A4E3578002D31D1294FA846E0
:103FE0003C466A01284B21460135134420460322F2
:103FF000A3F80C80A36823B19847C4F80880C4F8DC
:104000000C80042D04F11004EBD1204B204AC3F89E
:104010005822204A402101231820116000253370C6
:1040200002F002FE1C490F221C4E0C684FF0864124
:10403000C56084600161426180E8C000BDE8F08134
:1040400000246301104D1D44AE89B6B22EB1013477
:10405000042CF6D10020BDE8F08118200F4F02F0AB
:10406000E3FD084A0F21C66002EB04144FF08642BC
:1040700085604460076002614161BDE8F08100BF76
:10408000FF3400203836002000001E40004400208D
:10409000591D000010E100E03436002060050020CA
:1040A0002DE9F0412A4E3578002D31D1294FA8460F
:1040B0003C466A01284B2146013513442046032221
:1040C000A3F80C80A36823B19847C4F80880C4F80B
:1040D0000C80042D04F11004EBD1204B204AC3F8CE
:1040E0005C22204A802101231820116000253370B2
:1040F00002F09AFD1C490F221C4E0C684FF08641BD
:10410000C56084600161426180E8C000BDE8F08163
:1041100000246301104D1D44AE89B6B22EB10134A6
:10412000042CF6D10020BDE8F08118200F4F02F0DA
:104130007BFD084A0F21C66002EB04144FF0864253
:1041400085604460076002614161BDE8F08100BFA5
:10415000FE340020F435002000401E4000440020C2
:10416000051E000010E100E0F03500206005002091
:104170002DE9F0412A4E3578002D32D1294FA8463D
:104180003C466A01284B2146013513442046032250
:10419000A3F80C80A36823B19847C4F80880C4F83A
:1041A0000C80042D04F11004EBD1204B204AC3F8FD
:1041B0006022204A4FF480710123182011600025ED
:1041C000337002F031FD1C490F221C4E0C684FF079
:1041D0008641C56084600161426180E8C000BDE83D
:1041E000F08100246301104D1D44AE89B6B22EB19A
:1041F0000134042CF6D10020BDE8F08118200F4FC7
:1042000002F012FD074A0F21C66002EB04144FF0C2
:10421000864285604460076002614161BDE8F081CB
:10422000FD340020B035002000801E4000440020F6
:10423000B11E000010E100E0AC3500206005002058
:10424000036870B59E68044600F01CFF094B0546E4
:104250009E4209D100F010FF0123A06100202562D9
:10426000E56184F8253070BD014633462046BDE83F
:1042700070401847C9220000094A036910B5044676
:10428000026023B100F10801032208469847204646
:1042900000F0DAFE2046282102F0CAFC204610BDBC
:1042A000A8050020DFED497AD0ED046A20EE270A48
:1042B0009FED477A2DE9F043C0EE267A8DB0054692
:1042C0000E469046F4EEC77AF1EE10FA79DCFCEE79
:1042D000E77A0027CDED017ABDF80420AB68002411
:1042E000D6F8089001219C81DC801A801A825C81BA
:1042F00006949982B9F1000F58D00222314604A8E1
:10430000C847F268B36808AE0A94079206936C68CF
:104310003BB1022204A930469847079A069B0B92AC
:104320000A9302AA96E8030082E8030094E80300D7
:1043300086E8030092E80300A36884E803000A9A71
:104340000A93A2600B9AE1680B91E2601BB1032211
:10435000314630469847069B1BB104A90322084604
:1043600098476B69B8F1000F1DD042F220015B0243
:10437000AA6803F4F05319432B6891819B6915498E
:104380008B4218D1002338465381938A23F01003BF
:104390001B041B0C9382938A9BB243F040039382CD
:1043A0000DB0BDE8F08342F26001E0E7CDF828905F
:1043B00008AE6C68B5E72846984738460DB0BDE8AA
:1043C000F0834FF6FE726FF0630787E70000164335
:1043D00000FE7F47211B00000023F0B5044687B094
:1043E0000E4680F8242080F825301AB100F04AFEED
:1043F000E06120620022B368049213B302AD31463B
:10440000022228469847F768B66804F1080395E841
:1044100003008DE8030093E8030085E803009DE8AE
:10442000030083E80300236962690493266105920F
:1044300067611BB10322294628469847002007B030
:10444000F0BD1E46059F02ADDFE700BF70B5794D98
:104450002B6813F001030BD1774C01261846774ADD
:104460007749A360A361A362A3632E6002F0B0FD4D
:10447000744B1A68D40704D40120734A7349186036
:104480001160734D2B6813F001030BD1714C0126A1
:1044900018466A4A7049A360A361A362A3632E60B1
:1044A00002F096FD6D4B1A68D00704D401206C4AC7
:1044B0006C49186011606C4D2B6813F001030BD12F
:1044C0006A4C012618465D4A6949A360A361A3624C
:1044D000A3632E6002F07CFD664B1A68D10704D4FA
:1044E0000120654A654918601160654D2B6813F01D
:1044F00001030BD1634C01261846504A6249A36060
:10450000A361A362A3632E6002F062FD5F4B1A6891
:10451000D20704D401205E4A5E49186011605E4CE7
:10452000236813F0010371D05C4C236813F001037E
:1045300076D05B4B1A68D60704D40120594A5A49F1
:1045400018601160594B1A68D50704D40120584AE5
:10455000584918601160584B1A68D40704D40120D8
:10456000564A574918601160564B1A68D00704D450
:104570000120554A554918601160554B1A68D107FA
:1045800004D40120534A544918601160534B1A68EF
:10459000D20704D40120524A524918601160524B8C
:1045A0001A68D60704D40120504A51491860116096
:1045B000504B1A68D50704D401204F4A4F49186060
:1045C00011604F4B1A68D40704D401204D4A4E495C
:1045D000186011604D4B1A68D00704D401204C4A72
:1045E0004C49186011604C4B1A68D10704D4012063
:1045F0004A4A4B49186011604A4B1A68D20704D4E2
:104600000120494A49491860116070BD484D012692
:104610000A4A28464749AB60266002F0D9FC83E786
:10462000454D0126054A28464249AB60266002F006
:10463000CFFC7EE7583500207C3600201C2A002065
:10464000CD1F0000543500207836002000C01D40EA
:104650005035002038360020ED1F00004C3500207A
:104660003436002000001E4048350020F43500207C
:104670000D20000044350020F035002000401E4091
:1046800040350020B03500202D2000003C350020B2
:10469000AC35002000801E40383500203435002025
:1046A000303500208835002020C01D402C350020EA
:1046B0008435002040C01D40283500208035002072
:1046C00060C01D40243500207C35002020001E40A5
:1046D000203500207835002040001E401C35002089
:1046E0007435002060001E40183500207035002011
:1046F00020401E40143500206C35002040401E40F4
:10470000103500206835002060401E400C35002028
:104710006435002020801E400835002060350020D0
:1047200040801E40043500205C35002060801E4023
:104730009C350020051B00008C35002010B5054B72
:1047400004468068236010B10368DB6B98472046FD
:1047500010BD00BF1406002010B5074B044680684A
:10476000236010B10368DB6B98472046142102F0E8
:104770005FFA204610BD00BF1406002030B40024AC
:10478000034D4160056004618460027330BC704772
:1047900014060020836810B5044613B103220146B5
:1047A0009847204610BD00BF074B9A6810B50446D5
:1047B00082B032B128B102A9DA68184641F8044D36
:1047C0009047204602B010BDBC36002010B4054B07
:1047D0000024054A9C60184604495DF8044B02F029
:1047E000F7BB00BFBC3600201C2A0020552C00005F
:1047F000DFED056A90ED047ADFED047A86EE870A34
:1048000080EE270A704700BF0000804F00247449E3
:10481000C3683F21012200209960DA601A6842F0E3
:1048200001021A60704700BFC36800211A68084679
:1048300022F001021A60D960704700BF10B4C3684B
:104840003F24012200209C60DA6019611A685DF83B
:10485000044B42F001021A60704700BF69207047A4
:10486000F0B50446C0688BB000210668636806ADE9
:104870002D4F26F001062760DF6806600891C160B1
:10488000049195E803008DE8030093E8030085E8B0
:1048900003009DE803009E6883E80300089A0896D9
:1048A0009A60099A0997DA601EB1032229462846C0
:1048B000B047049B1BB102A9032208469847E3684E
:1048C0001A4A93421CD01A4A934205D0C820FFF7D7
:1048D0006BFF20460BB0F0BD164D2021164A002676
:1048E000AF6811601E602FB1032229462846B847E1
:1048F000AE60EE60114B002220461A700BB0F0BD86
:104900000F4D10210C4A0026AF6811601E602FB1B8
:10491000032229462846B847AE60EE60094B0022C4
:1049200020461A700BB0F0BD2406002000C01E40C7
:1049300000001F408C3500208CE100E0F4340020A2
:104940009C350020FC34002010B50446FFF788FF9A
:104950001421204602F06CF9204610BD38B59FEDB9
:10496000187A0D462DED028BB0EE408A90ED040AC8
:10497000C7EE007AB4EEE78AF1EE10FA0BDC28EE0F
:10498000008A0020BCEEC88A18EE103ABDEC028BFB
:10499000013B2B6038BD036804460A4A5B6A9342B8
:1049A0000AD19FED097A87EE878A6FF06300FFF7DF
:1049B000FBFE94ED040AE2E79847B0EE408AF4E784
:1049C0000000804FB12C00000024744910B59FED09
:1049D000187A04462DED028BB0EE408A90ED040A61
:1049E000C7EE007AB4EEE78AF1EE10FA0CDC28EE9E
:1049F000008AE2680020BCEEC88A18EE103ABDECCE
:104A0000028B013B136110BD03680A4A5B6A934243
:104A10000AD19FED097A87EE878A6FF06300FFF76E
:104A2000C3FE94ED040AE2E79847B0EE408AF4E74B
:104A30000000804FB12C000000247449DFED226A91
:104A4000D0ED047A036886EEA77A70B504469D68B7
:104A50002DED028BB4EEC70AF1EE10FA1ADCB0EEBF
:104A6000408A67EE887A194B9D42FCEEE77A17EE92
:104A7000902A02F1FF311CD1E3683F2001229860A7
:104A80000020DA6019611A68BDEC028B42F0010265
:104A90001A6070BD5B6A0E4A934211D1DFED0D7A48
:104AA00087EE278A6FF06300FFF77EFED4ED047A6D
:104AB000D7E7BDEC028B20462B46BDE87040184777
:104AC0009847B0EE408AEDE70000804FFD2C0000D3
:104AD000B12C00000024744970B505468CB00C461A
:104AE0000272002A3FD10026A3680696002B36D01A
:104AF0000222214604A89847E268A3680A966C68D7
:104B000008AD079206933BB1022204A928469847B4
:104B1000079A069B0B920A9302ABE66895E803009E
:104B200083E8030094E8030085E8030093E80300AA
:104B3000A36884E803000A9A0A93A2600B9A0B9672
:104B4000E2601BB10322294628469847069B1BB109
:104B500004A903220846984700200CB070BD6C6879
:104B600008AD0A93D8E7D0ED047ADFED146AC66881
:104B700086EEA77AB4EEC70AF1EE10FA08DC20EE52
:104B8000270ABCEEC00A10EE103A013B3361AAE7D7
:104B900003680B4A5B6A93420ED1DFED0A7A87EE17
:104BA000270A6FF063008DED010AFFF7FDFDD5EDDB
:104BB000047A9DED010AE2E79847F2E70000804F92
:104BC000B12C00000024744970B5104C236813F018
:104BD000010310D00E4C236813F0010300D070BD08
:104BE0000C4D01260C4A2846AB6026600B49BDE8F7
:104BF000704002F0EDB90A4D0126074A28460749E0
:104C0000AB60266002F0E4F9E4E700BF383500202D
:104C1000343500208C3500201C2A0020051B0000A4
:104C20009C350020C1680322024B002003EB0113D6
:104C30009A60704700410840C1680022024B10464C
:104C400003EB01139A60704700410840064A8369EC
:104C500010B50446026023B100F11001032208469A
:104C60009847204610BD00BF6C060020064BDFEDC4
:104C7000076AD3ED007A9FED067AF8EE677A86EE42
:104C8000A70A80EE070A7047202A00200000804F04
:104C900000247449134B9FED147AD3ED007AF8EE9B
:104CA000677A27EE800AB4EEC70AF1EE10FA0ADC42
:104CB000BCEEC00AC2680D490020120110EE103A85
:104CC000013B5350704710B504466FF06300FFF787
:104CD0006BFD064AE3686FF0010100201B0199504B
:104CE00010BD00BF202A00200000804F0041084076
:104CF0001E4A9FED1F7AD2ED007A1E4BF8EE677ABE
:104D000070B527EE800A044600250120E2681E46A1
:104D1000B4EEC70A1101F1EE10FA0B449D60D860A1
:104D200011DCBCEEC00A10EE103A013B8B51236837
:104D300011499B698B4214D112010E4B03210020B3
:104D40001344996070BD6FF06300FFF72DFDE268BA
:104D50006FF0010113019951236807499B698B4248
:104D6000EAD020469847002070BD00BF202A0020CE
:104D70000000804F00410840E53000002DE9F0417F
:104D80000F4C00250F4FA4F18006DFF83C8054F84B
:104D9000103CA4F1100E032221469B6B2046BB421F
:104DA0000BD1A36844F8108C13B19847A560E56057
:104DB000203CB442EBD1BDE8F08170469847F7E75C
:104DC0003C3700200D3100006C06002002682B49A2
:104DD000D3698B4210B5044682B02DD1C168002042
:104DE000274B09010B4427499860136B8B422DD147
:104DF000254B9FED267AD3ED007AF8EE677A27EE01
:104E0000800AB4EEC70AF1EE10FA2BDCBCEEC00A41
:104E1000E3681B48190110EE103A013B0B509369EF
:104E20001B4A934219D1E2680321154B002012015D
:104E30001344996002B010BD8DED010A98472268B5
:104E40001049136B9DED010A8B42D1D02046984743
:104E5000226893690E4A9342E5D020469847002085
:104E600002B010BD6FF06300FFF79EFCE3680449D9
:104E70006FF001001B0122685850D0E7F9300000A4
:104E80000041084055310000202A00200000804FDA
:104E9000E5300000084A836910B50446026023B17A
:104EA00000F110010322084698472046202101F016
:104EB000BFFE204610BD00BF6C060020F0B58B6819
:104EC000044600202DED028B87B0B0EE408A22729E
:104ED0000490002B4DD002AD0E4602222846984782
:104EE000F768B66804F1100395E803008DE8030045
:104EF00093E8030085E803009DE8030083E80300CE
:104F0000A369E2690493A6610592E7611BB10322DC
:104F1000294628469847237A23B9002007B0BDECDC
:104F2000028BF0BDE2680026216801251A4B1201B0
:104F3000096B1A481344184F81429E60DD601CD1F2
:104F4000174BDFED187A93ED000AB8EE400A20EE19
:104F5000080AB4EEE70AF1EE10FA13DCFCEEC07AB0
:104F6000002017EE903A013BD35107B0BDEC028B05
:104F7000F0BD1E46059F02ADB4E7B0EE480A2046DC
:104F80008847CAE76FF06300FFF70EFCE3686FF035
:104F900001021B01DA51C0E7004108405531000011
:104FA000202A00200000804F1F4800211F4BC069AD
:104FB0001F4A10B444061A605960D960996101D43F
:104FC0001C4909681848002101241A62C069596205
:104FD00040069963DC6201D4164909681248002131
:104FE00002241A64C069596499654106DC6401D4DD
:104FF000104909680C4C00211A660320E2695966C1
:105000009967D86653060DD40A4B0B4A1B68B3FB4D
:10501000F2F30A4C00200A4A23600A495DF8044B67
:1050200001F0D6BF1823F4E700C00F40CC360020B3
:105030006C060020442A002040420F00202A002055
:105040001C2A00203D32000008490023084A016064
:1050500052F8041F884203D00133142BF8D1704753
:10506000044A002142F82310704700BFB406002014
:10507000483700204C370020014B1868704700BFAC
:10508000041000E0074BDFED086A93ED007AB8EEFC
:10509000477AC7EE267A27EE800AFCEEC07A17EE32
:1050A000900A7047482A0020002474499FED010AA5
:1050B000704700BF8096984A38B5064B0546036096
:1050C000EFF3108472B601F019FE04B962B62846F7
:1050D00038BD00BF0007002010B4047F4160022CDF
:1050E000C26003D05DF8044B01F0A4BD83685DF895
:1050F000044B184770B5144C064604F1500554F89B
:10510000043F184613B11B681B6C9847AC42F6D19C
:1051100033680E4A1B6893420AD1327F0023022A69
:105120007360F3600AD03046BDE8704001F082BD84
:10513000002230461146BDE870401847B36830463B
:10514000BDE87040184700BF48370020993500007F
:1051500070B5EFF3108572B6124C204601F0CEFD0B
:10516000114A124801211378A06043F0040321770B
:10517000137055B962B6237F6560022BE5600CD0D1
:105180000848BDE8704001F055BD00230548636044
:10519000E360BDE8704001F04DBDA3682046BDE866
:1051A00070401847242A0020802A0020B5350000CE
:1051B000024A0349034801F00BBF00BF1C2A00202C
:1051C00079350000242A0020F8B514494FF400373F
:1051D000134D034601EB4024124E134A05EB4015D4
:1051E000214617602846328801F030F9318824F0D2
:1051F0001F032144BFF34F8F0C4A136020339942A1
:10520000FBD8BFF34F8FBFF36F8F0320294601F008
:1052100049F9074B4FF400321A60F8BD0000202016
:10522000C0370020CE3800208CE100E05CEF00E0C9
:105230000CE100E0244A43682DE9F041C3F30E433A
:105240001488C569E41A002C38DD2049204A0B78FF
:105250001278DBB21F48204E934207D010F803802B
:1052600036F81870C7F50072944212D90133002243
:105270001A4F082B26F8154027F81520184E94BF12
:10528000DAB213460A703268C55414443460BDE87B
:10529000F081144B07EB48202246274403EB4521BD
:1052A000184401F0FBFD0E4A284626F818701368D2
:1052B0001C441460BDE8F041FFF786BF2846BDE8F6
:1052C000F041FFF781BF00BFCE380020E438002056
:1052D000C0380020C4380020D0380020A03700207B
:1052E000E0380020000020201E4B1A785AB902F046
:1052F000FF031D4A127832B12DE9F0411B4D2A8877
:1053000012B9BDE8F0817047194EC2F50068194F17
:1053100031784246184C07EB411704EBC12438465C
:10532000214601F093F808EB040224F01F01BFF3BB
:105330004F8F124B196020318A42FBD8BFF34F8F39
:10534000BFF36F8F0420394601F098F83378084A8C
:105350000133DBB2032B88BF0023137000232B80A3
:10536000BDE8F081B2370020B8390020E6380020CF
:10537000B3370020003900200010202070EF00E03B
:105380002DE9F04F85B002900191002900F0A28034
:105390000023DFF85C81DFF84C9100934E4EB8F8A3
:1053A0000030DFF850A1DFF850B14C4A14784C4A75
:1053B00002EB4417002B6ED11D461C4614E099F8F1
:1053C000003004B935680124002B5ED133685B1BC3
:1053D000782B79D89AF80030002B56D0FDF7E6FAF2
:1053E000B8F80030002B54D1384601F06DF810F0B9
:1053F00080003C4AE3D14FF40063384A89F800004A
:1054000014781A46A8F80030E402019D3649204479
:105410009542084443D30C44029901F03FFD002318
:1054200021464FF40062384601F010F824F01F03C3
:1054300004F50064BFF34F8FCBF8003020339C425B
:10544000FAD8BFF34F8FBFF36F8F0420394601F0B6
:1054500015F8224B214A00211B7824480133DBB286
:10546000032B88BF00231370B8F80020009BA8F816
:10547000001013440093029B134402930B46C0F8A0
:10548000841001998A1A01928FD1009805B0BDE865
:10549000F08F124A14781A46C3F50060B4E7019CF5
:1054A00002992246039301F0F9FC039B0F4A4FF047
:1054B00040411B1BA8F80030009BC2F8841018461E
:1054C000204405B0BDE8F08F01230098137005B0AB
:1054D000BDE8F08F0198D9E7C4390020B337002028
:1054E00000390020E53800200010202000002E4068
:1054F000E6380020B839002070EF00E0704700BFA8
:10550000314B2DE9F0411B78304F002B54D04FF434
:105510000073DFF8EC803B80A8F800300021802287
:105520002B480D462B4E0BF089F92B4C2B4B294663
:105530004FF480722A4825702C461D800BF07EF9AE
:1055400035602B4675602A46B560F5602549264EC4
:105550002648DFF8B0E00D7010210570022035609C
:105560007560B560F560CEF8005000F03BFFB8F80C
:1055700000102A461E4B032000F002FF2B463988FC
:105580000122042000F02EFF20460134FFF71CFE0C
:10559000082CF9D1174B4A2217480021174C0460F8
:1055A000C3F88410C3F88020D3F8482142F08072F9
:1055B000C3F84821BDE8F0814023DFF844803B80F8
:1055C000A8F80030AAE700BF90390020B0370020CB
:1055D00000390020D0380020B3370020E638002002
:1055E000C0370020E4380020A0370020C038002059
:1055F000F536000000002E4080390020A937000059
:10560000CE380020E0380020314B4FF400322DE935
:10561000F04F1A6083B02F4B89461C78002953D075
:105620002D4BE4B21B789C4250D082460027DFF815
:10563000C0B00134294BC7EB09085046092C01932F
:10564000274B28BF00241D5D244B33F815E0254B64
:105650000EEB452133F81560234BCEEB06061944BB
:10566000B0453246374419D20EEB45214246194423
:1056700001F014FC019BDBF80010484633F81520BC
:10568000C8EB01019044CBF8001023F81580174BAC
:105690004FF400321A6003B0BDE8F08F01F0FEFB5A
:1056A000DBF80020E3B22846921BB244CBF800207E
:1056B000084A1370FFF788FDB94503D9064B1B78DC
:1056C0009C42B6D13846E2E70846E0E70020DEE734
:1056D0008CE100E0C0380020E4380020A037002032
:1056E000C4380020D0380020000020200CE100E069
:1056F000E03800200B4B0C4A1B781278DBB2934247
:105700000DD0013309480A4A092B0A4928BF002352
:10571000C35C31F8131002EB4323585C70474FF021
:10572000FF307047C0380020E4380020C438002023
:1057300000002020A0370020014B1868704700BFF0
:10574000E03800202DE9F84F154E164D34782B78AF
:10575000E4B29C4221D0DFF85490DFF854B0DFF877
:105760005480114F0134082C5FFA84FA01D90024C7
:10577000A24619F80410DBF8002038F8113008466A
:1057800037F811105B1AD31ACBF80030FFF71CFD65
:1057900086F800A02B789C42E4D1BDE8F88F00BFCA
:1057A000C0380020E4380020A0370020C438002092
:1057B000E0380020D038002000B583B001210DF181
:1057C0000700FFF721FF20B19DF8070003B05DF847
:1057D00004FB4FF0FF30F9E7094B00B583B01B78AD
:1057E0008DF8070023B903F0FF0003B05DF804FB58
:1057F00001210DF10700FFF7C3FD03B05DF804FBC5
:10580000B8390020044B1B7803F0FF020BB1FFF7FF
:10581000B7BD1046704700BFB83900202DE9F041F0
:105820000024DFF8408001230C4D27460C4E88F8F9
:105830000030337828462035A34204F1010405D016
:1058400000F042FE030658BF07F50067042CF0D1B4
:105850000023384688F80030BDE8F0810039002088
:10586000B3370020B23700202DE9F8431F4B1B78D7
:1058700013B11F4D2A880AB9BDE8F883DFF8848088
:10588000C2F500691B4E4FF0010E98F800104A4611
:10589000194C002306EB4116184F04EBC124304687
:1058A00087F800E0214600F0D1FD09EB040224F066
:1058B0001F01BFF34F8F124B196020318A42FBD872
:1058C000BFF34F8FBFF36F8F0420314600F0D6FD3A
:1058D00098F800300B4A0133DBB2032B88BF00235A
:1058E000137000232B803B70BDE8F883B83900208B
:1058F000E63800200039002000102020B2370020B8
:1059000070EF00E0B3370020964A974B90422DE9A4
:10591000F043964CD3F814E09969E6681CD9944B8F
:10592000984240F21581934B40F22765924F034411
:10593000924C1A0AA7FB0232D30903EB830303EB51
:10594000830202F2E243AB4228BF2B46A3F5487321
:10595000A4FB0335ED0804E0894DA84294BF062559
:105960000E25814A06F01F07D2F88030AF4243F07F
:10597000C003C2F880300AD27C4B26F01F061A46BC
:105980002E43DE601368002BFCDA06F01F071EF0C2
:10599000007331D17B4C7C4AD4F810C014460CEA19
:1059A0000202A2420ABF4FF0C0534FF480520022BD
:1059B0008EEA030414F0605F08D02EF0605E03F0FE
:1059C0006053694C43EA0E0EC4F814E081EA020306
:1059D00013F4405F08D0644B21F4405111431A4640
:1059E0009961936C1C07FCD44EF0007E5E4AC2F8AD
:1059F00014E0936C9906FCD40121644C0A4601FB27
:105A000002F300FB03F3A34209D8072A00F29580B2
:105A1000013201FB02F300FB03F3A342F5D95C481A
:105A20005C4C1844A4FB00031B0D6C2B00F28B8014
:105A3000352B00F28F80DFF8888136235648DFF857
:105A400044C1564CDCF80090B0FBF2F009EA0404C3
:105A50004445B0FBF1F00BD043F400534FF48058B1
:105A60006446CCF80080CCF800302368002BFCDAC8
:105A7000DFF8F4C0013ADCF8103003F0070393427A
:105A800007D002F007026446CCF81020A36CDB03B9
:105A9000FCD4013989028EEA010313F4E05F0CD0D3
:105AA000314B2EF4E05E01F4E0511A4641EA0E0E4D
:105AB000C3F814E0936C9907FCD4394B394903447B
:105AC000DB09A1FB0331090B042928BF04214B1E6C
:105AD0001B028EEA030212F4407F07D02EF4407EB0
:105AE00003F44073204A43EA0E0353611E4B5C6982
:105AF0001A4624F000745C61936C9B06FCD42A4B1C
:105B00004FF0FF32294CBD42A3FB00E320604FEA77
:105B10009343274CB2FBF3F3B0FBF1F1254A21602C
:105B2000136008D2114B26F01F061A462E43DE6082
:105B30001368002BFCDABDE8F08304293FF66FAF51
:105B4000013101225BE7DFF87C806C231A4876E79D
:105B5000122506E71948DFF8708000FB03F043EADE
:105B600008086CE700A4781F00C00F400000084040
:105B70000046C32300BA3CDC23B24C001F85EB5126
:105B800000366E0100800D4040300080FFB19F263E
:105B9000808D5B00819F5E1600B29F267F30018062
:105BA0007FD1F0089F10E50083DE1B43482A0020C8
:105BB000442A0020C039002000643F4D001BB7007C
:105BC000362000806C20008000200080836BF0B4C1
:105BD0001BB1536843F40043536072B6446BDCB1AD
:105BE000144B2260D3F8B0410C421FD1124D2F68E4
:105BF00004E02C68E41BB4F5166F0BD2D3F84041D7
:105C000044F48044C3F84041D3F8B861D3F840412C
:105C10006404EED5314209D10023064C8260C36092
:105C2000D4F8B0311943C4F8B0110263426362B6CC
:105C3000F0BC704700002E40041000E070B506462E
:105C4000006B90B10246002403E012680134012A7F
:105C50000CD0536813F08003F7D032632CB1B36BD0
:105C600005689847013C2846F9D170BD33637363DA
:105C7000F4E700BFF0B5E1B9214C22490020224BE6
:105C800001224FF0011580260A601A46A1604E607D
:105C9000E060C3F8BC51D3F8B0411C4D44F001049E
:105CA0008860C3F8B0412860D2F8B031002BFBD136
:105CB000F0BD0904164B144D0126114C41F0800132
:105CC00000221E60596000F5805CE26400F5005E11
:105CD000A36400F54057D5F8B01100F580462A4678
:105CE000986041F48031C3F80CC0C3F810E05F61E4
:105CF0009E61C5F8B011D2F8B031002BFBD1BCE7E2
:105D000000400020A042002000002E4094390020D6
:105D1000804200202DE9F04FAC4C83B0D4F8448190
:105D200018F0010FC4F844815ED0D4F8AC31002BD8
:105D300055D04FF0011BDFF8BC92A54E2546DA4640
:105D4000C4F8AC31B06AF26AD4F8403143F400537D
:105D5000C4F84031D4F840319F04F5D5D5F840312E
:105D600023F40053C5F84031C5F8B4A1D4F8B431D8
:105D700013F00113FAD181B240F28167C9F8003003
:105D8000B94200F2B480B1F5D06F80F0E981B1F58D
:105D9000817F00F06B8100F2F080802900F0598152
:105DA000822940F0E28092B202F07F01072900F2DE
:105DB000DC8089008748884F0844016810063B70E2
:105DC0007B7040F10C82CA0301D501233B70022194
:105DD0008148FFF74FFFD4F8AC31002BB0D17B4A9C
:105DE000D2F8BC31002B50D118F0400F18D0774BAF
:105DF000D3F8AC111A46C3F8AC11D3F8BC11C3F8F0
:105E0000BC11D2F8B041714B002CFAD14FF0FF32E7
:105E1000C3F8B421D3F88431FFF770FB6F4B1C60DB
:105E200018F0807F03D06E4B1B6803B1984718F0C1
:105E3000007F03D06B4B1B6803B1984718F0040F29
:105E400008D0624BD3F8843113F400734CD0664B06
:105E500001221A705D4BD3F84821120612D518F0B2
:105E6000800F0FD061490A7862B1013AD2B20A704C
:105E700042B95F490A7802F0FB020A70002A00F07A
:105E80003282FBBE03B0BDE8F08F5A49C2F8BC3184
:105E90000868034240F0E681504A15681D40A3D0CF
:105EA0002F0C0FD04A4E4FF0010997FAA7F4B4FA1D
:105EB00084F406EBC41009FA04F44030FFF7BEFE88
:105EC000A743F2D1ADB2002D8ED0414E012795FAF5
:105ED000A5F4B4FA84F406EBC41007FA04F4FFF74F
:105EE000ADFEA543F3D17FE73F4A1370B2E742F21C
:105EF0002107B94235D000F28980B1F5086F00F072
:105F00002181B1F5106F30D1C0F307403A4A3B49C7
:105F100010703B4F3B4A0193C5F8C871C5F8CC11CE
:105F2000C5F8D021FFF7ECFA374A019B8021012008
:105F3000B26451601060F364C5F8BCB1D5F8B0111B
:105F4000936041F48032C5F8B0212A4A1360D4F836
:105F5000B031002BFBD1D4F8AC31002B7FF4F0AE84
:105F60003DE7110C072900F03E81C4F8C0B1D4F818
:105F7000AC31002B7FF4E4AE31E740F20237B94296
:105F800000F0B080B1F5A06FEFD11F4A802101274A
:105F9000F364B26417605160C5F8BCB1D5F8B011B4
:105FA000936041F48033C5F8B031D4F8B031002BA0
:105FB000FBD1030C5B0643F08073C5F85431D4F871
:105FC000AC31002B7FF4BCAE09E700BF00002E40CF
:105FD00000400020C0012E40A83900208439002054
:105FE000803900208C390020903900209839002019
:105FF0008839002094390020B8390020C8000200F8
:106000000200CC000200C800A042002042F221237E
:1060100099425BD042F221339942A6D1B54B8022FE
:1060200000210120B36418605A60F164C4F8BCB167
:10603000D4F8B021996042F48033C4F8B031D4F878
:10604000B031002BFBD1D4F8AC31002B7FF478AE0B
:10605000C5E6A94A0221104613705370FFF70AFEE5
:10606000D4F8AC31002B7FF46BAEB8E692B202F0FC
:106070007F03072B3FF679AF12F0800F4FEA8303BF
:106080009E4A4FF000014FF001001A44136814BFFC
:1060900023F4803323F0010313608022954BF164D5
:1060A000B36418605A60C4F8BCB1D4F8B0219960E8
:1060B00042F48033C4F8B031D4F8B031002BFBD1B6
:1060C000D4F8AC31002B7FF43BAE88E692B2002AC4
:1060D000A4D18B4BC0F307408A4A19688A4B1160E0
:1060E00018709BE792B202F07F03072B3FF63DAF9B
:1060F00012F0800F4FEA8303804A4FF000014FF007
:1061000001001A44136814BF43F4803343F00103C1
:1061100013608022774BF164B36418605A60C4F84E
:10612000BCB1D4F8B021996042F48033C4F8B031E6
:10613000D4F8B031002BFBD1D4F8AC31002B7FF474
:10614000FFAD4CE6714A01216B4B127818461A706C
:10615000FFF790FDD4F8AC31002B7FF4F1AD3EE6B3
:106160006B4B596800293FF400AF000C1FFA82FE08
:1061700004E00C33596800293FF4F7AE1F888742CA
:10618000F7D15F887745F4D1070A032F00F0E98043
:106190001B89120C934228BF1346B0F5007F00F014
:1061A000D180B0F5E06F00F08B805A4F1A46019312
:1061B000384600F073FE019B27F01F021F44BFF317
:1061C0004F8F55490A6020329742FAD8BFF34F8F5C
:1061D000BFF36F8F4F481946FFF74CFDFBE5CB0728
:1061E0007FF5F5ADF1E54D4F4FF0010EF3604C49F1
:1061F0004C4B3860C3F800E05960B3604A49D5F8A9
:10620000B0017A6001F5805740EA0E02996001F50D
:10621000005E01F5405001F58041C5F8B021DF6016
:10622000C3F810E058619961D4F8B031002BFBD16C
:10623000304A012048F28001F36410604FF480304E
:10624000B2645160C5F8BCB1D5F8B011936041EAB1
:106250000003C5F8B031C9F80000D4F8B031002B04
:10626000FBD1B8E52D4842F22104002605880E60D6
:10627000A54240687FF410AE81B200297FF40CAED5
:1062800029492A4C03C90D0C86282060A180A571DC
:106290007FF402AE72B62648017841F00401017025
:1062A000D2F84811080606D441F080018020C2F8D7
:1062B0004401C2F8481162B61E4A50211170EBE544
:1062C0001D481A46134F90F800E01C491C480193E2
:1062D000BEF1000F08BF0146384600F0DFFD07227F
:1062E000019B7A7068E7D3F8482122F08002C3F856
:1062F0004821C6E5A0420020A8390020C0012E4058
:10630000C43900200C3B0020E8380020B8390020B8
:10631000040700200030202070EF00E0A0390020AA
:106320008000070080420020B0390020103B002090
:10633000883900209839002090390020141A006014
:10634000581A00600A481A460A4907780A48019311
:10635000002F08BF0146094800F0A0FD074F019B30
:106360002AE7120C0B78934228BF134619E700BFA7
:1063700090390020581A0060141A00600030202064
:10638000002AA0F102022DE9F04714BF00274FF0C8
:106390000057022A01D9BDE8F0874FEAC01ADFF89A
:1063A00040900D4604460AEB09060021402298461B
:1063B00030460AF043FA012047EA05414AF809103D
:1063C000C6F83880B060B8F1000FE4D0034BA040AD
:1063D0001C6820431860BDE8F08700BF84390020A6
:1063E00000400020002AA0F102022DE9F04714BF6E
:1063F00000274FF00057022A01D9BDE8F08740225C
:10640000C501DFF8449088461544002104461E4625
:1064100005EB090A50460AF011FA012247EA084141
:1064200045F80910CAF83860CAF80820002EE4D0F0
:1064300004F11000034B8240186802431A60BDE863
:10644000F08700BF843900200040002012048160E2
:10645000C36142F08002F0B44260012701F580562A
:1064600001F5005501F5405401F580420760C66012
:10647000056144618261F0BC704700BF831E022B3E
:1064800000D9704730B4064B00F1100401250A46CC
:1064900003EBC01005FA04F130BCFFF797BB00BF57
:1064A00040400020831E022B00D9704710B4054BDA
:1064B00001240A4604FA00F103EBC0105DF8044B16
:1064C000FFF784BB0040002040687047002857D089
:1064D00001222DE9F04F85B083462A4C2A4D2B4EE0
:1064E000DDE9028954E8003F2868336844E8002168
:1064F0000029F7D1264FCDE902893A68D31A254AF7
:106500004FF47A7E019712680127A3FB02234FF410
:106510007A72984600238B4208BF42452CBFC24680
:10652000F2460EFB00AA54E8003F2A68316844E8AE
:106530000073002BF7D101980068411A15484FF4F9
:106540007A7E00680EFB02F2A1FB00014FF47A7024
:10655000CAEB020288460021994208BF40452CBF81
:10656000434673461A44724507D3BBF1010B0AF543
:106570007A7AD8D105B0BDE8F08FFCF717FAD2E7E8
:10658000704700BFC0420020C4390020BC39002041
:10659000041000E0C0390020124A134BD2F8200248
:1065A00020F07F40984210B584B002D800EB800004
:1065B00040000E4C01A90A2200F09EF801A9002318
:1065C000204611F8012B01333AB10A2B20F8022F93
:1065D000F7D11623237004B010BD5B00DBB223702B
:1065E00004B010BD00441F407F969800602A002030
:1065F00004207146084203D0EFF3098000F008B888
:10660000EFF3088000F004B8704700BF704700BF88
:106610001B4B05211B4A382030B5C2F84811082110
:10662000C2F8380383B05A68174C0A4317485A60B7
:10663000C3F88410C3F888102368834202D9144831
:10664000FFF762F90E4D08240020124A1249C5F8DE
:1066500084400190019B934205D8019B0133019333
:10666000019B9342F9D9C5F888400190019B8B4268
:10667000EDD8019B01330193019B8B42F9D9E6E7E9
:1066800000C01B4000801F40482A0020FF45C32354
:1066900000A3E1113F420F003F548900094A08B5A9
:1066A000136820B118440849884202D8106018467F
:1066B00008BD09F017FA0C224FF0FF3302601846AC
:1066C00008BD00BF782A0020000028200020704765
:1066D0004FF0FF30704700BF4FF4005300204B6075
:1066E000704700BF012070474FF0FF30704700BF78
:1066F00030BFFDE730BFFDE7F0B44E1E0025374642
:1067000000E00135B0FBF2F302FB130000F13704A7
:10671000092800F13000E4B298BFC4B2184607F867
:10672000014F002BEDD14A1953704DB1013316F8CA
:10673000014F1778E81A3770834202F80149F5DBF8
:106740000846F0BC704700BF72B6064A0721064BE8
:106750001964936B43F040039363BFF34F8F30BFD3
:10676000FDE700BF00400D4000C00A4036281CD89D
:1067700000011A4A012902EB0003105810B415D089
:10678000042913D0DC68426822EA040242609A6855
:10679000E9B102291ED003295B685DF8044B0CBFE8
:1067A0000F491049116015221A607047DA680129F3
:1067B000446842EA040242609A6808D040F6380110
:1067C00011605B6815225DF8044B1A607047382130
:1067D0001160F6E704491160F3E700BF700700207D
:1067E000383001003800010038F00100A4484FF0B3
:1067F0000F0CA44B826F42F47F02F0B58267002534
:10680000D0F880204FF470469F4C4FF4604E2946DC
:106810004FF4806714432A46C0F88040A3F88C6187
:1068200048F2B826A3F88EC1A3F89051B3F88801B6
:1068300080B240F0F000A3F8880101EB4100914BD9
:106840000131002540011C4604290344A3F804E05B
:10685000DF805A841A865A805A81DE815A82DA820F
:106860005A83DA83E9D1B4F888014FF00F0C874BD3
:106870004FF4704680B229464FF460472A4640EAFA
:106880000C004FF4806EA4F88801B4F8880180B23F
:1068900040F47060A4F88801A3F88C6148F2B8262F
:1068A000A3F88EC1A3F89051B3F8880180B240F0EC
:1068B000F000A3F8880101EB4100744B0131002581
