:1000000000000320D1010000452B0000FD2A000064
:10001000FD2A0000FD2A0000FD2A0000FD2A000044
:10002000FD2A0000FD2A0000FD2A0000452B0000EB
:10003000452B0000FD2A0000813D0000F13D00003D
:10004000452B0000452B0000452B0000452B0000F0
:10005000452B0000452B0000452B0000452B0000E0
:10006000452B0000452B0000452B0000452B0000D0
:10007000452B0000452B0000452B0000452B0000C0
:10008000452B0000452B0000452B0000452B0000B0
:10009000452B0000452B0000452B0000452B0000A0
:1000A000452B0000452B0000452B0000452B000090
:1000B000452B0000452B0000452B0000452B000080
:1000C000452B0000452B0000452B0000452B000070
:1000D000452B0000452B0000452B0000452B000060
:1000E000452B0000452B0000452B0000452B000050
:1000F000452B0000452B0000452B0000452B000040
:10010000452B0000452B0000452B0000452B00002F
:10011000452B000021310000452B0000452B00003D
:10012000452B0000452B0000452B0000452B00000F
:10013000452B0000452B0000452B0000452B0000FF
:10014000452B0000452B0000452B0000452B0000EF
:10015000452B0000452B0000452B0000452B0000DF
:10016000452B0000452B0000452B0000452B0000CF
:10017000452B0000452B0000452B0000452B0000BF
:10018000452B0000452B0000452B0000452B0000AF
:10019000452B0000452B0000452B0000452B00009F
:1001A000452B0000452B0000452B0000452B00008F
:1001B000452B0000452B0000452B0000452B00007F
:1001C000452B0000452B0000452B0000452B00006F
:1001D0005C4B4CF2205210B51A804DF628121A8052
:1001E00000BF00BF02F0B2FC574B4FF030621A6004
:1001F000564A9A60564ADA60564B4FF470021A60BB
:10020000554B564A1A60564B1A78110703D51A787F
:1002100042F008021A70534B5349AA221A70534AEB
:10022000534B8B4204D252F8040F43F8040BF8E707
:10023000504B514900228B4202D243F8042BFAE77B
:100240004E494F4A002352F8230041F8230001335E
:10025000742BF8D14B4B4C4A802103F8011B93427D
:10026000FBD14A4B454A1A60494B8A221A70A3F5C2
:10027000805324225A70A0221A709A799207FCD5D2
:100280009A79D406FCD4434A937903F00C03082BE3
:10029000FAD1414B60221A7002331A78802AFCD1BD
:1002A0003C4B01221A715D225A719A799006FCD555
:1002B0009979384A4906FBD5384B394919600021EC
:1002C000596020231370937903F00C030C2BFAD19F
:1002D000344B354A1A60354A354C136813F4807331
:1002E00003D123604FF4A8531360324B324A1A6093
:1002F00000225A60072243F8042C304AC3F80C2D20
:1003000062B602F037FD2368DA0705D52C4802F003
:10031000C7FC2C4B2C4A1A602C4B1B785B0609D56A
:10032000284C294B22689A4204D1254802F0B8FC97
:10033000002323600DF074FB02F00EFC03F09AFD25
:10034000FEE700BF0E20054030800440823F0400DD
:100350000100002B88ED00E0002008E0030000858C
:1003600002D0074000E007403812FF1F0C57010081
:100370003007FF1F3812FF1FAC17FF1F0002FF1FBF
:100380000000000000E400E064E400E008ED00E0AC
:10039000005006400040064001E007404480044011
:1003A0000000060204800440C010070010D0034083
:1003B00014D0034014E000E01FBF02000000202022
:1003C000310000001CE00340A5C3945A00F0074030
:1003D000FFFFFFFFFFFFFFFFFFFFFFFFFFFFFFFF2D
:1003E000FFFFFFFFFFFFFFFFFFFFFFFFFFFFFFFF1D
:1003F000FFFFFFFFFFFFFFFFFFFFFFFFFFFFFFFF0D
:10040000FFFFFFFFFFFFFFFFFFFFFFFFDEF9FFFF23
:1004100010B5054C237833B9044B13B10448AFF33E
:1004200000800123237010BD3812FF1F0000000060
:1004300048530100084B10B51BB108490848AFF3F9
:1004400000800848036803B910BD074B002BFBD0A0
:10045000BDE81040184700BF000000003C12FF1F1D
:10046000485301003812FF1F00000000012A06D087
:10047000022A02D108B10B680360002070470160B6
:1004800000207047012A06D0022A02D108B10B6869
:10049000036000207047016000207047012A06D0E9
:1004A000022A02D108B10B68036000207047016086
:1004B00000207047012A06D0022A02D108B10B6839
:1004C000036000207047016000207047012A06D0B9
:1004D000022A02D108B10B68036000207047016056
:1004E00000207047012A06D0022A02D108B10B6809
:1004F000036000207047016000207047012A06D089
:10050000022A02D108B10B68036000207047016025
:1005100000207047012A06D0022A02D108B10B68D8
:10052000036000207047016000207047012A06D058
:10053000022A02D108B10B680360002070470160F5
:1005400000207047012A06D0022A02D108B10B68A8
:10055000036000207047016000207047012A06D028
:10056000022A02D108B10B680360002070470160C5
:1005700000207047012A06D0022A02D108B10B6878
:10058000036000207047016000207047012A06D0F8
:10059000022A02D108B10B68036000207047016095
:1005A00000207047012A06D0022A02D108B10B6848
:1005B000036000207047016000207047012A06D0C8
:1005C000022A02D108B10B68036000207047016065
:1005D00000207047012A06D0022A02D108B10B6818
:1005E000036000207047016000207047012A08BFA7
:1005F00001600020704700BF012A06D0022A02D104
:1006000008B10B680360002070470160002070474C
:10061000012A06D0022A02D108B10B68036000202B
:100620007047016000207047012A06D0022A02D1DB
:1006300008B10B680360002070470160002070471C
:100640000A680248024903F007BC00BFC807FF1F41
:10065000802B010030B50B780468022B89B02AD0BA
:100660000E2B0FD043B11121264802F043F9264842
:1006700003F0DAFB09B030BD6169206801F052F87F
:1006800009B030BD214A224B1168009100981968C9
:100690008842EFD912680192019A2068C8321A6024
:1006A00001F07AF8034658B123681A491A681648C7
:1006B00003F0D2FBDEE7206801F056F809B030BD48
:1006C000049404AD95E8030002AA0693231D82E872
:1006D000030093E8030085E8030092E803000E4A54
:1006E000079283E80300E36821690C48E060226117
:1006F00006930791002BD7D0032229462846984716
:10070000D2E700BF9C2B0100C807FF1F8C15FF1FFD
:100710005412FF1F942B010021070000290600003E
:1007200070B50B78046886B00E2B62D8DFE803F052
:1007300008616132393D454D52575C612D612B0096
:10074000616920682F4E00F0EDFF029402AB93E840
:10075000030000220492221D8DE8030092E80300AA
:1007600083E803009DE80300059682E80300E5683E
:1007700022692549E1602661049505921DB1032295
:1007800019461846A84706B070BD20681F4901F0F9
:1007900043FAF8E723681E491A681C4803F05CFB1B
:1007A000F1E7236862691A60EDE794ED050A2068B5
:1007B000B8EEC00A01F04EF8E5E794ED050A2068AE
:1007C000B8EEC00A01F04CF8DDE76169206801F07D
:1007D00017FAD8E76169206801F016FAD3E7616972
:1007E000206801F015FACEE76169206800F0D6FFB5
:1007F000C9E71121074802F07DF8044803F014FB13
:10080000C1E700BF5506000011060000C807FF1F22
:10081000942B01009C2B010070B50B78046886B006
:100820000E2B62D8DFE803F008616132393D454D97
:1008300052575C612D612B00616920682F4E00F0DA
:1008400071FF029402AB93E8030000220492221D80
:100850008DE8030092E8030083E803009DE80300AD
:10086000059682E80300E56822692549E160266172
:10087000049505921DB1032219461846A84706B0F3
:1008800070BD20681F4901F0C7F9F8E723681E49C9
:100890001A681C4803F0E0FAF1E7236862691A60FD
:1008A000EDE794ED050A2068B8EEC00A00F0D2FF2B
:1008B000E5E794ED050A2068B8EEC00A00F0D0FF25
:1008C000DDE76169206801F09BF9D8E7616920687C
:1008D00001F09AF9D3E76169206801F099F9CEE750
:1008E0006169206800F05AFFC9E71121074802F04A
:1008F00001F8044803F098FAC1E700BF550600006C
:1009000011060000C807FF1F942B01009C2B01005B
:1009100030B583B0054600F0D1FDB8B10CF054FEFF
:10092000044622460A490B4803F096FAD5F87002AD
:10093000C368446100228DF8072033B103690DF1CB
:1009400007010430984703B030BDFEE70446E8E7EE
:10095000B02B0100C807FF1F0068FFF7D9BF00BF19
:1009600030B583B0054600F0A9FDD0B10CF02CFEE7
:10097000044622460C490D4803F06EFAD5F8700281
:100980000268C368116800220C4444618DF8072096
:1009900033B103690DF107010430984703B030BD4E
:1009A000FEE70446E5E700BFBC2B0100C807FF1FB8
:1009B0000068FFF7D5BF00BF10B5044682B00B49F1
:1009C0000B4803F049FAD4F87002C3686FF0004195
:1009D000002241618DF8072033B103690DF1070151
:1009E0000430984702B010BDFEE700BFC82B0100DD
:1009F000C807FF1F0068FFF7DFBF00BF10B5044640
:100A000082B00B490B4803F027FAD4F87002C36890
:100A10004FF00041002241618DF8072033B1036996
:100A20000DF107010430984702B010BDFEE700BF8A
:100A3000D02B0100C807FF1F0068FFF7DFBF00BF12
:100A400010B5044682B00949094803F005FAD4F804
:100A50007002C36802228DF8072033B103690DF1DB
:100A600007010430984702B010BDFEE7D82B010003
:100A7000C807FF1F0068FFF7E3BF00BF10B50446BB
:100A800082B00949094803F0E7F9D4F87002C36855
:100A900003228DF8072033B103690DF107010430FB
:100AA000984702B010BDFEE7E02B0100C807FF1F0A
:100AB0000068FFF7E3BF00BF30B583B0054600F024
:100AC000FDFCB8B10CF080FD044622460A490B48F3
:100AD00003F0C2F9D5F87002C368446104228DF8AE
:100AE000072033B103690DF107010430984703B0C3
:100AF00030BDFEE70446E8E7EC2B0100C807FF1F06
:100B00000068FFF7D9BF00BF30B583B0054600F0DD
:100B1000D5FCB8B10CF058FD044622460A490B48F2
:100B200003F09AF9D5F87002C368446105228DF884
:100B3000072033B103690DF107010430984703B072
:100B400030BDFEE70446E8E7FC2B0100C807FF1FA5
:100B50000068FFF7D9BF00BF30B583B0054600F08D
:100B6000ADFCB8B10CF030FD044622460A490B48F2
:100B700003F072F9D5F87002C368446106228DF85B
:100B8000072033B103690DF107010430984703B022
:100B900030BDFEE70446E8E7082C0100C807FF1F48
:100BA0000068FFF7D9BF00BF30B583B0054600F03D
:100BB00085FCB8B10CF008FD044622460A490B48F2
:100BC00003F04AF9D5F87002C368446107228DF832
:100BD000072033B103690DF107010430984703B0D2
:100BE00030BDFEE70446E8E7142C0100C807FF1FEC
:100BF0000068FFF7D9BF00BF30B583B0054600F0ED
:100C00005DFCB8B10CF0E0FC044622460A490B48F2
:100C100003F022F9D5F87002C368446108228DF808
:100C2000072033B103690DF107010430984703B081
:100C300030BDFEE70446E8E7242C0100C807FF1F8B
:100C40000068FFF7D9BF00BF30B583B0054600F09C
:100C500035FCB8B10CF0B8FC044622460A490B48F2
:100C600003F0FAF8D5F87002C368446109228DF8E0
:100C7000072033B103690DF107010430984703B031
:100C800030BDFEE70446E8E7302C0100C807FF1F2F
:100C90000068FFF7D9BF00BF30B583B0054600F04C
:100CA0000DFCD0B10CF090FC80EAE074A4EBE07491
:100CB00022460B490B4803F0CFF8D5F87002C36801
:100CC00044610A228DF8072033B103690DF1070151
:100CD0000430984703B030BDFEE70446E8E700BFA4
:100CE0003C2C0100C807FF1F0068FFF7D5BF00BFFD
:100CF00010B5044682B00949094803F0ADF8D4F8AC
:100D00007002C3680C228DF8072033B103690DF11E
:100D100007010430984702B010BDFEE74C2C0100DB
:100D2000C807FF1F0068FFF7E3BF00BF10B5374CCF
:100D30003748062101F0DEFD204603F075F8262134
:100D4000344801F0D7FD204603F06EF826213248E2
:100D500001F0D0FD204603F067F82A212F4801F06A
:100D6000C9FD204603F060F82D212D4801F0C2FD99
:100D7000204603F059F834212A4801F0BBFD2046F3
:100D800003F052F82221284801F0B4FD204603F078
:100D90004BF84821254801F0ADFD204603F044F80A
:100DA0003721234801F0A6FD204603F03DF84421F9
:100DB000204801F09FFD204603F036F82E211E4802
:100DC00001F098FD204603F02FF852211B4801F056
:100DD00091FD204603F028F84C21194801F08AFDC6
:100DE000204603F021F84D21164801F083FD2046EE
:100DF00003F01AF81B21144801F07CFD204603F093
:100E000013F82046BDE8104003F00EB8C807FF1FD6
:100E1000582C0100602C0100882C0100B02C01002E
:100E2000DC2C01000C2D0100442D0100682D010077
:100E3000B42D0100EC2D0100342E0100642E0100C0
:100E4000B82E0100082F0100582F010070B586B0A0
:100E500002AC994B994E9A4904932246054602905A
:100E6000059600F055FA049B1BB10322214620464B
:100E70009847944B944E95490493224628460295F0
:100E8000059600F045FA049B1BB10322214620463B
:100E900098478F4B8F4E90490493224628460295DF
:100EA000059600F035FA049B1BB10322214620462B
:100EB00098478A4B8A4E8B490493224628460295CE
:100EC000059600F025FA049B1BB10322214620461B
:100ED0009847854B854E86490493224628460295BD
:100EE000059600F015FA049B1BB10322214620460B
:100EF0009847804B804E81490493224628460295AC
:100F0000059600F005FA049B1BB1032221462046FA
:100F100098477B4B7B4E7C4904932246284602959A
:100F2000059600F0F5F9049B1BB1032221462046EB
:100F30009847764B764E7749049322462846029589
:100F4000059600F0E5F9049B1BB1032221462046DB
:100F50009847714B714E7249049322462846029578
:100F6000059600F0D5F9049B1BB1032221462046CB
:100F700098476C4B6C4E6D49049322462846029567
:100F8000059600F0C5F9049B1BB1032221462046BB
:100F90009847674B674E6849049322462846029556
:100FA000059600F0B5F9049B1BB1032221462046AB
:100FB0009847624B624E6349049322462846029545
:100FC000059600F0A5F9049B1BB10322214620469B
:100FD00098475D4B5D4E5E49049322462846029534
:100FE000059600F095F9049B1BB10322214620468B
:100FF0009847584B584E5949049322462846029523
:10100000059600F085F9049B1BB10322214620467A
:101010009847534B534E5449049322462846029511
:10102000059600F075F9049B1BB10322214620466A
:1010300098474E4B4E4E4F49049322462846029500
:10104000059600F065F9049B1BB10322214620465A
:101050009847494B494A049321462846059200F097
:1010600093F9049B1BB1032221462046984728464A
:10107000FFF75CFED5F87052029594E80300002358
:101080003F4E049305962B1D8DE8030093E8030063
:1010900084E803009DE8030083E80300EB68049301
:1010A0002A693849E96005922E61002B6CD0032231
:1010B00021462046984767E06D040000590900006A
:1010C000742F010085040000B1090000782F010091
:1010D0009D040000F50900007C2F0100B50400000C
:1010E000390A0000404C0100CD040000750A0000E0
:1010F000802F0100E5040000B10A0000882F0100E4
:10110000FD040000010B0000902F010015050000F8
:10111000510B0000982F01002D050000A10B0000CD
:10112000A02F010045050000F10B0000A82F0100D1
:101130005D050000410C0000B02F010075050000A6
:10114000910C0000B82F01008D050000E90C000093
:10115000C02F0100A5050000250D0000C82F0100CB
:10116000BD05000095110000D02F0100D50500003D
:101170009D110000D82F0100ED0500004106000080
:1011800019080000F9050000286800F073FB06B09C
:1011900070BD00BF0068FFF7C9BD00BF0068FFF762
:1011A000C5BD00BF30B51A4A1A4C1B481B4983B055
:1011B0001378002BFCD02378DB07F9D503680D6882
:1011C0005B1B0E2BF4D92221154801F093FB154827
:1011D00002F02AFE2321144801F08CFB134B1868FF
:1011E000FFF734FE1021124801F084FB0D4802F095
:1011F0001BFE104B1868C3680C228DF8072033B112
:1012000003690DF107010430984703B030BDFEE7D4
:101210007016FF1F8815FF1F8C15FF1F9417FF1FE7
:10122000DC2F0100C807FF1F003001006012FF1F04
:10123000243001005812FF1F10B50A4B1C6882B001
:10124000204600F0D3F8D4F87002C3680E228DF85F
:10125000072033B103690DF107010430984702B04C
:1012600010BDFEE76012FF1F014B1B68184700BF4F
:101270005831010070B5882002F046FE0F4C104D29
:10128000002102230122064600F024FA20202660D5
:1012900002F03AFE2268026003460022DA604FF450
:1012A0001D702B6002F030FE2D68044600F00CF833
:1012B000044BC4F870521C6070BD00BF5C12FF1F6D
:1012C0005812FF1F6012FF1F10B400F11C0300F53D
:1012D0001374002143F8081C1C33A3424FF0000292
:1012E000F8D10A4B80F830221988C0F83C220A2332
:1012F000C0F86C2280F8472280F86822A0F84412D7
:1013000080F846325DF8044B704700BFB8460100D4
:10131000F0B590F83042C4EBC4041746A40087B07F
:101320000646082220440DF009FFBB683444002221
:101330000C34049223B302AD022228463946984762
:10134000FA68BB68A768A36095E803008DE803000E
:1013500094E8030085E803009DE80300E368049730
:1013600084E803000593E2601FB103222946284662
:10137000B84796F83032013386F8303207B0F0BD06
:10138000059A02ADDEE700BFF0B58B6887B000229A
:10139000049205462BB30E4602AC20460222984723
:1013A000F768B66894E8030005F50D738DE803004F
:1013B00093E8030084E803009DE8030083E803004A
:1013C000D5F83C32D5F840220493C5F83C6205922A
:1013D000C5F840721BB1032221462046984707B04A
:1013E000F0BD1E46059F02ACDCE700BF2DE9F04FC3
:1013F000054683B000F51B7800F51177002601F053
:101400004FFA00281DDD01F00FFA95F84632C4B2FC
:10141000A34219D020460CF02BFB0028EFD095F802
:1014200068321F2BEBD85A1CD2B2A9182B4485F86E
:10143000682283F8474281F8476201F031FA0028B8
:10144000E1DC03B0BDE8F08F4246394605F24720A3
:101450000DF0DAFE8246E8B195F830B2BBF1000F2C
:101460001DD0A946002404E001345C4509F11C09A3
:1014700015D00822494650460DF010FE0028F3D141
:10148000C4EBC404A40028190C308368A3B12C4415
:10149000A369984785F8476285F86862AFE7D5F891
:1014A0003C32002BF6D0CDF804A0D5F8403201A98B
:1014B00005F50D709847EDE702F0D4FE00F51B72BC
:1014C00000F5117100200DF09FBE00BF012A06D06B
:1014D000022A02D108B10B68036000207047016046
:1014E00000207047012A06D0022A02D108B10B68F9
:1014F000036000207047016000207047692001F000
:10150000E7B800BF70B504681B4D22682B689A428B
:1015100018D994F82020194B53F8323093F8002250
:10152000EAB9012283F88020A168606802F0E2FC39
:10153000014660692B6802680B442B609268BDE825
:1015400070401047236A227BDBB262B90B4A52F823
:101550003330012283F8002100232B6070BD01226B
:1015600083F80021E0E7054A52F83330012283F87E
:10157000802000232B6070BD6412FF1F74310100B6
:1015800070B51C4D02682B689A4219D990F820203A
:10159000194B53F8323093F80022F2B9012283F844
:1015A000802004468168406802F0A4FC014660691E
:1015B0002B6802680B442B609268BDE870401047AE
:1015C000036A027BDBB262B90B4A52F83330012264
:1015D00083F8002100232B6070BD012283F80021D5
:1015E000DFE7054A52F83330012283F880200023D8
:1015F0002B6070BD6412FF1F7431010010B50468C8
:1016000023686268A16A13440029236010DD2368FF
:10161000E06A023BB3FBF0F200FB1233C9B2002BCD
:1016200049D12A4B53F83130012283F88020626877
:101630002368DB0721D5012A21D094F8603083F09C
:10164000010384F8603004F15400FFF799FF226829
:10165000A3689A4221D02368E06F03F001030433AA
:1016600004EB8304D4ED017A0368FCEEE77A9B680F
:1016700017EE901ABDE810401847012ADDD094F803
:101680003C3083F0010384F83C3004F13000FFF774
:1016900077FF2268A3689A42DDD1E06F0C4A0368A5
:1016A000DB6A93420FD1692001F012F801F010F8C3
:1016B0000023237710BD054B53F83130012283F806
:1016C00000216268B4E79847F0E700BF7431010079
:1016D000FD14000070B50446002521620E4E0F482F
:1016E000A362642162622061E1622A462946E660C3
:1016F000257704F1400000F0D7FF2A46294604F17F
:10170000640000F0D1FF064B2A4604F17800196806
:1017100000F0CAFF204670BD0000C8420000B4427D
:101720006031010003688B421CD00268036803F03B
:10173000010310B50433044604EB8303C06FD3EDFB
:10174000017A0368A160FCEEE77A9142ACBF012107
:101750004FF0FF3161609B6817EE901A98470123A4
:10176000237710BD704700BF10B50446C06F094A0B
:101770000368DB6A934207D1692000F0A9FF00F0FB
:10178000A7FF0023237710BD984700F0A1FF002397
:10179000237710BDFD140000007F7047C1627047C1
:1017A0009FED257AB4EEC70AF1EE10FA03461BD579
:1017B000DFED227AB4EEE70AF1EE10FA36DC9FEDA7
:1017C000207ADFED207ADFED206AF4EEE60AF1EE12
:1017D00010FA14DCB1EE046AF4EEC60AF1EE10FA67
:1017E00021D89FED1A6A0CE0DFED176AF4EEE60AE5
:1017F000F1EE10FAB0EE007AF7EE007AEADDB7EE1D
:10180000006A67EE867ADFED126AC3ED057A37EE7D
:10181000677A184677EE877A83ED067A86EEA77A9E
:1018200083ED037A704780EEA66AEAE7C7EE007A96
:1018300037EEA77AC7E700BF00247449CDCC4C3EF1
:101840008096184B8096984A0000B442398E633DCA
:101850000024F44980ED030AD0ED040AFFF7A0BF8D
:101860000346F0EE400A83ED040A90ED030AFFF709
:1018700097BF00BF2DE9F0478CB0A34A0392002325
:1018800004460222694604A8A04D069300940295DE
:10189000FFF728FE029B039A06930792002B00F0A5
:1018A000798194F88020002A40F0CB80E66F002EEA
:1018B00000F0178131680F680A9208AD02222846AD
:1018C00004A99847079A069B0B920A9394F88030D4
:1018D000304600222946B8470A9B1BB103222946FD
:1018E00028469847069B1BB104A90322084698473F
:1018F000029B1BB10322694668469847256A256505
:10190000834E844FDFF81882EDB22846012101F0A2
:10191000D9F956F83530012283F8002104F1300955
:1019200000230222694604A80693CDF8009003978D
:10193000CDF80880FFF7CAFD029B039A0693079231
:10194000002B00F01F8194F84820002A00F09B80B3
:10195000662000F0BDFE069B1BB104A903220846C9
:101960009847029B002B00F0B0800322694668462E
:101970009847626A6267D5B20023284684F83C30F3
:10198000012104F1540901F09DF956F83530012286
:1019900083F8002169460023022204A80693CDF8AB
:1019A00000900397CDF80880FFF790FD029B039A03
:1019B00006930792002B00F0E98094F86C20002A2F
:1019C00043D0662000F084FE069B1BB104A90322CD
:1019D00008469847029B23B1032269466846984708
:1019E0000023012184F8603094F8280001F06AF99E
:1019F000A36A9FED490ADBB2012256F8333083F81F
:101A00000021D4ED040A84ED030A2046FFF7C8FE46
:101A1000DFED420A94ED030AC4ED040A2046FFF705
:101A2000BFFE00234FF496711E226420236363657A
:101A30002360A163E1656263A265E0620CB0BDE86A
:101A4000F087662000F044FE4CE7A76E002F7BD0A5
:101A50003968D1F800800A9208AD0222284604A90C
:101A60009847079A069B0B920A9394F86C30384675
:101A700000222946C0470A9B002BA5D003222946F5
:101A800028469847A0E7D4F84490B9F1000F49D010
:101A9000D9F80010D1F800A00A9208AD0222284619
:101AA00004A99847079A069B0B920A9394F848302A
:101AB000484600222946D0470A9B002B3FF44BAFF3
:101AC000032229462846984745E7626A84F83C3055
:101AD000D5B262672846012104F1540901F0F2F8F9
:101AE00053E7A36F002B59D098470646E0670028BC
:101AF00044D03268069B176800220A92002B7FF4BC
:101B0000DCAE08ADE2E600BFFD150000E514000004
:101B100074310100051500000000C8420000B44205
:101B2000CD140000236C002B58D098478146606488
:101B300000B3D9F80020069BD2F800A000220A9238
:101B4000002BAAD108ADB1E7636E002B36D09847C1
:101B50000746A06650B13A68069BD2F80080002282
:101B60000A92002B7FF478AF08AD7EE7682000F082
:101B7000AFFD29E7682000F0ABFDECE6682000F03F
:101B8000A7FDAFE6652000F0A3FDE4E6652000F0C8
:101B90009FFD19E7652000F09BFDA3E6174D05F1B9
:101BA000180755F8043B98470646E0670028A0D17F
:101BB000AF42F6D1672000F08BFD93E60F4D05F1A3
:101BC000180855F8043B98470746A0660028C2D17C
:101BD000A845F6D1672000F07BFDF5E6074D05F13D
:101BE000180A55F8043B9847814660640028A0D144
:101BF000AA45F6D1672000F06BFDACE66812FF1F26
:101C000001634165704700BF41638165704700BF54
:101C10008163C165704700BF38B5D0ED066AD0ED6D
:101C2000057A9FED1D7A27EE877A77EEA67A2DED5D
:101C3000028B87EE278A0546C0680C460AF0C6F874
:101C400002460B462046154902F006F918EE100A26
:101C50000AF0BCF80B4602461149204602F0FCF897
:101C6000EA6A1049204602F0F7F82A6B0E4920462E
:101C700002F0F2F86A6B0D49204602F0EDF8AA6B0B
:101C80000B49204602F0E8F8BDEC028B2046BDE887
:101C9000384002F0C9B800BF0000344338300100BA
:101CA00050300100683001008030010098300100A0
:101CB000B030010070B40A480A4E0B4D0B4C0C4971
:101CC0000C4A0D4B36682D68246800680968126854
:101CD0001E605D609C60D86019615A6170BC70477D
:101CE0005C3101004C3101005031010054310100E0
:101CF00064310100603101006812FF1F002070474D
:101D00008368C0685A6940689B6902445A601A68CF
:101D1000502122F080021A6000201960704700BF35
:101D200083689B691A6822F040021A601A6822F0E0
:101D300080021A600020704783689FED030AD3ED8C
:101D4000077A80EE270A70473737863D704700BF15
:101D500038B5064C04F1500554F8043F184613B149
:101D60001B681B6B9847AC42F6D138BD2415FF1F8A
:101D700070B5144C144E04F5807502E02034AC426A
:101D800018D06269136803F0C003C02BF6D114F8B1
:101D9000033C8BB1136823F08003136071682369DF
:101DA0000B445360A36820462BB1E3682034984766
:101DB000AC42E6D170BDFEE7136823F04003136028
:101DC000F0E700BF1C14FF1F0080034070B5124CE9
:101DD000124E04F140056269136803F0C003C02B82
:101DE00003D02034AC42F6D170BD14F8033C53B993
:101DF000136823F040031360A368204613B1E3681F
:101E00009847EEE7FEE7136823F0800313607168DC
:101E100023690B445360EFE7DC13FF1F009003407E
:101E200070B5124C124E04F140056269136803F05C
:101E3000C003C02B03D02034AC42F6D170BD14F8DF
:101E4000033C53B9136823F040031360A368204692
:101E500013B1E3689847EEE7FEE7136823F08003C9
:101E60001360716823690B445360EFE79C13FF1FF5
:101E700000800B4070B5144C144E04F5807502E0E0
:101E80002034AC4218D06269136803F0C003C02B41
:101E9000F6D114F8033C8BB1136823F08003136070
:101EA000716823690B445360A36820462BB1E36833
:101EB00020349847AC42E6D170BDFEE7136823F0AA
:101EC00040031360F0E700BF9C12FF1F00900B401F
:101ED00038B5064CA4F58075E368211D0322203C2B
:101EE000084603B19847AC42F6D138BDF814FF1F3D
:101EF00010B5084CE36A23B104F12401084603221B
:101F00009847E3682BB1044903220846BDE8104016
:101F1000184710BDD813FF1FDC13FF1F10B5084C66
:101F2000E36A23B104F12401084603229847E368D9
:101F30002BB1044903220846BDE81040184710BDE4
:101F40009813FF1F9C13FF1F38B5064CA4F580752E
:101F5000E368211D0322203C084603B19847AC42A8
:101F6000F6D138BD7813FF1F9FED010A704700BFFF
:101F7000FCF4B241034B1B68C361012303760020CC
:101F8000704700BF041000E0002303761846704736
:101F900070B50F4D0F4B2C781B68ACB9016A89B135
:101FA000067E7EB1C2699A1A91420BD80269417EBF
:101FB000C36101232B7001764AB143690830984709
:101FC0002C703446204670BD0024204670BDFEE7CC
:101FD0008012FF1F041000E00369064A10B5044692
:101FE000026023B100F10801084603229847204609
:101FF00010BD00BF103101001748027838B5A2B9F2
:10200000164B03F1500143F8042F8B42FBD11449C6
:10201000144A012303700B6843F080730B6013684C
:1020200043F00103136000F0C3FB0C4B002453F892
:10203000045F25B10134142CF9D1002038BD3020C3
:1020400001F062FF084B094A456005618576057617
:10205000026043F8240038BD7815FF1F2415FF1FC8
:10206000FCED00E0001000E02815FF1F103101001A
:1020700010B51421044601F04BFF204610BD00BFEF
:102080000369084A10B50446026023B100F1080153
:102090000846032298472046302101F039FF2046A8
:1020A00010BD00BF10310100692000F011BB00BF5E
:1020B000692000F00DBB00BF692000F009BB00BF24
:1020C000692000F005BB00BF6FF0640000F000BBAA
:1020D0006FF0640000F0FCBA0C4A0D4B1268994294
:1020E00010B50446C2610AD8B42303FB01F1A1F183
:1020F00044020123616222622376002010BD6FF04A
:10210000630000F0E5FA0349034AF2E7041000E037
:1021100056555501780000F0340000F02DE9F843E1
:102120002D4F3B78002B3DD12C4A2D4C2D4EDFF806
:10213000C89013604FF6FF7191601D46984653603A
:10214000A36804F8048C3BB103222146204698473B
:10215000C4F80880C4F80C80EB0003F1804303F559
:1021600060336661DA68C4F8189022F08002DA60A1
:10217000DA68013522F040021021082DDA6006F1FC
:10218000080604F12004D960DAD1144B16490D2257
:102190001A602A2000F07CFD144A4FF4806101236C
:1021A00011603B70124900235A018C188D5C013379
:1021B00025B1082BF8D10020BDE8F8830123237056
:1021C000142001F0A1FE0B4A044B456005618460B8
:1021D0000260C360BDE8F8838412FF1F00800340E3
:1021E0001C14FF1F0C800340711D000004E100E07F
:1021F0001814FF1FD03001000000F03F2DE9F84314
:10220000DFF8D48098F80030002B3CD12B4A2C4CBE
:102210002C4EDFF8C89013604FF6FF7191601D4699
:102220001F465360A36804F8047C2BB103222146A7
:1022300020469847A760E760EB0003F1804303F571
:1022400064336661DA68C4F8189022F08002DA60BC
:10225000DA68013522F040021021022DDA6006F121
:10226000080604F12004D960DCD1144B16490D2274
:102270001A602B2000F00CFD144A4FF4006101237A
:10228000116088F80030124B1A7832B193F8202090
:1022900012B10020BDE8F8830122520101219954B6
:1022A00014209C1801F030FE00230A49034A846080
:1022B0000160C26043600361BDE8F88300900340A1
:1022C000DC13FF1F0C900340CD1D000004E100E073
:1022D000D813FF1FD03001008312FF1F0000F03F12
:1022E0002DE9F843DFF8D48098F80030002B3CD17A
:1022F0002B4A2C4C2C4EDFF8C89013604FF6FF7120
:1023000091601D461F465360A36804F8047C2BB1FE
:102310000322214620469847A760E760EB0003F1BF
:10232000804303F538236661DA68C4F8189022F018
:102330008002DA60DA68013522F040021021022DB5
:10234000DA6006F1080604F12004D960DCD1144BF0
:1023500016490D221A602C2000F09AFC144A4FF402
:1023600080510123116088F80030124B1A7832B185
:1023700093F8202012B10020BDE8F8830122520119
:102380000121995414209C1801F0BEFD00230A4934
:10239000034A84600160C26043600361BDE8F88362
:1023A00000800B409C13FF1F0C800B40211E00007F
:1023B00004E100E09813FF1FD03001008212FF1FDC
:1023C0000000F03F2DE9F8432D4F3B78002B3CD126
:1023D0002C4A2D4C2D4EDFF8C89013604FF6FF713C
:1023E00091601D4698465360A36804F8048C3BB185
:1023F0000322214620469847C4F80880C4F80C8080
:10240000EB0003F1804303F539236661DA68C4F811
:10241000189022F08002DA60DA68013522F040027A
:102420001021082DDA6006F1080604F12004D960B5
:10243000DAD1144B16490D221A60472000F028FC0F
:10244000144A8021012311603B70134900235A0173
:102450008C188D5C013325B1082BF8D10020BDE824
:10246000F88301232370142001F04EFD0B4A054B25
:102470004560056184600260C360BDE8F88300BF09
:102480008112FF1F00900B409C12FF1F0C900B400D
:10249000751E000008E100E09812FF1FD030010017
:1024A0000000F03FF0B504462048637682424FF0CA
:1024B000000387B00E4623762ED8B42303FB02F226
:1024C000B36822620021626204915BB302AD3146BF
:1024D000284602229847F768B66895E8030004F199
:1024E00008038DE8030093E8030085E803009DE8F6
:1024F000030083E80300236962690493266105925F
:1025000067611BB10322294628469847084B1B6880
:10251000E361002007B0F0BD6FF0630000F0D8F871
:10252000044ACDE71E46059F02ADD6E75655550134
:10253000041000E0780000F0F0B507EE902A8468FF
:10254000F8EE677A94ED077A637067EE877A87B062
:10255000FCEEE77A0E4617EE903AB3F5803F2BD2A9
:102560002546B76863610023049302AC3FB10222A1
:1025700020463146B847F268B3680592049394E860
:1025800003002B1D8DE8030093E8030084E803009B
:102590009DE8030083E80300049AEB68EA6005996C
:1025A0002A690493296105921BB103222146204622
:1025B0009847002007B0F0BD05466FF0630000F0BB
:1025C00087F8AD684FF6FF73CBE700BF70B5294DB4
:1025D0002B6813F0010313D1274C284A2849E360E4
:1025E00001261846E362E364E366C4F88C30C4F85D
:1025F000AC30C4F8CC30C4F8EC302E6001F0FCFDF7
:10260000204C206810F0010309D11F4D1B4A1F49BF
:10261000EB6001261846EB62266001F0EDFD1C4CD4
:10262000206810F0010309D11A4D144A1A49EB60D1
:1026300001261846EB62266001F0DEFD174D2B687F
:1026400013F0010315D1164C0C4AE3600126E36236
:10265000E364E366C4F88C30C4F8AC30C4F8CC3022
:10266000C4F8EC302E600F491846BDE8704001F008
:10267000C3BD70BD9412FF1F1814FF1F9807FF1FE2
:10268000D11E00009012FF1FD813FF1FF11E000083
:102690008C12FF1F9813FF1F1D1F00008812FF1FC1
:1026A0009812FF1F491F000010B40024C46044604A
:1026B000016002725DF8044B704700BF836810B57B
:1026C000044613B1032201469847204610BD00BFBF
:1026D00010B5074B9A6882B0044632B128B102A9FE
:1026E000DA6841F8040D18469047204602B010BD44
:1026F0001815FF1F054B064A064910B400249C60BC
:1027000018465DF8044B01F077BD00BF1815FF1F98
:102710009807FF1FBD26000038B5064B036005462D
:10272000EFF3108472B601F02DFB04B962B62846AF
:1027300038BD00BF7031010010B4047F4160022C2D
:10274000C26003D05DF8044B01F0B8BA83685DF84D
:10275000044B184770B5144C064604F1500554F864
:10276000043F184613B11B681B6B9847AC42F6D167
:1027700033680E4A1B6893420AD1327F0023022A33
:102780007360F3600AD03046BDE8704001F096BA3D
:10279000002230461146BDE870401847B368304605
:1027A000BDE87040184700BF2415FF1F39270000FF
:1027B00070B5EFF3108572B6124C204601F0E2FAC4
:1027C000114A12491378A16043F0040301212177D3
:1027D000137055B962B6237F6560022BE5600CD09B
:1027E0000848BDE8704001F069BA00236360E36007
:1027F0000448BDE8704001F061BAA3682046BDE816
:10280000704018479C07FF1FC407FF1F5527000093
:10281000024A0349034801F0EFBC00BF9807FF1FBD
:10282000192700009C07FF1F38B50F4D286878B1A5
:1028300043880288C118013393420C7A02D2438044
:10284000204638BD00F06CFB002320462B6038BDCD
:10285000064B1B782BB1032000F088FB2860002872
:10286000E6D14FF0FF3038BD8415FF1F7016FF1FF3
:1028700010B5094C206818B143881844007A10BD7F
:10288000064B1B782BB1032000F070FB2060002862
:10289000F2D14FF0FF3010BD8415FF1F7016FF1FDF
:1028A000044B054A1B6890881BB11A885B88D31AB1
:1028B000184470478415FF1FA017FF1F0B4B1B7890
:1028C0009BB110B50A4C206848B100F029FB0023E9
:1028D0000320236000F04AFB30B100F021FB03200D
:1028E00000F044FB0028F8D110BD70477016FF1FA0
:1028F0008415FF1F2DE9F04FDFF8F89083B0012217
:1029000089F80020019169B3DFF8EC80354F019E12
:102910008346D8F80000B0B3334D4488C4F1400179
:10292000B14228BF314604EB010E00221FFA8EFE91
:102930002A70761AA0F802E000F1080251B1013CB9
:10294000224459441BF8014B02F8014F8B45F9D141
:10295000B0F802E0BEF13F0F0BD8244A05211170F8
:10296000002ED6D10198002389F8003003B0BDE8CD
:10297000F08F402202800146042000F08FFB0022ED
:10298000C8F80020E9E73A7822B3194C164D4FF009
:10299000010A07E0013C16D02A78A2B9FEF764FCD0
:1029A0003A78BAB1042000F0FFFA0728F2D889F883
:1029B00000A000F095FAC8F800000028ADD10D4B3A
:1029C000013C1870E8D101234FF0FF302B7003B0A9
:1029D000BDE8F08F00234FF0FF3089F8003003B0DE
:1029E000BDE8F08F7016FF1F8015FF1F7915FF1FC0
:1029F000214801007A15FF1F7C15FF1F00B583B029
:102A000002AB012103F8010D1846FFF773FF03B075
:102A10005DF804FB38B50E4D0E4C28680123237079
:102A200028B1408800232370C0F1400038BD0A4B14
:102A30001B7813B90020207038BD042000F0B4FAD0
:102A40000728F7D800F04CFA28600028E9D1F1E710
:102A50007C15FF1F7A15FF1F7016FF1FF8B5114B6D
:102A60001B788BB1104E114D346801272F7064B163
:102A70000F4A63880027177021462380042000F046
:102A80000DFB376000232B70F8BD00F029FA084BCE
:102A900028B1014604201C7000F000FBF2E71F7013
:102AA000F0E700BF7016FF1F7C15FF1F7A15FF1F90
:102AB0007915FF1F38B50E4B1B7873B90D4C216883
:102AC00061B103F0FF054B880B80042000F0E6FAAB
:102AD000256038BD084B01221A7038BD00F000FA9D
:102AE0000028F7D00146BDE83840042000F0D6BAEF
:102AF0007A15FF1F7C15FF1F7915FF1F08B5104CB5
:102B000008E0236859050DD423681A050FD42368FB
:102B1000DB0411D423685803F3D500F001FB2368CC
:102B20005905F1D500F00EF823681A05EFD500F02D
:102B300009F82368DB04EDD500F004F8EAE700BFEC
:102B40003480044008B5FFF7D9FF00BF014B1022C5
:102B50001A80704700200540704700BF094908B53A
:102B60000B6830B16A461844A2F50052904202D276
:102B70000860184608BD0AF031FD0C2303604FF0D1
:102B8000FF3008BDBC07FF1F002070474FF0FF302B
:102B9000704700BF4FF400534B600020704700BFE8
:102BA000012070474FF0FF30704700BFFEE700BFC5
:102BB000084A1378802B01D0002070470649074B44
:102BC00007480860002119701378802BFCD0012081
:102BD000704700BF03E007404480044001E0074025
:102BE00000002822094A1378012B01D000207047E9
:102BF00003F1804303F5FC23602119701378802BC7
:102C0000FCD1034B034A1A600120704703E00740E0
:102C100044800440000006021C4A02EBC003012964
:102C20005B6811D004291BD052F83000002280F8D4
:102C3000802229B1022920D0032922D01A607047AE
:102C40004FF480721A60704752F830004FF4A2724D
:102C500080F880121A601A6822F020021A60704709
:102C600052F830104FF4A272012081F880021A60ED
:102C70001A6842F020021A60704740F203121A608C
:102C800070474FF481721A60704700BF74310100C1
:102C90001030024B43F82010704700BF0002FF1FA6
:102CA00030B4054B054D064C002210211A602A60F5
:102CB0002060196030BC704714D0034004D003403A
:102CC00000D003403F2801D8FFF7A6BF704700BFE0
:102CD0002DE9F843054672B6224F234B234A1B6861
:102CE0003C68126862B6520102D5322B88BF0134AB
:102CF000B5B3C3F52F3303F21F331D4EDFF86890D1
:102D0000DFF868809B084FF47A72A6FB031302FB7E
:102D100004F404EB930472B6D9F800103A68D8F8BA
:102D200000E062B6C1F52F3303F21F339B08A6FB08
:102D300003031EF0806FC4EB93034FF47A7002D04C
:102D4000322988BF013200FB0233B3F57A7F04D306
:102D5000013D05D004F57A74DDE7FEF785FADAE780
:102D6000BDE8F8838C15FF1F18E000E004ED00E0DB
:102D7000176CC116F8B54E4B4E48DFF85CC14E4C8F
:102D80004E49DFF858E14E4E4E4D4F4F4FF0006226
:102D90001A604FF080521A604FF000521A604FF0E4
:102DA00080421A604FF000421A600022026028231D
:102DB0004EF6FF70CCF80000CEF8003023600EF520
:102DC000012E0B6033602B6006F500263B6005F595
:102DD0000025A36207F500278B6204F5012401F5A5
:102DE000012106F6E87605F6E87507F57F671031EC
:102DF0000EF1100E203433602B60CEF800303B60B3
:102E00000B602360314CBB618B6109212160A7F508
:102E1000002704F58054203F08343A602060BB60EE
:102E2000E36047F8041C04F5FD2407F5FE2704378A
:102E300004F2FC7422603860A360FB6044F8041C58
:102E4000083404F6FC74C7F8FC2F2060A4F5E124D4
:102E5000A4F2DC7433602B60C7F8F81F21681C48AB
:102E600041F40071216001681A4C0EF57F4E0EF19D
:102E7000E80E07F5883706F5803605F5803541F010
:102E800000710160CEF8002047F6FF71082239601A
:102E900033602B60226001F0D7F81920FFF718FF8C
:102EA00000F0A4FE40F21310BDE8F840FFF710BF99
:102EB00004E100E004800340148003401C800340D0
:102EC000248003402C800340348003400080034072
:102ED0000480044000900C40088003400C800340B4
:102EE00072B60D480268B2FA82F30B2B10DC4FF079
:102EF0000041D94022EA0102026062B6074803EBB2
:102F0000C303DB00C2180021C15010465160704756
:102F100062B60020704700BFC007FF1FD003FF1F2D
:102F20000D4B0E4AC31AA2FB03231B090B2B0CD813
:102F30000B4A127852B972B60A484FF00041026843
:102F400021FA03F31A43026062B67047064A127808
:102F5000002AF0D000F03EB8D003FF1F398EE338CE
:102F60006516FF1FC007FF1F7016FF1F431E032BB0
:102F700014D872B60A4951F8230068B170B4094CEC
:102F8000058834F81320466841F82360521B24F862
:102F9000132062B670BC704762B67047002070475D
:102FA000E815FF1FA017FF1F013803280BD872B6C2
:102FB000074B53F8203043B100205B680130002BF1
:102FC000FBD162B67047002070471846F9E700BF92
:102FD0003C16FF1F30B472B62B4A13781D0706D576
:102FE0002A4B196A002936D0996A002941D05378B2
:102FF0001C0706D5254B196C00293ED0996C002979
:1030000039D09378190705D5204B196E002936D091
:10301000996E89B1D3781B0707D51C4BD3F8802054
:103020007AB3D3F8882011213AB162B6184B002246
:103030001A7030BCFFF774BF0D21154C154D227866
:1030400043F8315003EBC1030830013A5860227055
:1030500062B630BC704704220D4C0F4D217843F806
:10306000325003EBC20308304A1E5860227062B629
:10307000EFE70521E1E70921DFE70822ECE70C2271
:10308000EAE71022E8E700BFA03301000000FF1FBD
:103090006516FF1FC800400088004000431E032B38
:1030A0001DD81B4A400140F0100030B4104472B6E5
:1030B000184CE25C032A1BD8DFE802F00212151755
:1030C00003220D88E25410F0080F14BFC823882390
:1030D00043EA054308310360416062B630BC704783
:1030E00008300222EDE70522EBE708300422E8E78A
:1030F000094A52F8230038B1084A52F823004160C7
:1031000042F8231062B6E9E742F82310034AF7E7D2
:103110000000FF1F7416FF1F3C16FF1F4C16FF1FF9
:103120002DE9F04FDFF818B3DFF818A387B044E0BB
:10313000AE4F4FEA930807EBC809013ED9F80420C7
:1031400003F00803F6B2A2F1080003F0FF04002B1D
:1031500040F0048157F838301B0C99B222F8081C53
:10316000002B00F0F280A24B22F8064C42F8044CEF
:1031700053F82620002A00F06E819E4D55F8263027
:1031800058609D4C45F8260034F81630194424F850
:103190001610FFF7A5FE002800F05681974A984BBD
:1031A00019F0080F00F1080018BF1346C9F8040011
:1031B00047F8383008238BF800309BF80040E4B221
:1031C00061071BD58F4B1B78ABB18F490A7802F092
:1031D000FF032AB1013BDBB20B70002B00F0EF8440
:1031E0008A490A7802F0FF032AB1013BDBB20B7077
:1031F000002B00F0F78004238BF8003004F0080364
:1032000003F0FF02002B00F0D6809AF80030DBB20A
:103210001E098DD19C08DFF8D49159F8342009EBB0
:10322000C401C2F38302013A49680C2A7ED8DFE860
:1032300002F081817D7D7D7D7D7D477D7D7D0700E7
:103240000868734D4A68734F734E286081B240F22C
:1032500081606A4B6A604FF0010E0022814249F89A
:1032600034303A60C9F81020C9F8182086F800E018
:103270005E4C00F2F480B1F5D06F80F07883B1F548
:10328000817F00F0628300F28782802900F0EC8267
:10329000822940F01E83A98801F07F01042900F2F1
:1032A00018835E485E4C8900084422706270027880
:1032B000930740F1798384F800E04FF0020ED8E2E2
:1032C000544F3A6842B3574B534E57491888347895
:1032D0000D784028864645F0020828BF4FF0400E82
:1032E000002C84F001043470CEEB00000CBF882465
:1032F000C82409EBC80680B285F0010544EA0E44F3
:103300007260188049F8384072440D7018B9BEF1E7
:10331000400F18BF00223A603D4B1A88B2F5A06FEB
:1033200004D100219A785970404B1A70404A012309
:1033300013703FE7364A158842F22100854200F0BB
:10334000FF812E4A49F83420F0E72C4A2C4B19F023
:10335000080F18BF134647F838302BE7FFF7E0FD9A
:10336000344A354952F82630002B00F0B6815868AF
:103370008C5D42F8260003F10802C9F80420032CF2
:1033800005D8DFE804F0120F150204228A551A88C6
:1033900019F0080F0CBF8823C82343EA024347F8FB
:1033A000383007E702228A55F1E703228A55EEE713
:1033B00005228A55EBE7E00700F11A82210600F1A9
:1033C0004982A20706D51D4A1D4913780220DBB2A7
:1033D00013700870E30602D5194B10221A7007B05B
:1033E000BDE8F08FFFF766FB05E700BF0000FF1F99
:1033F000E815FF1F9415FF1FA017FF1FC80040000E
:10340000880040007016FF1FF915FF1F7915FF1F78
:103410005C16FF1F9015FF1FF815FF1FC020074007
:103420006816FF1FA415FF1F6416FF1F9820074092
:10343000942007403C16FF1F7416FF1F882007408A
:103440008020074090200740AB4A47F838001378A7
:1034500001331370AEE643F82600A84D91E642F220
:103460002100814200F0358100F2AF81B1F5086F93
:1034700000F01B82B1F5106F40F02B82226AA04948
:10348000A8780870120600F14583D9F828209D49D4
:10349000130600F13A83D9F830209A49150600F155
:1034A0002F83D9F838209749140600F12483D9F8DE
:1034B00040209449100600F11983D9F84820914919
:1034C000120600F10E83D9F850208E49130600F140
:1034D0000383D9F858208B49150600F1F882D9F8F2
:1034E00060208849140600F12983D9F868208549AD
:1034F000100600F11E83D9F870208249120600F1EF
:103500001383D9F878207F49130600F10883D9F88E
:1035100080207C49150600F11C83D9F88820794960
:10352000140600F11083D9F890207649100600F1B6
:10353000C882D9F898207349120600F1BC827248FB
:10354000724A7349019073486C4D734C0497002381
:1035500005960295804617460E461D460394386828
:1035600028B14468FFF7DCFC2046002CF9D1002389
:103570003B60029B30681A46002342F8253028B190
:103580004468FFF7CDFC2046002CF9D100223260C0
:10359000019A98F800301146002241F8042B039A52
:1035A0000191023B4FF0000122F81510032B09D8BE
:1035B000DFE813F04B0104004B0104004FF001035E
:1035C00088F800300135042D07F1040706F10406E0
:1035D00008F10108C3D1514C514B2278464D049F4C
:1035E000059E002129701A70130700F14F8262783E
:1035F0004C49DFF810810A7010074FF00001C9F83C
:103600003010C9F8381000F12B824749A2780A70AF
:103610000021C9F85010C9F858101107DFF8E480EC
:1036200000F1DC81E2784149364C0A700021120732
:10363000C9F87010C9F8781000F1B9813378019396
:10364000002183F00102C9F89010C9F898100020F9
:10365000029080468446044635490D7845F0020EB6
:1036600009EBCE030393019B002B039B5C600CBF13
:103670008824C82444EA080385F0010449F83E3050
:1036800032700C70DFF87CE02A4BDFF8A480002851
:1036900040F02681BCF1400F1BD144F0020C09EB35
:1036A000CC03029CDFF85CE05C60002A40F02E81D5
:1036B000020442F088029DF804304EF83C20044495
:1036C00033700D702346402803D100201A4A3B6016
:1036D00010801A4A0123137028E68B5D032B00F239
:1036E0002D8101A252F823F0B5310000B531000060
:1036F0003F380000453800006516FF1F9415FF1F76
:103700007016FF1F0000FF1F4C16FF1FE815FF1F5C
:103710003C16FF1F7416FF1FA017FF1FA0330100E8
:10372000C4200740C8200740CC200740D0200740D5
:103730006416FF1FF815FF1FA415FF1F94200740F4
:10374000928892B9B14A0D784878157050708D788A
:10375000C8789570D07010680D79157186284D79EC
:1037600089795571917100F0A580A949A94E0A780F
:10377000307882F00105002842F002020D700CBF83
:103780008821C82149F8321009EBC20280F00100FB
:10379000002130705160D4E540F20232914240F095
:1037A0008D80A98801F07F01042900F292806A8847
:1037B000002A40F08E809848CDF804E08900084443
:1037C000017841F00201017041E742F2212081427B
:1037D0007BD1A988002940F0E480904B904A914821
:1037E000AC781D681560CDF804E00A4604702EE739
:1037F0008D4B8E4886491A614FF0020E80F800E02A
:10380000854F0A708A49196099608A4E8A4D8B4C9F
:103810009A610D213970FF213170DFF840E2297083
:103820002270874D874A8EF800109F27012406F8E2
:10383000047C5D600470DA6007B0BDE8F08F00239F
:103840008B55B7E401238B55B4E44FF0000388F89F
:103850000030B7E67049784B80220D2008701A704E
:10386000A2077FF5B7ADAEE5774C4FF0020E2270A0
:103870006270EA88724580F0A38165490D78402A1C
:10388000944645F0020E28BF4FF0400C04EB0C03A9
:1038900009EBCE000293012344604FEA0C48CCEBC5
:1038A000020001930022C824E4E6684A664C1278BC
:1038B0002270DEE7664A0F21117056E7B1F5A06F5E
:1038C00007D1012300220193C1E642F22132914245
:1038D000F7D0514A0F231370544A0123137025E582
:1038E00040287FF6DAAE44F002040EEBC401029EDB
:1038F0004E60BAB19DF80410564A197033464038EC
:1039000088F8005040334EF83420DFE69DF804304C
:1039100033700204029B0D7042F0C80203444EF85B
:103920003C20D0E69DF804101970029B404A88F8AC
:103930000050403840334EF83420C7E619F0080FE5
:103940000CBF022303238B5534E4A98801F07F01C7
:103950000429BED86A88002ABBD12F48CDF804E0DC
:1039600089000844017821F0020101706FE63A4AAB
:103970005468002CADD06888B5F804E003E00C3240
:103980005468002CA5D013888342F8D1538873451E
:10399000F5D1000A03280CBF94F800E0B2F808E063
:1039A00067E7CDF804E052E64FF0020E61E7FFF75B
:1039B00097FA002800F0F18008301D4AC4F884000E
:1039C000C4F88020FFF78CFA002800F0E08008306F
:1039D000204AC9F88C00C9F888202FE6FFF780FA42
:1039E000002800F0E6800830114AC8F86400C8F8E2
:1039F0006020FFF775FA002800F0D5800830154ADE
:103A0000C9F86C00C9F868200CE600BF9817FF1FC2
:103A10006416FF1FF815FF1FC02007408C15FF1FFD
:103A20009417FF1F8815FF1F0000FF1F94200740F9
:103A300088004000882007408020074098200740E9
:103A4000A815FF1FFC15FF1F6816FF1F7016FF1F2C
:103A5000F915FF1FC8004000A43301008C20074067
:103A6000FFF73EFA002800F08C8008305D4AC8F865
:103A70004400C8F84020FFF733FA00287BD0083014
:103A8000594AC9F84C00C9F84820BEE5FFF728FAA2
:103A900000286AD00830534AC9F82400C9F8202009
:103AA000FFF71EFA00285AD008304F4AC9F82C00F8
:103AB000C9F828209BE5D1F89C000838FFF730FAB8
:103AC0003DE5D1F894000838FFF72AFA31E5C86DD2
:103AD0000838FFF725FA02E5486D0838FFF720FAA5
:103AE000F7E4C86C0838FFF71BFAECE4486C0838B8
:103AF000FFF716FAE1E4C86B0838FFF711FAD6E4CD
:103B0000486B0838FFF70CFACBE4C86A0838FFF7AF
:103B100007FAC0E4606A0838FFF702FAB5E4C86F34
:103B20000838FFF7FDF9F2E4486F0838FFF7F8F9B5
:103B3000E7E4C86E0838FFF7F3F9DCE4486E0838AC
:103B4000FFF7EEF9D1E4D1F88C000838FFF7E8F977
:103B5000E9E4D1F884000838FFF7E2F9DDE42A78D7
:103B6000C9F8280001322A7041E52A78C9F82000F6
:103B700001322A7094E72A78C9F8480001322A7085
:103B800043E52A78C8F8400001322A7073E72A78A2
:103B9000C9F8880001322A7050E52A78C4F88000FC
:103BA00001322A700EE72A78C9F8680001322A70BB
:103BB00038E52A78C8F8600001322A7019E700BE9B
:103BC000BEF1400FF44628BF4FF0400C04EB0C034D
:103BD00002930123CCEB0E004FEA0C480022019324
:103BE0003AE500BF88004000C80040002DE9F041E0
:103BF000274C00F099FA002204F1A00023461A6035
:103C00005A60083383424FF00001F8D12148224A1C
:103C10000368DFF89CE0214E214D224FDFF894C06D
:103C2000DFF8948043F480230360136843F040730B
:103C3000136003238EF80030A023337002F5C922ED
:103C4000C4F3072300F528302B708030C4F30743FA
:103C500010323B70240EFF230470134D8CF800309B
:103C6000124888F800301370012306F8AC3C4FF47A
:103C700000140EF8441C7026102107F82C3C2E70FE
:103C8000046082F8F810AEF1440EBDE8F08100BF88
:103C90000000FF1F3480044000D80040402107404E
:103CA0009C200740B020074035E400E004E100E03C
:103CB00044210740802007408820074010B4EFF3DC
:103CC000108272B6437F33B9017F012908D00329DE
:103CD00010D00123437702B962B65DF8044B7047F8
:103CE000114C2168A1B1114943610B6883610860DF
:103CF0005861EEE70E4C216881B10E4943610B68B3
:103D00008361086058610C4B4FF080511960E0E707
:103D1000064B4161816120601860DAE7054B416123
:103D2000816120601860EEE78416FF1F8016FF1F78
:103D30007816FF1F7C16FF1F04ED00E070B5EFF34F
:103D4000108272B60C4C206880B10C4E002543697D
:103D5000236073B19D6102B962B645778368984765
:103D6000EFF3108272B620680028F0D102B962B673
:103D700070BD3360EFE700BF7816FF1F7C16FF1F92
:103D8000FFF7DCBF037F012B0FD0032B00D0704760
:103D9000437F3BB18369E3B142695A6142696AB9C1
:103DA0000F4A1360002303777047437F002BF9D03D
:103DB000836953B142695A6142691AB19361002320
:103DC00003777047074A1360ECE7074942690A60C6
:103DD000F3E7064942690A60002AEFD1E0E700BF35
:103DE0007C16FF1F8016FF1F8416FF1F7816FF1F0B
:103DF000024A136801331360704700BF8C15FF1F20
:103E0000FEF75CBDFEF734BDFEF70EBDFEF748BD04
:103E1000FEF724BEFEF7FEBD08461146FEF76ABD5A
:103E20000846FEF7EBBD00BF00B5064A03681288DE
:103E30005B6883B001A9ADF804200222984703B063
:103E40005DF804FB9C33010010B5036814465B6801
:103E50009847204610BD00BF0EB400B582B003AA3B
:103E600052F8041B01920CF021FE02B05DF804EB45
:103E700003B0704708B5FDF795F9FDF7DDF9FDF7DB
:103E8000F3F9FAE7F0B5164D2A680AB31549164B4F
:103E9000DFF85CE082FB016781FB0214D617D119C1
:103EA0001444C6EB2141C6EB244403FB04F40EFB8F
:103EB000112244F2A71303FB0243002B02DA03F1A1
:103EC0000043013BB3FBF0F22B6000FB1230F0BD6E
:103ED000064B2B60B3FBF0F200FB1230F0BD00BFCD
:103EE0008816FF1F5F0B4E83ECF4FFFF42CE0C1FC2
:103EF0001DF30100884206DA10B50446081AFFF7E0
:103F0000C1FF204410BD704709F04ABE09F050BE01
:103F100009F04EBE844641EA000313F003036DD15D
:103F2000403A41D351F8043B40F8043B51F8043B7C
:103F300040F8043B51F8043B40F8043B51F8043B83
:103F400040F8043B51F8043B40F8043B51F8043B73
:103F500040F8043B51F8043B40F8043B51F8043B63
:103F600040F8043B51F8043B40F8043B51F8043B53
:103F700040F8043B51F8043B40F8043B51F8043B43
:103F800040F8043B51F8043B40F8043B51F8043B33
:103F900040F8043B51F8043B40F8043B51F8043B23
:103FA00040F8043B403ABDD2303211D351F8043BC3
:103FB00040F8043B51F8043B40F8043B51F8043B03
:103FC00040F8043B51F8043B40F8043B103AEDD272
:103FD0000C3205D351F8043B40F8043B043AF9D2C3
:103FE000043208D0D2071CBF11F8013B00F8013B96
:103FF00001D30B8803806046704700BF082A13D3A3
:104000008B078DD010F003038AD0C3F10403D21ABA
:10401000DB071CBF11F8013B00F8013B80D331F8EE
:10402000023B20F8023B7BE7043AD9D3013A11F86E
:10403000013B00F8013BF9D20B7803704B784370D9
:104040008B7883706046704730B42948294A2A4BE0
:104050002A4D6024E121047011701B78284C082B34
:1040600030D00A2B2748284937D00C2B0CBF3522DB
:104070005D2212232A60236002600B60234B2449D7
:104080001B78244ABBB101230B601360224B2349E8
:104090001B78234A012B26D9042B0FD9082B1ED9B4
:1040A000102B94BF862387230B6013601D4B0122C6
:1040B0001A7030BC70470B601360E7E784230B6015
:1040C0001360F3E700F58E200F49083021221323F7
:1040D0002A60236002600B60D0E73922F7E785236E
:1040E0000B601360E2E780230B601360DEE700BF24
:1040F0000040074001400740D807FF1F08B00340B9
:104100000CB0034008B00B400CB00B408D16FF1FE5
:1041100020B0034020B00B40D907FF1F24B003405C
:1041200024B00B408C16FF1F10B584B072B6FEF79A
:104130003FFD184A184B19491160702280211A70EE
:104140001A46197013781B06FCD5154B1C68FEF730
:1041500049FD62B6134B9C429CBF04EB840464008F
:104160002046114C01A90A2200F020F801A920469E
:10417000002311F8012B01333AB10A2B20F8022F4A
:10418000F7D11623237004B010BD5B00DBB223709F
:1041900004B010BD040002400000024000000741CE
:1041A0000C0002407F9698006808FF1FF0B44D1E77
:1041B0002E46002400E00134B0FBF2F302FB1300B2
:1041C000092800F130078ABF3730F8B2C0B206F8CC
:1041D000010F1846002BEED10A1953704CB110781C
:1041E00015F8016F28700133E01A834202F8016963
:1041F000F5DB0846F0BC70470B460146184609F04F
:10420000E7B900BF38B50546082000F071FF294620
:10421000044600F037F82046044A054900F0EEFA5B
:10422000204600F07DFF00F09FFF00BFF553000027
:10423000E038010038B50546082000F059FF29464E
:10424000044600F033F82046044A054900F0D6FA47
:10425000204600F065FF00F087FF00BF49540000D2
:104260002439010008B5042000F042FF024B03602E
:10427000024A034900F0C2FA583901008154000093
:104280004439010010B5084B82B0044601AA40F839
:10429000043B00F095F8204602B010BD204600F027
:1042A00057FE00F061FF00BF0439010010B504465D
:1042B000FFF7E8FF014B2360204610BD38390100AD
:1042C00010B582B001AB044600F06CF8204602B095
:1042D00010BD00BF134B984210B51FD8884204464A
:1042E00014D94A00904238BF144604F11D02B2F5B9
:1042F000805F04F10D000BD9A14209D204F580546E
:10430000C2F30B02A41A9C4228BF1C4604F10D0004
:10431000FFF7FAFD00224460826010BD0248FFF7FB
:1043200089FF00BFFCFFFF3FA034010070B50C1AED
:10433000064600212046FFF7CDFF012C054600F17F
:104340000C0305D084B90C4A954206D1184670BDBD
:1043500032780273084A9542F8D0291900222C605D
:10436000AA600A73184670BD184631462246FFF708
:10437000D1FD0346E7E700BF9016FF1FFFF7C6BD5C
:10438000884202D018B1FFF7D1BF04487047002916
:10439000F9D008B50248FFF735FF00BF9C16FF1F94
:1043A0006435010038B50D460446114428461A46C6
:1043B0004FF00003FFF7E4FF2060204638BD00BF48
:1043C00070B5054616460C4661B108460AF0F8FD80
:1043D0002118324620464FF00003FFF7D1FF286036
:1043E000284670BD4FF0FF31F3E700BF004870472B
:1043F000E436010000487047EC360100026041607D
:10440000704700BF4B68834201D0002070470868A6
:10441000801AB0FA80F04009704700BF704700BFB3
:10442000704700BF10B50446FFF770FD204610BD71
:1044300010B50446FFF76AFD204610BD10B50B68A5
:1044400086B004461B696846984720469DE80600EA
:10445000FFF736FF009802AB984201D0FFF756FDF8
:10446000204606B010BD009802AB984201D0FFF77D
:104470004DFD00F079FE00BF70B5054682B001B376
:10448000541A0F2C0E4601940AD82B68012C18469A
:1044900013D064B9019A6A600021995402B070BDCA
:1044A000002201A901F04CF9019B2860AB60224673
:1044B0003146FFF72FFD2B68ECE732781A702B6836
:1044C000E8E712B10248FFF79DFE01920368E1E7B9
:1044D000F436010038B5044610460AF065FD04F1D3
:1044E00008032360054640B10AF06AFD29462A18F0
:1044F0002046FFF7C1FF204638BD20464FF0FF326F
:104500002946FFF7B9FF204638BD00BF30B5036824
:104510000C4D5B69AB4283B014460CD16368834297
:1045200002D0002003B030BD2068401AB0FA80F0FD
:10453000400903B030BD0A460146684698470099D5
:104540000198EBE7FD43000010B5064C064907480B
:104550002246FFF751FE224605490648BDE81040B5
:10456000FFF74ABE9807FF1F214400008408FF1F81
:104570001D4400008008FF1F38B5044600F0E4FC2D
:1045800022780368472AA4F1200105D0002B31D1FD
:104590001C460160204638BD62784E2AF6D1A278CA
:1045A000552AF3D1E278432AF0D12279432AEDD17A
:1045B00062792B2AEAD1A2792B2AE7D1E279012A62
:1045C000E4D854F80C2C002A11DB0132456844F879
:1045D0000C2C8B4205F1FF3242601CBF44F8103CAA
:1045E00001602046646A08F043FA204638BDC2F1F3
:1045F0000102EBE700F0CEFC013101D000F0B4FD88
:1046000001F0F2F808B500F09BFC024600680028B3
:104610003DD090F82030472B06D000231360203087
:10462000BDE8084008F026BA90F821304E2BF4D1AE
:1046300090F82230552BF0D190F82330432BECD159
:1046400090F82430432BE8D190F825302B2BE4D17F
:1046500090F826302B2BE0D190F82730012BDCD8B6
:104660004369002B05DB013B08D05A1C0DD0436188
:1046700008BD0133FBD101691160F8E703691360DC
:104680002030BDE8084008F0F5B900F083FC08BD13
:1046900010B5034B0360044600F050FE204610BDE9
:1046A0005037010010B5054B0360044600F046FE8C
:1046B0002046FFF72BFC204610BD00BF50370100FD
:1046C0002DE9F04F81B00E4619461F4691468346AC
:1046D0000A9CDDF82CA0DDF830800D9D00F086FCF2
:1046E00070B1002E2C6085F804901FDB3444A04587
:1046F0000CBF06240124AC71002001B0BDE8F08F8E
:10470000444518D0DBF80800D0F800E00D95CDF84E
:104710003080CDF82CA00A94DEF81C403B464A4677
:104720003146A44601B0BDE8F04F60470236E3D100
:104730000123AB71E0E75146584600F057FC0028D2
:10474000E0D0002085F8059001B0BDE8F08F00BFF3
:1047500070B582B00D46069C9442064609D0B068FA
:1047600006680694346A2946A44602B0BDE8704043
:10477000604719460192009300F038FC009B019AB3
:104780000028ECD0062002B070BD00BF2DE9F0413A
:1047900007460C4615461E4600F0E8FD08B1BDE888
:1047A000F081B86807682146BC6933462A46A446AA
:1047B000BDE8F041604700BF012810B51AD8BFF32B
:1047C0005F8FA1F1280353E8002F013A43E800204E
:1047D0000028F8D1BFF35F8F5AB951F81C3C01F1A2
:1047E00058040BB1204698472046BDE8104000F021
:1047F00097BC10BD51F8140C00F0B8FBF8B5044696
:104800000F46164600F0A0FB436801252B44436089
:1048100044F8787C44F8746C44F8805C00F0DAFB6F
:1048200044F8700C00F0CEFB472343224FF04E0EAD
:10483000104904F8583CA4F158052B2355270026AD
:1048400044F86C0C04F857EC44F8501C04F8552C50
:1048500004F8542C04F8533C04F8523C04F8567CF9
:1048600004F8516C284608F0A9FC2846FFF784FE9E
:1048700000F090FBB947000010B500F065FB4268FE
:104880000368013242606BB193F82020472A0BD0B5
:104890000022026003F12004204608F0B3FC204609
:1048A000FFF76AFE00F076FB93F821204E2AEFD145
:1048B00093F82220552AEBD193F82320432AE7D1FD
:1048C00093F82420432AE3D193F825202B2ADFD123
:1048D00093F826202B2ADBD193F82720012AD7D85A
:1048E0005A6952425A61D5E75028F8B554D000F0C1
:1048F0000F040C2C4ED8DFE804F007394907174D98
:104900004D4D4D1F1B071700154655F8044B44B17C
:1049100000F07006102E18BF0A461444020648BF65
:1049200024681C602846F8BD154655F8084BEEE78C
:10493000154635F9024BEAE700242746154615F8D7
:1049400001EB0EF07F06BE401EF0800F44EA060425
:1049500007F10707F3D11F2FD9D81EF0400FD6D08B
:104960004FF0FF3606FA07F73C43D1E7002427460D
:10497000154615F801EB0EF07F06BE401EF0800FC5
:1049800044EA060407F10707F3D1C0E7154635F8F6
:10499000024BBCE7FEF70AF9033222F0030555F893
:1049A000044B1C602846F8BDFF2815D008B500F060
:1049B0007003202B12D00AD9402B14D0502B17D0C3
:1049C000302B07D10846BDE8084008F0F7BD7BB1A1
:1049D000102B0DD0FEF7EAF8002070470846BDE81E
:1049E000084008F0E7BD0846BDE8084008F0D2BD21
:1049F000002008BDF8B50C4615460746002844D0EF
:104A000008F0C8FD28602678FF2E04F1010432D09A
:104A100039463046FFF7C8FF224601462B1D304677
:104A2000FFF762FF0446601C23782B75FF2B29D00B
:104A3000102300242B75224610F8011B01F07F0380
:104A40009340090644EA030402F10702F4D4044443
:104A5000EC6003786B7500240130224610F8011BCE
:104A600001F07F0393401C430B0602F10702F5D4CB
:104A700004442C61F8BD686023782B75FF2B04F18A
:104A80000100D5D10023EB60E3E7BBE72DE9F04F50
:104A900000F0030497B00023012C894690460A9346
:104AA00021D00ED3022C0AD14146484608F05EFDC3
:104AB000002800F0D480092017B0BDE8F08FFEF781
:104AC00075F800F0080000F0FF030028ECD116AAEA
:104AD000404642F82C1D194600920C2207F0F6FFC2
:104AE0000123049313E000F0080000F0FF04002805
:104AF00000F0B98016AA44F0020442F82C1DE4B27A
:104B0000009219460C224046049407F0DFFF40460D
:104B100008F046FD05900028C6D010AB1A4605994E
:104B200006934046FFF766FF414604469DF8540051
:104B3000FFF73AFF0DF13C0B0023129019460F22AC
:104B4000CDF800B0404607F09BFF0F9B149A23F06E
:104B50000103944203F1FF3643D20DF1340A0EAF44
:104B60009DF8555000212846FFF71EFF2246534668
:104B700001462846FFF7B8FE9DF85540054600213E
:104B80002046FFF711FF2A463B4601462046FFF725
:104B9000ABFE9DF85540054600212046FFF704FF77
:104BA0002A4601465B462046FFF79EFE044600204B
:104BB000024614F8011B01F07F0393400D0640EA02
:104BC000030002F10702F4D4109A0D9B13449E4295
:104BD00007D30E9A13449E42C0F0BA80149BA3429E
:104BE000BED8002503950124049BDB0756D4049B03
:104BF000190740F1A880012C00F09D810DF1340AC5
:104C00000EAF16A9002341F8289D1A460091404690
:104C1000194607F05BFF002319460122CDF800A0DA
:104C200040460D9507F052FF002319460F220097CA
:104C3000404607F025FF0E9B039A009703F00105FD
:104C400000231543404619460F220E9507F03EFFFC
:104C5000022C00F0F580072017B0BDE8F08F082087
:104C600017B0BDE8F08F10AB009306930D222346DA
:104C700021464046D9F8205007F002FF109B9D4284
:104C800024D016AA234642F82C9D21460092404685
:104C90000C2207F01BFF0223049338E70EAF00231A
:104CA00019460D22009740460A9C07F0E9FE059A36
:104CB0000E9BC9F82C20039AC9F82440C9F8285043
:104CC000C9F83020C9F820300620F5E616AA234698
:104CD00042F82C9D2146009240460C2207F0F6FE39
:104CE000D9F83030039383B3D9F82C30D9F8285051
:104CF000059303240DF1340A0EAF002D81DA069AD4
:104D000005994046FFF776FE41469DF85400FFF7AF
:104D10004BFEAA0082F00302D243139E1290B358B6
:104D2000164433B13246002352F8041F01330029E0
:104D3000FAD10422C9F82830C9F82C00C9F8346027
:104D4000C9F830205DE7012CD4D1484600F03CFD85
:104D50000F9B002B3FF4A8AE119A13440393002835
:104D600000F0D680149C01380444002B3FF49CAE24
:104D7000002C00F0D180049B13F00803099300F08D
:104D8000BD8047224E2389F8002089F80130552242
:104D9000432389F8022089F8033046224F2389F8FB
:104DA000042089F805305222002389F8062089F86A
:104DB000073000230793CDF8208000252A4614F8F9
:104DC000011B01F07F039340080645EA030502F149
:104DD0000702F4D41F2A05D8490603D501239340BE
:104DE0005B421D4300263246204610F8011B01F0AD
:104DF0007F0393401E430B0602F10702F5D41F2ADE
:104E000005D8480603D5012393405B421E43002D7D
:104E10003DD03FDD9DF85400FF286DD000F0070322
:104E2000042B3FF64CAE01A252F823F0734E000063
:104E3000BF4A00006D4E0000734E00004B4E000054
:104E4000484600F0EFF9072036E6EB005B42139A84
:104E500012991A443B46FFF747FD0E9999B1B9F1F3
:104E6000000F09D1002E5ED03444A6E76B005B42F0
:104E7000EDE7AB005B42EAE70AAB0022484600F0F0
:104E800079F90028EED0DDF820800324ACE6012378
:104E90000793E7E7B9F1000F01D0099B93B16B1CB1
:104EA000C3EB8373139A52F82330002BDAD1049B9F
:104EB000DDF82080DA073FF5F2AE099B002B3CD0ED
:104EC00000F076F805F10108C8EB8873139A0A9888
:104ED00052F823100F9002EB830821B9E7E758F846
:104EE000041F0029E3D041445B460022484600F0FD
:104EF00041F90028F3D0B5E70023A8E799F8073077
:104F0000012B0CBF59F8203C09F158030A9350E7D4
:104F1000039B002B3FF4C8AD049B13F001057FF405
:104F2000C3AD022463E6079BDDF82080002BF3D19C
:104F3000BAE5FFF721FB00F02DF80324DDE600BF02
:104F400000487047A016FF1F00487047A016FF1FBB
:104F5000704700BF704700BF004870470C38010021
:104F600010B50446FEF7D2FF204610BD08B58047B5
:104F7000FDF71CFEFFF700FBFDF718FE0D4604468B
:104F8000FFF740FB013501D000F0EEF8204600F0BD
:104F90002BFC00BF08B5034B1868BFF35F8FFFF70A
:104FA000E5FF00BF8808FF1F08B58047FFF7F2FF45
:104FB00008B5034B1868BFF35F8FFFF7F5FF00BF1D
:104FC0008C08FF1F024B1868BFF35F8F704700BF4C
:104FD0008808FF1F024B1868BFF35F8F704700BF40
:104FE0008C08FF1F704700BF00207047814211D01E
:104FF00008B5406803782A2B0AD049680B782A2B19
:1050000008BF013109F080FCB0FA80F0400908BD0A
:10501000002008BD01207047F0B41B4C50F8087CFC
:105020006168A0F10806C9B1F519A9421BD04A6808
:105030002AB3954203D322E09D4205D21A46536813
:105040000C1D1146002BF7D111685518AE4213D034
:1050500040F8043C23685E60F0BC704740F8041CD4
:105060006660F0BC70470B684A6840F8042C1F4427
:1050700040F8087C6660EFE739441160ECE71346BE
:1050800004340A46E0E700BFAC16FF1F30B4174CEB
:1050900000F10803072B636886BF00F10F0121F0C0
:1050A00007010821EBB11A68914204D81BE002689D
:1050B0008A4205D2034658680028F8D130BC7047B0
:1050C0000433521A072A09D94418456865604250CA
:1050D000186801601C60083030BC704742681A6074
:1050E000F9E71846EAE71846231DEAE7AC16FF1F62
:1050F00038B500F18005284608F052FD044638B165
:1051000080220021204609F011F904F1800038BD09
:105110002846FFF7BBFF04460028F1D1FFF73AFF0E
:10512000064A93688038984205D9D2681344984259
:1051300001D2FFF771BF08F03BBD00BFAC16FF1FE7
:1051400038B5084C4FF41E652846E56008F028FD88
:10515000A06020B1002360600560436038BDE0605E
:10516000606038BDAC16FF1F1EB400F08DF81EBC89
:1051700008F036F8F0B50278472A83B00E461F468D
:105180001AD00023254C0193236820469B6898473A
:1051900080B1019B1B68019302253368214630468C
:1051A0001C6901AA0123A04710B1019B3B6028465E
:1051B00003B0F0BD0125F0E743784E2BE1D18378B1
:1051C000552BDED1C378432B19D0C378432BD8D1CC
:1051D0000379432BD5D143792B2BD2D183792B2B38
:1051E000CFD1C379012BCCD804D050F8204C583003
:1051F0000190C9E750F8200C50F8784CF8E7037993
:10520000462BE2D143794F2BDFD18379522BDCD16E
:10521000C379002BD9D10193014CB5E720380100A7
:10522000C837010010B50446FFF78EFE2378472BE0
:10523000A4F1200204D0836823BB8260012010BD4A
:1052400063784E2BF7D1A378552BF4D1E378432B19
:10525000F1D12379432BEED163792B2BEBD1A379B9
:105260002B2BE8D1E379012BE5D854F8043C01332A
:10527000012B44F8043CE1D1836844F8083C826087
:10528000012010BDFFF786FE08B5FFF75DFE8368BD
:1052900083B393F82020472A04D00022826003F1D0
:1052A000200008BD93F821204E2AF6D193F8222041
:1052B000552AF2D193F82320432AEED193F82420E3
:1052C000432AEAD193F825202B2AE6D193F8262009
:1052D0002B2AE2D193F82720012ADED8DA69013A95
:1052E000DA61002ADBD19A69826000229A6103F1B7
:1052F000200008BDFFF74EFE70B5036884B000249F
:105300009E69009410231546029312688DF804409C
:105310006B460394B0479DF8043003F00603062B58
:1053200003BF009B2B600120204604B070BD00BF6E
:10533000009890420CBF06200120704710B5034B27
:1053400003600446FFF74EFE204610BD8C38010076
:1053500010B5054B03600446FFF744FE2046FEF7F8
:10536000D5FD204610BD00BF8C38010038B515466C
:105370001C46FFF73BFE20B1082206232560E260B1
:10538000237138BDF0B583B01746089D0A990B9C70
:105390008D4206460BD019463046FFF727FE18B15E
:1053A000012325602771A371002003B0F0BD099986
:1053B0000193FFF71BFE18B10020677103B0F0BD29
:1053C000019BE8E72DE9F04117461C4606460D46CD
:1053D000FFF70CFE08B9032C01D9BDE8F0812B685A
:1053E0003A46314628465B69BDE8F041184700BFA0
:1053F0004068704710B543680C4A0D490160044687
:10540000A3F10C00904282B005D12046FFF7A0FD29
:10541000204602B010BD53F8042C511E002A43F858
:10542000041CF2DC01A9FEF7A9FFEEE79016FF1FAE
:105430000439010010B50446FFF7DCFF2046FEF7F3
:1054400065FD204610BD00BF10B5034B0360044648
:10545000FFF7D0FF204610BD3839010010B5054BCD
:1054600003600446FFF7C6FF2046FEF74FFD2046C7
:1054700010BD00BF38390100004870476439010091
:1054800010B5034B03600446FFF762FD204610BDD4
:105490005839010010B5054B03600446FFF758FD6D
:1054A0002046FEF733FD204610BD00BF58390100ED
:1054B000184B1A68D1075CBF01221A60164B1A6894
:1054C000D2075CBF01221A60144B1A68D0075CBF78
:1054D00001221A60124B1A68D1075CBF01221A60C0
:1054E000104B1A68D2075CBF01221A600E4B1A6873
:1054F000D0075CBF01221A600C4B1A68D1075CBF51
:1055000001221A600A4B1A68D2075CBF01221A6096
:10551000704700BFD816FF1FD416FF1FD016FF1FFD
:10552000CC16FF1FC816FF1FC416FF1FC016FF1F93
:10553000BC16FF1F244B1A68D0075CBF01221A60FB
:10554000224B1A68D1075CBF01221A60204B1A68EF
:10555000D2075CBF01221A601E4B1A68D0075CBFDD
:1055600001221A601C4B1A68D1075CBF01221A6025
:105570001A4B1A68D2075CBF01221A60184B1A68CE
:10558000D0075CBF01221A60164B1A68D1075CBFB6
:1055900001221A60144B1A68D2075CBF01221A60FC
:1055A000124B1A68D0075CBF01221A60104B1A68B0
:1055B000D1075CBF01221A600E4B1A68D2075CBF8C
:1055C00001221A60704700BF0817FF1F0417FF1F52
:1055D0000017FF1FFC16FF1FF816FF1FF416FF1F12
:1055E000F016FF1FEC16FF1FE816FF1FE416FF1F43
:1055F000E016FF1FDC16FF1F244B1A68D0075CBFA4
:1056000001221A60224B1A68D1075CBF01221A607E
:10561000204B1A68D2075CBF01221A601E4B1A6821
:10562000D0075CBF01221A601C4B1A68D1075CBF0F
:1056300001221A601A4B1A68D2075CBF01221A6055
:10564000184B1A68D0075CBF01221A60164B1A6803
:10565000D1075CBF01221A60144B1A68D2075CBFE5
:1056600001221A60124B1A68D0075CBF01221A602F
:10567000104B1A68D1075CBF01221A600E4B1A68E2
:10568000D2075CBF01221A60704700BF3817FF1FA6
:105690003417FF1F3017FF1F2C17FF1F2817FF1F7E
:1056A0002417FF1F2017FF1F1C17FF1F1817FF1FAE
:1056B0001417FF1F1017FF1F0C17FF1F184B1A6836
:1056C000D1075CBF01221A60164B1A68D2075CBF73
:1056D00001221A60144B1A68D0075CBF01221A60BD
:1056E000124B1A68D1075CBF01221A60104B1A686E
:1056F000D2075CBF01221A600E4B1A68D0075CBF4C
:1057000001221A600C4B1A68D1075CBF01221A6093
:105710000A4B1A68D2075CBF01221A60704700BFAB
:105720005817FF1F5417FF1F5017FF1F4C17FF1F5D
:105730004817FF1F4417FF1F4017FF1F3C17FF1F8D
:105740000868B0F1004F08B51BD290420ED9520044
:1057500090420BD2B2F1004F0DD36FF000430B60BB
:105760004FF00040BDE80840FEF7CEBB0130BDE879
:105770000840FEF7C9BB0A60501CBDE80840FEF7B0
:10578000C3BB0148FEF756FD903901000378472B53
:1057900001D00020704743784E2BFAD18378552BE7
:1057A000F7D1C378432BF4D10379432BF1D143795B
:1057B0002B2BEED183792B2BEBD1C07901288CBF19
:1057C00000200120704700BF10B530B10446FEF73D
:1057D000D3FE2046FFF7DAFF08B9FFF7DBFB54F8EA
:1057E000140CFFF7C3FB00BF2DE9F04F85B0024654
:1057F000FFF7CCFF60B152F8188C52F8145C966A2F
:10580000176B546B1046FEF7B7FE4046FFF7CCFB14
:105810001046FEF7B1FEFFF7CBFBFEF7ADFEFFF73C
:10582000B9FBFEF7A9FEFFF78BFBD0F8008098F8D4
:105830002730012B38D008F178030DF1100A4FF012
:1058400000094AF8083D27F003030093CB46B3450F
:105850001EDA276807B1274453460022394608F16B
:105860002000FFF787FC28BB3B6816491B690193A2
:1058700004AA012342F8040D3846019FB847009B53
:10588000002818BF4FF001090BF1010B1C44DEE7A3
:10589000B9F1000F0BD00420FFF72AFC0A4B03607C
:1058A0000A4A0849FEF7AAFFD8F80030C5E728469B
:1058B000FFF75CFBFEF7E0FFFEF7A4FEFEF7A2FE9B
:1058C000FFF752FC6038010030380100554F0000EE
:1058D00070B53D4B1A7882B0002A36D101241C7075
:1058E00006F002F900285CD04068384D03782A2B76
:1058F00002AB4FF0FF320CBF0419044643F8042DED
:1059000000221146204606F07FF82B680646DB6829
:105910002F483022012108F073F8019B7BB12B68DE
:105920002046D96807F09CFE2B682A48DB680222D3
:10593000012108F065F8019B8BB1FEF79DFF2B68F4
:105940003046D96807F08CFEEEE7204B22481B68F2
:105950001D22DB68012108F053F8FDF727F93046D6
:1059600008F026F9E9E701290C4627D1FEF704FEE5
:1059700003689B6898472B680646DB6817482146F2
:105980000B2208F03DF82B683046D96807F068FE16
:105990002B680A20D96807F027FEFEF733FEFDF7D3
:1059A00005F90A4B0E481B682146DB682D2208F0DA
:1059B00027F8F4E7FEF726FEFFF7D6FBFEF7DCFD3F
:1059C000FEF720FEEBE700BF5C17FF1FB80CFF1FC0
:1059D000F4390100283A0100D43901005C3A010091
:1059E0002C3A010070B44C1E4B2C2CD8DFE804F08C
:1059F0003C3C3C3C2B2B2B2B26263C2626262626C5
:105A0000262626262626262B272727272727272729
:105A10003C26262626262B26273D3C2B3C27273DA9
:105A20002B2B2626263C3C3C3C3C263C3C263C2B57
:105A30002B2626262B2B2B2626263C3CCAB1446936
:105A40008569AC4202DB002070BC704704EB440562
:105A500006690134AD00446174190CD0715562605F
:105A6000A360204670BC70471AB1002BE7D11846DE
:105A7000EAE71046E8E72046E6E700BF2DE9F047F1
:105A8000C368B2F1000A04460F461A7815BF4FF0FA
:105A90001C084FF019084FF01D094FF01A0914BFE8
:105AA0001E261B260D4612E0562A1BD04B2A22D159
:105AB000236BE16006332363314600231A462046F8
:105AC000FFF790FF2860A0B1E3681A78051D722ADD
:105AD00003F10101E8D1226B01330932E360226353
