:0200000460009A
:100000004643464200000156000000000101020084
:1000100000000000000000000000000000000000E0
:1000200000000000000000000000000000000000D0
:1000300000000000000000000000000000000000C0
:1000400000000000010403000000000000000000A8
:100050000000800000000000000000000000000020
:100060000000000000000000000000000000000090
:100070000000000000000000000000000000000080
:10008000EB04180A063204260000000000000000FD
:10009000050404240000000000000000000000002F
:1000A0000000000000000000000000000000000050
:1000B0000604000000000000000000000000000036
:1000C0000000000000000000000000000000000030
:1000D00020041808000000000000000000000000DC
:1000E0000000000000000000000000000000000010
:1000F0000000000000000000000000000000000000
:10010000D8041808000000000000000000000000F3
:100110000204180804200000000000000000000095
:1001200000000000000000000000000000000000CF
:10013000600400000000000000000000000000005B
:1001400000000000000000000000000000000000AF
:10015000000000000000000000000000000000009F
:10016000000000000000000000000000000000008F
:10017000000000000000000000000000000000007F
:10018000000000000000000000000000000000006F
:10019000000000000000000000000000000000005F
:1001A000000000000000000000000000000000004F
:1001B000000000000000000000000000000000003F
:1001C000000100000010000001000000000000001D
:1001D000000001000000000000000000000000001E
:1001E000000000000000000000000000000000000F
:1001F00000000000000000000000000000000000FF
:10020000FFFFFFFFFFFFFFFFFFFFFFFFFFFFFFFFFE
:10021000FFFFFFFFFFFFFFFFFFFFFFFFFFFFFFFFEE
:10100000D10020402C100060000000000000000013
:1010100020100060001000600000000000000000D0
:101020000000006098810100000000000000012025
:1010300035100060774B4FF42A01774A77485A649D
:101040001864774A99639546764A03F530337649B2
:1010500008208A42C3F854010FD0744B9A420CD234
:10106000D4430846234423F0030304330B4450F8CD
:10107000041B984242F8041BF9D16D4A6D498A421B
:101080000FD06D4B9A420CD2D4430846234423F030
:10109000030304330B4450F8041B984242F8041B2A
:1010A000F9D1664A664B9A420BD2D04311460024CE
:1010B000034423F003030433134441F8044B8B42ED
:1010C000FBD1604A4FF470015F4B116003F5307142
:1010D0005E4A43F8042F9942FBD15D4B80215D4A63
:1010E00003F8011B9342FBD15B4C4FF080375B4E02
:1010F0004FF0FF32DFF8A4A10025DFF8A491DFF85C
:10110000A481574B4349C3F800A0C4F80471C4F844
:101110000091C4F8F470C4F8F080F36923F07F0301
:1011200043F04003F361736A23F07F0343F040030D
:1011300073628A66CA660A674A6700F02BF9494AF1
:101140006320494B4949106003221D60CAF83810DA
:1011500043F8082C4649474A4748C3F8082D0B680E
:10116000464A43F08073CAF83C0045480B60136858
:10117000444943F00103136003680B6000F044FB33
:10118000C4F804714048C4F80091C4F8F470C4F87D
:10119000F08000F0B1FC00BF00BF00BF00BFF16EE7
:1011A0003A4A41F440513A4BF1661560C2F8085191
:1011B000C2F81851C2F82851C2F838519A6BD207B8
:1011C00008D442F61562334959651A659A6B42F0A4
:1011D00001029A632E4A304C936843F001139360E6
:1011E00000F054F900F07CFC2368132BFCD900F0CC
:1011F0005BF800F0C9FB00F07BFC00F037FB00F06F
:101200005BFC2368B3F5967FFBD300F059FC00F03C
:101210005BFCFEE700C00A40BFAAAAAA07002000A4
:101220000080062000000000401B00609832010092
:10123000000000205C4F0160C0330020C03300205C
:101240000047002088ED00E0FC430020D94A000060
:1012500000E400E0A0E400E000800D4000C00F408A
:1012600008ED00E014E000E018E000E05950000054
:10127000FCED00E000002020C5500000001000E060
:10128000041000E0DC3800200046C3230040084082
:1012900000400D400000C056E4380020004400200B
:1012A0001B1018200C0D1113304B40F6617270B5F5
:1012B000C3F8202140F2044500F00EFC2C492D48D3
:1012C000D1F880202C4C42F003022C4BC1F8802036
:1012D000C0F86051226813401BB9D0F8A8319A07B2
:1012E0001AD0244B4FF00041234A51631A46D3F8D9
:1012F000401141F00201C3F84011D2F840319B0780
:10130000FBD44FF400301E491B4B4FF000420860E5
:1013100019209A6300F0E8FB1A4D0022164B4FF09B
:101320008041144C0A26996328461A601146C4F875
:10133000A8614FF4207200F0CBFB4FF481064FF40C
:10134000800040F24313104A10492E602864C4F80C
:101350005851C2F80412C4F848310D4A4FF4003114
:1013600001231160C4F8403170BD00BF00800D4002
:1013700000C00F4000002E4000900D40001C1E00D9
:101380008CE200E00040002000440020FD4100000D
:101390000CE100E0F0B5284A0020284B4FF0100C7B
:1013A000274C1127DFF8D8E0122620600125C2F86B
:1013B00000C0C3F800E01760DFF8C8E0214FC3F8B1
:1013C00000E016601F60204E204F166020491F600D
:1013D000204E41F01501204F16601F6007F5403781
:1013E0001E4E116002371E60DFF89CE01C4E1D4946
:1013F000C2F800E01F6016601B4F19601B4E1C49AD
:1014000017601E601B4F11601B4E1C491F60166049
:1014100019602560BFF34F8FBFF36F8FC3F8B00122
:10142000BFF34F8FBFF36F8F52F8883C43F44033C4
:1014300042F8883CF0BD00BF9CED00E0A0ED00E06C
:1014400094ED00E0090010001300200021000207C5
:101450000047002014000020250008130900001098
:101460001700004033001013180000602F000B0716
:101470001900007037000B171A0000702F000B13B3
:101480003F0000102500080316002020F0B5B84BDF
:101490001822B84E0120B84948F20C7EB74D4FF0E3
:1014A000FF37B74CC3F85C12C3F860520025C3F88D
:1014B0006412C3F868424FF40054C3F86C62B14937
:1014C000C3F87062C3F87462C3F87862AE4EDA662D
:1014D0001A675A679A67DA67C3F88020C3F88420CE
:1014E000C3F8882040F20562C1F82C03C1F830032C
:1014F000C1F83403C1F83803C1F83C03C1F8500304
:101500002946B369A1481840A14B0343A148B361E0
:10151000D6F8843043F00C03C6F884300226036802
:1015200033430360036803EA0E0E9B4B4EEA03034A
:10153000DFF89CE20360994B4760DEF808703B409F
:10154000974F43F000538360C36823F07803C36070
:10155000036A1F40934B3B43914F0362036A1F4052
:10156000904B3B43904F43628762C762DEF8B830CE
:101570008E4F23F03F0343F00103C0F8B830DEF88C
:10158000BC30DFF834E223F03F0343F00103C0F83E
:10159000BC30056104660767C0F880204466476771
:1015A000C0F884200468824B24F00204814A04605D
:1015B000C0F818E0C66143F8041B9342FBD1754B99
:1015C0001A68194642F001021A600B68714A13F05A
:1015D0000103FAD1784E022540F2F56440F26640EC
:1015E00040F29941754F966142F20146D56140F251
:1015F0003545C2F8004242F20124C2F8100201202F
:10160000C2F820121146C2F8307207F15A47C2F8E8
:10161000346207F51377C2F84052694E694DC2F83B
:101620005072C2F85462C2F86052C2F86442C2F802
:10163000A030C2F8A430C2F8B0004B69554ADD07AB
:10164000FBD5012300244FF4803011465361C2F8CA
:10165000A040C2F8A400C2F8B0304B694D4ADC0784
:10166000FBD5012300244FF4003011465361C2F82A
:10167000A040C2F8A400C2F8B0304B69454AD80770
:10168000FBD501230024504811465361C2F8A04005
:10169000C2F8A400C2F8B0304B693E4ADB07FBD564
:1016A000D2F8003145F60D5121209BB250618B429A
:1016B00000D0F0BD00244FF4802001231146C2F871
:1016C000A040C2F8A400C2F8B0304B69314ADF072D
:1016D000FBD501234FF40004002011465361C2F8EA
:1016E000A040C2F8A400C2F8B0304B69294ADE0716
:1016F000FBD501234FF400044FF4803011465361B1
:10170000C2F8A040C2F8A400C2F8B0304B69214A28
:10171000DD07FBD501234FF400044FF400301146E0
:101720005361C2F8A040C2F8A400C2F8B0304B69BF
:10173000184ADC07FBD501234FF400042248114668
:101740005361C2F8A040C2F8A400C2F8B0304B699F
:10175000104AD807FBD5D2F8003145F60D512120AB
:101760009BB250618B4235D0184B08221A70F0BDE5
:1017700000801F40F9700100F9B00100F91001006C
:10178000F900010000841F4000C00F40FFFCFF1F54
:10179000000300A000402A401200FFFFFF37F700BF
:1017A00000FFF07C40000080FF000F836300020018
:1017B00000422A4000432A40F05AF05A9F04183051
:1017C000063201263806180A04000300E838002013
:1017D00000802A404FF400044FF48020012311467A
:1017E000C2F8A040C2F8A400C2F8B0304B69044A65
:1017F000DB07FBD50120034B102150611970F0BDB0
:1018000000402A40E8380020F0B4174A40274FF43F
:1018100080314FF480564FF400554FF4404443F26A
:101820004200136913F0020F06D094615161906178
:10183000136913F0020FF8D113F4005F01D1556161
:10184000EFE713F4805F01D15661EAE7002BE8DA95
:1018500013F4803F01D09161E3E75B0601D4576147
:10186000DFE7F0BC704700BF00800D403B4AF3EE5D
:10187000096A3B4900201368F0B523F001030324F3
:10188000DFF800E11360C2F89040D1F8E030354F46
:10189000DDB2C3F30B24344EC4EB135307EE905A5E
:1018A000A5F15501CEF80050B8EEE77A03EB8305B9
:1018B00007EE904A03FB01F13B6003EB8313B8EEA4
:1018C000E75A07EE901A491B77EE666AB8EE677A18
:1018D000264D07EE901A0B44C5ED006AF8EE677AC4
:1018E0003460C7EE265A224E15682249224C87EEF4
:1018F000A66A07EE903A214BC6F84031F8EE677AB7
:1019000087EEA67A75EE855A76EE056AFCEEE55A04
:10191000FCEEE66A15EE903A45EA035316EE905A4D
:1019200077EE057A136001EA0541D2F81031FCEE3A
:10193000E77A0B43C2F8103117EE903AD2F8101143
:10194000C3F30B030B43C2F81031136843F00203D7
:10195000136020700A4B01221A60F0BD80810D4097
:1019600000441F40F4380020F8380020F0380020F0
:10197000004400200000FF0F40E400E02D4C000078
:1019800008E100E0EC380020114B1249D86E0A46FD
:1019900040F4403030B4D86640F23765D86EA024A9
:1019A00040F44070D8664D648C64936C1B06FCD484
:1019B000094B40F23760A0211A4658649964936C31
:1019C00013F08003FBD1054A137030BC704700BF91
:1019D00000C00F4000400C4000800C401039002037
:1019E00016035500530042002000530065007200AA
:1019F000690061006C000000180354006500650078
:101A00006E00730079006400750069006E006F005D
:101A10000403090409024300020100C03209040062
:101A2000000102020100052400100105240101014A
:101A30000424020605240600010705820310001095
:101A400009040100020A000000070503024000002B
:101A5000070584024000000009024300020100C0A3
:101A600032090400000102020100052400100105F2
:101A70002401010104240206052406000107058251
:101A80000310000509040100020A00000007050315
:101A90000200020007058402000200000A0600029C
:101AA000020000400100FFFFF8B500BFF8BC08BC11
:101AB0009E467047FFFFFFFF5FF800F0F54A000009
:101AC0005FF800F089E200005FF800F05D5100006F
:101AD0005FF800F09DEB00005FF800F0814A000025
:101AE0005FF800F0F14A00005FF800F0B54900002F
:101AF0005FF800F0D14C00005FF800F0F13D00000D
:101B000045000000790E000039190000952D0000F5
:101B1000D1300000013500009936000081560000E8
:101B200079620000E96500006D6600003167000021
:101B3000F5670000FFFFFFFFFFFFFFFFFFFFFFFF55
:101B40000000000000000000000000000000000095
:101B50000000000000000000000000000000000085
:101B600010B5054C237833B9044B13B10448AFF3D7
:101B700000800123237010BDC0330020000000004E
:101B800054300100084B10B51BB108490848AFF3A9
:101B900000800848036803B910BD074B002BFBD039
:101BA000BDE81040184700BF00000000C43300200B
:101BB00054300100C033002000000000012A06D08C
:101BC000022A02D108B10B6803600020704701604F
:101BD00000207047012A06D0022A02D108B10B6802
:101BE000036000207047016000207047012A06D082
:101BF000022A02D108B10B6803600020704701601F
:101C000000207047012A06D0022A02D108B10B68D1
:101C1000036000207047016000207047012A06D051
:101C2000022A02D108B10B680360002070470160EE
:101C300000207047012A06D0022A02D108B10B68A1
:101C4000036000207047016000207047012A06D021
:101C5000022A02D108B10B680360002070470160BE
:101C600000207047012A06D0022A02D108B10B6871
:101C7000036000207047016000207047012A06D0F1
:101C8000022A02D108B10B6803600020704701608E
:101C900000207047012A06D0022A02D108B10B6841
:101CA000036000207047016000207047012A06D0C1
:101CB000022A02D108B10B6803600020704701605E
:101CC00000207047012A06D0022A02D108B10B6811
:101CD000036000207047016000207047012A06D091
:101CE000022A02D108B10B6803600020704701602E
:101CF00000207047012A06D0022A02D108B10B68E1
:101D0000036000207047016000207047012A06D060
:101D1000022A02D108B10B680360002070470160FD
:101D200000207047012A06D0022A02D108B10B68B0
:101D3000036000207047016000207047012A08BF3F
:101D400001600020704700BF012A06D0022A02D19C
:101D500008B10B68036000207047016000207047E5
:101D6000012A06D0022A02D108B10B6803600020C4
:101D70007047016000207047012A06D0022A02D174
:101D800008B10B68036000207047016000207047B5
:101D90000A680248024904F071BF00BFF029002020
:101DA000000000200B78022BF0B5046887B025D026
:101DB0000E2B0FD043B11121234803F037FD2348E8
:101DC00004F044FF07B0F0BD6169206801F056F8E7
:101DD00007B0F0BD1E4A1F4B106819688842F1D940
:101DE00012682068C8321A6001F082F858B123687E
:101DF00019491A68154804F041FFE3E7206801F02B
:101E00005FF807B0F0BD02AD0490231D0294134E9D
:101E1000134F059695E803008DE8030093E803004F
:101E200085E803009DE8030083E80300E368226976
:101E3000E760266104930592002BD8D0032229463F
:101E400028469847D3E700BF1C000020F029002057
:101E5000E4380020DC3300201400002025030000BB
:101E6000390200000B78F0B5046887B00E2B62D8F9
:101E7000DFE803F008616132393D454D52575C613E
:101E80002D612B006169206800F0F8FF02AB002192
:101E9000221D029404912C4E2C4F059693E80300CA
:101EA0008DE8030092E8030083E803009DE8030047
:101EB00082E80300E5682269E760266104950592DF
:101EC0001DB1032219461846A84707B0F0BD206887
:101ED0001F4901F07DFAF8E723681E491A681C487B
:101EE00004F0CCFEF1E7236862691A60EDE794ED37
:101EF000050A2068B8EEC00A01F068F8E5E794ED3D
:101F0000050A2068B8EEC00A01F066F8DDE76169ED
:101F1000206801F051FAD8E76169206801F050FAB1
:101F2000D3E76169206801F04FFACEE76169206864
:101F300000F0E0FFC9E71121074803F077FC0448EF
:101F400004F084FEC1E700BF65020000210200002A
:101F5000F0290020140000201C0000200B78F0B5B0
:101F6000046887B00E2B62D8DFE803F008616132A5
:101F7000393D454D52575C612D612B0061692068E8
:101F800000F07CFF02AB0021221D029404912C4E34
:101F90002C4F059693E803008DE8030092E80300B8
:101FA00083E803009DE8030082E80300E5682269F6
:101FB000E7602661049505921DB103221946184673
:101FC000A84707B0F0BD20681F4901F001FAF8E703
:101FD00023681E491A681C4804F050FEF1E7236884
:101FE00062691A60EDE794ED050A2068B8EEC00A50
:101FF00000F0ECFFE5E794ED050A2068B8EEC00AB2
:1020000000F0EAFFDDE76169206801F0D5F9D8E763
:102010006169206801F0D4F9D3E76169206801F0B3
:10202000D3F9CEE76169206800F064FFC9E71121A8
:10203000074803F0FBFB044804F008FEC1E700BFBB
:102040006502000021020000F02900201400002099
:102050001C00002030B583B0054600F0D1FDB8B1BA
:102060000DF086FC044622460A490B4804F006FEA1
:10207000D5F870020022C36844618DF8072033B19F
:1020800003690DF107010430984703B030BDFEE746
:102090000446E8E730000020F02900200068FFF740
:1020A000D9BF00BF30B583B0054600F0A9FDD0B15F
:1020B0000DF05EFC044622460C490D4804F0DEFD9E
:1020C000D5F8700200210268C36812688DF8071005
:1020D0001444446133B103690DF10701043098479A
:1020E00003B030BDFEE70446E5E700BF3C0000203A
:1020F000F02900200068FFF7D5BF00BF10B50446E7
:1021000082B00B490B4804F0B9FDD4F870026FF0AF
:1021100000410022C36841618DF8072033B1036993
:102120000DF107010430984702B010BDFEE700BF73
:1021300048000020F02900200068FFF7DFBF00BF43
:1021400010B5044682B00B490B4804F097FDD4F853
:1021500070024FF000410022C36841618DF80720F2
:1021600033B103690DF107010430984702B010BD87
:10217000FEE700BF50000020F02900200068FFF7B4
:10218000DFBF00BF10B5044682B00949094804F01A
:1021900075FDD4F870020222C3688DF8072033B1B0
:1021A00003690DF107010430984702B010BDFEE746
:1021B00058000020F02900200068FFF7E3BF00BFAF
:1021C00010B5044682B00949094804F057FDD4F817
:1021D00070020322C3688DF8072033B103690DF143
:1021E00007010430984702B010BDFEE760000020F0
:1021F000F02900200068FFF7E3BF00BF30B583B0CF
:10220000054600F0FDFCB8B10DF0B2FB04462246D5
:102210000A490B4804F032FDD5F870020422C36865
:1022200044618DF8072033B103690DF107010430D3
:10223000984703B030BDFEE70446E8E76C00002095
:10224000F02900200068FFF7D9BF00BF30B583B088
:10225000054600F0D5FCB8B10DF08AFB04462246D5
:102260000A490B4804F00AFDD5F870020522C3683C
:1022700044618DF8072033B103690DF10701043083
:10228000984703B030BDFEE70446E8E77C00002035
:10229000F02900200068FFF7D9BF00BF30B583B038
:1022A000054600F0ADFCB8B10DF062FB04462246D5
:1022B0000A490B4804F0E2FCD5F870020622C36814
:1022C00044618DF8072033B103690DF10701043033
:1022D000984703B030BDFEE70446E8E788000020D9
:1022E000F02900200068FFF7D9BF00BF30B583B0E8
:1022F000054600F085FCB8B10DF03AFB04462246D5
:102300000A490B4804F0BAFCD5F870020722C368EA
:1023100044618DF8072033B103690DF107010430E2
:10232000984703B030BDFEE70446E8E7940000207C
:10233000F02900200068FFF7D9BF00BF30B583B097
:10234000054600F05DFCB8B10DF012FB04462246D4
:102350000A490B4804F092FCD5F870020822C368C1
:1023600044618DF8072033B103690DF10701043092
:10237000984703B030BDFEE70446E8E7A40000201C
:10238000F02900200068FFF7D9BF00BF30B583B047
:10239000054600F035FCB8B10DF0EAFA04462246D5
:1023A0000A490B4804F06AFCD5F870020922C36898
:1023B00044618DF8072033B103690DF10701043042
:1023C000984703B030BDFEE70446E8E7B0000020C0
:1023D000F02900200068FFF7D9BF00BF30B583B0F7
:1023E000054600F00DFCD0B10DF0C2FA80EAE074B1
:1023F000A4EBE07422460B490B4804F03FFCD5F8EF
:1024000070020A22C36844618DF8072033B1036962
:102410000DF107010430984703B030BDFEE70446D4
:10242000E8E700BFBC000020F02900200068FFF7AB
:10243000D5BF00BF10B5044682B00949094804F071
:102440001DFCD4F870020C22C3688DF8072033B14C
:1024500003690DF107010430984702B010BDFEE793
:10246000CC000020F02900200068FFF7E3BF00BF88
:1024700010B5374C0621374803F0D8F9204604F050
:10248000E5FB2621344803F0D1F9204604F0DEFBB9
:102490002621324803F0CAF9204604F0D7FB2A214E
:1024A0002F4803F0C3F9204604F0D0FB2D212D481E
:1024B00003F0BCF9204604F0C9FB34212A4803F09C
:1024C000B5F9204604F0C2FB2221284803F0AEF9FA
:1024D000204604F0BBFB4821254803F0A7F920461D
:1024E00004F0B4FB3721234803F0A0F9204604F0A0
:1024F000ADFB4421204803F099F9204604F0A6FBE7
:102500002E211E4803F092F9204604F09FFB522131
:102510001B4803F08BF9204604F098FB4C21194826
:1025200003F084F9204604F091FB4D21164803F096
:102530007DF9204604F08AFB1B21144803F076F94C
:10254000204604F083FB2046BDE8104004F07EBB2B
:10255000F0290020D8000020E00000200801002021
:10256000300100205C0100208C010020C40100200B
:10257000E8010020340200206C020020B402002098
:10258000E40200203803002088030020D803002044
:10259000F0B587B0994B9A4E054602AC9949049321
:1025A00022460290059600F055FA049B1BB10322C7
:1025B000214620469847944B2246944E28469449FB
:1025C00004930295059600F045FA049B1BB1032283
:1025D0002146204698478F4B22468F4E28468F49EA
:1025E00004930295059600F035FA049B1BB1032273
:1025F0002146204698478A4B22468A4E28468A49D9
:1026000004930295059600F025FA049B1BB1032262
:10261000214620469847854B2246854E28468549C7
:1026200004930295059600F015FA049B1BB1032252
:10263000214620469847804B2246804E28468049B6
:1026400004930295059600F005FA049B1BB1032242
:102650002146204698477B4B22467B4E28467B49A5
:1026600004930295059600F0F5F9049B1BB1032233
:10267000214620469847764B2246764E2846764994
:1026800004930295059600F0E5F9049B1BB1032223
:10269000214620469847714B2246714E2846714983
:1026A00004930295059600F0D5F9049B1BB1032213
:1026B0002146204698476C4B22466C4E28466C4972
:1026C00004930295059600F0C5F9049B1BB1032203
:1026D000214620469847674B2246674E2846674961
:1026E00004930295059600F0B5F9049B1BB10322F3
:1026F000214620469847624B2246624E2846624950
:1027000004930295059600F0A5F9049B1BB10322E2
:102710002146204698475D4B22465D4E28465D493E
:1027200004930295059600F095F9049B1BB10322D2
:10273000214620469847584B2246584E284658492D
:1027400004930295059600F085F9049B1BB10322C2
:10275000214620469847534B2246534E284653491C
:1027600004930295059600F075F9049B1BB10322B2
:102770002146204698474E4B22464E4E28464E490B
:1027800004930295059600F065F9049B1BB10322A2
:10279000214620469847494B2146494A28460493FA
:1027A000059200F093F9049B1BB1032221462046B9
:1027B00098472846434EFFF75BFED5F8705200213C
:1027C000059602952B1D04913F4F94E803008DE878
:1027D000030093E8030084E803009DE8030083E816
:1027E0000300EB6804932A69EF6005922E61002BC9
:1027F0006CD0032221462046984767E07D00000008
:102800005D050000F403002095000000B505000000
:10281000F8030020AD000000F9050000FC030020D3
:10282000C50000003D060000C8220020DD000000B9
:102830007906000000040020F5000000B506000045
:10284000080400200D01000005070000100400200E
:102850002501000055070000180400203D0100007C
:10286000A50700002004002055010000F507000026
:10287000280400206D0100004508000030040020FD
:102880008501000095080000380400209D0100002B
:10289000ED08000040040020B501000029090000F7
:1028A00048040020CD010000990D000050040020D4
:1028B000E5010000A10D000058040020FD0100000A
:1028C000510200001D04000009020000286800F009
:1028D0008BFB07B0F0BD00BF0068FFF7C9BD00BFAC
:1028E0000068FFF7C5BD00BF30B51A4A83B01A4C67
:1028F0001A481B491378002BFCD02378DB07F9D545
:1029000003680D685B1B0E2BF4D92221154802F0D9
:102910008DFF154804F09AF92321144802F086FF30
:10292000134B1868FFF734FE1021124802F07EFFA7
:102930000D4804F08BF9104A0C2310688DF807300D
:10294000C36833B103690DF107010430984703B040
:1029500030BDFEE7D838002008380020E4380020D9
:10296000183A00205C040020F02900208004002098
:10297000E8330020A4040020E03300200A4B10B507
:102980001C6882B0204600F0D3F8D4F870020E2202
:10299000C3688DF8072033B103690DF107010430D6
:1029A000984702B010BDFEE7E8330020014B1B68DA
:1029B000184700BF1806002070B58820104C04F09E
:1029C00083F8022301220021064600F02DFA202080
:1029D0000C4D266004F078F82168034600224FF47D
:1029E0001D701960DA602B6004F06EF82D680446E3
:1029F00000F00CF8044BC4F870521C6070BD00BFAE
:102A0000E4330020E0330020E833002010B4044613
:102A1000002004F11C0304F5137143F8080C1C3367
:102A200000228B42F9D10A490A2384F83022204639
:102A3000098884F8472284F86822A4F8441284F8AC
:102A40004632C4F83C22C4F86C225DF8044B70474F
:102A5000401D0020F0B590F830420646174687B07A
:102A6000C4EBC4040822A400204434440EF046FD04
:102A70000022BB680C34049223B302AD0222394613
:102A800028469847F968BA68A768A260E268E160DA
:102A9000059295E803008DE8030094E8030085E8BB
:102AA00003009DE80300049784E803001FB103229C
:102AB00029462846B84796F83032013386F8303236
:102AC00007B0F0BD1A46059902ADDDE7F0B500226A
:102AD00087B08B68054604922BB302AC0E460222E7
:102AE00020469847F768B66805F50D7394E803002B
:102AF0008DE8030093E8030084E803009DE80300E9
:102B000083E80300D5F83C32D5F840220493C5F899
:102B10003C620592C5F840721BB103222146204653
:102B2000984707B0F0BD1E46059F02ACDCE700BF2A
:102B30002DE9F04F054683B0002600F51B7800F51F
:102B4000117702F00DFE00281DDD02F049FE95F818
:102B50004632C4B2A34219D020460DF05DF90028D8
:102B6000EFD095F868321F2BEBD85A1C2B44D2B209
:102B7000A91885F8682283F8474281F8476202F075
:102B8000EFFD0028E1DC03B0BDE8F08F4246394696
:102B900005F247200EF018FD8246E8B195F830B2F4
:102BA000BBF1000F1DD0A946002404E0013409F157
:102BB0001C095C4515D00822494650460EF04EFCD3
:102BC0000028F3D1C4EBC404A40028190C30836896
:102BD000A3B12C44A369984785F8476285F86862D9
:102BE000AFE7D5F83C32002BF6D0CDF804A001A910
:102BF000D5F8403205F50D709847EDE704F06EF911
:102C00000146002001F51B7201F511710EF0DCBCCC
:102C1000012A06D0022A02D108B10B680360002005
:102C20007047016000207047012A06D0022A02D1B5
:102C300008B10B68036000207047016000207047F6
:102C4000692001F0D3BF00BF70B504681D4D226834
:102C50002B689A421AD994F820301B4A1B01D118CC
:102C6000D358CA68996811421ED0C3F88820A16859
:102C7000606804F059F8034660692C6819460268D8
:102C8000234492682B60BDE870401047236A227B82
:102C9000DBB262B90C4A1B01D118D358CA68C3F819
:102CA000882000232B6070BDC3F88420DFE7064A2C
:102CB0001B01D118D358CA68C3F8842000232B60A5
:102CC00070BD00BFEC330020E406002070B51E4D3F
:102CD00002682B689A421BD990F820301B4A1B01CE
:102CE000D118D358CA68996811421FD0C3F88820F8
:102CF00004468168406804F017F8034660692C6850
:102D000019460268234492682B60BDE87040104762
:102D1000036A027BDBB262B90C4A1B01D118D3589B
:102D2000CA68C3F8882000232B6070BDC3F88420D4
:102D3000DEE7064A1B01D118D358CA68C3F88420BD
:102D400000232B6070BD00BFEC330020E4060020A0
:102D500070B5046822686168A36A0A44002B226087
:102D600010DD2268DBB2E56A023AB2FBF5F005FB42
:102D70001022002A49D12A4A1B01D018D358C26810
:102D8000C3F884202368DB0721D5012921D094F8DA
:102D9000603004F1540083F0010384F86030FFF7E1
:102DA00095FF2268A3689A4221D02368E06F03F060
:102DB000010302680433926804EB8304D4ED017AC2
:102DC000FCEEE77ABDE8704017EE901A1047012933
:102DD000DDD094F83C3004F1300083F0010384F836
:102DE0003C30FFF773FF2268A3689A42DDD1E06FA1
:102DF0000C4A0368DB6A93420FD1692001F0F6FEAA
:102E000001F0F4FE0023237770BD054A1B01D018A2
:102E1000D358C268C3F88820B4E79847F0E700BFEA
:102E2000E406002001110000F8B504460025DFF893
:102E300048E064260E4F403040F8201C294640F8F8
:102E40001C2C2A46A362C4F80CE02761E6622577B1
:102E500001F0B8FE2A462946A01901F0B3FE054B41
:102E60002A4604F17800196801F0ACFE2046F8BD4E
:102E70000000B442240600200000C84203688B42D0
:102E80001CD0026803689142ACBF01224FF0FF32B0
:102E900003F0010310B504330446C06F04EB830351
:102EA000A1600168D3ED017A6260FCEEE77A8A687E
:102EB00017EE901A90470123237710BD704700BF8B
:102EC00010B50446C06F094A0368DB6A934207D114
:102ED000692001F08BFE01F089FE0023237710BDED
:102EE000984701F083FE0023237710BD01110000F5
:102EF000007F7047C1627047DFED2F7A0346B4EE62
:102F0000E70AF1EE10FA1BD59FED2C7AB4EEC70A52
:102F1000F1EE10FA3CDCDFED2A6A9FED217B9FED9C
:102F2000296AF4EEC60AF1EE10FA14DCB1EE046A76
:102F3000F4EEC60AF1EE10FA23D89FED1B4B0CE01D
:102F40009FED206AF0EE006AB7EE007BF4EEC60A51
:102F5000F1EE10FAEADDB7EE004B27EE047B9FEDB1
:102F60001A6A1846B7EEC77B76EEC77A83ED057A04
:102F700037EE277AC3ED067AC6EE077AC3ED037AF9
:102F80007047B7EEE05A9FED0A3B85EE034BE4E74E
:102F9000C7EE806AB7EEE67A76EEA66ABFE700BFB4
:102FA00000000000D01253411CC7711CC771AC3F18
:102FB000000000000080564000247449CDCC4C3EF7
:102FC0008096184B0000B4420024F44980ED030AB7
:102FD000D0ED040AFFF790BFF0EE400A80ED040A3E
:102FE00090ED030AFFF788BF2DE9F0478CB000236E
:102FF0000446A74EA74D0222694604A806930094F2
:1030000003960295FFF710FE039A029B0792069320
:10301000002B00F0958194F88020002A40F0D380A6
:10302000E56F002D00F0428129680F680A9208AE12
:10303000022204A930469847079A069B0B920A93EE
:1030400094F88030284600223146B8470A9B1BB1CD
:103050000322314630469847069B1BB104A9032240
:1030600008469847029B002B00F0F2806946032235
:10307000684604F130069847236A0121DDB22365D2
:10308000284603F085FB2801834D0023834F2A182F
:103090002958DFF81482D0680222C1F888006946F6
:1030A00004A8069300960397CDF80880FFF7B0FDBB
:1030B000039A029B07920693002B00F0398194F843
:1030C0004820002A00F0A280662001F08FFD069BB8
:1030D0001BB104A9032208469847029B002B00F06D
:1030E000C18003226946684604F154099847626A20
:1030F00000230121D6B2626784F83C30304603F0E9
:1031000047FB300100232A182958D0680222C1F851
:103110008800694604A80693CDF800900397CDF87F
:103120000880FFF775FD039A029B07920693002B18
:1031300000F0028194F86C20002A48D0662001F04B
:1031400055FD069B1BB104A9032208469847029B24
:10315000002B00F0938003226946684698470023BD
:10316000012194F8280084F8603003F011FBA36A71
:10317000DBB2DFED4B7AD4ED040A20461B01B0EE42
:10318000670AEA18EB58D268C3F88820C4ED037ABE
:10319000FFF7B2FEDFED430A94ED030A2046C4EDCB
:1031A000040AFFF7A9FE00234FF496711E22642043
:1031B000236363652360A163E1656263A265E062E6
:1031C0000CB0BDE8F087662001F010FD44E7A76E63
:1031D000002F00F08F803968D1F800800A9208AE85
:1031E000022204A930469847079A069B0B920A933D
:1031F00094F86C30384600223146C0470A9B002BB9
:103200009FD003223146304698479AE7D4F844903D
:10321000B9F1000F5CD0D9F80010D1F800A00A92E3
:1032200008AE022204A930469847079A069B0B92E3
:103230000A9394F84830484600223146D0470A9B0A
:10324000002B3FF444AF03223146304698473EE717
:10325000236A012104F13006DDB22365284603F01C
:1032600097FA10E7626A012184F83C3004F15409AE
:10327000D6B26267304603F08BFA42E784F86030DA
:10328000012194F8280003F083FAA36A70E700BFD5
:1032900011120000E9100000E406002009110000EE
:1032A0000000C8420000B442D1100000A66F002EFA
:1032B0004AD0B0470546E067002835D0296800228B
:1032C000069B0F680A92002B7FF4B1AE08AEB7E6FA
:1032D000266C002E5BD0B0478146606400B3D9F8FD
:1032E00000100022069BD1F800A00A92002B97D173
:1032F00008AE9EE7666E002E37D0B0470746A06640
:1033000050B139680022069BD1F800800A92002B48
:103310007FF465AF08AE6BE7682001F067FC10E74B
:10332000682001F063FCD2E6682001F05FFC93E6C0
:10333000652001F05BFCCAE6652001F057FC00E760
:10334000652001F053FC87E61A4F00E038B90136DA
:1033500057F8043F98470546072EE067F6D1002D41
:10336000ACD1672001F042FC76E6DFF8488000E04F
:1033700038B9013658F8043F98470746072EA0662B
:10338000F6D1002FBDD1672001F030FCD9E6DFF87F
:1033900024A000E038B901365AF8043F9847814626
:1033A000072E6064F6D1B9F1000F98D1672001F0C3
:1033B0001DFC8CE6EC33002001634165704700BFC3
:1033C00041638165704700BF8163C165704700BF7D
:1033D00038B50546D0ED057A0C462149D5ED035A9E
:1033E000B7EEE76A95ED067A2046B7EEE55A37EE76
:1033F000877A53EC152B9FED185BB7EEC77A26EE54
:10340000055B2DED028B85EE076BB7EEC68B03F0E7
:1034100035FC20461349B7EEC87A53EC172B03F05E
:103420002DFCEA6A2046104903F028FC2A6B20464E
:103430000E4903F023FC6A6B20460D4903F01EFC85
:10344000AA6B20460B4903F019FC2046BDEC028B09
:10345000BDE8384003F0FABB000000000080664081
:10346000B8040020D0040020E8040020000500205B
:103470001805002030050020F0B40C4B0C4E0D4D0B
:103480000D4C0E480E490F4A1F6836680E4B2D68CA
:1034900024680068096812681F605E609D60DC60D7
:1034A000186159619A61F0BC704700BF0C0600209A
:1034B00010060020140600201C0600202006002014
:1034C0002806002024060020F0330020002070474A
:1034D000704700BF826800205081938A23F0100358
:1034E0001B041B0C9382938A9BB243F0400393828C
:1034F000704700BF82680020938A23F040031B04BA
:103500001B0C9382704700BF836810B5044613B14B
:10351000032201469847204610BD00BFDFED1B7A0D
:10352000D0ED046A20EE270A9FED197A30B4C0EE80
:10353000267A82B0F4EEC77AF1EE10FA23DCFCEEC4
:10354000E77ACDED017ABDF8044083680022416935
:1035500042F260059A811046DA8049021C801C8282
:1035600001F4F0515A819A8A0D4322F0100212049C
:10357000120C9A829A8A92B242F040029A829D81FB
:1035800002B030BC70474FF6FF74DEE70000164310
:1035900000FF7F47D0ED046A9FED047ADFED047AE7
:1035A00086EE870A20EE270A704700BF180D0F4DE0
:1035B00000FE7F4707EE901A9FED147A90ED046AA3
:1035C000F8EE677ADFED126A67EE877A87EE867A21
:1035D000B4EEE67AF1EE10FA14D8FCEEC77A82B0B7
:1035E0008168CDED017ABDF804300B804A8992B232
:1035F000934202D3002002B070476FF065004B8108
:1036000002B070476FF06300704700BF00001643C0
:1036100000FF7F4707EE901A9FED0F7A90ED046A46
:10362000F8EE677ADFED0D6A67EE877A87EE867AC5
:10363000B4EEE67AF1EE10FA0BD8FCEEC77A82B05F
:1036400082680020CDED017ABDF80430138202B00B
:1036500070476FF0630070470000164300FF7F471C
:1036600007EE901A9FED147A90ED046AF8EE677AEF
:10367000DFED126A67EE877A87EE867AB4EEE67A35
:10368000F1EE10FA15D8FCEEC77A82B08268CDED63
:10369000017ABDF8043013821380518989B28B42BC
:1036A00002D3002002B070476FF06500538102B072
:1036B00070476FF0630070470000164300FF7F47BC
:1036C000C3683F21012200209960DA601A6842F045
:1036D00001021A60704700BFC36800211A680846DB
:1036E00022F001021A60D960704700BF084BDB6905
:1036F0005B0609D4074B9FED087AD3ED007AF8EE0C
:10370000677A87EE270A70479FED040A704700BF6B
:1037100000C00F40B42900200000804FFCF4324369
:1037200038B5064C04F1500554F8043F184613B15F
:103730001B681B6B9847AC42F6D138BD6836002039
:1037400010B5254CA3686BB1244B1A68938AD9062F
:1037500008D5938A2046E16823F010031B041B0C54
:1037600093828847A3691C4973B11D4B1A68938AD9
:10377000DB0609D5938A01F11000C96923F0100313
:103780001B041B0C93828847A36A134923B1154B72
:103790001A68938AD80614D4A36B0F4973B1124BDD
:1037A0001A68938ADB0609D5938A01F13000C96B48
:1037B00023F010031B041B0C93828847BFF34F8F29
:1037C00010BD938A01F12000C96A23F010031B0485
:1037D0001B0C93828847DFE79C350020983500203A
:1037E000A8340020A4340020A034002010B5254CBB
:1037F000A3686BB1244B1A68938AD90608D5938ABB
:103800002046E16823F010031B041B0C93828847B9
:10381000A3691C4973B11D4B1A68938ADB0609D54D
:10382000938A01F11000C96923F010031B041B0CDB
:1038300093828847A36A134923B1154B1A68938A68
:10384000D80614D4A36B0F4973B1124B1A68938A2C
:10385000DB0609D5938A01F13000C96B23F0100310
:103860001B041B0C93828847BFF34F8F10BD938AB4
:1038700001F12000C96A23F010031B041B0C938282
:103880008847DFE758350020543500209C3400205D
:10389000983400209434002010B5254CA3686BB1F7
:1038A000244B1A68938AD90608D5938A2046E16882
:1038B00023F010031B041B0C93828847A3691C4947
:1038C00073B11D4B1A68938ADB0609D5938A01F1FF
:1038D0001000C96923F010031B041B0C9382884756
:1038E000A36A134923B1154B1A68938AD80614D4D6
:1038F000A36B0F4973B1124B1A68938ADB0609D583
:10390000938A01F13000C96B23F010031B041B0CD8
:1039100093828847BFF34F8F10BD938A01F1200037
:10392000C96A23F010031B041B0C93828847DFE74E
:103930001435002010350020903400208C340020F5
:103940008834002010B5254CA3686BB1244B1A684D
:10395000938AD90608D5938A2046E16823F010039C
:103960001B041B0C93828847A3691C4973B11D4B30
:103970001A68938ADB0609D5938A01F11000C96998
:1039800023F010031B041B0C93828847A36A13497E
:1039900023B1154B1A68938AD80614D4A36B0F4928
:1039A00073B1124B1A68938ADB0609D5938A01F129
:1039B0003000C96B23F010031B041B0C9382884753
:1039C000BFF34F8F10BD938A01F12000C96A23F025
:1039D00010031B041B0C93828847DFE7D0340020C0
:1039E000CC34002084340020803400207C3400203B
:1039F0000A4B1B681B7A10B523B9094A136823F0D8
:103A00000103136007483F22054C8368A2601BB185
:103A1000C3689847A36810BDFEE700BF18340020B4
:103A200000C01E40BC3400200A4B1B681B7A10B536
:103A300023B9094A136823F00103136007483F22A2
:103A4000054C8368A2601BB1C3689847A36810BD8A
:103A5000FEE700BF1034002000001F40AC340020FF
:103A600038B5064CA4F14005103CA368032221465A
:103A7000204603B19847AC42F6D138BDDC35002072
:103A800038B5064CA4F14005103CA368032221463A
:103A9000204603B19847AC42F6D138BD9835002096
:103AA00038B5064CA4F14005103CA368032221461A
:103AB000204603B19847AC42F6D138BD54350020BA
:103AC00038B5064CA4F14005103CA36803222146FA
:103AD000204603B19847AC42F6D138BD10350020DE
:103AE0009FED010A704700BF94BFD640034A0346CA
:103AF0000121002012681976DA617047041000E095
:103B00000023037618467047F8B50F4D0F4B2C78FD
:103B10001B68ACB9016A89B1067E7EB1C2699A1A86
:103B200091420BD80127417E0269C3612F70017653
:103B30004AB14369083098472C7034462046F8BD96
:103B400000242046F8BDFEE70C340020041000E0FD
:103B5000064A036910B50446026023B100F108016A
:103B6000032208469847204610BD00BFD00500201C
:103B7000124A38B51378FBB9114B0120114C422180
:103B80001070DA6E104842F47002104DDA66DA698D
:103B9000C0F8D05142F04002DA6121600C4B102293
:103BA00014200C4D1A6002F08FFF0B490B4AC460C1
:103BB000106080E8220038BD002038BD1C34002091
:103BC00000C00F4000C01E4000440020B11E000095
:103BD0000CE100E0BC3400209005002018340020E7
:103BE000124A38B51378FBB9114B0120114C422110
:103BF00010709A6E104842F07062104D9A66DA6941
:103C0000C0F8D45142F04002DA6121600C4B20220E
:103C100014200C4D1A6002F057FF0B490B4AC46088
:103C2000106080E8220038BD002038BD1434002028
:103C300000C00F4000001F4000440020E91E0000AB
:103C40000CE100E0AC34002090050020103400208E
:103C500010B50446182102F03BFF204610BD00BFFE
:103C6000084A036910B50446026023B100F1080157
:103C70000322084698472046302102F029FF2046BB
:103C800010BD00BFD0050020692000F0AFBF00BF0D
:103C9000692000F0ABBF00BF692000F0A7BF00BFE4
:103CA000692000F0A3BF00BF6FF0640000F09EBF6A
:103CB0006FF0640000F09ABF1A4BDB695B0610B529
:103CC000044623D4184B194A1B68A2FB03239B0C00
:103CD00007EE903AF8EEE77A20EE270ADFED147A45
:103CE000B4EEE70AF1EE10FA13DCBCEEC00A10EEF7
:103CF000103A013B2361E26801213F2400209460D7
:103D0000D160136113680B43136010BDF3EE087AA2
:103D1000E2E76FF0630000F069FF6FF001032361D9
:103D2000E9E700BF00C00F40B429002083DE1B4339
:103D30000000804F0D4A0E4B1268994210B50446A0
:103D4000C2610BD84FF4167303FB01F1A1F14402D9
:103D50000123616222620020237610BD6FF06300B0
:103D600000F044FF0349044AF2E700BF041000E0FA
:103D70006666660010FFFFEFCCFEFFEF1748027883
:103D800038B5A2B9164B03F1500143F8042F8B420A
:103D9000FBD101231349144A03700B6843F080736D
:103DA0000B60136843F00103136001F0E5F90C4B5D
:103DB000002453F8045F25B10134142CF9D10020FC
:103DC00038BD302002F080FE0849094A456005618F
:103DD00085760576016042F8240038BDBC360020A7
:103DE00068360020FCED00E0001000E0D005002067
:103DF0006C3600202DE9F0412A4E3578002D31D166
:103E0000294FA8463C466A01284B214601351344F8
:103E100020460322A3F80C80A36823B19847C4F876
:103E20000880C4F80C80042D04F11004EBD1204B61
:103E3000204AC3F85422204A20210123182011606F
:103E40000025337002F040FE1C490F221C4E0C6806
:103E50004FF08641C56084600161426180E8C00026
:103E6000BDE8F08100246301104D1D44AE89B6B257
:103E70002EB10134042CF6D10020BDE8F0811820C9
:103E80000F4F02F021FE084A0F21C66002EB041416
:103E90004FF0864285604460076002614161BDE881
:103EA000F08100BF203400209C35002000C01D4060
:103EB00000440020011C000010E100E098350020C3
:103EC000500500202DE9F0412A4E3578002D31D1E2
:103ED000294FA8463C466A01284B21460135134428
:103EE00020460322A3F80C80A36823B19847C4F8A6
:103EF0000880C4F80C80042D04F11004EBD1204B91
:103F0000204AC3F85822204A40210123182011607A
:103F10000025337002F0D8FD1C490F221C4E0C689E
:103F20004FF08641C56084600161426180E8C00055
:103F3000BDE8F08100246301104D1D44AE89B6B286
:103F40002EB10134042CF6D10020BDE8F0811820F8
:103F50000F4F02F0B9FD084A0F21C66002EB0414AE
:103F60004FF0864285604460076002614161BDE8B0
:103F7000F08100BF1F3400205835002000001E4093
:103F800000440020AD1C000010E100E0543500208A
:103F9000500500202DE9F0412A4E3578002D31D111
:103FA000294FA8463C466A01284B21460135134457
:103FB00020460322A3F80C80A36823B19847C4F8D5
:103FC0000880C4F80C80042D04F11004EBD1204BC0
:103FD000204AC3F85C22204A802101231820116066
:103FE0000025337002F070FD1C490F221C4E0C6836
:103FF0004FF08641C56084600161426180E8C00085
:10400000BDE8F08100246301104D1D44AE89B6B2B5
:104010002EB10134042CF6D10020BDE8F081182027
:104020000F4F02F051FD084A0F21C66002EB041445
:104030004FF0864285604460076002614161BDE8DF
:10404000F08100BF1E3400201435002000401E40C7
:1040500000440020591D000010E100E01035002050
:10406000500500202DE9F0412A4E3578002D32D13F
:10407000294FA8463C466A01284B21460135134486
:1040800020460322A3F80C80A36823B19847C4F804
:104090000880C4F80C80042D04F11004EBD1204BEF
:1040A000204AC3F86022204A4FF48071012318206F
:1040B00011600025337002F007FD1C490F221C4ED1
:1040C0000C684FF08641C56084600161426180E800
:1040D000C000BDE8F08100246301104D1D44AE898D
:1040E000B6B22EB10134042CF6D10020BDE8F08127
:1040F00018200F4F02F0E8FC074A0F21C66002EBC0
:1041000004144FF08642856044600760026141619B
:10411000BDE8F0811D340020D034002000801E4016
:1041200000440020051E000010E100E0CC34002017
:1041300050050020DFED4C7A9FED4C7A20EE270AE7
:10414000D0ED047A2DE9F0412DED028B80EE278A27
:104150008AB005460E461746B4EEC78AF1EE10FA4D
:1041600078DCFCEEC87A17EE902A013A92B2AB687E
:104170000024D6F808809C81DC801A801A825C8139
:104180000494B8F1000F60D00222314602A8C04763
:10419000F268B36806AE0894059204936C683BB16C
:1041A000022202A930469847059A049B0992089377
:1041B000E26896E803008DE8030094E8030086E8CF
:1041C00003009DE80300A36884E8030008990893AE
:1041D000A16009990992E1601BB103223146304682
:1041E0009847049B1BB102A90322084698476B69B4
:1041F00047BB42F260015B02AA6803F4F053194323
:104200002B6891819B6A1A498B422AD100235381E2
:10421000938A23F010031B041B0C9382938A9BB296
:1042200043F040039382DFED117AB4EEE78AF1EEBA
:1042300010FACCBF6FF0630000200AB0BDEC028B17
:10424000BDE8F08142F22001D5E7CDF8208006AE2E
:104250006C68ADE76FF0630000F0C8FC4FF6FE72CB
:1042600085E728469847DEE70000164300FF7F47B2
:1042700095190000026807EE901A10B5D268B8EEE2
:10428000670A1D4CA2422CD11C4A0346D269520631
:104290001CD5F3EE087A20EE270ADFED197A1C46CA
:1042A000B4EEE70AF1EE10FA1EDCBCEEC00A10EE26
:1042B000103A013B2361E26801213F209060002019
:1042C000D160136113680B43136010BD0D4A0E4992
:1042D0001268A1FB0212920C07EE902AF8EEE77A20
:1042E000D9E7BDE8104010476FF0630000F07EFC96
:1042F0006FF001032361DEE77921000000C00F4069
:104300000000804FB429002083DE1B43036807EEC2
:10431000901A30B4DB6882B01E4CB8EE670AA34234
:1043200035D1DFED1D7A0246D0ED046A20EE270A72
:104330009FED1A7AC0EE267AF4EEC77AF1EE10FA03
:1043400022DCFCEEE77ACDED017ABDF804409368FB
:104350000020516942F260059881D88049021C8092
:104360001C8201F4F05158819A8A0D4322F0100208
:104370001204120C9A829A8A92B242F040029A82F5
:104380009D8102B030BC70474FF6FF74DFE702B08A
:1043900030BC1847DD1900000000164300FF7F47BE
:1043A000F0B50446C0688BB000210668636806ADAE
:1043B000164F26F001062760DF6806600891C1608D
:1043C000049195E803008DE8030093E8030085E875
:1043D00003009DE803009E6883E80300089A08969E
:1043E0009A60099A0997DA601EB103222946284685
:1043F000B047049B1BB102A90322084698472046F8
:10440000142102F065FB20460BB0F0BD90050020A2
:10441000F0B504462048002587B0824263760E46F8
:1044200025762FD84FF4167303FB02F2B3680021F0
:104430002262626204915BB302AD314602222846D9
:104440009847F768B66804F1080395E803008DE81B
:10445000030093E8030085E803009DE8030083E878
:1044600003002369626904932661059267611BB1A9
:104470000322294628469847084B00201B68E36121
:1044800007B0F0BD6FF0630000F0B0FB044ACDE769
:104490001E46059F02ADD6E766666600041000E082
:1044A00010FFFFEFF0B50546C0688BB0002106682D
:1044B0006B6806AC144F26F001062F60DF680660BB
:1044C0000891C160049194E803008DE8030093E82B
:1044D000030084E803009DE803009E6883E803006E
:1044E000089A08969A60099A0997DA601EB1032221
:1044F00021462046B047049B1BB102A9032208466F
:10450000984728460BB0F0BD9005002070B58B6829
:10451000002506462DED028B8AB0B0EE408A02726D
:104520000495002B5BD00C46022202A89847E26853
:10453000A368089506AD0592049374683BB1022206
:1045400002A928469847059A049B09920893E268B5
:1045500095E803008DE8030094E8030085E8030074
:104560009DE80300A36884E8030008990893A1600C
:1045700009990992E1601BB1032229462846984710
:10458000049B1BB102A9032208469847337AB3B1B2
:10459000194BDB695B0617D5B3EE080A28EE000A53
:1045A000DFED167AB4EEE70AF1EE10FA1BDCFCEE52
:1045B000C07A17EE903A013B3361F2681361002034
:1045C0000AB0BDEC028B70BD0D4B0E4A1B68A2FBFE
:1045D00003239B0C00EE103AB8EEC00ADEE7089306
:1045E00006AD4468B3E76FF0630000F0FFFA6FF0C8
:1045F00001033361E1E700BF00C00F400000804FBE
:10460000B429002083DE1B43F0B505461F46002079
:104610008B682E682DED028B8FB0766808EE102A1D
:1046200004903BB10C46022202A89847E268A368B6
:1046300005920493504BB8EE480A9E4240F0938096
:104640009FED4E8A95ED047A20EE080ADFED4C7A54
:1046500080EE078AB4EEE78AF1EE10FA7CDCFCEE1D
:10466000C87A17EE902A013A92B2AB680024049EF1
:104670009C81DC801A801A825C810894002E67D0AD
:10468000022202A906A8B047059A049B0AAE0C9420
:10469000099208936C683BB1022206A930469847FC
:1046A000099A089B0D920C93E26896E803008DE846
:1046B000030094E8030086E803009DE80300A36874
:1046C00084E803000C990C93A1600D990D92E160B0
:1046D0001BB10322314630469847089B1BB106A9FF
:1046E0000322084698476B69002F2ED042F2200122
:1046F0005B02AA6803F4F05319432B6891819B6A0B
:1047000020498B4235D100235381938A23F0100333
:104710001B041B0C9382938A9BB243F04003938249
:10472000DFED177AB4EEE78AF1EE10FACCBF6FF046
:1047300063040024049B1BB102A903220846984786
:1047400020460FB0BDEC028BF0BD42F26001CFE716
:104750000C960AAE6C68A7E76FF0630000F046FAAB
:104760004FF6FE7281E73A46284602A9B047044652
:10477000E0E728469847D3E7F525000000001643F8
:1047800000FF7F47951900002DE9F0410546984646
:1047900000208E682B682DED028B8EB05F6808EECE
:1047A000102A04903EB10C46022202A8B047E268EB
:1047B000A36805920493424BB8EE488A9F426ED19B
:1047C0000026049C85F808800896002C63D00222FD
:1047D00002A906A8A047059A049B0C960AAE099266
:1047E00008936C683BB1022206A930469847099AA3
:1047F000089B0D920C93E26896E803008DE8030095
:1048000094E8030086E803009DE80300A36884E8B9
:1048100003000C990C93A1600D990D92E1601BB1FE
:104820000322314630469847089B1BB106A9032254
:10483000084698472C7AFCB1224BDB695B0627D4EB
:10484000214B224A1B68A2FB03239B0C07EE903AE4
:10485000F8EEE77A28EE278ADFED1D7AB4EEE78AD4
:10486000F1EE10FA23DCBCEEC88A18EE103A013BD8
:104870002B61EA6800241361049B1BB102A9032287
:104880000846984720460EB0BDEC028BBDE8F0818B
:10489000F3EE087ADEE70C940AAE6C68ABE74246AA
:1048A000B0EE480A284602A9B8470446E4E76FF08C
:1048B000630000F09BF96FF001032B61D9E700BFA3
:1048C000CD29000000C00F40B429002083DE1B4327
:1048D0000000804F70B5794D2B6813F001030BD1A8
:1048E000774C01261846774A7749A360A361A362F3
:1048F000A3632E6002F0BCFA744B1A68D40704D488
:104900000120734A734918601160734D2B6813F0CE
:1049100001030BD1714C012618466A4A7049A36005
:10492000A361A362A3632E6002F0A2FA6D4B1A6822
:10493000D00704D401206C4A6C49186011606C4D9A
:104940002B6813F001030BD16A4C012618465D4A0F
:104950006949A360A361A362A3632E6002F088FA91
:10496000664B1A68D10704D40120654A654918606E
:104970001160654D2B6813F001030BD1634C0126C8
:104980001846504A6249A360A361A362A3632E60E4
:1049900002F06EFA5F4B1A68D20704D401205E4A17
:1049A0005E49186011605E4C236813F0010371D0FA
:1049B0005C4C236813F0010376D05B4B1A68D60772
:1049C00004D40120594A5A4918601160594B1A6899
:1049D000D50704D40120584A584918601160584B33
:1049E0001A68D40704D40120564A57491860116048
:1049F000564B1A68D00704D40120554A554918600F
:104A00001160554B1A68D10704D40120534A544908
:104A100018601160534B1A68D20704D40120524A1F
:104A2000524918601160524B1A68D60704D401200D
:104A3000504A514918601160504B1A68D50704D488
:104A400001204F4A4F49186011604F4B1A68D40734
:104A500004D401204D4A4E49186011604D4B1A682C
:104A6000D00704D401204C4A4C49186011604C4BCB
:104A70001A68D10704D401204A4A4B4918601160D2
:104A80004A4B1A68D20704D40120494A49491860A0
:104A9000116070BD484D01260A4A28464749AB605F
:104AA000266002F0E5F983E7454D0126054A2846D0
:104AB0004249AB60266002F0DBF97EE778340020E3
:104AC0009C3500208C290020211F00007434002018
:104AD0009835002000C01D4070340020583500205B
:104AE000411F00006C3400205435002000001E409F
:104AF0006834002014350020611F00006434002059
:104B00001035002000401E4060340020D0340020CA
:104B1000811F00005C340020CC34002000801E4047
:104B2000583400205434002050340020A834002091
:104B300020C01D404C340020A434002040C01D4043
:104B400048340020A034002060C01D4044340020C0
:104B50009C34002020001E40403400209834002067
:104B600040001E403C3400209434002060001E4071
:104B7000383400209034002020401E40343400207F
:104B80008C34002040401E40303400208834002007
:104B900060401E402C3400208434002020801E40C1
:104BA000283400208034002040801E40243400201F
:104BB0007C34002060801E40BC340020C9190000F5
:104BC000AC34002010B4002401600272C460446060
:104BD0005DF8044B704700BF836810B5044613B1FD
:104BE000032201469847204610BD00BF074B9A6834
:104BF00010B5044682B032B128B102A9DA6818466D
:104C000041F8044D9047204602B010BDDC3500202D
:104C100010B4054B0024054A9C60184604495DF811
:104C2000044B02F025B900BFDC3500208C290020A0
:104C300099300000C1680322024B002003EB0113EE
:104C40009A60704700410840C1680022024B10463C
:104C500003EB01139A60704700410840064A8369DC
:104C600010B50446026023B100F11001032208468A
:104C70009847204610BD00BF34060020064BDFEDEC
:104C8000076AD3ED007A9FED067AF8EE677A86EE32
:104C9000A70A80EE070A7047902900200000804F85
:104CA00000247449F0B58B68044600202DED028B7A
:104CB00087B0B0EE408A22720490002B43D002AD40
:104CC0000E46022228469847F768B66804F110039A
:104CD00095E803008DE8030093E8030085E80300EE
:104CE0009DE8030083E80300A369E2690493A661D9
:104CF0000592E7611BB10322294628469847237A8B
:104D0000E3B11A4B0020DFED1A7A012193ED000A7E
:104D1000E268B8EE400A174B1201164D20EE080A61
:104D200013449860B4EEE70AD960F1EE10FA0EDC95
:104D3000FCEEC07A17EE903A013B5351002007B0C9
:104D4000BDEC028BF0BD1E46059F02ADBEE76FF0C5
:104D50006300FFF74BFFE3686FF0010200201B01C7
:104D60005A5107B0BDEC028BF0BD00BF9029002066
:104D70000000804F004108401E4A9FED1F7AD2ED8F
:104D8000007A1E4BF8EE677A70B527EE800A04466B
:104D900000250120E2681E46B4EEC70A1101F1EEBB
:104DA00010FA0B449D60D86011DCBCEEC00A10EE16
:104DB000103A013B8B51236811499B6A8B4214D1F5
:104DC00012010E4B032100201344996070BD6FF057
:104DD0006300FFF70BFFE2686FF0010113019951C7
:104DE000236807499B6A8B42EAD0204698470020F7
:104DF00070BD00BF902900200000804F0041084096
:104E0000F53000002DE9F04104468E6800209846F8
:104E100027682DED028B8AB07F6808EE102A049077
:104E20003EB10D46022202A8B047EA68AB6805927F
:104E30000493364AB8EE488A974254D10023049D21
:104E400084F808800893002D4AD006AE022202A9F9
:104E50003046A847059F049D04F1100396E803001F
:104E60008DE8030093E8030086E803009DE8030053
:104E700083E80300A369E2690893A5610992E761E9
:104E80001BB10322314630469847257AE5B1204BC5
:104E90000025DFED207A012193ED000AE268B8EEEB
:104EA000400A1D4B12011C4E20EE080A13449D605F
:104EB000B4EEE70AD960F1EE10FA1CDCFCEEC07A21
:104EC00017EE903A013B9351049B1BB102A90322B8
:104ED0000846984728460AB0BDEC028BBDE8F08131
:104EE000099F06AEB8E74246B0EE480A204602A93E
:104EF000B8470546E8E76FF06300FFF777FEE36821
:104F00006FF001021B019A51DEE700BF653100001E
:104F1000902900200000804F004108402DE9F04119
:104F20000F4C00250F4FA4F18006DFF83C8054F8A9
:104F3000103CA4F1100E032221461B6B2046BB42FD
:104F40000BD1A36844F8108C13B19847A560E560B5
:104F5000203CB442EBD1BDE8F08170469847F7E7BA
:104F60005C3600201D3100003406002007EE901A48
:104F700001682DE9F041CA68B8EE670A214CA242E7
:104F800029D1214B04469FED217A0026D3ED007AEA
:104F90000125C268F8EE677A1D4B10011C4F27EE01
:104FA000800A03449E60B4EEC70ADD60F1EE10FA99
:104FB00014DCBCEEC00A10EE103A013BC3518B6A00
:104FC00014498B4218D11201114B032100201344C4
:104FD0009960BDE8F081BDE8F04110476FF06300D3
:104FE000FFF704FEE26821686FF001001301D85159
:104FF0008B6A08498B42E6D0204698470020BDE8DE
:10500000F08100BF39320000902900200000804F5D
:1050100000410840F5300000084A836910B5044695
:10502000026023B100F11001032208469847204690
:10503000202101F04DFD204610BD00BF34060020A8
:105040001F4800211F4BC0691F4A10B444061A6054
:105050005960D960996101D41C4909681848002138
:1050600001241A62C069596240069963DC6201D466
:10507000164909681248002102241A64C06959645B
:1050800099654106DC6401D4104909680C4C002183
:105090001A660320E26959669967D86653060DD4EB
:1050A0000A4B0B4A1B68B3FBF2F30A4C00200A4A76
:1050B00023600A495DF8044B01F0DABE1823F4E7D7
:1050C00000C00F40EC35002034060020B429002039
:1050D00040420F00902900208C290020DD33000081
:1050E00038B5064B05460360EFF3108472B601F045
:1050F00055FD04B962B6284638BD00BF74060020CD
:1051000010B4047F4160022CC26003D05DF8044BF0
:1051100001F0E0BC83685DF8044B184770B5144C8F
:10512000064604F1500554F8043F184613B11B68B5
:105130001B6B9847AC42F6D133680E4A1B6893420A
:105140000AD1327F0023022A7360F3600AD030460E
:10515000BDE8704001F0BEBC002230461146BDE8FB
:1051600070401847B3683046BDE87040184700BF2C
:1051700068360020C135000070B5EFF3108572B6B7
:10518000124C204601F00AFD114A12480121137801
:10519000A06043F004032177137055B962B6237FF2
:1051A0006560022BE5600CD00848BDE8704001F056
:1051B00091BC002305486360E360BDE8704001F0E6
:1051C00089BCA3682046BDE8704018479429002098
:1051D000EC290020DD350000024A0349034801F0B4
:1051E00047BE00BF8C290020A13500009429002073
:1051F000F8B514494FF40037134D034601EB402432
:10520000124E134A05EB4015214617602846328896
:1052100001F030F9318824F01F032144BFF34F8F90
:105220000C4A136020339942FBD8BFF34F8FBFF372
:105230006F8F0320294601F049F9074B4FF40032E4
:105240001A60F8BD00002020E0360020EE37002074
:105250008CE100E05CEF00E00CE100E0244A4368F0
:105260002DE9F041C3F30E431488C569E41A002CFC
:1052700038DD2049204A0B781278DBB21F48204ED7
:10528000934207D010F8038036F81870C7F5007203
:10529000944212D9013300221A4F082B26F81540E8
:1052A00027F81520184E94BFDAB213460A703268F8
:1052B000C55414443460BDE8F081144B07EB48201A
:1052C0002246274403EB4521184401F037FD0E4ADE
:1052D000284626F8187013681C441460BDE8F04195
:1052E000FFF786BF2846BDE8F041FFF781BF00BF4A
:1052F000EE37002004380020E0370020E43700209B
:10530000F0370020C03600200038002000002020A8
:105310001E4B1A785AB902F0FF031D4A127832B1B7
:105320002DE9F0411B4D2A8812B9BDE8F081704784
:10533000194EC2F50068194F31784246184C07EBF8
:10534000411704EBC1243846214601F093F808EBDD
:10535000040224F01F01BFF34F8F124B196020315C
:105360008A42FBD8BFF34F8FBFF36F8F04203946BB
:1053700001F098F83378084A0133DBB2032B88BF79
:105380000023137000232B80BDE8F081D23600206B
:10539000D838002006380020D336002020380020DE
:1053A0000010202070EF00E02DE9F04F85B0029052
:1053B0000191002900F0A2800023DFF85C81DFF872
:1053C0004C9100934E4EB8F80030DFF850A1DFF852
:1053D00050B14C4A14784C4A02EB4417002B6ED162
:1053E0001D461C4614E099F8003004B935680124C4
:1053F000002B5ED133685B1B782B79D89AF800308C
:10540000002B56D0FDF7D2FAB8F80030002B54D15B
:10541000384601F06DF810F080003C4AE3D14FF4BB
:105420000063384A89F8000014781A46A8F800305A
:10543000E402019D364920449542084443D30C447C
:10544000029901F07BFC002321464FF400623846AC
:1054500001F010F824F01F0304F50064BFF34F8F30
:10546000CBF8003020339C42FAD8BFF34F8FBFF304
:105470006F8F0420394601F015F8224B214A002194
:105480001B7824480133DBB2032B88BF0023137041
:10549000B8F80020009BA8F8001013440093029B6A
:1054A000134402930B46C0F8841001998A1A0192A2
:1054B0008FD1009805B0BDE8F08F124A14781A46D3
:1054C000C3F50060B4E7019C02992246039301F002
:1054D00035FC039B0F4A4FF040411B1BA8F80030DE
:1054E000009BC2F884101846204405B0BDE8F08F38
:1054F00001230098137005B0BDE8F08F0198D9E73B
:10550000E4380020D3360020203800200538002061
:105510000010202000002E4006380020D83800203F
:1055200070EF00E0704700BF314B2DE9F0411B7870
:10553000304F002B54D04FF40073DFF8EC803B80E9
:10554000A8F80030002180222B480D462B4E0BF08E
:10555000C5F82B4C2B4B29464FF480722A482570F6
:105560002C461D800BF0BAF835602B4675602A4634
:10557000B560F5602549264E2648DFF8B0E00D708D
:1055800010210570022035607560B560F560CEF8B9
:10559000005000F03BFFB8F800102A461E4B0320D5
:1055A00000F002FF2B4639880122042000F02EFF74
:1055B00020460134FFF71CFE082CF9D1174B4A2274
:1055C00017480021174C0460C3F88410C3F88020EA
:1055D000D3F8482142F08072C3F84821BDE8F08139
:1055E0004023DFF844803B80A8F80030AAE700BFE2
:1055F000B0380020D036002020380020F0370020BE
:10560000D336002006380020E03600200438002081
:10561000C0360020E03700201D37000000002E407B
:10562000A0380020D1370000EE37002000380020DD
:10563000314B4FF400322DE9F04F1A6083B02F4BFD
:1056400089461C78002953D02D4BE4B21B789C422C
:1056500050D082460027DFF8C0B00134294BC7EB99
:1056600009085046092C0193274B28BF00241D5DD3
:10567000244B33F815E0254B0EEB452133F815602C
:10568000234BCEEB06061944B0453246374419D2B7
:105690000EEB45214246194401F050FB019BDBF81B
:1056A0000010484633F81520C8EB01019044CBF8B0
:1056B000001023F81580174B4FF400321A6003B026
:1056C000BDE8F08F01F03AFBDBF80020E3B228469A
:1056D000921BB244CBF80020084A1370FFF788FDF4
:1056E000B94503D9064B1B789C42B6D13846E2E750
:1056F0000846E0E70020DEE78CE100E0E03700202C
:1057000004380020C0360020E4370020F0370020A5
:10571000000020200CE100E0003800200B4B0C4A78
:105720001B781278DBB293420DD0013309480A4A44
:10573000092B0A4928BF0023C35C31F8131002EB80
:105740004323585C70474FF0FF307047E03700202C
:1057500004380020E437002000002020C03600205C
:10576000014B1868704700BF003800202DE9F84F42
:10577000154E164D34782B78E4B29C4221D0DFF8D8
:105780005490DFF854B0DFF85480114F0134082CE6
:105790005FFA84FA01D90024A24619F80410DBF854
:1057A000002038F81130084637F811105B1AD31A68
:1057B000CBF80030FFF71CFD86F800A02B789C4248
:1057C000E4D1BDE8F88F00BFE037002004380020A6
:1057D000C0360020E437002000380020F0370020D9
:1057E00000B583B001210DF10700FFF721FF20B1C3
:1057F0009DF8070003B05DF804FB4FF0FF30F9E7B8
:10580000094B00B583B01B788DF8070023B903F06E
:10581000FF0003B05DF804FB01210DF10700FFF765
:10582000C3FD03B05DF804FBD8380020044B1B789F
:1058300003F0FF020BB1FFF7B7BD1046704700BF82
:10584000D83800202DE9F0410024DFF84080012302
:105850000C4D27460C4E88F800303378284620350A
:10586000A34204F1010405D000F042FE030658BF34
:1058700007F50067042CF0D10023384688F8003083
:10588000BDE8F08120380020D3360020D236002039
:105890002DE9F8431F4B1B7813B11F4D2A880AB915
:1058A000BDE8F883DFF88480C2F500691B4E4FF035
:1058B000010E98F800104A46194C002306EB4116D9
:1058C000184F04EBC124304687F800E0214600F071
:1058D000D1FD09EB040224F01F01BFF34F8F124BDF
:1058E000196020318A42FBD8BFF34F8FBFF36F8F0F
:1058F0000420314600F0D6FD98F800300B4A013301
:10590000DBB2032B88BF0023137000232B803B7076
:10591000BDE8F883D8380020063800202038002061
:1059200000102020D236002070EF00E0D336002097
:10593000964A974B90422DE9F043964CD3F814E0E9
:105940009969E6681CD9944B984240F21581934BB3
:1059500040F22765924F0344924C1A0AA7FB023289
:10596000D30903EB830303EB830202F2E243AB426E
:1059700028BF2B46A3F54873A4FB0335ED0804E0CC
:10598000894DA84294BF06250E25814A06F01F07BF
:10599000D2F88030AF4243F0C003C2F880300AD260
:1059A0007C4B26F01F061A462E43DE601368002B40
:1059B000FCDA06F01F071EF0007331D17B4C7C4AE5
:1059C000D4F810C014460CEA0202A2420ABF4FF0FB
:1059D000C0534FF4805200228EEA030414F0605F3B
:1059E00008D02EF0605E03F06053694C43EA0E0E5F
:1059F000C4F814E081EA020313F4405F08D0644B5A
:105A000021F4405111431A469961936C1C07FCD450
:105A10004EF0007E5E4AC2F814E0936C9906FCD406
:105A20000121644C0A4601FB02F300FB03F3A3428D
:105A300009D8072A00F29580013201FB02F300FB2E
:105A400003F3A342F5D95C485C4C1844A4FB000363
:105A50001B0D6C2B00F28B80352B00F28F80DFF852
:105A6000888136235648DFF844C1564CDCF8009054
:105A7000B0FBF2F009EA04044445B0FBF1F00BD0AE
:105A800043F400534FF480586446CCF80080CCF8BF
:105A900000302368002BFCDADFF8F4C0013ADCF8B0
:105AA000103003F00703934207D002F00702644668
:105AB000CCF81020A36CDB03FCD4013989028EEAF8
:105AC000010313F4E05F0CD0314B2EF4E05E01F4DF
:105AD000E0511A4641EA0E0EC3F814E0936C9907A0
:105AE000FCD4394B39490344DB09A1FB0331090BD1
:105AF000042928BF04214B1E1B028EEA030212F464
:105B0000407F07D02EF4407E03F44073204A43EADE
:105B10000E0353611E4B5C691A4624F000745C61ED
:105B2000936C9B06FCD42A4B4FF0FF32294CBD42AC
:105B3000A3FB00E320604FEA9343274CB2FBF3F34F
:105B4000B0FBF1F1254A2160136008D2114B26F019
:105B50001F061A462E43DE601368002BFCDABDE8F0
:105B6000F08304293FF66FAF013101225BE7DFF8D4
:105B70007C806C231A4876E7122506E71948DFF87F
:105B8000708000FB03F043EA08086CE700A4781F6C
:105B900000C00F40000008400046C32300BA3CDCB0
:105BA00023B24C001F85EB5100366E0100800D4082
:105BB00040300080FFB19F26808D5B00819F5E1684
:105BC00000B29F267F3001807FD1F0089F10E50052
:105BD00083DE1B43B8290020B4290020E0380020D0
:105BE00000643F4D001BB700362000806C20008011
:105BF00000200080836BF0B41BB1536843F4004372
:105C0000536072B6446BDCB1144B2260D3F8B041E0
:105C10000C421FD1124D2F6804E02C68E41BB4F530
:105C2000166F0BD2D3F8404144F48044C3F840418E
:105C3000D3F8B861D3F840416404EED5314209D1BC
:105C40000023064C8260C360D4F8B0311943C4F815
:105C5000B0110263426362B6F0BC704700002E4090
:105C6000041000E070B50646006B90B102460024B7
:105C700003E012680134012A0CD0536813F080034A
:105C8000F7D032632CB1B36B05689847013C2846C6
:105C9000F9D170BD33637363F4E700BFF0B5E1B9C8
:105CA000214C22490020224B01224FF00115802671
:105CB0000A601A46A1604E60E060C3F8BC51D3F898
:105CC000B0411C4D44F001048860C3F8B041286025
:105CD000D2F8B031002BFBD1F0BD0904164B144DA6
:105CE0000126114C41F0800100221E60596000F530
:105CF000805CE26400F5005EA36400F54057D5F8CF
:105D0000B01100F580462A46986041F48031C3F80E
:105D10000CC0C3F810E05F619E61C5F8B011D2F805
:105D2000B031002BFBD1BCE700400020A042002096
:105D300000002E40B4380020804200202DE9F04FB2
:105D4000AC4C83B0D4F8448118F0010FC4F84481FE
:105D50005ED0D4F8AC31002B55D04FF0011BDFF8EA
:105D6000BC92A54E2546DA46C4F8AC31B06AF26A58
:105D7000D4F8403143F40053C4F84031D4F84031F2
:105D80009F04F5D5D5F8403123F40053C5F84031D0
:105D9000C5F8B4A1D4F8B43113F00113FAD181B22B
:105DA00040F28167C9F80030B94200F2B480B1F521
:105DB000D06F80F0E981B1F5817F00F06B8100F256
:105DC000F080802900F05981822940F0E28092B26F
:105DD00002F07F01072900F2DC8089008748884FA4
:105DE0000844016810063B707B7040F10C82CA03C6
:105DF00001D501233B7002218148FFF74FFFD4F802
:105E0000AC31002BB0D17B4AD2F8BC31002B50D141
:105E100018F0400F18D0774BD3F8AC111A46C3F8DE
:105E2000AC11D3F8BC11C3F8BC11D2F8B041714B1E
:105E3000002CFAD14FF0FF32C3F8B421D3F88431EB
:105E4000FFF770FB6F4B1C6018F0807F03D06E4B28
:105E50001B6803B1984718F0007F03D06B4B1B6899
:105E600003B1984718F0040F08D0624BD3F884317F
:105E700013F400734CD0664B01221A705D4BD3F8BB
:105E80004821120612D518F0800F0FD061490A7808
:105E900062B1013AD2B20A7042B95F490A7802F09F
:105EA000FB020A70002A00F03282FBBE03B0BDE89C
:105EB000F08F5A49C2F8BC310868034240F0E681CD
:105EC000504A15681D40A3D02F0C0FD04A4E4FF0FA
:105ED000010997FAA7F4B4FA84F406EBC41009FA9E
:105EE00004F44030FFF7BEFEA743F2D1ADB2002D5F
:105EF0008ED0414E012795FAA5F4B4FA84F406EB4E
:105F0000C41007FA04F4FFF7ADFEA543F3D17FE711
:105F10003F4A1370B2E742F22107B94235D000F28E
:105F20008980B1F5086F00F02181B1F5106F30D193
:105F3000C0F307403A4A3B4910703B4F3B4A01933C
:105F4000C5F8C871C5F8CC11C5F8D021FFF7ECFA37
:105F5000374A019B80210120B26451601060F364D4
:105F6000C5F8BCB1D5F8B011936041F48032C5F8E2
:105F7000B0212A4A1360D4F8B031002BFBD1D4F8F9
:105F8000AC31002B7FF4F0AE3DE7110C072900F097
:105F90003E81C4F8C0B1D4F8AC31002B7FF4E4AE3C
:105FA00031E740F20237B94200F0B080B1F5A06F9E
:105FB000EFD11F4A80210127F364B264176051605A
:105FC000C5F8BCB1D5F8B011936041F48033C5F881
:105FD000B031D4F8B031002BFBD1030C5B0643F099
:105FE0008073C5F85431D4F8AC31002B7FF4BCAECB
:105FF00009E700BF00002E4000400020C0012E40F5
:10600000C8380020A4380020A0380020AC38002078
:10601000B0380020B8380020A8380020B43800205C
:10602000D8380020C80002000200CC000200C800DE
:10603000A042002042F2212399425BD042F2213358
:106040009942A6D1B54B802200210120B36418608B
:106050005A60F164C4F8BCB1D4F8B021996042F43C
:106060008033C4F8B031D4F8B031002BFBD1D4F870
:10607000AC31002B7FF478AEC5E6A94A0221104668
:1060800013705370FFF70AFED4F8AC31002B7FF485
:106090006BAEB8E692B202F07F03072B3FF679AF02
:1060A00012F0800F4FEA83039E4A4FF000014FF039
:1060B00001001A44136814BF23F4803323F0010352
:1060C00013608022954BF164B36418605A60C4F881
:1060D000BCB1D4F8B021996042F48033C4F8B03137
:1060E000D4F8B031002BFBD1D4F8AC31002B7FF4C5
:1060F0003BAE88E692B2002AA4D18B4BC0F3074096
:106100008A4A19688A4B116018709BE792B202F0B4
:106110007F03072B3FF63DAF12F0800F4FEA83035A
:10612000804A4FF000014FF001001A44136814BF79
:1061300043F4803343F0010313608022774BF16412
:10614000B36418605A60C4F8BCB1D4F8B021996047
:1061500042F48033C4F8B031D4F8B031002BFBD115
:10616000D4F8AC31002B7FF4FFAD4CE6714A01212D
:106170006B4B127818461A70FFF790FDD4F8AC31CB
:10618000002B7FF4F1AD3EE66B4B596800293FF4DC
:1061900000AF000C1FFA82FE04E00C33596800299E
:1061A0003FF4F7AE1F888742F7D15F887745F4D177
:1061B000070A032F00F0E9801B89120C934228BFC5
:1061C0001346B0F5007F00F0D180B0F5E06F00F02D
:1061D0008B805A4F1A460193384600F0AFFD019B61
:1061E00027F01F021F44BFF34F8F55490A6020322A
:1061F0009742FAD8BFF34F8FBFF36F8F4F481946BE
:10620000FFF74CFDFBE5CB077FF5F5ADF1E54D4F15
:106210004FF0010EF3604C494C4B3860C3F800E07E
:106220005960B3604A49D5F8B0017A6001F58057EA
:1062300040EA0E02996001F5005E01F5405001F55B
:106240008041C5F8B021DF60C3F810E05861996162
:10625000D4F8B031002BFBD1304A012048F2800144
:10626000F36410604FF48030B2645160C5F8BCB183
:10627000D5F8B011936041EA0003C5F8B031C9F810
:106280000000D4F8B031002BFBD1B8E52D4842F224
:106290002104002605880E60A54240687FF410AEF8
:1062A00081B200297FF40CAE29492A4C03C90D0C98
:1062B00086282060A180A5717FF402AE72B62648C0
:1062C000017841F004010170D2F84811080606D4A3
:1062D00041F080018020C2F84401C2F8481162B642
:1062E0001E4A50211170EBE51D481A46134F90F8D5
:1062F00000E01C491C480193BEF1000F08BF014695
:10630000384600F01BFD0722019B7A7068E7D3F83E
:10631000482122F08002C3F84821C6E5A0420020AF
:10632000C8380020C0012E40E4380020183A002070
:1063300008380020D83800207806002000302020BF
:1063400070EF00E0C038002080000700804200208D
:10635000D03800201C3A0020A8380020B83800208F
:10636000B0380020141A0060581A00600A481A4613
:106370000A4907780A480193002F08BF01460948D7
:1063800000F0DCFC074F019B2AE7120C0B789342CC
:1063900028BF134619E700BFB0380020581A006024
:1063A000141A006000302020002AA0F102022DE91A
:1063B000F04714BF00274FF00057022A01D9BDE86B
:1063C000F0874FEAC01ADFF840900D4604460AEB0A
:1063D000090600214022984630460AF07FF9012044
:1063E00047EA05414AF80910C6F83880B060B8F1AC
:1063F000000FE4D0034BA0401C6820431860BDE8A8
:10640000F08700BFA438002000400020002AA0F13F
:1064100002022DE9F04714BF00274FF00057022A6F
:1064200001D9BDE8F0874022C501DFF844908846D5
:106430001544002104461E4605EB090A50460AF0A1
:106440004DF9012247EA084145F80910CAF83860B9
:10645000CAF80820002EE4D004F11000034B82405B
:10646000186802431A60BDE8F08700BFA438002016
:106470000040002012048160C36142F08002F0B449
:106480004260012701F5805601F5005501F54054A1
:1064900001F580420760C660056144618261F0BC1D
:1064A000704700BF831E022B00D9704730B4064BE3
:1064B00000F1100401250A4603EBC01005FA04F1AF
:1064C00030BCFFF797BB00BF40400020831E022B6B
:1064D00000D9704710B4054B01240A4604FA00F1B4
:1064E00003EBC0105DF8044BFFF784BB00400020B5
:1064F00040687047002857D001222DE9F04F85B041
:1065000083462A4C2A4D2B4EDDE9028954E8003F90
:106510002868336844E800210029F7D1264FCDE9E7
:1065200002893A68D31A254A4FF47A7E0197126895
:106530000127A3FB02234FF47A72984600238B4273
:1065400008BF42452CBFC246F2460EFB00AA54E8E3
:10655000003F2A68316844E80073002BF7D10198A6
:106560000068411A15484FF47A7E00680EFB02F26B
:10657000A1FB00014FF47A70CAEB020288460021A9
:10658000994208BF40452CBF434673461A447245A2
:1065900007D3BBF1010B0AF57A7AD8D105B0BDE873
:1065A000F08FFCF703FAD2E7704700BFC04200202B
:1065B000E4380020DC380020041000E0E03800203F
:1065C000124A134BD2F8200220F07F40984210B5B7
:1065D00084B002D800EB800040000E4C01A90A22D2
:1065E00000F09CF801A90023204611F8012B01338B
:1065F0003AB10A2B20F8022FF7D11623237004B0EA
:1066000010BD5B00DBB2237004B010BD00441F401E
:106610007F969800D029002004207146084203D0BC
:10662000EFF3098000F008B8EFF3088000F004B839
:10663000704700BF704700BF1B4B05211B4A382025
:1066400030B5C2F848110821C2F8380383B05A683F
:10665000174C0A4317485A60C3F88410C3F88810CF
:106660002368834202D91448FFF762F90E4D0824CB
:106670000020124A1249C5F884400190019B9342C0
:1066800005D8019B01330193019B9342F9D9C5F8C9
:1066900088400190019B8B42EDD8019B013301930F
:1066A000019B8B42F9D9E6E700C01B4000801F40E8
:1066B000B8290020FF45C32300A3E1113F420F008A
:1066C0003F548900094A08B5136820B118440849A5
:1066D000884202D81060184608BD09F053F90C2210
:1066E0004FF0FF330260184608BD00BFE8290020C4
:1066F00000002820002070474FF0FF30704700BF97
:106700004FF4005300204B60704700BF01207047DA
:106710004FF0FF30704700BF30BFFDE7F0B44E1EB2
:106720000025374600E00135B0FBF2F302FB130011
:1067300000F13704092800F13000E4B298BFC4B278
:10674000184607F8014F002BEDD14A1953704DB18F
:10675000013316F8014F1778E81A3770834202F8B0
:106760000149F5DB0846F0BC704700BF72B6064A27
:106770000721064B1964936B43F040039363BFF307
:106780004F8F30BFFDE700BF00400D4000C00A4002
:1067900036281CD800011A4A012902EB00031058C0
:1067A00010B415D0042913D0DC68426822EA040230
:1067B00042609A68E9B102291ED003295B685DF83E
:1067C000044B0CBF0F491049116015221A60704725
:1067D000DA680129446842EA040242609A6808D0F3
:1067E00040F6380111605B6815225DF8044B1A60B1
:1067F000704738211160F6E704491160F3E700BFE4
:10680000E4060020383001003800010038F00100B3
:10681000A4484FF00F0CA44B826F42F47F02F0B5F6
:1068200082670025D0F880204FF470469F4C4FF4CB
:10683000604E29464FF4806714432A46C0F88040D2
:10684000A3F88C6148F2B826A3F88EC1A3F8905142
:10685000B3F8880180B240F0F000A3F8880101EBA2
:106860004100914B0131002540011C46042903449D
:10687000A3F804E0DF805A841A865A805A81DE81A8
:106880005A82DA825A83DA83E9D1B4F888014FF068
:106890000F0C874B4FF4704680B229464FF4604787
:1068A0002A4640EA0C004FF4806EA4F88801B4F840
:1068B000880180B240F47060A4F88801A3F88C616C
