:1000000000800020BD0100004D29000005290000EE
:100010000529000005290000052900000529000028
:100020000529000005290000052900004D290000D0
:100030004D29000005290000753A0000E53A00004E
:100040004D2900004D2900004D2900004D290000D8
:100050004D2900004D2900004D2900004D290000C8
:100060004D2900004D2900004D2900004D290000B8
:100070004D2900004D2900004D2900004D290000A8
:100080004D2900004D2900004D2900004D29000098
:100090004D2900004D2900004D2900004D29000088
:1000A0004D2900004D2900004D2900004D29000078
:1000B0004D2900004D2900004D2900004D29000068
:1000C0004D2900004D2900004D2900004D29000058
:1000D0004D2900004D2900004D2900004D29000048
:1000E0004D2900004D2900004D2900004D29000038
:1000F0004D2900004D2900004D2900004D29000028
:100100004D2900004D2900004D2900004D29000017
:100110004D2900004D2900004D2900004D29000007
:100120004D2900004D2900004D2900004D290000F7
:100130004D2900004D2900004D2900004D290000E7
:100140004D2900004D2900004D2900004D290000D7
:100150004D2900004D2900004D2900004D290000C7
:100160004D2900002D2E00004D2900004D290000D2
:100170004D2900004D2900004D2900004D290000A7
:100180004D2900004D2900004D2900004D29000097
:100190004D2900004D2900004D2900004D29000087
:1001A0004D2900004D2900004D2900004D29000077
:1001B0004D2900004D2900004D290000564B4CF2FE
:1001C000205210B51A804DF628121A8000BF00BFC9
:1001D00002F0C0FB514B4FF010621A60504A9A6017
:1001E000504ADA60504A136813F4807304D14F49BF
:1001F0000B604FF4A85313604D4B1A78110703D5C9
:100200001A7842F008021A704A4B4B492A221A7097
:100210004A4A4B4B8B4204D252F8040F43F8040B6A
:10022000F8E7484B484900228B4202D243F8042B9E
:10023000FAE74649464A002352F8230041F82300D2
:1002400001336F2BF8D1434B434A802103F8011B44
:100250009342FBD1414B3D4A1A60414B8A221A70AE
:10026000A3F5805324225A70A0221A709A7992071B
:10027000FCD59A79D406FCD43A4A937903F00C035E
:10028000082B384BF9D103221A7140225A719A79FE
:100290009006FCD5334A9179324B4906FBD5324A58
:1002A000324911600221516020221A709A7902F0BD
:1002B0000C020C2AFAD12E4B2E4A1A602E4B2F4AD2
:1002C0001A6000225A60072243F8042C2C4AC3F813
:1002D0000C2D62B602F01AFC144B1B68DA0705D528
:1002E000284802F0ADFB284B284A1A60284B1B789F
:1002F0005B0609D5244C254B22689A4204D121483B
:1003000002F09EFB002323600DF0F6FC02F028FBB8
:1003100003F02AFCFEE700BF0E20054030800440B9
:10032000823F04000100002B10D0034014D0034092
:1003300002D0074000E007403892FF1F005901003B
:100340002087FF1F3892FF1F9C96FF1F0082FF1F10
:100350000000000000E400E05FE400E008ED00E0E1
:100360000050064000400640448004400000030165
:1003700004800440C010050014E000E0FF76010096
:1003800000002020310000001CE00340A5C3945A67
:1003900000F00740FFFFFFFFFFFFFFFFFFFFFFFF32
:1003A000FFFFFFFFFFFFFFFFFFFFFFFFFFFFFFFF5D
:1003B000FFFFFFFFFFFFFFFFFFFFFFFFFFFFFFFF4D
:1003C000FFFFFFFFFFFFFFFFFFFFFFFFFFFFFFFF3D
:1003D000FFFFFFFFFFFFFFFFFFFFFFFFFFFFFFFF2D
:1003E000FFFFFFFFFFFFFFFFFFFFFFFFFFFFFFFF1D
:1003F000FFFFFFFFFFFFFFFFFFFFFFFFFFFFFFFF0D
:10040000FFFFFFFFFFFFFFFFFFFFFFFFDEF9FFFF23
:1004100010B5054C237833B9044B13B10448AFF33E
:1004200000800123237010BD3892FF1F00000000E0
:100430003C550100084B10B51BB108490848AFF303
:1004400000800848036803B910BD074B002BFBD0A0
:10045000BDE81040184700BF000000003C92FF1F9D
:100460003C5501003892FF1F00000000012A06D011
:10047000022A02D108B10B680360002070470160B6
:1004800000207047012A06D0022A02D108B10B6869
:10049000036000207047016000207047012A06D0E9
:1004A000022A02D108B10B68036000207047016086
:1004B00000207047012A06D0022A02D108B10B6839
:1004C000036000207047016000207047012A06D0B9
:1004D000022A02D108B10B68036000207047016056
:1004E00000207047012A06D0022A02D108B10B6809
:1004F000036000207047016000207047012A06D089
:10050000022A02D108B10B68036000207047016025
:1005100000207047012A06D0022A02D108B10B68D8
:10052000036000207047016000207047012A06D058
:10053000022A02D108B10B680360002070470160F5
:1005400000207047012A06D0022A02D108B10B68A8
:10055000036000207047016000207047012A06D028
:10056000022A02D108B10B680360002070470160C5
:1005700000207047012A06D0022A02D108B10B6878
:10058000036000207047016000207047012A06D0F8
:10059000022A02D108B10B68036000207047016095
:1005A00000207047012A06D0022A02D108B10B6848
:1005B000036000207047016000207047012A06D0C8
:1005C000022A02D108B10B68036000207047016065
:1005D00000207047012A06D0022A02D108B10B6818
:1005E000036000207047016000207047012A08BFA7
:1005F00001600020704700BF012A06D0022A02D104
:1006000008B10B680360002070470160002070474C
:10061000012A06D0022A02D108B10B68036000202B
:100620007047016000207047012A06D0022A02D1DB
:1006300008B10B680360002070470160002070471C
:100640000A680248024903F081BA00BFC887FF1F49
:10065000642E010030B50B780468022B89B02AD0D3
:100660000E2B0FD043B11121264802F047F826483F
:1006700003F054FA09B030BD6169206801F04EF80A
:1006800009B030BD214A224B1168009100981968C9
:100690008842EFD912680192019A2068C8321A6024
:1006A00001F074F8034658B123681A491A681648CD
:1006B00003F04CFADEE7206801F050F809B030BDD5
:1006C000049404AD95E8030002AA0693231D82E872
:1006D000030093E8030085E8030092E803000E4A54
:1006E000079283E80300E36821690C48E060226117
:1006F00006930791002BD7D0032229462846984716
:10070000D2E700BF802E0100C887FF1F7C94FF1F27
:100710005492FF1F782E01002107000029060000D7
:1007200070B50B78046886B00E2B62D8DFE803F052
:1007300008616132393D454D52575C612D612B0096
:10074000616920682F4E00F0E9FF029402AB93E844
:10075000030000220492221D8DE8030092E80300AA
:1007600083E803009DE80300059682E80300E5683E
:1007700022692549E1602661049505921DB1032295
:1007800019461846A84706B070BD20681F4901F0F9
:1007900035FAF8E723681E491A681C4803F0D6F9B1
:1007A000F1E7236862691A60EDE760690BF044FDC8
:1007B0000146206801F04CF8E5E760690BF03CFD6C
:1007C0000146206801F048F8DDE76169206801F022
:1007D00009FAD8E76169206801F008FAD3E761698E
:1007E000206801F007FACEE76169206800F0D0FFC9
:1007F000C9E71121074801F081FF044803F08EF991
:10080000C1E700BF5506000011060000C887FF1FA2
:10081000782E0100802E010070B50B78046886B038
:100820000E2B62D8DFE803F008616132393D454D97
:1008300052575C612D612B00616920682F4E00F0DA
:100840006DFF029402AB93E8030000220492221D84
:100850008DE8030092E8030083E803009DE80300AD
:10086000059682E80300E56822692549E160266172
:10087000049505921DB1032219461846A84706B0F3
:1008800070BD20681F4901F0B9F9F8E723681E49D7
:100890001A681C4803F05AF9F1E7236862691A6084
:1008A000EDE760690BF0C8FC0146206800F0D0FF5E
:1008B000E5E760690BF0C0FC0146206800F0CCFF62
:1008C000DDE76169206801F08DF9D8E7616920688A
:1008D00001F08CF9D3E76169206801F08BF9CEE76C
:1008E0006169206800F054FFC9E71121074801F051
:1008F00005FF044803F012F9C1E700BF55060000E8
:1009000011060000C887FF1F782E0100802E01000D
:1009100030B583B0054600F0CFFDB8B10CF0C0FF94
:10092000044622460A490B4803F010F9D5F8700234
:10093000C368446100228DF8072033B103690DF1CB
:1009400007010430984703B030BDFEE70446E8E7EE
:10095000942E0100C887FF1F0068FFF7D9BF00BFB2
:1009600030B583B0054600F0A7FDD0B10CF098FF7C
:10097000044622460C490D4803F0E8F8D5F8700209
:100980000268C368116800220C4444618DF8072096
:1009900033B103690DF107010430984703B030BD4E
:1009A000FEE70446E5E700BFA02E0100C887FF1F51
:1009B0000068FFF7D5BF00BF10B5044682B00B49F1
:1009C0000B4803F0C3F8D4F87002C3686FF000411D
:1009D000002241618DF8072033B103690DF1070151
:1009E0000430984702B010BDFEE700BFAC2E0100F6
:1009F000C887FF1F0068FFF7DFBF00BF10B50446C0
:100A000082B00B490B4803F0A1F8D4F87002C36818
:100A10004FF00041002241618DF8072033B1036996
:100A20000DF107010430984702B010BDFEE700BF8A
:100A3000B42E0100C887FF1F0068FFF7DFBF00BFAB
:100A400010B5044682B00949094803F07FF8D4F88C
:100A50007002C36802228DF8072033B103690DF1DB
:100A600007010430984702B010BDFEE7BC2E01001C
:100A7000C887FF1F0068FFF7E3BF00BF10B504463B
:100A800082B00949094803F061F8D4F87002C368DC
:100A900003228DF8072033B103690DF107010430FB
:100AA000984702B010BDFEE7C42E0100C887FF1FA3
:100AB0000068FFF7E3BF00BF30B583B0054600F024
:100AC000FBFCB8B10CF0ECFE044622460A490B4888
:100AD00003F03CF8D5F87002C368446104228DF835
:100AE000072033B103690DF107010430984703B0C3
:100AF00030BDFEE70446E8E7D02E0100C887FF1F9F
:100B00000068FFF7D9BF00BF30B583B0054600F0DD
:100B1000D3FCB8B10CF0C4FE044622460A490B4887
:100B200003F014F8D5F87002C368446105228DF80B
:100B3000072033B103690DF107010430984703B072
:100B400030BDFEE70446E8E7E02E0100C887FF1F3E
:100B50000068FFF7D9BF00BF30B583B0054600F08D
:100B6000ABFCB8B10CF09CFE044622460A490B4887
:100B700002F0ECFFD5F87002C368446106228DF8DC
:100B8000072033B103690DF107010430984703B022
:100B900030BDFEE70446E8E7EC2E0100C887FF1FE2
:100BA0000068FFF7D9BF00BF30B583B0054600F03D
:100BB00083FCB8B10CF074FE044622460A490B4887
:100BC00002F0C4FFD5F87002C368446107228DF8B3
:100BD000072033B103690DF107010430984703B0D2
:100BE00030BDFEE70446E8E7F82E0100C887FF1F86
:100BF0000068FFF7D9BF00BF30B583B0054600F0ED
:100C00005BFCB8B10CF04CFE044622460A490B4886
:100C100002F09CFFD5F87002C368446108228DF889
:100C2000072033B103690DF107010430984703B081
:100C300030BDFEE70446E8E7082F0100C887FF1F24
:100C40000068FFF7D9BF00BF30B583B0054600F09C
:100C500033FCB8B10CF024FE044622460A490B4886
:100C600002F074FFD5F87002C368446109228DF860
:100C7000072033B103690DF107010430984703B031
:100C800030BDFEE70446E8E7142F0100C887FF1FC8
:100C90000068FFF7D9BF00BF30B583B0054600F04C
:100CA0000BFCD0B10CF0FCFD80EAE074A4EBE07426
:100CB00022460B490B4802F049FFD5F87002C36881
:100CC00044610A228DF8072033B103690DF1070151
:100CD0000430984703B030BDFEE70446E8E700BFA4
:100CE000202F0100C887FF1F0068FFF7D5BF00BF96
:100CF00010B5044682B00949094802F027FFD4F82C
:100D00007002C3680C228DF8072033B103690DF11E
:100D100007010430984702B010BDFEE7302F0100F4
:100D2000C887FF1F0068FFF7E3BF00BF10B5374C4F
:100D30003748062101F0E2FC204602F0EFFE2621B2
:100D4000344801F0DBFC204602F0E8FE2621324860
:100D500001F0D4FC204602F0E1FE2A212F4801F0E8
:100D6000CDFC204602F0DAFE2D212D4801F0C6FC14
:100D7000204602F0D3FE34212A4801F0BFFC204671
:100D800002F0CCFE2221284801F0B8FC204602F0F7
:100D9000C5FE4821254801F0B1FC204602F0BEFE08
:100DA0003721234801F0AAFC204602F0B7FE442177
:100DB000204801F0A3FC204602F0B0FE2E211E4880
:100DC00001F09CFC204602F0A9FE52211B4801F0D4
:100DD00095FC204602F0A2FE4C21194801F08EFC41
:100DE000204602F09BFE4D21164801F087FC20466C
:100DF00002F094FE1B21144801F080FC204602F012
:100E00008DFE2046BDE8104002F088BEC887FF1F57
:100E10003C2F0100442F01006C2F0100942F010092
:100E2000C02F0100F02F0100283001004C300100DC
:100E300098300100D0300100183101004831010024
:100E40009C310100EC3101003C32010070B586B0EC
:100E500002AC994B994E9A4904932246054602905A
:100E6000059600F053FA049B1BB10322214620464D
:100E70009847944B944E95490493224628460295F0
:100E8000059600F043FA049B1BB10322214620463D
:100E900098478F4B8F4E90490493224628460295DF
:100EA000059600F033FA049B1BB10322214620462D
:100EB00098478A4B8A4E8B490493224628460295CE
:100EC000059600F023FA049B1BB10322214620461D
:100ED0009847854B854E86490493224628460295BD
:100EE000059600F013FA049B1BB10322214620460D
:100EF0009847804B804E81490493224628460295AC
:100F0000059600F003FA049B1BB1032221462046FC
:100F100098477B4B7B4E7C4904932246284602959A
:100F2000059600F0F3F9049B1BB1032221462046ED
:100F30009847764B764E7749049322462846029589
:100F4000059600F0E3F9049B1BB1032221462046DD
:100F50009847714B714E7249049322462846029578
:100F6000059600F0D3F9049B1BB1032221462046CD
:100F700098476C4B6C4E6D49049322462846029567
:100F8000059600F0C3F9049B1BB1032221462046BD
:100F90009847674B674E6849049322462846029556
:100FA000059600F0B3F9049B1BB1032221462046AD
:100FB0009847624B624E6349049322462846029545
:100FC000059600F0A3F9049B1BB10322214620469D
:100FD00098475D4B5D4E5E49049322462846029534
:100FE000059600F093F9049B1BB10322214620468D
:100FF0009847584B584E5949049322462846029523
:10100000059600F083F9049B1BB10322214620467C
:101010009847534B534E5449049322462846029511
:10102000059600F073F9049B1BB10322214620466C
:1010300098474E4B4E4E4F49049322462846029500
:10104000059600F063F9049B1BB10322214620465C
:101050009847494B494A049321462846059200F097
:1010600091F9049B1BB1032221462046984728464C
:10107000FFF75CFED5F87052029594E80300002358
:101080003F4E049305962B1D8DE8030093E8030063
:1010900084E803009DE8030083E80300EB68049301
:1010A0002A693849E96005922E61002B6CD0032231
:1010B00021462046984767E06D040000590900006A
:1010C0005832010085040000B10900005C320100C3
:1010D0009D040000F509000060320100B504000025
:1010E000390A00002C4E0100CD040000750A0000F2
:1010F00064320100E5040000B10A00006C32010016
:10110000FD040000010B0000743201001505000011
:10111000510B00007C3201002D050000A10B0000E6
:101120008432010045050000F10B00008C32010003
:101130005D050000410C00009432010075050000BF
:10114000910C00009C3201008D050000E90C0000AC
:10115000A4320100A5050000250D0000AC320100FD
:10116000BD05000095110000B4320100D505000056
:101170009D110000BC320100ED0500004106000099
:1011800019080000F9050000286800F06BFB06B0A4
:1011900070BD00BF0068FFF7C9BD00BF0068FFF762
:1011A000C5BD00BF30B51A4A1A4C1B481B4983B055
:1011B0001378002BFCD02378DB07F9D503680D6882
:1011C0005B1B0E2BF4D92221154801F097FA154824
:1011D00002F0A4FC2321144801F090FA134B186884
:1011E000FFF734FE1021124801F088FA0D4802F092
:1011F00095FC104B1868C3680C228DF8072033B19A
:1012000003690DF107010430984703B030BDFEE7D4
:101210006095FF1F7894FF1F7C94FF1F8496FF1F2B
:10122000C0320100C887FF1FE43201006092FF1F37
:10123000083301005892FF1F10B50A4B1C6882B09A
:10124000204600F0D1F8D4F87002C3680E228DF861
:10125000072033B103690DF107010430984702B04C
:1012600010BDFEE76092FF1F014B1B68184700BFCF
:101270003C34010070B5882002F0C0FC0F4C104DCA
:10128000002102230122064600F020FA20202660D9
:1012900002F0B4FC2268026003460022DA604FF4D8
:1012A0001D702B6002F0AAFC2D68044600F00CF8BB
:1012B000044BC4F870521C6070BD00BF5C92FF1FED
:1012C0005892FF1F6092FF1F10B400F11C0300F53D
:1012D0001374002143F8081C1C33A3424FF0000292
:1012E000F8D1094B80F830221988C0F83C220A2333
:1012F000C0F86C2280F8472280F86822A0F84412D7
:1013000080F8463210BC7047A4480100F0B590F850
:101310003042C4EBC4041746A40087B00646082236
:1013200020440EF08BF8BB68344400220C34049245
:1013300023B302AD0222284639469847FA68BB68B3
:10134000A768A36095E803008DE8030094E8030014
:1013500085E803009DE80300E368049784E8030040
:101360000593E2601FB1032229462846B84796F844
:101370003032013386F8303207B0F0BD059A02AD45
:10138000DEE700BFF0B58B6887B000220492054607
:101390002BB30E4602AC204602229847F768B66887
:1013A00094E8030005F50D738DE8030093E803004E
:1013B00084E803009DE8030083E80300D5F83C328D
:1013C000D5F840220493C5F83C620592C5F84072F6
:1013D0001BB1032221462046984707B0F0BD1E46A8
:1013E000059F02ACDCE700BF2DE9F04F054683B056
:1013F00000F51B7800F51177002601F055F900285B
:101400001DDD01F015F995F84632C4B2A34219D09A
:1014100020460CF099FC0028EFD095F868321F2B7D
:10142000EBD85A1CD2B2A9182B4485F8682283F84D
:10143000474281F8476201F037F90028E1DC03B048
:10144000BDE8F08F4246394605F247200EF05CF8C1
:101450008246E8B195F830B2BBF1000F1DD0A94625
:10146000002404E001345C4509F11C0915D0082270
:10147000494650460DF092FF0028F3D1C4EBC40456
:10148000A40028190C308368A3B12C44A3699847A1
:1014900085F8476285F86862AFE7D5F83C32002BE3
:1014A000F6D0CDF804A0D5F8403201A905F50D70AD
:1014B0009847EDE702F050FD00F51B7200F5117141
:1014C00000200EF021B800BF012A06D0022A02D166
:1014D00008B10B680360002070470160002070476E
:1014E000012A06D0022A02D108B10B68036000204D
:1014F0007047016000207047692000F0F1BF00BF15
:1015000070B504681B4D22682B689A4218D994F86C
:101510002020194B53F8323093F80022EAB9012207
:1015200083F88020A168606802F05EFB0146606974
:101530002B6802680B442B609268BDE8704010472E
:10154000236A227BDBB262B90B4A52F833300122A4
:1015500083F8002100232B6070BD012283F8002155
:10156000E0E7054A52F83330012283F88020002357
:101570002B6070BD6492FF1F5034010070B51C4D8C
:1015800002682B689A4219D990F82020194B53F819
:10159000323093F80022F2B9012283F88020044609
:1015A0008168406802F020FB014660692B68026890
:1015B0000B442B609268BDE870401047036A027BC1
:1015C000DBB262B90B4A52F83330012283F80021B2
:1015D00000232B6070BD012283F80021DFE7054A5C
:1015E00052F83330012283F8802000232B6070BD35
:1015F0006492FF1F5034010070B50468236862686C
:10160000A16A13440029236010DD2368E06A023BCD
:10161000B3FBF0F200FB1233C9B2002B48D1294BC7
:1016200053F83130012283F8802062682368DB0799
:1016300020D5012A20D094F8603083F0010384F88B
:10164000603004F15400FFF799FF2268A3689A42C2
:1016500020D02368E56F03F00103043304EB830417
:1016600060680BF003F82B6801469B682846BDE8CC
:1016700070401847012ADED094F83C3083F0010313
:1016800084F83C3004F13000FFF778FF2268A3684B
:101690009A42DED1E06F0C4A0368DB6A93420FD1B5
:1016A000692000F01DFF00F01BFF0023237770BDB1
:1016B000044B53F83130012283F800216268B5E70A
:1016C0009847F0E750340100F914000070B5044663
:1016D000002521620E4E0F48A362642162622061E0
:1016E000E1622A462946E660257704F1400000F0D1
:1016F000E5FE2A46294604F1640000F0DFFE064BB1
:101700002A4604F17800196800F0D8FE204670BD22
:101710000000C8420000B4424034010038B50368FC
:101720008B4219D002680368816003F0010304331F
:10173000044600EB83039142ACBF01214FF0FF311F
:101740004160E56F58680AF091FF2B6801469B687D
:10175000284698470123237738BD00BF10B50446BB
:10176000C06F094A0368DB6A934207D1692000F021
:10177000B7FE00F0B5FE0023237710BD984700F0B8
:10178000AFFE0023237710BDF9140000007F7047DF
:10179000C1627047F8B50E460446254930461546E5
:1017A0000AF03CFF98B1234930460AF055FF002863
:1017B00034D1214F214E224928460AF04DFF80B9ED
:1017C000204928460AF034FF10B31F490BE01C499A
:1017D00028464FF080474FF07E560AF03DFF002824
:1017E000EED04FF07E5130460AF07AFD054660613A
:1017F000294638460AF06AFC0146A06128460AF0EC
:1018000067FC014611480AF01FFEE0602046F8BD63
:101810000B4928460AF018FE0146E4E73146044821
:101820000AF012FE014606460AF052FC0746C2E7DD
:1018300000247449CDCC4C3E8096184B8096984A33
:101840000000B4420000A040398E633D0024F449FA
:10185000C1600269FFF79EBF03460A461961C1686D
:10186000FFF798BF2DE9F0478CB0A04A0392002300
:1018700004460222694604A89D4D069300940295F1
:10188000FFF72EFE029B039A06930792002B00F0AF
:10189000738194F88020002A40F0C580E66F002E06
:1018A00000F0118131680F680A9208AD02222846C3
:1018B00004A99847079A069B0B920A9394F88030E4
:1018C000304600222946B8470A9B1BB1032229460D
:1018D00028469847069B1BB104A90322084698474F
:1018E000029B1BB10322694668469847256A256515
:1018F000804E814FDFF80C82EDB22846012101F0C5
:10190000B1F856F83530012283F8002104F130098E
:1019100000230222694604A80693CDF8009003979D
:10192000CDF80880FFF7D0FD029B039A069307923B
:10193000002B00F0198194F84820002A00F09580CF
:10194000662000F0CDFD069B1BB104A903220846CA
:101950009847029B002B00F0AA8003226946684644
:101960009847626A6267D5B20023284684F83C3003
:10197000012104F1540901F075F856F835300122BF
:1019800083F8002169460023022204A80693CDF8BB
:1019900000900397CDF80880FFF796FD029B039A0D
:1019A00006930792002B00F0E38094F86C20002A45
:1019B0003DD0662000F094FD069B1BB104A90322D4
:1019C00008469847029B23B1032269466846984718
:1019D000002384F8603094F82800012101F042F8D7
:1019E000A36A4649DBB2012256F8333083F800215E
:1019F0002269E1602046FFF7CDFE414A2261E1689D
:101A00002046FFF7C7FE00234FF496711E22642084
:101A1000236363652360A163E1656263A265E0629D
:101A20000CB0BDE8F087662000F05AFD52E7A76EC3
:101A3000002F7BD03968D1F800800A9208AD0222CD
:101A4000284604A99847079A069B0B920A9394F894
:101A50006C30384600222946C0470A9B002BABD089
:101A60000322294628469847A6E7D4F84490B9F1BE
:101A7000000F49D0D9F80010D1F800A00A9208ADA3
:101A80000222284604A99847079A069B0B920A93BC
:101A900094F84830484600222946D0470A9B002B3C
:101AA0003FF451AF03222946284698474BE7626A24
:101AB00084F83C30D5B262672846012104F154090C
:101AC00000F0D0FF59E7A36F002B59D09847064686
:101AD000E067002844D03268069B176800220A920B
:101AE000002B7FF4E2AE08ADE8E600BFF915000078
:101AF000E114000050340100011500000000C8424C
:101B00000000B442C9140000236C002B58D0984741
:101B10008146606400B3D9F80020069BD2F800A08B
:101B200000220A92002BAAD108ADB1E7636E002B08
:101B300036D098470746A06650B13A68069BD2F85F
:101B4000008000220A92002B7FF478AF08AD7EE778
:101B5000682000F0C5FC2FE7682000F0C1FCF2E629
:101B6000682000F0BDFCB5E6652000F0B9FCEAE6AF
:101B7000652000F0B5FC1FE7652000F0B1FCA9E688
:101B8000174D05F1100755F8043B98470646E067E6
:101B90000028A0D1AF42F6D1672000F0A1FC99E661
:101BA0000F4D05F1100855F8043B98470746A0660D
:101BB0000028C2D1A845F6D1672000F091FCFBE6D1
:101BC000074D05F1100A55F8043B984781466064BB
:101BD0000028A0D1AA45F6D1672000F081FCB2E62A
:101BE0006892FF1F01634165704700BF41638165D3
:101BF000704700BF8163C165704700BFF8B5466993
:101C00000C4605461C4930460AF06AFBA96907469E
:101C100030460AF05DFA014638460AF015FC0646E1
:101C2000E86809F04BFF02460B462046134901F0D5
:101C30008DFF304609F042FF0B4602461049204610
:101C400001F084FFEA6A0F49204601F07FFF2A6B0A
:101C50000D49204601F07AFF6A6B0C49204601F0DD
:101C600075FFAA6B0A49204601F070FF2046BDE8C7
:101C7000F84001F053BF00BF000034431C330100A3
:101C8000343301004C330100643301007C33010024
:101C90009433010010B40748074C0849084A094B1F
:101CA00024680068096812681C6058609960DA60EE
:101CB00010BC704734340100303401003834010066
:101CC000403401006892FF1F002070478368C0689D
:101CD0005A6940689B6902445A601A68502122F090
:101CE00080021A6000201960704700BF83689B69FA
:101CF0001A6822F040021A601A6822F080021A6004
:101D00000020704708B583680248D9690AF09CFB37
:101D100008BD00BF3737863D704700BF38B5064C59
:101D200004F1500554F8043F184613B11B681B6BAF
:101D30009847AC42F6D138BD1494FF1F70B5144CCF
:101D4000144E04F5807502E02034AC4218D062696C
:101D5000136803F0C003C02BF6D114F8033C8BB119
:101D6000136823F080031360716823690B44536088
:101D7000A36820462BB1E36820349847AC42E6D1F3
:101D800070BDFEE7136823F040031360F0E700BF67
:101D90000C93FF1F0080034070B5124C124E04F1EB
:101DA00040056269136803F0C003C02B03D02034E0
:101DB000AC42F6D170BD14F8033C53B9136823F05C
:101DC00040031360A368204613B1E3689847EEE729
:101DD000FEE7136823F080031360716823690B44E6
:101DE0005360EFE7CC92FF1F0090034070B5124C98
:101DF000124E04F140056269136803F0C003C02B62
:101E000003D02034AC42F6D170BD14F8033C53B972
:101E1000136823F040031360A368204613B1E368FE
:101E20009847EEE7FEE7136823F0800313607168BC
:101E300023690B445360EFE78C92FF1F00800B4037
:101E400038B5064CA4F58075E368211D0322203CBB
:101E5000084603B19847AC42F6D138BDE893FF1F5E
:101E600010B5084CE36A23B104F1240108460322AB
:101E70009847E3682BB1044903220846BDE81040A7
:101E8000184710BDC892FF1FCC92FF1F10B5084C19
:101E9000E36A23B104F12401084603229847E3686A
:101EA0002BB1044903220846BDE81040184710BD75
:101EB0008892FF1F8C92FF1F00487047ACC52742D5
:101EC000034B1B68C361012303760020704700BFEA
:101ED000041000E0002303761846704770B50F4DDC
:101EE0000F4B2C781B68ACB9016A89B1067E7EB1B4
:101EF000C2699A1A91420BD80269417EC3610123DB
:101F00002B7001764AB14369083098472C703446EB
:101F1000204670BD0024204670BDFEE77892FF1F6A
:101F2000041000E00369064A10B50446026023B1BC
:101F300000F10801084603229847204610BD00BF63
:101F4000F43301001748027838B5A2B9164B03F1F3
:101F5000500143F8042F8B42FBD11449144A01234A
:101F600003700B6843F080730B60136843F0010348
:101F7000136000F021FB0C4B002453F8045F25B1E3
:101F80000134142CF9D1002038BD302001F036FE88
:101F9000084B094A4560056185760576026043F87D
:101FA000240038BD6894FF1F1494FF1FFCED00E06F
:101FB000001000E01894FF1FF433010010B5142145
:101FC000044601F01FFE204610BD00BF0369084A09
:101FD00010B50446026023B100F10801084603224F
:101FE00098472046302101F00DFE204610BD00BF6D
:101FF000F4330100692000F073BA00BF692000F0DB
:102000006FBA00BF692000F06BBA00BF692000F012
:1020100067BA00BF6FF0640000F062BA6FF064004E
:1020200000F05EBA0D4BB1F1207F1B6810B504467D
:10203000C3610AD801EB41014901A1F14402012326
:10204000616222622376002010BD6FF0630000F011
:1020500047FA034A4FF07041F1E700BF041000E077
:10206000BCFFFFEF2DE9F843DFF8D48098F800308B
:10207000002B3DD12B4A2C4C2C4E13604FF6FF7198
:1020800091604FF07F571D4653609946A36804F84E
:10209000049C3BB10322214620469847C4F808908F
:1020A000C4F80C90EB0003F1804303F560336661E4
:1020B000DA68A76122F08002DA60DA68013522F07E
:1020C00040021021082DDA6006F1080604F1200410
:1020D000D960DBD1134B16490D221A603E2000F067
:1020E000A7FC144A4FF080410123116088F80030AA
:1020F000114900235A018C188D5C013325B1082B3E
:10210000F8D10020BDE8F88301232370142001F0EA
:1021100075FD0A4A034B4560056184600260C36037
:10212000BDE8F883008003400C93FF1F0C80034040
:102130003D1D000004E100E00893FF1FB4330100DF
:102140007B92FF1F2DE9F843DFF8D48098F8003028
:10215000002B3CD12B4A2C4C2C4E13604FF6FF71B8
:1021600091604FF07F591D4653601F46A36804F8E5
:10217000047C2BB10322214620469847A760E760E4
:10218000EB0003F1804303F564336661DA68C4F859
:10219000189022F08002DA60DA68013522F04002FD
:1021A0001021022DDA6006F1080604F12004D9603E
:1021B000DCD1144B16490D221A603F2000F038FC88
:1021C000144A4FF000410123116088F80030124B8F
:1021D0001A7832B193F8202012B10020BDE8F883BC
:1021E000012252010121995414209C1801F006FD8E
:1021F00000230A49034A84600160C26043600361AE
:10220000BDE8F88300900340CC92FF1F0C90034080
:10221000991D000004E100E0C892FF1FB4330100E3
:102220007A92FF1F2DE9F843DFF8D08098F800304C
:10223000002B3AD12A4A2B4C2B4E13604FF6FF71DC
:1022400091604FF07F591D4653601F46A36804F804
:10225000047C2BB10322214620469847A760E76003
:10226000EB0003F1804303F538236661DA68C4F8B4
:10227000189022F08002DA60DA68013522F040021C
:102280001021022DDA6006F1080604F12004D9605D
:10229000DCD1134B15490D221A60402000F0C8FB19
:1022A000134A0123136088F80030124B1A7832B1B8
:1022B00093F8202012B10020BDE8F88301225201DA
:1022C0000121995414209C1801F098FC00230A491C
:1022D000034A84600160C26043600361BDE8F88323
:1022E00000800B408C92FF1F0C800B40ED1D000006
:1022F00008E100E08892FF1FB43301007992FF1FCC
:10230000F0B50446B2F1207F4FF0000087B063764D
:102310000E4620762ED802EB42025201B3682262AA
:1023200000216262049163B302AD31462846022265
:102330009847F768B66895E8030004F108038DE84C
:10234000030093E8030085E803009DE8030083E8A9
:1023500003002369626904932661059267611BB1DA
:102360000322294628469847084B1B68E361002052
:1023700007B0F0BD6FF0630000F0B2F84FF07042AC
:10238000CCE71E46059F02ADD5E700BF041000E074
:1023900070B5054686B0AC68104663700E4609F00D
:1023A00047FFE16909F09CFF0AF060F9B0F5803F52
:1023B0002BD22546B36860610022049202AC3BB187
:1023C0000222204631469847F268B368059204938A
:1023D00094E803002B1D8DE8030093E8030084E8D4
:1023E00003009DE8030083E80300049AEB68EA60B9
:1023F00005992A690493296105921BB1032221469C
:1024000020469847002006B070BD6FF0630000F0D2
:1024100067F8AD684FF6FF70CCE700BF70B51D4D93
:102420002B6813F0010313D11B4C1C4A1C49E360B9
:1024300001261846E362E364E366C4F88C30C4F80E
:10244000AC30C4F8CC30C4F8EC302E6001F04EFD56
:10245000144C206810F0010309D1134D0F4A1349A1
:10246000EB6001261846EB62266001F03FFD104C40
:10247000206810F001030BD10E4D084AEB600126D5
:10248000EB6226600C491846BDE8704001F02EBD95
:1024900070BD00BF8492FF1F0893FF1F9887FF1F26
:1024A000411E00008092FF1FC892FF1F611E0000A6
:1024B0007C92FF1F8892FF1F8D1E000010B4002425
:1024C000C46044600160027210BC7047836810B53C
:1024D000044613B1032201469847204610BD00BFB1
:1024E00010B5074B9A6882B0044632B128B102A9F0
:1024F000DA6841F8040D18469047204602B010BD36
:102500000894FF1F044B054A054910B400249C6041
:10251000184610BC01F0EABC0894FF1F9887FF1F03
:10252000CD24000038B5064B03600546EFF3108458
:1025300072B601F0A1FA04B962B6284638BD00BFF0
:102540004C34010010B4047F4160022CC26002D000
:1025500010BC01F02DBA836810BC184770B5144C3C
:10256000064604F1500554F8043F184613B11B68A1
:102570001B6B9847AC42F6D133680E4A1B689342F6
:102580000AD1327F0023022A7360F3600AD03046FA
:10259000BDE8704001F00CBA002230461146BDE89B
:1025A00070401847B3683046BDE87040184700BF18
:1025B0001494FF1F4525000070B5EFF3108572B627
:1025C000124C204601F058FA114A12491378A160C2
:1025D00043F0040301212177137055B962B6237FBC
:1025E0006560022BE5600CD00848BDE8704001F042
:1025F000DFB900236360E3600448BDE8704001F088
:10260000D7B9A3682046BDE8704018479C87FF1FD4
:10261000C487FF1F5D250000024A0349034801F0FB
:1026200065BC00BF9887FF1F252500009C87FF1F02
:1026300038B50F4D286878B143880288C118013336
:1026400093420C7A02D24380204638BD00F0EEFA65
:10265000002320462B6038BD064B1B782BB103208E
:1026600000F00AFB28600028E6D14FF0FF3038BDAB
:102670007494FF1F6095FF1F10B5094C206818B1B6
:1026800043881844007A10BD064B1B782BB10320F9
:1026900000F0F2FA20600028F2D14FF0FF3010BDB8
:1026A0007494FF1F6095FF1F044B054A1B689088B8
:1026B0001BB11A885B88D31A184470477494FF1FA3
:1026C0009096FF1F0B4B1B789BB110B50A4C2068EE
:1026D00048B100F0ABFA00230320236000F0CCFAED
:1026E00030B100F0A3FA032000F0C6FA0028F8D1B8
:1026F00010BD70476095FF1F7494FF1F2DE9F04FC8
:10270000DFF8F89083B0012289F80020019169B3C5
:10271000DFF8EC80364F019E8346D8F80000B0B356
:10272000344D4488C4F14001B14228BF314604EB26
:10273000010E00221FFA8EFE2A70761AA0F802E01F
:1027400000F1080251B1013C224459441BF8014BED
:1027500002F8014F8B45F9D1B0F802E0BEF13F0F0E
:102760000BD8254A05211170002ED6D101980023DF
:1027700089F8003003B0BDE8F08F402202800146A6
:10278000042000F011FB0022C8F80020E9E73A78A5
:102790002AB3184D4AF2F9244FF0010A07E0013C30
:1027A00016D02A78A2B9FEF75FFD3A78BAB10420B4
:1027B00000F080FA0728F2D889F800A000F016FA95
:1027C000C8F800000028ACD10C4B013C1870E8D1CF
:1027D00001234FF0FF302B7003B0BDE8F08F0023D2
:1027E0004FF0FF3089F8003003B0BDE8F08F00BF34
:1027F0006095FF1F7094FF1F6994FF1F6A94FF1F6D
:102800006C94FF1F00B583B002AB012103F8010DEA
:102810001846FFF773FF03B05DF804FB38B50E4DA3
:102820000E4C28680123237028B1408800232370B0
:10283000C0F1400038BD0A4B1B7813B9002020704E
:1028400038BD042000F036FA0728F7D800F0CEF99A
:1028500028600028E9D1F1E76C94FF1F6A94FF1FFC
:102860006095FF1FF8B5114B1B788BB1104E114DC1
:10287000346801272F7064B10F4A638800271770EE
:1028800021462380042000F08FFA376000232B704C
:10289000F8BD00F0ABF9084B28B1014604201C70CC
:1028A00000F082FAF2E71F70F0E700BF6095FF1FAB
:1028B0006C94FF1F6A94FF1F6994FF1F38B50E4B7D
:1028C0001B7873B90D4C216861B103F0FF054B888B
:1028D0000B80042000F068FA256038BD084B012207
:1028E0001A7038BD00F082F90028F7D00146BDE823
:1028F0003840042000F058BA6A94FF1F6C94FF1F00
:102900006994FF1F08B5104C08E0236859050DD4E1
:1029100023681A050FD42368DB0411D423685803F5
:10292000F3D500F083FA23685905F1D500F00EF8CD
:1029300023681A05EFD500F009F82368DB04EDD50C
:1029400000F004F8EAE700BF3480044008B5FFF760
:10295000D9FF00BF014B10221A80704700200540AC
:10296000704700BF094908B50B6830B16A46184482
:10297000A2F58052904202D20860184608BD0AF0C3
:1029800099FF0C2303604FF0FF3008BDBC87FF1F89
:10299000002070474FF0FF30704700BF4FF40053E6
:1029A0004B600020704700BF012070474FF0FF30A0
:1029B000704700BFFEE700BF1C4A02EBC0030129BD
:1029C0005B6811D004291BD052F83000002280F837
:1029D000802229B1022920D0032922D01A60704711
:1029E0004FF480721A60704752F830004FF4A272B0
:1029F00080F880121A601A6822F020021A6070476C
:102A000052F830104FF4A272012081F880021A604F
:102A10001A6842F020021A60704740F203121A60EE
:102A200070474FF481721A60704700BF5034010044
:102A30001030024B43F82010704700BF0082FF1F88
:102A400030B4054B054D064C002210211A602A6057
:102A50002060196030BC704714D0034004D003409C
:102A600000D00340212801D8FFF7A6BF704700BF60
:102A70002DE9F843054672B6204F214B214A1B68C9
:102A80003C68126862B6520102D5322B88BF01340D
:102A900095B3C3F5BB331C4EDFF86490DFF8648058
:102AA000FF334FF47A72A6FB031302FB04F404EB2A
:102AB000931472B6D9F800103A68D8F800E062B6FC
:102AC000C1F5BB33FF33A6FB03031EF0806FC4EBDD
:102AD00093134FF47A7002D0322988BF013200FB81
:102AE0000233B3F57A7F04D3013D05D004F57A743F
:102AF000DFE7FEF7B9FBDCE7BDE8F8837C94FF1F56
:102B000018E000E004ED00E0ABAAAAAAF8B52D4B4E
:102B10002D49DFF8D0E0DFF8D0C02C4E2C4D2D4CE5
:102B20002D4A2E4F4FF4000018604FF0807018604F
:102B30004FF0007018604FF0806018604FF0006038
:102B400018600020086028234BF6FF71CCF80010B5
:102B5000CEF80030336013602B6023603B60B362BB
:102B60009362092245F8242CC4F8D80F05F57F6537
:102B7000C7F8D41F07F5FF2707F5FA67C6F8F83F2F
:102B80002B6006F5FF26C4F8D42F05F5FD2504F5C6
:102B9000FF24386006F2F4761148316005F5FF65D0
:102BA00004F5FD642B602360026001F0C7F8192072
:102BB000FFF75EFF00F0A0FE40F21310BDE8F84002
:102BC000FFF756BF08E100E0048003401480034093
:102BD000248003402C8003401C8003403480034049
:102BE00000800B400C8003400880034072B60D4803
:102BF0000268B2FA82F30B2B10DC4FF00041D9408F
:102C000022EA0102026062B6074803EBC303DB005D
:102C1000C2180021C15010465160704762B60020B2
:102C2000704700BFC087FF1FBC83FF1F0D4B0E4ABC
:102C3000C31AA2FB03231B090B2B0CD80B4A1278D7
:102C400052B972B60A484FF00041026821FA03F304
:102C50001A43026062B67047064A1278002AF0D022
:102C600000F03EB8BC83FF1F398EE3385595FF1F37
:102C7000C087FF1F6095FF1F431E032B14D872B639
:102C80000A4951F8230068B170B4094C058834F83A
:102C90001320466841F82360521B24F8132062B6C3
:102CA00070BC704762B6704700207047D894FF1F11
:102CB0009096FF1F013803280BD872B6074B53F8C4
:102CC000203043B100205B680130002BFBD162B69D
:102CD0007047002070471846F9E700BF2C95FF1F8A
:102CE00030B472B62B4A13781D0706D52A4B196AE1
:102CF000002936D0996A002941D053781C0706D59F
:102D0000254B196C00293ED0996C002939D0937855
:102D1000190705D5204B196E002936D0996E89B157
:102D2000D3781B0707D51C4BD3F880207AB3D3F890
:102D3000882011213AB162B6184B00221A7030BCBB
:102D4000FFF774BF0D21154C154D227843F8315013
:102D500003EBC1030830013A5860227062B630BC00
:102D6000704704220D4C0F4D217843F8325003EB8D
:102D7000C20308304A1E5860227062B6EFE7052190
:102D8000E1E70921DFE70822ECE70C22EAE710225D
:102D9000E8E700BF8C3501000080FF1F5595FF1F3D
:102DA000C800400088004000431E032B1DD81B4A6A
:102DB000400140F0100030B4104472B6184CE25C90
:102DC000032A1BD8DFE802F00212151703220D8830
:102DD000E25410F0080F14BFC823882343EA0543C8
:102DE00008310360416062B630BC7047083002228F
:102DF000EDE70522EBE708300422E8E7094A52F83C
:102E0000230038B1084A52F82300416042F82310E9
:102E100062B6E9E742F82310034AF7E70080FF1F94
:102E20006495FF1F2C95FF1F3C95FF1F2DE9F04F68
:102E3000DFF818B3DFF818A387B044E0AE4F4FEACD
:102E4000930807EBC809013ED9F8042003F00803F2
:102E5000F6B2A2F1080003F0FF04002B40F0048159
:102E600057F838301B0C99B222F8081C002B00F0E0
:102E7000F280A24B22F8064C42F8044C53F826206C
:102E8000002A00F06E819E4D55F8263058609D4C0A
:102E900045F8260034F81630194424F81610FFF7C8
:102EA000A5FE002800F05681974A984B19F0080FAC
:102EB00000F1080018BF1346C9F8040047F838307D
:102EC00008238BF800309BF80040E4B261071BD563
:102ED0008F4B1B78ABB18F490A7802F0FF032AB100
:102EE000013BDBB20B70002B00F0EF848A490A78BB
:102EF00002F0FF032AB1013BDBB20B70002B00F0A4
:102F0000F78004238BF8003004F0080303F0FF027D
:102F1000002B00F0D6809AF80030DBB21E098DD16C
:102F20009C08DFF8D49159F8342009EBC401C2F3AE
:102F30008302013A49680C2A7ED8DFE802F08181D9
:102F40007D7D7D7D7D7D477D7D7D07000868734D9E
:102F50004A68734F734E286081B240F281606A4BB9
:102F60006A604FF0010E0022814249F834303A6025
:102F7000C9F81020C9F8182086F800E05E4C00F26D
:102F8000F480B1F5D06F80F07883B1F5817F00F0E7
:102F9000628300F28782802900F0EC82822940F06F
:102FA0001E83A98801F07F01042900F218835E487E
:102FB0005E4C89000844227062700278930740F1E9
:102FC000798384F800E04FF0020ED8E2544F3A685B
:102FD00042B3574B534E5749188834780D784028E0
:102FE000864645F0020828BF4FF0400E002C84F0C2
:102FF00001043470CEEB00000CBF8824C82409EB18
:10300000C80680B285F0010544EA0E44726018805B
:1030100049F8384072440D7018B9BEF1400F18BF1E
:1030200000223A603D4B1A88B2F5A06F04D100210E
:103030009A785970404B1A70404A012313703FE749
:10304000364A158842F22100854200F0FF812E4A5F
:1030500049F83420F0E72C4A2C4B19F0080F18BF20
:10306000134647F838302BE7FFF7E0FD344A35497F
:1030700052F82630002B00F0B68158688C5D42F87B
:10308000260003F10802C9F80420032C05D8DFE864
:1030900004F0120F150204228A551A8819F0080F3D
:1030A0000CBF8823C82343EA024347F8383007E7B8
:1030B00002228A55F1E703228A55EEE705228A5556
:1030C000EBE7E00700F11A82210600F14982A2072E
:1030D00006D51D4A1D4913780220DBB21370087013
:1030E000E30602D5194B10221A7007B0BDE8F08F25
:1030F000FFF7E4FB05E700BF0080FF1FD894FF1F28
:103100008494FF1F9096FF1FC80040008800400075
:103110006095FF1FE994FF1F6994FF1F4C95FF1FE7
:103120008094FF1FE894FF1FC02007405895FF1FA1
:103130009494FF1F5495FF1F982007409420074048
:103140002C95FF1F6495FF1F8820074080200740B3
:1031500090200740AB4A47F83800137801331370CA
:10316000AEE643F82600A84D91E642F221008142E6
:1031700000F0358100F2AF81B1F5086F00F01B82DD
:10318000B1F5106F40F02B82226AA049A878087030
:10319000120600F14583D9F828209D49130600F155
:1031A0003A83D9F830209A49150600F12F83D9F8CF
:1031B00038209749140600F12483D9F84020944917
:1031C000100600F11983D9F848209149120600F140
:1031D0000E83D9F850208E49130600F10383D9F8E5
:1031E00058208B49150600F1F882D9F860208849EB
:1031F000140600F12983D9F868208549100600F1EA
:103200001E83D9F870208249120600F11383D9F881
:1032100078207F49130600F10883D9F880207C4983
:10322000150600F11C83D9F888207949140600F1AD
:103230001083D9F890207649100600F1C882D9F899
:1032400098207349120600F1BC827248724A734991
:10325000019073486C4D734C0497002305960295BA
:10326000804617460E461D460394386828B14468C8
:10327000FFF7DCFC2046002CF9D100233B60029BC9
:1032800030681A46002342F8253028B14468FFF719
:10329000CDFC2046002CF9D100223260019A98F82A
:1032A00000301146002241F8042B039A0191023BA1
:1032B0004FF0000122F81510032B09D8DFE813F0B6
:1032C0004B0104004B0104004FF0010388F800306B
:1032D0000135042D07F1040706F1040608F1010881
:1032E000C3D1514C514B2278464D049F059E00217D
:1032F00029701A70130700F14F8262784C49DFF889
:1033000010810A7010074FF00001C9F83010C9F899
:10331000381000F12B824749A2780A700021C9F8C1
:103320005010C9F858101107DFF8E48000F1DC8173
:10333000E2784149364C0A7000211207C9F8701032
:10334000C9F8781000F1B98133780193002183F036
:103350000102C9F89010C9F8981000200290804628
:103360008446044635490D7845F0020E09EBCE033C
:103370000393019B002B039B5C600CBF8824C82433
:1033800044EA080385F0010449F83E3032700C70BD
:10339000DFF87CE02A4BDFF8A480002840F026818B
:1033A000BCF1400F1BD144F0020C09EBCC03029C92
:1033B000DFF85CE05C60002A40F02E81020442F0FD
:1033C00088029DF804304EF83C20044433700D70A0
:1033D0002346402803D100201A4A3B6010801A4A35
:1033E0000123137028E68B5D032B00F22D8101A2CF
:1033F00052F823F0C12E0000C12E00004B35000012
:10340000513500005595FF1F8494FF1F6095FF1FE5
:103410000080FF1F3C95FF1FD894FF1F2C95FF1FB6
:103420006495FF1F9096FF1F8C350100C420074054
:10343000C8200740CC200740D02007405495FF1FEC
:10344000E894FF1F9494FF1F94200740928892B93C
:10345000B14A0D784878157050708D78C87895709D
:10346000D07010680D79157186284D79897955715C
:10347000917100F0A580A949A94E0A78307882F0B0
:103480000105002842F002020D700CBF8821C821FE
:1034900049F8321009EBC20280F0010000213070BF
:1034A0005160D4E540F20232914240F08D80A9880B
:1034B00001F07F01042900F292806A88002A40F01E
:1034C0008E809848CDF804E089000844017841F0E6
:1034D0000201017041E742F2212081427BD1A9889B
:1034E000002940F0E480904B904A9148AC781D68E8
:1034F0001560CDF804E00A4604702EE78D4B8E4827
:1035000086491A614FF0020E80F800E0854F0A707C
:103510008A49196099608A4E8A4D8B4C9A610D21B7
:103520003970FF213170DFF840E229702270874D39
:10353000874A8EF800109F27012406F8047C5D60FE
:103540000470DA6007B0BDE8F08F00238B55B7E454
:1035500001238B55B4E44FF0000388F80030B7E640
:103560007049784B80220D2008701A70A2077FF5F1
:10357000B7ADAEE5774C4FF0020E22706270EA886C
:10358000724580F0A38165490D78402A944645F044
:10359000020E28BF4FF0400C04EB0C0309EBCE00E9
:1035A0000293012344604FEA0C48CCEB02000193E4
:1035B0000022C824E4E6684A664C12782270DEE7EE
:1035C000664A0F21117056E7B1F5A06F07D10123AC
:1035D00000220193C1E642F221329142F7D0514AD2
:1035E0000F231370544A0123137025E540287FF6FA
:1035F000DAAE44F002040EEBC401029E4E60BAB192
:103600009DF80410564A19703346403888F8005027
:1036100040334EF83420DFE69DF804303370020466
:10362000029B0D7042F0C80203444EF83C20D0E6E5
:103630009DF804101970029B404A88F800504038E9
:1036400040334EF83420C7E619F0080F0CBF0223B0
:1036500003238B5534E4A98801F07F010429BED8E7
:103660006A88002ABBD12F48CDF804E089000844BD
:10367000017821F0020101706FE63A4A5468002C8B
:10368000ADD06888B5F804E003E00C325468002C33
:10369000A5D013888342F8D153887345F5D1000A29
:1036A00003280CBF94F800E0B2F808E067E7CDF813
:1036B00004E052E64FF0020E61E7FFF797FA0028A8
:1036C00000F0F18008301D4AC4F88400C4F880205E
:1036D000FFF78CFA002800F0E0800830204AC9F893
:1036E0008C00C9F888202FE6FFF780FA002800F048
:1036F000E6800830114AC8F86400C8F86020FFF777
:1037000075FA002800F0D5800830154AC9F86C0019
:10371000C9F868200CE600BF8896FF1F5495FF1F6C
:10372000E894FF1FC02007407C94FF1F8496FF1F72
:103730007894FF1F0080FF1F9420074088004000FE
:103740008820074080200740982007409894FF1F5A
:10375000EC94FF1F5895FF1F6095FF1FE994FF1F12
:10376000C8004000903501008C200740FFF73EFA6A
:10377000002800F08C8008305D4AC8F84400C8F882
:103780004020FFF733FA00287BD00830594AC9F8A7
:103790004C00C9F84820BEE5FFF728FA00286AD097
:1037A0000830534AC9F82400C9F82020FFF71EFA50
:1037B00000285AD008304F4AC9F82C00C9F82820F0
:1037C0009BE5D1F89C000838FFF730FA3DE5D1F8C9
:1037D00094000838FFF72AFA31E5C86D0838FFF77A
:1037E00025FA02E5486D0838FFF720FAF7E4C86CBF
:1037F0000838FFF71BFAECE4486C0838FFF716FAB4
:10380000E1E4C86B0838FFF711FAD6E4486B0838D2
:10381000FFF70CFACBE4C86A0838FFF707FAC0E4F0
:10382000606A0838FFF702FAB5E4C86F0838FFF796
:10383000FDF9F2E4486F0838FFF7F8F9E7E4C86EDD
:103840000838FFF7F3F9DCE4486E0838FFF7EEF9C3
:10385000D1E4D1F88C000838FFF7E8F9E9E4D1F8B1
:1038600084000838FFF7E2F9DDE42A78C9F8280077
:1038700001322A7041E52A78C9F8200001322A7005
:1038800094E72A78C9F8480001322A7043E52A787B
:10389000C8F8400001322A7073E72A78C9F8880016
:1038A00001322A7050E52A78C4F8800001322A706B
:1038B0000EE72A78C9F8680001322A7038E52A78BC
:1038C000C8F8600001322A7019E700BEBEF1400F4F
:1038D000F44628BF4FF0400C04EB0C030293012385
:1038E000CCEB0E004FEA0C48002201933AE500BFF2
:1038F00088004000C80040002DE9F843204C00F04B
:103900008DFA002204F1A00023461A605A600833A1
:1039100083424FF00001F8D11A4A1B4F13681B4D28
:103920001B481C4EDFF87880DFF878C0DFF878900D
:10393000DFF878E043F480231360C4F307233B707F
:10394000C4F307432B70240EFF2302F528320470C2
:10395000114D88F8003011488CF80030D4323370A3
:10396000012389F8003070268EF800104FF400749F
:10397000102107F8183C2E7004601170BDE8F88320
:103980000080FF1F348004409C200740B020074087
:10399000B42007401020074049E400E008E100E0BF
:1039A00080200740882007409420074000210740DE
:1039B00010B4EFF3108272B6437F33B9017F01294F
:1039C00007D003290FD00123437702B962B610BC98
:1039D0007047124C2168A1B1114943610B688361A2
:1039E00008605861EFE70F4C216881B10E494361CF
:1039F0000B688361086058610C4B4FF0805119606F
:103A0000E1E7074B4161816120601860DBE7064B0D
:103A10004161816120601860EEE700BF7495FF1F6F
:103A20007095FF1F6895FF1F6C95FF1F04ED00E068
:103A300070B5EFF3108272B60C4C206880B10C4E5A
:103A400000254369236073B19D6102B962B6457771
:103A500083689847EFF3108272B620680028F0D18F
:103A600002B962B670BD3360EFE700BF6895FF1F13
:103A70006C95FF1FFFF7DCBF037F012B0FD0032BDB
:103A800000D07047437F3BB18369E3B142695A611B
:103A900042696AB90F4A1360002303777047437F76
:103AA000002BF9D0836953B142695A6142691AB156
:103AB0009361002303777047074A1360ECE70749D7
:103AC00042690A60F3E7064942690A60002AEFD1B9
:103AD000E0E700BF6C95FF1F7095FF1F7495FF1FF7
:103AE0006895FF1F024A136801331360704700BFD7
:103AF0007C94FF1FFEF7E6BDFEF7BEBDFEF798BD46
:103B0000FEF7D2BDFEF7AEBEFEF788BE08461146F0
:103B1000FEF7F4BD0846FEF775BE00BF00B5064AC5
:103B2000036812885B6883B001A9ADF80420022203
:103B3000984703B05DF804FB8835010010B50368B1
:103B400014465B689847204610BD00BF0EB400B510
:103B500082B003AA52F8041B01920DF00BF902B0D7
:103B60005DF804EB03B0704708B5FDF71BFBFDF7EC
:103B700063FBFDF779FBFAE7F0B5164D2A680AB347
:103B80001549164BDFF85CE082FB016781FB0214EC
:103B9000D617D1191444C6EB2141C6EB244403FBCC
:103BA00004F40EFB112244F2A71303FB0243002B83
:103BB00002DA03F10043013BB3FBF0F22B6000FBA0
:103BC0001230F0BD064B2B60B3FBF0F200FB12305D
:103BD000F0BD00BF7895FF1F5F0B4E83ECF4FFFF35
:103BE00042CE0C1F1DF30100884206DA10B50446D0
:103BF000081AFFF7C1FF204410BD70470AF03CB916
:103C00000AF042B90AF040B9844641EA000313F0D1
:103C100003036DD1403A41D351F8043B40F8043BD3
:103C200051F8043B40F8043B51F8043B40F8043B96
:103C300051F8043B40F8043B51F8043B40F8043B86
:103C400051F8043B40F8043B51F8043B40F8043B76
:103C500051F8043B40F8043B51F8043B40F8043B66
:103C600051F8043B40F8043B51F8043B40F8043B56
:103C700051F8043B40F8043B51F8043B40F8043B46
:103C800051F8043B40F8043B51F8043B40F8043B36
:103C900051F8043B40F8043B403ABDD2303211D3D6
:103CA00051F8043B40F8043B51F8043B40F8043B16
:103CB00051F8043B40F8043B51F8043B40F8043B06
:103CC000103AEDD20C3205D351F8043B40F8043BD6
:103CD000043AF9D2043208D0D2071CBF11F8013BD4
:103CE00000F8013B01D30B8803806046704700BF9A
:103CF000082A13D38B078DD010F003038AD0C3F1A9
:103D00000403D21ADB071CBF11F8013B00F8013B8A
:103D100080D331F8023B20F8023B7BE7043AD9D349
:103D2000013A11F8013B00F8013BF9D20B7803701E
:103D30004B7843708B7883706046704730B4294865
:103D4000294A2A4B2A4D6024E121047011701B7806
:103D5000284C082B30D00A2B2748284937D00C2B69
:103D60000CBF35223D2212232A60236002600B60C3
:103D7000234B24491B78244ABBB101230B601360F9
:103D8000224B23491B78234A012B26D9042B0FD918
:103D9000082B1ED9102B94BF862387230B6013603A
:103DA0001D4B01221A7030BC70470B601360E7E7AF
:103DB00084230B601360F3E700F58E200F49083071
:103DC000012213232A60236002600B60D0E73922AE
:103DD000F7E785230B601360E2E780230B60136035
:103DE000DEE700BF0040074001400740D887FF1FC3
:103DF00008B003400CB0034008B00B400CB00B40BF
:103E00007D95FF1F20B0034020B00B40D987FF1FD6
:103E100024B0034024B00B407C95FF1F70B584B0E4
:103E200072B6194B194D1A48702241260F24802171
:103E30001A702E701A460470197013781B06FCD580
:103E4000144B186862B6144B144C984298BF00EBA0
:103E5000800001A998BF40000A2200F021F801A9C2
:103E60002046002311F8012B01333AB10A2B20F828
:103E7000022FF7D11623237004B070BD5B00DBB2B4
:103E8000237004B070BD00BF000002400700024074
:103E900006000240080002407F9698006888FF1FD5
:103EA000F0B44D1E2E46002400E00134B0FBF2F3C6
:103EB00002FB1300092800F130078ABF3730F8B23F
:103EC000C0B206F8010F1846002BEED10A19537044
:103ED0004CB1107815F8016F28700133E01A834255
:103EE00002F80169F5DB0846F0BC70470B46014655
:103EF000184609F0D9BC00BF38B50546082000F0C7
:103F000071FF2946044600F037F82046044A054967
:103F100000F0EEFA204600F07DFF00F09FFF00BFAA
:103F2000E9500000CC3A010038B50546082000F001
:103F300059FF2946044600F033F82046044A054953
:103F400000F0D6FA204600F065FF00F087FF00BFC2
:103F50003D510000103B010008B5042000F042FF75
:103F6000024B0360024A034900F0C2FA443B0100DD
:103F700075510000303B010010B5084B82B004467B
:103F800001AA40F8043B00F095F8204602B010BDAD
:103F9000204600F057FE00F061FF00BFF03A01003C
:103FA00010B50446FFF7E8FF014B2360204610BD23
:103FB000243B010010B582B001AB044600F06CF860
:103FC000204602B010BD00BF134B984210B51FD859
:103FD0008842044614D94A00904238BF144604F17E
:103FE0001D02B2F5805F04F10D000BD9A14209D288
:103FF00004F58054C2F30B02A41A9C4228BF1C464D
:1040000004F10D00FFF7FAFD00224460826010BD4C
:104010000248FFF789FF00BFFCFFFF3F8C3601001D
:1040200070B50C1A064600212046FFF7CDFF012C83
:10403000054600F10C0305D084B90C4A954206D11F
:10404000184670BD32780273084A9542F8D0291993
:1040500000222C60AA600A73184670BD18463146CB
:104060002246FFF7D1FD0346E7E700BF8095FF1F1B
:10407000FFF7C6BD884202D018B1FFF7D1BF044890
:1040800070470029F9D008B50248FFF735FF00BF97
:104090008C95FF1F5037010038B50D46044611447A
:1040A00028461A464FF00003FFF7E4FF2060204641
:1040B00038BD00BF70B5054616460C4661B10846CE
:1040C0000BF0FEF82118324620464FF00003FFF7B0
:1040D000D1FF2860284670BD4FF0FF31F3E700BFE5
:1040E00000487047D038010000487047D8380100B8
:1040F00002604160704700BF4B68834201D00020DE
:1041000070470868801AB0FA80F04009704700BF15
:10411000704700BF704700BF10B50446FFF770FD41
:10412000204610BD10B50446FFF76AFD204610BDBD
:1041300010B50B6886B004461B6968469847204650
:104140009DE80600FFF736FF009802AB984201D0C9
:10415000FFF756FD204606B010BD009802AB98420E
:1041600001D0FFF74DFD00F079FE00BF70B50546A8
:1041700082B001B3541A0F2C0E4601940AD82B6852
:10418000012C184613D064B9019A6A600021995431
:1041900002B070BD002201A901F04CF9019B28601A
:1041A000AB6022463146FFF72FFD2B68ECE73278F3
:1041B0001A702B68E8E712B10248FFF79DFE0192E2
:1041C0000368E1E7E038010038B5044610460BF01B
:1041D0005BF804F108032360054640B10BF070F86A
:1041E00029462A182046FFF7C1FF204638BD204641
:1041F0004FF0FF322946FFF7B9FF204638BD00BF18
:1042000030B503680C4D5B69AB4283B014460CD1EA
:104210006368834202D0002003B030BD2068401A9A
:10422000B0FA80F0400903B030BD0A460146684646
:10423000984700990198EBE7F140000010B5064C53
:10424000064907482246FFF751FE2246054906481F
:10425000BDE81040FFF74ABE9887FF1F15410000D8
:104260008488FF1F114100008088FF1F38B5044675
:1042700000F0E4FC22780368472AA4F1200105D06D
:10428000002B31D11C460160204638BD62784E2A91
:10429000F6D1A278552AF3D1E278432AF0D12279D7
:1042A000432AEDD162792B2AEAD1A2792B2AE7D1D0
:1042B000E279012AE4D854F80C2C002A11DB0132EF
:1042C000456844F80C2C8B4205F1FF3242601CBF5C
:1042D00044F8103C01602046646A08F035FD204631
:1042E00038BDC2F10102EBE700F0CEFC013101D094
:1042F00000F0B4FD01F0F2F808B500F09BFC0246B6
:10430000006800283DD090F82030472B06D00023CD
:1043100013602030BDE8084008F018BD90F8213047
:104320004E2BF4D190F82230552BF0D190F8233059
:10433000432BECD190F82430432BE8D190F8253072
:104340002B2BE4D190F826302B2BE0D190F827309E
:10435000012BDCD84369002B05DB013B08D05A1C3C
:104360000DD0436108BD0133FBD101691160F8E74D
:10437000036913602030BDE8084008F0E7BC00F096
:1043800083FC08BD10B5034B0360044600F050FEEB
:10439000204610BD3C39010010B5054B03600446B2
:1043A00000F046FE2046FFF72BFC204610BD00BF64
:1043B0003C3901002DE9F04F81B00E4619461F46E9
:1043C000914683460A9CDDF82CA0DDF830800D9DD7
:1043D00000F086FC70B1002E2C6085F804901FDB85
:1043E0003444A0450CBF06240124AC71002001B068
:1043F000BDE8F08F444518D0DBF80800D0F800E0A5
:104400000D95CDF83080CDF82CA00A94DEF81C4034
:104410003B464A463146A44601B0BDE8F04F6047EE
:104420000236E3D10123AB71E0E75146584600F074
:1044300057FC0028E0D0002085F8059001B0BDE8C9
:10444000F08F00BF70B582B00D46069C94420646C0
:1044500009D0B06806680694346A2946A44602B0BA
:10446000BDE87040604719460192009300F038FCA7
:10447000009B019A0028ECD0062002B070BD00BF5E
:104480002DE9F04107460C4615461E4600F0E8FDB2
:1044900008B1BDE8F081B86807682146BC693346B9
:1044A0002A46A446BDE8F041604700BF012810B588
:1044B0001AD8BFF35F8FA1F1280353E8002F013A08
:1044C00043E800200028F8D1BFF35F8F5AB951F8B4
:1044D0001C3C01F158040BB1204698472046BDE82A
:1044E000104000F097BC10BD51F8140C00F0B8FB60
:1044F000F8B504460F46164600F0A0FB43680125B8
:104500002B44436044F8787C44F8746C44F8805C35
:1045100000F0DAFB44F8700C00F0CEFB4723432296
:104520004FF04E0E104904F8583CA4F158052B23C7
:104530005527002644F86C0C04F857EC44F8501C3E
:1045400004F8552C04F8542C04F8533C04F8523C5D
:1045500004F8567C04F8516C284608F09BFF284666
:10456000FFF784FE00F090FBAD44000010B500F0B2
:1045700065FB42680368013242606BB193F820200A
:10458000472A0BD00022026003F12004204608F0E5
:10459000A5FF2046FFF76AFE00F076FB93F8212086
:1045A0004E2AEFD193F82220552AEBD193F82320FD
:1045B000432AE7D193F82420432AE3D193F8252016
:1045C0002B2ADFD193F826202B2ADBD193F8272042
:1045D000012AD7D85A6952425A61D5E75028F8B50E
:1045E00054D000F00F040C2C4ED8DFE804F007394B
:1045F0004907174D4D4D4D1F1B071700154655F820
:10460000044B44B100F07006102E18BF0A46144443
:10461000020648BF24681C602846F8BD154655F8B8
:10462000084BEEE7154635F9024BEAE7002427462A
:10463000154615F801EB0EF07F06BE401EF0800F08
:1046400044EA060407F10707F3D11F2FD9D81EF05B
:10465000400FD6D04FF0FF3606FA07F73C43D1E7BC
:1046600000242746154615F801EB0EF07F06BE40E4
:104670001EF0800F44EA060407F10707F3D1C0E7F4
:10468000154635F8024BBCE7FEF794F9033222F0E9
:10469000030555F8044B1C602846F8BDFF2815D0CB
:1046A00008B500F07003202B12D00AD9402B14D08B
:1046B000502B17D0302B07D10846BDE8084009F031
:1046C000E9B87BB1102B0DD0FEF774F900207047CC
:1046D0000846BDE8084009F0D9B80846BDE80840DA
:1046E00009F0C4B8002008BDF8B50C4615460746C9
:1046F000002844D009F0BAF828602678FF2E04F18B
:10470000010432D039463046FFF7C8FF2246014641
:104710002B1D3046FFF762FF0446601C23782B7583
:10472000FF2B29D0102300242B75224610F8011BE3
:1047300001F07F039340090644EA030402F10702F3
:10474000F4D40444EC6003786B75002401302246F5
:1047500010F8011B01F07F0393401C430B0602F18C
:104760000702F5D404442C61F8BD686023782B75EA
:10477000FF2B04F10100D5D10023EB60E3E7BBE799
:104780002DE9F04F00F0030497B00023012C894677
:1047900090460A9321D00ED3022C0AD141464846B6
:1047A00009F050F8002800F0D480092017B0BDE8C7
:1047B000F08FFEF7FFF800F0080000F0FF0300287C
:1047C000ECD116AA404642F82C1D194600920C2244
:1047D00008F0E8FA0123049313E000F0080000F069
:1047E000FF04002800F0B98016AA44F0020442F841
:1047F0002C1DE4B2009219460C224046049408F0A5
:10480000D1FA404609F038F805900028C6D010AB20
:104810001A46059906934046FFF766FF414604464F
:104820009DF85400FFF73AFF0DF13C0B0023129066
:1048300019460F22CDF800B0404608F08DFA0F9BC4
:10484000149A23F00103944203F1FF3643D20DF191
:10485000340A0EAF9DF8555000212846FFF71EFF81
:104860002246534601462846FFF7B8FE9DF85540BC
:10487000054600212046FFF711FF2A463B46014628
:104880002046FFF7ABFE9DF8554005460021204627
:10489000FFF704FF2A4601465B462046FFF79EFECF
:1048A00004460020024614F8011B01F07F039340E8
:1048B0000D0640EA030002F10702F4D4109A0D9BA2
:1048C00013449E4207D30E9A13449E42C0F0BA800E
:1048D000149BA342BED8002503950124049BDB074B
:1048E00056D4049B190740F1A880012C00F09D814B
:1048F0000DF1340A0EAF16A9002341F8289D1A467F
:1049000000914046194608F04DFA0023194601224D
:10491000CDF800A040460D9508F044FA0023194652
:104920000F220097404608F017FA0E9B039A009753
:1049300003F0010500231543404619460F220E954A
:1049400008F030FA022C00F0F580072017B0BDE81F
:10495000F08F082017B0BDE8F08F10AB00930693DE
:104960000D22234621464046D9F8205008F0F4F99C
:10497000109B9D4224D016AA234642F82C9D214626
:10498000009240460C2208F00DFA0223049338E707
:104990000EAF002319460D22009740460A9C08F0EE
:1049A000DBF9059A0E9BC9F82C20039AC9F824401C
:1049B000C9F82850C9F83020C9F820300620F5E69B
:1049C00016AA234642F82C9D2146009240460C220E
:1049D00008F0E8F9D9F83030039383B3D9F82C30D4
:1049E000D9F82850059303240DF1340A0EAF002D99
:1049F00081DA069A05994046FFF776FE41469DF812
:104A00005400FFF74BFEAA0082F00302D243139E2C
:104A10001290B358164433B13246002352F8041FA3
:104A200001330029FAD10422C9F82830C9F82C0032
:104A3000C9F83460C9F830205DE7012CD4D148466C
:104A400000F03CFD0F9B002B3FF4A8AE119A1344DD
:104A50000393002800F0D680149C01380444002BF6
:104A60003FF49CAE002C00F0D180049B13F00803AF
:104A7000099300F0BD8047224E2389F8002089F871
:104A800001305522432389F8022089F80330462259
:104A90004F2389F8042089F805305222002389F831
:104AA000062089F8073000230793CDF820800025E1
:104AB0002A4614F8011B01F07F039340080645EADB
:104AC000030502F10702F4D41F2A05D8490603D5CD
:104AD000012393405B421D4300263246204610F8D6
:104AE000011B01F07F0393401E430B0602F10702F6
:104AF000F5D41F2A05D8480603D5012393405B420D
:104B00001E43002D3DD03FDD9DF85400FF286DD0A1
:104B100000F00703042B3FF64CAE01A252F823F03D
:104B2000674B0000B3470000614B0000674B00007B
:104B30003F4B0000484600F0EFF9072036E6EB0057
:104B40005B42139A12991A443B46FFF747FD0E99B0
:104B500099B1B9F1000F09D1002E5ED03444A6E717
:104B60006B005B42EDE7AB005B42EAE70AAB002279
:104B7000484600F079F90028EED0DDF820800324C3
:104B8000ACE601230793E7E7B9F1000F01D0099BD9
:104B900093B16B1CC3EB8373139A52F82330002B31
:104BA000DAD1049BDDF82080DA073FF5F2AE099BED
:104BB000002B3CD000F076F805F10108C8EB8873B3
:104BC000139A0A9852F823100F9002EB830821B928
:104BD000E7E758F8041F0029E3D041445B46002270
:104BE000484600F041F90028F3D0B5E70023A8E7D4
:104BF00099F80730012B0CBF59F8203C09F15803F4
:104C00000A9350E7039B002B3FF4C8AD049B13F0BD
:104C100001057FF4C3AD022463E6079BDDF8208025
:104C2000002BF3D1BAE5FFF721FB00F02DF80324A8
:104C3000DDE600BF004870479095FF1F00487047B1
:104C40009095FF1F704700BF704700BF0048704736
:104C5000F839010010B50446FEF7D2FF204610BD1A
:104C600008B58047FDF7A6FEFFF700FBFDF7A2FEA3
:104C70000D460446FFF740FB013501D000F0EEF889
:104C8000204600F02BFC00BF08B5034B1868BFF3AB
:104C90005F8FFFF7E5FF00BF8888FF1F08B58047DB
:104CA000FFF7F2FF08B5034B1868BFF35F8FFFF7FC
:104CB000F5FF00BF8C88FF1F024B1868BFF35F8FA2
:104CC000704700BF8888FF1F024B1868BFF35F8FD3
:104CD000704700BF8C88FF1F704700BF00207047DF
:104CE000814211D008B5406803782A2B0AD0496860
:104CF0000B782A2B08BF013109F076FFB0FA80F05B
:104D0000400908BD002008BD01207047F0B41B4CCD
:104D100050F8087C6168A0F10806C9B1F519A942EC
:104D20001BD04A682AB3954203D322E09D4205D2A4
:104D30001A4653680C1D1146002BF7D111685518FF
:104D4000AE4213D040F8043C23685E60F0BC70476C
:104D500040F8041C6660F0BC70470B684A6840F875
:104D6000042C1F4440F8087C6660EFE7394411606A
:104D7000ECE7134604340A46E0E700BF9C95FF1FAA
:104D800030B4174C00F10803072B636886BF00F1AD
:104D90000F0121F007010821EBB11A68914204D8F4
:104DA0001BE002688A4205D2034658680028F8D101
:104DB00030BC70470433521A072A09D94418456891
:104DC00065604250186801601C60083030BC704754
:104DD00042681A60F9E71846EAE71846231DEAE731
:104DE0009C95FF1F38B500F18005284609F044F86E
:104DF000044638B180220021204609F007FC04F166
:104E0000800038BD2846FFF7BBFF04460028F1D1DB
:104E1000FFF73AFF064A93688038984205D9D2686E
:104E20001344984201D2FFF771BF09F02DB800BFBB
:104E30009C95FF1F38B5084C4FF41E652846E56069
:104E400009F01AF8A06020B100236060056043609B
:104E500038BDE060606038BD9C95FF1F1EB400F057
:104E60008DF81EBC08F028FBF0B50278472A83B005
:104E70000E461F461AD00023254C01932368204676
:104E80009B68984780B1019B1B680193022533689A
:104E9000214630461C6901AA0123A04710B1019B9D
:104EA0003B60284603B0F0BD0125F0E743784E2B68
:104EB000E1D18378552BDED1C378432B19D0C37849
:104EC000432BD8D10379432BD5D143792B2BD2D186
:104ED00083792B2BCFD1C379012BCCD804D050F8B8
:104EE000204C58300190C9E750F8200C50F8784C0D
:104EF000F8E70379462BE2D143794F2BDFD1837951
:104F0000522BDCD1C379002BD9D10193014CB5E7E9
:104F10000C3A0100B439010010B50446FFF78EFECB
:104F20002378472BA4F1200204D0836823BB82603E
:104F3000012010BD63784E2BF7D1A378552BF4D107
:104F4000E378432BF1D12379432BEED163792B2BDB
:104F5000EBD1A3792B2BE8D1E379012BE5D854F8D9
:104F6000043C0133012B44F8043CE1D1836844F84C
:104F7000083C8260012010BDFFF786FE08B5FFF7F0
:104F80005DFE836883B393F82020472A04D0002273
:104F9000826003F1200008BD93F821204E2AF6D14B
:104FA00093F82220552AF2D193F82320432AEED1F8
:104FB00093F82420432AEAD193F825202B2AE6D11E
:104FC00093F826202B2AE2D193F82720012ADED855
:104FD000DA69013ADA61002ADBD19A69826000223B
:104FE0009A6103F1200008BDFFF74EFE70B503681B
:104FF00084B000249E690094102315460293126821
:105000008DF804406B460394B0479DF8043003F0DC
:105010000603062B03BF009B2B600120204604B033
:1050200070BD00BF009890420CBF06200120704761
:1050300010B5034B03600446FFF74EFE204610BD3B
:10504000783A010010B5054B03600446FFF744FEB3
:105050002046FEF7D5FD204610BD00BF783A01007E
:1050600038B515461C46FFF73BFE20B10822062343
:105070002560E260237138BDF0B583B01746089D06
:105080000A990B9C8D4206460BD019463046FFF715
:1050900027FE18B1012325602771A371002003B0FA
:1050A000F0BD09990193FFF71BFE18B1002067714D
:1050B00003B0F0BD019BE8E72DE9F04117461C461F
:1050C00006460D46FFF70CFE08B9032C01D9BDE8D2
:1050D000F0812B683A46314628465B69BDE8F041CD
:1050E000184700BF4068704710B543680C4A0D4927
:1050F00001600446A3F10C00904282B005D1204625
:10510000FFF7A0FD204602B010BD53F8042C511E3D
:10511000002A43F8041CF2DC01A9FEF7A9FFEEE720
:105120008095FF1FF03A010010B50446FFF7DCFF41
:105130002046FEF765FD204610BD00BF10B5034BAD
:1051400003600446FFF7D0FF204610BD243B01005A
:1051500010B5054B03600446FFF7C6FF2046FEF777
:105160004FFD204610BD00BF243B010000487047A2
:10517000503B010010B5034B03600446FFF762FD8E
:10518000204610BD443B010010B5054B03600446AA
:10519000FFF758FD2046FEF733FD204610BD00BF47
:1051A000443B0100184B1A68D1075CBF01221A600A
:1051B000164B1A68D2075CBF01221A60144B1A689A
:1051C000D0075CBF01221A60124B1A68D1075CBF7E
:1051D00001221A60104B1A68D2075CBF01221A60C4
:1051E0000E4B1A68D0075CBF01221A600C4B1A687C
:1051F000D1075CBF01221A600A4B1A68D2075CBF54
:1052000001221A60704700BFC895FF1FC495FF1F99
:10521000C095FF1FBC95FF1FB895FF1FB495FF1FDA
:10522000B095FF1FAC95FF1F244B1A68D0075CBFD9
:1052300001221A60224B1A68D1075CBF01221A6052
:10524000204B1A68D2075CBF01221A601E4B1A68F5
:10525000D0075CBF01221A601C4B1A68D1075CBFE3
:1052600001221A601A4B1A68D2075CBF01221A6029
:10527000184B1A68D0075CBF01221A60164B1A68D7
:10528000D1075CBF01221A60144B1A68D2075CBFB9
:1052900001221A60124B1A68D0075CBF01221A6003
:1052A000104B1A68D1075CBF01221A600E4B1A68B6
:1052B000D2075CBF01221A60704700BFF895FF1F3C
:1052C000F495FF1FF095FF1FEC95FF1FE895FF1F5A
:1052D000E495FF1FE095FF1FDC95FF1FD895FF1F8A
:1052E000D495FF1FD095FF1FCC95FF1F244B1A6844
:1052F000D0075CBF01221A60224B1A68D1075CBF3D
:1053000001221A60204B1A68D2075CBF01221A6082
:105310001E4B1A68D0075CBF01221A601C4B1A682A
:10532000D1075CBF01221A601A4B1A68D2075CBF12
:1053300001221A60184B1A68D0075CBF01221A605C
:10534000164B1A68D1075CBF01221A60144B1A6809
:10535000D2075CBF01221A60124B1A68D0075CBFEB
:1053600001221A60104B1A68D1075CBF01221A6033
:105370000E4B1A68D2075CBF01221A60704700BF4B
:105380002896FF1F2496FF1F2096FF1F1C96FF1FC5
:105390001896FF1F1496FF1F1096FF1F0C96FF1FF5
:1053A0000896FF1F0496FF1F0096FF1FFC95FF1F26
:1053B000184B1A68D1075CBF01221A60164B1A6895
:1053C000D2075CBF01221A60144B1A68D0075CBF79
:1053D00001221A60124B1A68D1075CBF01221A60C1
:1053E000104B1A68D2075CBF01221A600E4B1A6874
:1053F000D0075CBF01221A600C4B1A68D1075CBF52
:1054000001221A600A4B1A68D2075CBF01221A6097
:10541000704700BF4896FF1F4496FF1F4096FF1F2E
:105420003C96FF1F3896FF1F3496FF1F3096FF1FD4
:105430002C96FF1F0868B0F1004F08B51BD29042B0
:105440000ED9520090420BD2B2F1004F0DD36FF043
:1054500000430B604FF00040BDE80840FEF7CEBBB4
:105460000130BDE80840FEF7C9BB0A60501CBDE82A
:105470000840FEF7C3BB0148FEF756FD7C3B010028
:105480000378472B01D00020704743784E2BFAD188
:105490008378552BF7D1C378432BF4D10379432B71
:1054A000F1D143792B2BEED183792B2BEBD1C07922
:1054B00001288CBF00200120704700BF10B530B11B
:1054C0000446FEF7D3FE2046FFF7DAFF08B9FFF7E0
:1054D000DBFB54F8140CFFF7C3FB00BF2DE9F04FC2
:1054E00085B00246FFF7CCFF60B152F8188C52F835
:1054F000145C966A176B546B1046FEF7B7FE404675
:10550000FFF7CCFB1046FEF7B1FEFFF7CBFBFEF733
:10551000ADFEFFF7B9FBFEF7A9FEFFF78BFBD0F856
:10552000008098F82730012B38D008F178030DF16E
:10553000100A4FF000094AF8083D27F003030093D2
:10554000CB46B3451EDA276807B1274453460022ED
:10555000394608F12000FFF787FC28BB3B68164955
:105560001B69019304AA012342F8040D3846019FE8
:10557000B847009B002818BF4FF001090BF1010B41
:105580001C44DEE7B9F1000F0BD00420FFF72AFC22
:105590000A4B03600A4A0849FEF7AAFFD8F8003010
:1055A000C5E72846FFF75CFBFEF7E0FFFEF7A4FE29
:1055B000FEF7A2FEFFF752FC4C3A01001C3A010034
:1055C000494C000070B53D4B1A7882B0002A36D1A4
:1055D00001241C7006F000F900285CD04068384DAA
:1055E00003782A2B02AB4FF0FF320CBF041904469C
:1055F00043F8042D00221146204606F07DF82B6862
:105600000646DB682F483022012108F065FB019B2C
:105610007BB12B682046D96808F08EF92B682A48A0
:10562000DB680222012108F057FB019B8BB1FEF7DA
:105630009DFF2B683046D96808F07EF9EEE7204BD5
:1056400022481B681D22DB68012108F045FBFDF79D
:10565000B1F9304608F018FCE9E701290C4627D1DA
:10566000FEF704FE03689B6898472B680646DB68D4
:10567000174821460B2208F02FFB2B683046D968CB
:1056800008F05AF92B680A20D96808F019F9FEF7D2
:1056900033FEFDF78FF90A4B0E481B682146DB6885
:1056A0002D2208F019FBF4E7FEF726FEFFF7D6FBE4
:1056B000FEF7DCFDFEF720FEEBE700BF4C96FF1F78
:1056C000B88CFF1FE03B0100143C0100C03B01000F
:1056D000483C0100183C010070B44C1E4B2C2CD8E7
:1056E000DFE804F03C3C3C3C2B2B2B2B26263C26B5
:1056F00026262626262626262626262B2727272741
:10570000272727273C26262626262B26273D3C2BE7
:105710003C27273D2B2B2626263C3C3C3C3C263C6C
:105720003C263C2B2B2626262B2B2B2626263C3CA8
:10573000CAB144698569AC4202DB002070BC704785
:1057400004EB440506690134AD00446174190CD0C2
:1057500071556260A360204670BC70471AB1002B7F
:10576000E7D11846EAE71046E8E72046E6E700BF3B
:105770002DE9F047C368B2F1000A04460F461A78D3
:1057800015BF4FF01C084FF019084FF01D094FF0DE
:105790001A0914BF1E261B260D4612E0562A1BD0DE
:1057A0004B2A22D1236BE160063323633146002369
:1057B0001A462046FFF790FF2860A0B1E3681A78E8
:1057C000051D722A03F10101E8D1226B0133093270
:1057D000E36022634146EAE7226B01330932E3606A
:1057E00022634946E3E7BDE8F087BAF1000F01D133
:1057F000462A02D02846BDE8F087BD42FAD01D20D7
:105800001E211C2207E01B2B0BD0192B00D13A7054
:105810000437BD42EED03F683B781A2BF3D1387085
:10582000F6E73970F4E700BF10B4C3681C78522C57
:105830000A460DD04F2C02D0084610BC7047016BB1
:105840000331016320210133C36010BC002343E70F
:10585000016B023101631F21F5E700BF002A4CD024
:1058600070B505460E4614462378013B4B2B2AD8CB
:10587000DFE803F03535353E29292626353535351F
:1058800035353535353535353535352935353535D4
:105890003535353535352E2E353529353535352ADD
:1058A00035353535292635353535353535353535C3
:1058B0003535352929352A2A2A2A293535353535E8
:1058C000A468002CD0D170BD6468002CCCD1FAE75C
:1058D00062681378052B03D1336801333360626843
:1058E00031462846FFF7BAFFA468002CBCD1EAE78E
:1058F0002B6801332B606268F2E770477AB32DE9B9
:10590000F0410D460446D0F80011AF184FF00008E2
:1059100009E00B46BD4201F10101C4F80011E65453
:1059200084F8046119D0FF2915F8016BF1D1D4F87E
:10593000083184F8FF80D4F80C2120469847D4F829
:1059400020310133C4F8203100230121BD42C4F8C5
:105950000011E65484F80461E5D1BDE8F081704798
:1059600030B403681A786E2A044616D0A2F13001CA
:1059700009291CD8002500200133236000EB80009A
:1059800002EB40001A78A2F130010929A0F13000A1
:10599000F2D905B1404230BC7047591C01605A78B9
:1059A000A2F13003092B02D80B460125E3E70020C2
:1059B000F1E700BF43698269934214DA03EB4302C3
:1059C0000169920010B501338C18436108D041235E
:1059D0008B540C30FFF7C4FF23466060184610BD9F
:1059E0002346184610BD00231846704710B5C368FB
:1059F0001A785F2A04460DD06E2A0FD00C30FFF7BC
:105A0000AFFF01300AD4E3681A785F2A06D1013368
:105A1000E36010BD01330020E36010BD4FF0FF30A4
:105A200010BD00BF38B5C3681A78542A01D00020D1
:105A300038BD0133C3600446FFF7D8FF051EF6DB0F
:105A4000A26A6369A16901328B42A262EFDA03EBB9
:105A5000430221690133920063618B18E7D005206E
:105A600088545D60184638BD70B504460C30FFF7A9
:105A700077FF061E4EDDE56863685B1B9E422CDCEB
:105A8000A268AB195207E36004D5AA5D242A04BFBB
:105A90000133E360092E0CDD08221F49284608F077
:105AA0001FFD30B92B7A2E2B1AD05F2B18D0242B48
:105AB00016D06369A26993420FDA03EB43022169AE
:105AC0000133920063618B1807D035B100208854F0
:105AD00018465D609E60E06270BD0020E06270BDAF
